{
  "address": "0x79ca4C32E8C05A8577474B3Afa99cAe99310CF63",
  "abi": [
    {
      "inputs": [
        {
          "internalType": "address",
          "name": "_metadataManager",
          "type": "address"
        },
        {
          "internalType": "address",
          "name": "_supplyManager",
          "type": "address"
        },
        {
          "internalType": "uint256",
          "name": "_firstSupplyChangeAllowed",
          "type": "uint256"
        }
      ],
      "stateMutability": "nonpayable",
      "type": "constructor"
    },
    {
      "anonymous": false,
      "inputs": [
        {
          "indexed": true,
          "internalType": "address",
          "name": "owner",
          "type": "address"
        },
        {
          "indexed": true,
          "internalType": "address",
          "name": "spender",
          "type": "address"
        },
        {
          "indexed": false,
          "internalType": "uint256",
          "name": "value",
          "type": "uint256"
        }
      ],
      "name": "Approval",
      "type": "event"
    },
    {
      "anonymous": false,
      "inputs": [
        {
          "indexed": true,
          "internalType": "address",
          "name": "authorizer",
          "type": "address"
        },
        {
          "indexed": true,
          "internalType": "bytes32",
          "name": "nonce",
          "type": "bytes32"
        }
      ],
      "name": "AuthorizationUsed",
      "type": "event"
    },
    {
      "anonymous": false,
      "inputs": [
        {
          "indexed": true,
          "internalType": "address",
          "name": "oldManager",
          "type": "address"
        },
        {
          "indexed": true,
          "internalType": "address",
          "name": "newManager",
          "type": "address"
        }
      ],
      "name": "MetadataManagerChanged",
      "type": "event"
    },
    {
      "anonymous": false,
      "inputs": [
        {
          "indexed": true,
          "internalType": "uint16",
          "name": "oldMintCap",
          "type": "uint16"
        },
        {
          "indexed": true,
          "internalType": "uint16",
          "name": "newMintCap",
          "type": "uint16"
        }
      ],
      "name": "MintCapChanged",
      "type": "event"
    },
    {
      "anonymous": false,
      "inputs": [
        {
          "indexed": true,
          "internalType": "uint32",
          "name": "oldWaitingPeriod",
          "type": "uint32"
        },
        {
          "indexed": true,
          "internalType": "uint32",
          "name": "newWaitingPeriod",
          "type": "uint32"
        }
      ],
      "name": "SupplyChangeWaitingPeriodChanged",
      "type": "event"
    },
    {
      "anonymous": false,
      "inputs": [
        {
          "indexed": true,
          "internalType": "address",
          "name": "oldManager",
          "type": "address"
        },
        {
          "indexed": true,
          "internalType": "address",
          "name": "newManager",
          "type": "address"
        }
      ],
      "name": "SupplyManagerChanged",
      "type": "event"
    },
    {
      "anonymous": false,
      "inputs": [
        {
          "indexed": true,
          "internalType": "string",
          "name": "name",
          "type": "string"
        },
        {
          "indexed": true,
          "internalType": "string",
          "name": "symbol",
          "type": "string"
        }
      ],
      "name": "TokenMetaUpdated",
      "type": "event"
    },
    {
      "anonymous": false,
      "inputs": [
        {
          "indexed": true,
          "internalType": "address",
          "name": "from",
          "type": "address"
        },
        {
          "indexed": true,
          "internalType": "address",
          "name": "to",
          "type": "address"
        },
        {
          "indexed": false,
          "internalType": "uint256",
          "name": "value",
          "type": "uint256"
        }
      ],
      "name": "Transfer",
      "type": "event"
    },
    {
      "inputs": [],
      "name": "DOMAIN_TYPEHASH",
      "outputs": [
        {
          "internalType": "bytes32",
          "name": "",
          "type": "bytes32"
        }
      ],
      "stateMutability": "view",
      "type": "function"
    },
    {
      "inputs": [],
      "name": "PERMIT_TYPEHASH",
      "outputs": [
        {
          "internalType": "bytes32",
          "name": "",
          "type": "bytes32"
        }
      ],
      "stateMutability": "view",
      "type": "function"
    },
    {
      "inputs": [],
      "name": "TRANSFER_WITH_AUTHORIZATION_TYPEHASH",
      "outputs": [
        {
          "internalType": "bytes32",
          "name": "",
          "type": "bytes32"
        }
      ],
      "stateMutability": "view",
      "type": "function"
    },
    {
      "inputs": [],
      "name": "VERSION_HASH",
      "outputs": [
        {
          "internalType": "bytes32",
          "name": "",
          "type": "bytes32"
        }
      ],
      "stateMutability": "view",
      "type": "function"
    },
    {
      "inputs": [
        {
          "internalType": "address",
          "name": "account",
          "type": "address"
        },
        {
          "internalType": "address",
          "name": "spender",
          "type": "address"
        }
      ],
      "name": "allowance",
      "outputs": [
        {
          "internalType": "uint256",
          "name": "",
          "type": "uint256"
        }
      ],
      "stateMutability": "view",
      "type": "function"
    },
    {
      "inputs": [
        {
          "internalType": "address",
          "name": "spender",
          "type": "address"
        },
        {
          "internalType": "uint256",
          "name": "amount",
          "type": "uint256"
        }
      ],
      "name": "approve",
      "outputs": [
        {
          "internalType": "bool",
          "name": "",
          "type": "bool"
        }
      ],
      "stateMutability": "nonpayable",
      "type": "function"
    },
    {
      "inputs": [
        {
          "internalType": "address",
          "name": "",
          "type": "address"
        },
        {
          "internalType": "bytes32",
          "name": "",
          "type": "bytes32"
        }
      ],
      "name": "authorizationState",
      "outputs": [
        {
          "internalType": "bool",
          "name": "",
          "type": "bool"
        }
      ],
      "stateMutability": "view",
      "type": "function"
    },
    {
      "inputs": [
        {
          "internalType": "address",
          "name": "account",
          "type": "address"
        }
      ],
      "name": "balanceOf",
      "outputs": [
        {
          "internalType": "uint256",
          "name": "",
          "type": "uint256"
        }
      ],
      "stateMutability": "view",
      "type": "function"
    },
    {
      "inputs": [
        {
          "internalType": "address",
          "name": "src",
          "type": "address"
        },
        {
          "internalType": "uint256",
          "name": "amount",
          "type": "uint256"
        }
      ],
      "name": "burn",
      "outputs": [
        {
          "internalType": "bool",
          "name": "",
          "type": "bool"
        }
      ],
      "stateMutability": "nonpayable",
      "type": "function"
    },
    {
      "inputs": [],
      "name": "decimals",
      "outputs": [
        {
          "internalType": "uint8",
          "name": "",
          "type": "uint8"
        }
      ],
      "stateMutability": "view",
      "type": "function"
    },
    {
      "inputs": [],
      "name": "getDomainSeparator",
      "outputs": [
        {
          "internalType": "bytes32",
          "name": "",
          "type": "bytes32"
        }
      ],
      "stateMutability": "view",
      "type": "function"
    },
    {
      "inputs": [],
      "name": "metadataManager",
      "outputs": [
        {
          "internalType": "address",
          "name": "",
          "type": "address"
        }
      ],
      "stateMutability": "view",
      "type": "function"
    },
    {
      "inputs": [
        {
          "internalType": "address",
          "name": "dst",
          "type": "address"
        },
        {
          "internalType": "uint256",
          "name": "amount",
          "type": "uint256"
        }
      ],
      "name": "mint",
      "outputs": [
        {
          "internalType": "bool",
          "name": "",
          "type": "bool"
        }
      ],
      "stateMutability": "nonpayable",
      "type": "function"
    },
    {
      "inputs": [],
      "name": "mintCap",
      "outputs": [
        {
          "internalType": "uint16",
          "name": "",
          "type": "uint16"
        }
      ],
      "stateMutability": "view",
      "type": "function"
    },
    {
      "inputs": [],
      "name": "name",
      "outputs": [
        {
          "internalType": "string",
          "name": "",
          "type": "string"
        }
      ],
      "stateMutability": "view",
      "type": "function"
    },
    {
      "inputs": [
        {
          "internalType": "address",
          "name": "",
          "type": "address"
        }
      ],
      "name": "nonces",
      "outputs": [
        {
          "internalType": "uint256",
          "name": "",
          "type": "uint256"
        }
      ],
      "stateMutability": "view",
      "type": "function"
    },
    {
      "inputs": [
        {
          "internalType": "address",
          "name": "owner",
          "type": "address"
        },
        {
          "internalType": "address",
          "name": "spender",
          "type": "address"
        },
        {
          "internalType": "uint256",
          "name": "value",
          "type": "uint256"
        },
        {
          "internalType": "uint256",
          "name": "deadline",
          "type": "uint256"
        },
        {
          "internalType": "uint8",
          "name": "v",
          "type": "uint8"
        },
        {
          "internalType": "bytes32",
          "name": "r",
          "type": "bytes32"
        },
        {
          "internalType": "bytes32",
          "name": "s",
          "type": "bytes32"
        }
      ],
      "name": "permit",
      "outputs": [],
      "stateMutability": "nonpayable",
      "type": "function"
    },
    {
      "inputs": [
        {
          "internalType": "address",
          "name": "newMetadataManager",
          "type": "address"
        }
      ],
      "name": "setMetadataManager",
      "outputs": [
        {
          "internalType": "bool",
          "name": "",
          "type": "bool"
        }
      ],
      "stateMutability": "nonpayable",
      "type": "function"
    },
    {
      "inputs": [
        {
          "internalType": "uint16",
          "name": "newCap",
          "type": "uint16"
        }
      ],
      "name": "setMintCap",
      "outputs": [
        {
          "internalType": "bool",
          "name": "",
          "type": "bool"
        }
      ],
      "stateMutability": "nonpayable",
      "type": "function"
    },
    {
      "inputs": [
        {
          "internalType": "uint32",
          "name": "period",
          "type": "uint32"
        }
      ],
      "name": "setSupplyChangeWaitingPeriod",
      "outputs": [
        {
          "internalType": "bool",
          "name": "",
          "type": "bool"
        }
      ],
      "stateMutability": "nonpayable",
      "type": "function"
    },
    {
      "inputs": [
        {
          "internalType": "address",
          "name": "newSupplyManager",
          "type": "address"
        }
      ],
      "name": "setSupplyManager",
      "outputs": [
        {
          "internalType": "bool",
          "name": "",
          "type": "bool"
        }
      ],
      "stateMutability": "nonpayable",
      "type": "function"
    },
    {
      "inputs": [],
      "name": "supplyChangeAllowedAfter",
      "outputs": [
        {
          "internalType": "uint256",
          "name": "",
          "type": "uint256"
        }
      ],
      "stateMutability": "view",
      "type": "function"
    },
    {
      "inputs": [],
      "name": "supplyChangeWaitingPeriod",
      "outputs": [
        {
          "internalType": "uint32",
          "name": "",
          "type": "uint32"
        }
      ],
      "stateMutability": "view",
      "type": "function"
    },
    {
      "inputs": [],
      "name": "supplyChangeWaitingPeriodMinimum",
      "outputs": [
        {
          "internalType": "uint32",
          "name": "",
          "type": "uint32"
        }
      ],
      "stateMutability": "view",
      "type": "function"
    },
    {
      "inputs": [],
      "name": "supplyManager",
      "outputs": [
        {
          "internalType": "address",
          "name": "",
          "type": "address"
        }
      ],
      "stateMutability": "view",
      "type": "function"
    },
    {
      "inputs": [],
      "name": "symbol",
      "outputs": [
        {
          "internalType": "string",
          "name": "",
          "type": "string"
        }
      ],
      "stateMutability": "view",
      "type": "function"
    },
    {
      "inputs": [],
      "name": "totalSupply",
      "outputs": [
        {
          "internalType": "uint256",
          "name": "",
          "type": "uint256"
        }
      ],
      "stateMutability": "view",
      "type": "function"
    },
    {
      "inputs": [
        {
          "internalType": "address",
          "name": "dst",
          "type": "address"
        },
        {
          "internalType": "uint256",
          "name": "amount",
          "type": "uint256"
        }
      ],
      "name": "transfer",
      "outputs": [
        {
          "internalType": "bool",
          "name": "",
          "type": "bool"
        }
      ],
      "stateMutability": "nonpayable",
      "type": "function"
    },
    {
      "inputs": [
        {
          "internalType": "address",
          "name": "src",
          "type": "address"
        },
        {
          "internalType": "address",
          "name": "dst",
          "type": "address"
        },
        {
          "internalType": "uint256",
          "name": "amount",
          "type": "uint256"
        }
      ],
      "name": "transferFrom",
      "outputs": [
        {
          "internalType": "bool",
          "name": "",
          "type": "bool"
        }
      ],
      "stateMutability": "nonpayable",
      "type": "function"
    },
    {
      "inputs": [
        {
          "internalType": "address",
          "name": "from",
          "type": "address"
        },
        {
          "internalType": "address",
          "name": "to",
          "type": "address"
        },
        {
          "internalType": "uint256",
          "name": "value",
          "type": "uint256"
        },
        {
          "internalType": "uint256",
          "name": "validAfter",
          "type": "uint256"
        },
        {
          "internalType": "uint256",
          "name": "validBefore",
          "type": "uint256"
        },
        {
          "internalType": "bytes32",
          "name": "nonce",
          "type": "bytes32"
        },
        {
          "internalType": "uint8",
          "name": "v",
          "type": "uint8"
        },
        {
          "internalType": "bytes32",
          "name": "r",
          "type": "bytes32"
        },
        {
          "internalType": "bytes32",
          "name": "s",
          "type": "bytes32"
        }
      ],
      "name": "transferWithAuthorization",
      "outputs": [],
      "stateMutability": "nonpayable",
      "type": "function"
    },
    {
      "inputs": [
        {
          "internalType": "string",
          "name": "tokenName",
          "type": "string"
        },
        {
          "internalType": "string",
          "name": "tokenSymbol",
          "type": "string"
        }
      ],
      "name": "updateTokenMetadata",
      "outputs": [
        {
          "internalType": "bool",
          "name": "",
          "type": "bool"
        }
      ],
      "stateMutability": "nonpayable",
      "type": "function"
    }
  ],
  "transactionHash": "0xaf3cd47d07b0ffe35041ef70e041a2e3671814a93eabce5b2abad3c1122eacd5",
  "args": [
    "0xFd90411B0c246743aE0000BB18c723A3BB909Dee",
    "0xa52422BB8c29E4d55243d310fB6BAe793162452e",
    1605197103558
  ],
  "solcInputHash": "8a9436a4503896a69b11c25f947338f2",
  "bytecode": "0x60806040526040518060400160405280601b81526020017f4172636865722044414f20476f7665726e616e636520546f6b656e0000000000815250600090805190602001906200005192919062000386565b506040518060400160405280600481526020017f4152434800000000000000000000000000000000000000000000000000000000815250600190805190602001906200009f92919062000386565b506a52b7d2dcc80cd2e40000006002556301e13380600660006101000a81548163ffffffff021916908363ffffffff160217905550614e20600660046101000a81548161ffff021916908361ffff1602179055503480156200010057600080fd5b506040516200415b3803806200415b83398181016040528101906200012691906200046a565b428110156200016c576040517f08c379a0000000000000000000000000000000000000000000000000000000008152600401620001639062000539565b60405180910390fd5b600254600860003373ffffffffffffffffffffffffffffffffffffffff1673ffffffffffffffffffffffffffffffffffffffff168152602001908152602001600020819055503373ffffffffffffffffffffffffffffffffffffffff16600073ffffffffffffffffffffffffffffffffffffffff167fddf252ad1be2c89b69c2b068fc378daa952ba7f163c4a11628f55a4df523b3ef6002546040516200021491906200055b565b60405180910390a38060058190555081600360006101000a81548173ffffffffffffffffffffffffffffffffffffffff021916908373ffffffffffffffffffffffffffffffffffffffff1602179055508173ffffffffffffffffffffffffffffffffffffffff16600073ffffffffffffffffffffffffffffffffffffffff167f0cff5c8e2b1e51135595ff4ebaefab9ef5b26373c3b84cbdc4677bb41468843b60405160405180910390a382600460006101000a81548173ffffffffffffffffffffffffffffffffffffffff021916908373ffffffffffffffffffffffffffffffffffffffff160217905550600460009054906101000a900473ffffffffffffffffffffffffffffffffffffffff1673ffffffffffffffffffffffffffffffffffffffff16600073ffffffffffffffffffffffffffffffffffffffff167f65e484da94d3a093b70b54f45dda42146a4e7f7f6507a09e39f67ca388987d3e60405160405180910390a3505050620005fb565b828054600181600116156101000203166002900490600052602060002090601f016020900481019282620003be57600085556200040a565b82601f10620003d957805160ff19168380011785556200040a565b828001600101855582156200040a579182015b8281111562000409578251825591602001919060010190620003ec565b5b5090506200041991906200041d565b5090565b5b80821115620004385760008160009055506001016200041e565b5090565b6000815190506200044d81620005c7565b92915050565b6000815190506200046481620005e1565b92915050565b6000806000606084860312156200048057600080fd5b600062000490868287016200043c565b9350506020620004a3868287016200043c565b9250506040620004b68682870162000453565b9150509250925092565b6000620004cf603a8362000578565b91507f417263683a3a636f6e7374727563746f723a206d696e74696e672063616e206f60008301527f6e6c7920626567696e206166746572206465706c6f796d656e740000000000006020830152604082019050919050565b6200053381620005bd565b82525050565b600060208201905081810360008301526200055481620004c0565b9050919050565b600060208201905062000572600083018462000528565b92915050565b600082825260208201905092915050565b600062000596826200059d565b9050919050565b600073ffffffffffffffffffffffffffffffffffffffff82169050919050565b6000819050919050565b620005d28162000589565b8114620005de57600080fd5b50565b620005ec81620005bd565b8114620005f857600080fd5b50565b613b50806200060b6000396000f3fe608060405234801561001057600080fd5b50600436106101e55760003560e01c806376c71ca11161010f578063a9059cbb116100a2578063e544202611610071578063e5442026146105e8578063e94a010214610618578063ed24911d14610648578063f147389f14610666576101e5565b8063a9059cbb14610550578063d505accf14610580578063dd62ed3e1461059c578063e3ee160e146105cc576101e5565b806395d89b41116100de57806395d89b41146104c65780639dc29fac146104e45780639e4e731814610514578063a0cc6a6814610532576101e5565b806376c71ca11461043c5780637ecebe001461045a578063892b0edf1461048a578063941acc49146104a8576101e5565b80631d4f807211610187578063313ce56711610156578063313ce567146103a057806340c10f19146103be5780634c9e91a4146103ee57806370a082311461040c576101e5565b80631d4f80721461030457806320606b701461033457806323b872dd1461035257806330adf81f14610382576101e5565b8063124cc077116101c3578063124cc0771461025657806318160ddd14610286578063191250d7146102a45780631bb8a4c6146102d4576101e5565b8063055c6e19146101ea57806306fdde0314610208578063095ea7b314610226575b600080fd5b6101f2610684565b6040516101ff91906138a0565b60405180910390f35b61021061068b565b60405161021d91906135e8565b60405180910390f35b610240600480360381019061023b9190612929565b610729565b60405161024d919061344a565b60405180910390f35b610270600480360381019061026b91906126d5565b610740565b60405161027d919061344a565b60405180910390f35b61028e610898565b60405161029b9190613885565b60405180910390f35b6102be60048036038101906102b991906126d5565b61089e565b6040516102cb919061344a565b60405180910390f35b6102ee60048036038101906102e991906129d1565b6109f6565b6040516102fb919061344a565b60405180910390f35b61031e600480360381019061031991906129fa565b610af4565b60405161032b919061344a565b60405180910390f35b61033c610c4e565b6040516103499190613465565b60405180910390f35b61036c6004803603810190610367919061273a565b610c75565b604051610379919061344a565b60405180910390f35b61038a610e74565b6040516103979190613465565b60405180910390f35b6103a8610e9b565b6040516103b591906138bb565b60405180910390f35b6103d860048036038101906103d39190612929565b610ea0565b6040516103e5919061344a565b60405180910390f35b6103f66110ac565b604051610403919061342f565b60405180910390f35b610426600480360381019061042191906126d5565b6110d2565b6040516104339190613885565b60405180910390f35b61044461111b565b604051610451919061386a565b60405180910390f35b610474600480360381019061046f91906126d5565b61112f565b6040516104819190613885565b60405180910390f35b610492611147565b60405161049f9190613885565b60405180910390f35b6104b061114d565b6040516104bd91906138a0565b60405180910390f35b6104ce611163565b6040516104db91906135e8565b60405180910390f35b6104fe60048036038101906104f99190612929565b611201565b60405161050b919061344a565b60405180910390f35b61051c611574565b6040516105299190613465565b60405180910390f35b61053a61159b565b6040516105479190613465565b60405180910390f35b61056a60048036038101906105659190612929565b6115c2565b604051610577919061344a565b60405180910390f35b61059a6004803603810190610595919061284f565b6115d9565b005b6105b660048036038101906105b191906126fe565b6116e3565b6040516105c39190613885565b60405180910390f35b6105e660048036038101906105e19190612789565b61176a565b005b61060260048036038101906105fd9190612965565b6119b7565b60405161060f919061344a565b60405180910390f35b610632600480360381019061062d91906128ed565b611adb565b60405161063f919061344a565b60405180910390f35b610650611b0a565b60405161065d9190613465565b60405180910390f35b61066e611ba3565b60405161067b919061342f565b60405180910390f35b6276a70081565b60008054600181600116156101000203166002900480601f0160208091040260200160405190810160405280929190818152602001828054600181600116156101000203166002900480156107215780601f106106f657610100808354040283529160200191610721565b820191906000526020600020905b81548152906001019060200180831161070457829003601f168201915b505050505081565b6000610736338484611bc9565b6001905092915050565b6000600460009054906101000a900473ffffffffffffffffffffffffffffffffffffffff1673ffffffffffffffffffffffffffffffffffffffff163373ffffffffffffffffffffffffffffffffffffffff16146107d2576040517f08c379a00000000000000000000000000000000000000000000000000000000081526004016107c9906136ca565b60405180910390fd5b8173ffffffffffffffffffffffffffffffffffffffff16600460009054906101000a900473ffffffffffffffffffffffffffffffffffffffff1673ffffffffffffffffffffffffffffffffffffffff167f65e484da94d3a093b70b54f45dda42146a4e7f7f6507a09e39f67ca388987d3e60405160405180910390a381600460006101000a81548173ffffffffffffffffffffffffffffffffffffffff021916908373ffffffffffffffffffffffffffffffffffffffff16021790555060019050919050565b60025481565b6000600360009054906101000a900473ffffffffffffffffffffffffffffffffffffffff1673ffffffffffffffffffffffffffffffffffffffff163373ffffffffffffffffffffffffffffffffffffffff1614610930576040517f08c379a00000000000000000000000000000000000000000000000000000000081526004016109279061384a565b60405180910390fd5b8173ffffffffffffffffffffffffffffffffffffffff16600360009054906101000a900473ffffffffffffffffffffffffffffffffffffffff1673ffffffffffffffffffffffffffffffffffffffff167f0cff5c8e2b1e51135595ff4ebaefab9ef5b26373c3b84cbdc4677bb41468843b60405160405180910390a381600360006101000a81548173ffffffffffffffffffffffffffffffffffffffff021916908373ffffffffffffffffffffffffffffffffffffffff16021790555060019050919050565b6000600360009054906101000a900473ffffffffffffffffffffffffffffffffffffffff1673ffffffffffffffffffffffffffffffffffffffff163373ffffffffffffffffffffffffffffffffffffffff1614610a88576040517f08c379a0000000000000000000000000000000000000000000000000000000008152600401610a7f9061368a565b60405180910390fd5b8161ffff16600660049054906101000a900461ffff1661ffff167f57fc526a0acf7c7e07dc107529df54483128b205abc107af2fa47020f82f121460405160405180910390a381600660046101000a81548161ffff021916908361ffff16021790555060019050919050565b6000600360009054906101000a900473ffffffffffffffffffffffffffffffffffffffff1673ffffffffffffffffffffffffffffffffffffffff163373ffffffffffffffffffffffffffffffffffffffff1614610b86576040517f08c379a0000000000000000000000000000000000000000000000000000000008152600401610b7d9061382a565b60405180910390fd5b6276a70063ffffffff168263ffffffff161015610bd8576040517f08c379a0000000000000000000000000000000000000000000000000000000008152600401610bcf9061376a565b60405180910390fd5b8163ffffffff16600660009054906101000a900463ffffffff1663ffffffff167f769f3176a8ee46ae63681a1a630bec4772f7af23a4eeec90eaff41a0e8f1ac6960405160405180910390a381600660006101000a81548163ffffffff021916908363ffffffff16021790555060019050919050565b7f8b73c3c69bb8fe3d512ecc4cf759cc79239f7b179b0ffacaa9a75d522b39400f60001b81565b6000803390506000600760008773ffffffffffffffffffffffffffffffffffffffff1673ffffffffffffffffffffffffffffffffffffffff16815260200190815260200160002060008373ffffffffffffffffffffffffffffffffffffffff1673ffffffffffffffffffffffffffffffffffffffff1681526020019081526020016000205490508573ffffffffffffffffffffffffffffffffffffffff168273ffffffffffffffffffffffffffffffffffffffff1614158015610d5857507fffffffffffffffffffffffffffffffffffffffffffffffffffffffffffffffff8114155b15610e5c576000610d728583611cb490919063ffffffff16565b905080600760008973ffffffffffffffffffffffffffffffffffffffff1673ffffffffffffffffffffffffffffffffffffffff16815260200190815260200160002060008573ffffffffffffffffffffffffffffffffffffffff1673ffffffffffffffffffffffffffffffffffffffff168152602001908152602001600020819055508273ffffffffffffffffffffffffffffffffffffffff168773ffffffffffffffffffffffffffffffffffffffff167f8c5be1e5ebec7d5bd14f71427d1e84f3dd0314c0f7b2291e5b200ac8c7c3b92583604051610e529190613885565b60405180910390a3505b610e67868686611cfe565b6001925050509392505050565b7f6e71edae12b1b97f4d1f60370fef10105fa2faae0126114a169c64845d6126c960001b81565b601281565b6000600360009054906101000a900473ffffffffffffffffffffffffffffffffffffffff1673ffffffffffffffffffffffffffffffffffffffff163373ffffffffffffffffffffffffffffffffffffffff1614610f32576040517f08c379a0000000000000000000000000000000000000000000000000000000008152600401610f299061372a565b60405180910390fd5b600073ffffffffffffffffffffffffffffffffffffffff168373ffffffffffffffffffffffffffffffffffffffff161415610fa2576040517f08c379a0000000000000000000000000000000000000000000000000000000008152600401610f999061364a565b60405180910390fd5b610fe0620f4240610fd2600660049054906101000a900461ffff1661ffff16600254611f0290919063ffffffff16565b611f8890919063ffffffff16565b821115611022576040517f08c379a0000000000000000000000000000000000000000000000000000000008152600401611019906136aa565b60405180910390fd5b600554421015611067576040517f08c379a000000000000000000000000000000000000000000000000000000000815260040161105e9061360a565b60405180910390fd5b611092600660009054906101000a900463ffffffff1663ffffffff1642611fd290919063ffffffff16565b6005819055506110a2838361205a565b6001905092915050565b600460009054906101000a900473ffffffffffffffffffffffffffffffffffffffff1681565b6000600860008373ffffffffffffffffffffffffffffffffffffffff1673ffffffffffffffffffffffffffffffffffffffff168152602001908152602001600020549050919050565b600660049054906101000a900461ffff1681565b60096020528060005260406000206000915090505481565b60055481565b600660009054906101000a900463ffffffff1681565b60018054600181600116156101000203166002900480601f0160208091040260200160405190810160405280929190818152602001828054600181600116156101000203166002900480156111f95780601f106111ce576101008083540402835291602001916111f9565b820191906000526020600020905b8154815290600101906020018083116111dc57829003601f168201915b505050505081565b600080339050600360009054906101000a900473ffffffffffffffffffffffffffffffffffffffff1673ffffffffffffffffffffffffffffffffffffffff168173ffffffffffffffffffffffffffffffffffffffff1614611297576040517f08c379a000000000000000000000000000000000000000000000000000000000815260040161128e906137ea565b60405180910390fd5b600073ffffffffffffffffffffffffffffffffffffffff168473ffffffffffffffffffffffffffffffffffffffff161415611307576040517f08c379a00000000000000000000000000000000000000000000000000000000081526004016112fe906137aa565b60405180910390fd5b60055442101561134c576040517f08c379a00000000000000000000000000000000000000000000000000000000081526004016113439061362a565b60405180910390fd5b6000600760008673ffffffffffffffffffffffffffffffffffffffff1673ffffffffffffffffffffffffffffffffffffffff16815260200190815260200160002060008373ffffffffffffffffffffffffffffffffffffffff1673ffffffffffffffffffffffffffffffffffffffff1681526020019081526020016000205490508473ffffffffffffffffffffffffffffffffffffffff168273ffffffffffffffffffffffffffffffffffffffff161415801561142957507fffffffffffffffffffffffffffffffffffffffffffffffffffffffffffffffff8114155b1561152d5760006114438583611cb490919063ffffffff16565b905080600760008873ffffffffffffffffffffffffffffffffffffffff1673ffffffffffffffffffffffffffffffffffffffff16815260200190815260200160002060008573ffffffffffffffffffffffffffffffffffffffff1673ffffffffffffffffffffffffffffffffffffffff168152602001908152602001600020819055508273ffffffffffffffffffffffffffffffffffffffff168673ffffffffffffffffffffffffffffffffffffffff167f8c5be1e5ebec7d5bd14f71427d1e84f3dd0314c0f7b2291e5b200ac8c7c3b925836040516115239190613885565b60405180910390a3505b611558600660009054906101000a900463ffffffff1663ffffffff1642611fd290919063ffffffff16565b6005819055506115688585612174565b60019250505092915050565b7fc89efdaa54c0f20c7adf612882df0950f5a951637e0307cdcb4c672f298b8bc660001b81565b7f7c7c6cdb67a18743f49ec6fa9b35f50d52ed05cbed4cc592e13b44501c1a226760001b81565b60006115cf338484611cfe565b6001905092915050565b4284101561161c576040517f08c379a00000000000000000000000000000000000000000000000000000000081526004016116139061370a565b60405180910390fd5b60007f6e71edae12b1b97f4d1f60370fef10105fa2faae0126114a169c64845d6126c960001b888888600960008d73ffffffffffffffffffffffffffffffffffffffff1673ffffffffffffffffffffffffffffffffffffffff168152602001908152602001600020600081548092919060010191905055896040516020016116a996959493929190613480565b6040516020818303038152906040528051906020012090506116ce888286868661228e565b6116d9888888611bc9565b5050505050505050565b6000600760008473ffffffffffffffffffffffffffffffffffffffff1673ffffffffffffffffffffffffffffffffffffffff16815260200190815260200160002060008373ffffffffffffffffffffffffffffffffffffffff1673ffffffffffffffffffffffffffffffffffffffff16815260200190815260200160002054905092915050565b8542116117ac576040517f08c379a00000000000000000000000000000000000000000000000000000000081526004016117a39061380a565b60405180910390fd5b8442106117ee576040517f08c379a00000000000000000000000000000000000000000000000000000000081526004016117e59061378a565b60405180910390fd5b600a60008a73ffffffffffffffffffffffffffffffffffffffff1673ffffffffffffffffffffffffffffffffffffffff168152602001908152602001600020600085815260200190815260200160002060009054906101000a900460ff161561188c576040517f08c379a00000000000000000000000000000000000000000000000000000000081526004016118839061374a565b60405180910390fd5b60007f7c7c6cdb67a18743f49ec6fa9b35f50d52ed05cbed4cc592e13b44501c1a226760001b8a8a8a8a8a8a6040516020016118ce97969594939291906134e1565b6040516020818303038152906040528051906020012090506118f38a8286868661228e565b6001600a60008c73ffffffffffffffffffffffffffffffffffffffff1673ffffffffffffffffffffffffffffffffffffffff168152602001908152602001600020600087815260200190815260200160002060006101000a81548160ff021916908315150217905550848a73ffffffffffffffffffffffffffffffffffffffff167f98de503528ee59b575ef0c0a2576a82497bfc029a5685b209e9ec333479b10a560405160405180910390a36119ab8a8a8a611cfe565b50505050505050505050565b6000600460009054906101000a900473ffffffffffffffffffffffffffffffffffffffff1673ffffffffffffffffffffffffffffffffffffffff163373ffffffffffffffffffffffffffffffffffffffff1614611a49576040517f08c379a0000000000000000000000000000000000000000000000000000000008152600401611a40906136ea565b60405180910390fd5b8260009080519060200190611a5f929190612558565b508160019080519060200190611a76929190612558565b506001604051611a8691906133e1565b60405180910390206000604051611a9d91906133e1565b60405180910390207febb95b1e6f8658c3f6a1f6f59a9bea23721d47f22a69339010082475f7db6b2c60405160405180910390a36001905092915050565b600a6020528160005260406000206020528060005260406000206000915091509054906101000a900460ff1681565b60007f8b73c3c69bb8fe3d512ecc4cf759cc79239f7b179b0ffacaa9a75d522b39400f60001b6000604051611b3f91906133ca565b60405180910390207fc89efdaa54c0f20c7adf612882df0950f5a951637e0307cdcb4c672f298b8bc660001b611b736123c5565b30604051602001611b88959493929190613550565b60405160208183030381529060405280519060200120905090565b600360009054906101000a900473ffffffffffffffffffffffffffffffffffffffff1681565b80600760008573ffffffffffffffffffffffffffffffffffffffff1673ffffffffffffffffffffffffffffffffffffffff16815260200190815260200160002060008473ffffffffffffffffffffffffffffffffffffffff1673ffffffffffffffffffffffffffffffffffffffff168152602001908152602001600020819055508173ffffffffffffffffffffffffffffffffffffffff168373ffffffffffffffffffffffffffffffffffffffff167f8c5be1e5ebec7d5bd14f71427d1e84f3dd0314c0f7b2291e5b200ac8c7c3b92583604051611ca79190613885565b60405180910390a3505050565b6000611cf683836040518060400160405280601f81526020017f536166654d6174683a207375627472616374696f6e20756e646572666c6f77008152506123d2565b905092915050565b600073ffffffffffffffffffffffffffffffffffffffff168273ffffffffffffffffffffffffffffffffffffffff161415611d6e576040517f08c379a0000000000000000000000000000000000000000000000000000000008152600401611d65906137ca565b60405180910390fd5b611dc081600860008673ffffffffffffffffffffffffffffffffffffffff1673ffffffffffffffffffffffffffffffffffffffff16815260200190815260200160002054611cb490919063ffffffff16565b600860008573ffffffffffffffffffffffffffffffffffffffff1673ffffffffffffffffffffffffffffffffffffffff16815260200190815260200160002081905550611e5581600860008573ffffffffffffffffffffffffffffffffffffffff1673ffffffffffffffffffffffffffffffffffffffff16815260200190815260200160002054611fd290919063ffffffff16565b600860008473ffffffffffffffffffffffffffffffffffffffff1673ffffffffffffffffffffffffffffffffffffffff168152602001908152602001600020819055508173ffffffffffffffffffffffffffffffffffffffff168373ffffffffffffffffffffffffffffffffffffffff167fddf252ad1be2c89b69c2b068fc378daa952ba7f163c4a11628f55a4df523b3ef83604051611ef59190613885565b60405180910390a3505050565b600080831415611f155760009050611f82565b6000828402905082848281611f2657fe5b0414611f7d576040517f08c379a0000000000000000000000000000000000000000000000000000000008152600401808060200182810382526021815260200180613afa6021913960400191505060405180910390fd5b809150505b92915050565b6000611fca83836040518060400160405280601a81526020017f536166654d6174683a206469766973696f6e206279207a65726f000000000000815250612492565b905092915050565b600080828401905083811015612050576040517f08c379a000000000000000000000000000000000000000000000000000000000815260040180806020018281038252601b8152602001807f536166654d6174683a206164646974696f6e206f766572666c6f77000000000081525060200191505060405180910390fd5b8091505092915050565b61206f81600254611fd290919063ffffffff16565b6002819055506120c781600860008573ffffffffffffffffffffffffffffffffffffffff1673ffffffffffffffffffffffffffffffffffffffff16815260200190815260200160002054611fd290919063ffffffff16565b600860008473ffffffffffffffffffffffffffffffffffffffff1673ffffffffffffffffffffffffffffffffffffffff168152602001908152602001600020819055508173ffffffffffffffffffffffffffffffffffffffff16600073ffffffffffffffffffffffffffffffffffffffff167fddf252ad1be2c89b69c2b068fc378daa952ba7f163c4a11628f55a4df523b3ef836040516121689190613885565b60405180910390a35050565b6121c681600860008573ffffffffffffffffffffffffffffffffffffffff1673ffffffffffffffffffffffffffffffffffffffff16815260200190815260200160002054611cb490919063ffffffff16565b600860008473ffffffffffffffffffffffffffffffffffffffff1673ffffffffffffffffffffffffffffffffffffffff1681526020019081526020016000208190555061221e81600254611cb490919063ffffffff16565b600281905550600073ffffffffffffffffffffffffffffffffffffffff168273ffffffffffffffffffffffffffffffffffffffff167fddf252ad1be2c89b69c2b068fc378daa952ba7f163c4a11628f55a4df523b3ef836040516122829190613885565b60405180910390a35050565b6000612298611b0a565b856040516020016122aa9291906133f8565b6040516020818303038152906040528051906020012090506000600182868686604051600081526020016040526040516122e794939291906135a3565b6020604051602081039080840390855afa158015612309573d6000803e3d6000fd5b505050602060405103519050600073ffffffffffffffffffffffffffffffffffffffff168173ffffffffffffffffffffffffffffffffffffffff161415801561237d57508673ffffffffffffffffffffffffffffffffffffffff168173ffffffffffffffffffffffffffffffffffffffff16145b6123bc576040517f08c379a00000000000000000000000000000000000000000000000000000000081526004016123b39061366a565b60405180910390fd5b50505050505050565b6000804690508091505090565b600083831115829061247f576040517f08c379a00000000000000000000000000000000000000000000000000000000081526004018080602001828103825283818151815260200191508051906020019080838360005b83811015612444578082015181840152602081019050612429565b50505050905090810190601f1680156124715780820380516001836020036101000a031916815260200191505b509250505060405180910390fd5b5060008385039050809150509392505050565b6000808311829061253e576040517f08c379a00000000000000000000000000000000000000000000000000000000081526004018080602001828103825283818151815260200191508051906020019080838360005b838110156125035780820151818401526020810190506124e8565b50505050905090810190601f1680156125305780820380516001836020036101000a031916815260200191505b509250505060405180910390fd5b50600083858161254a57fe5b049050809150509392505050565b828054600181600116156101000203166002900490600052602060002090601f01602090048101928261258e57600085556125d5565b82601f106125a757805160ff19168380011785556125d5565b828001600101855582156125d5579182015b828111156125d45782518255916020019190600101906125b9565b5b5090506125e291906125e6565b5090565b5b808211156125ff5760008160009055506001016125e7565b5090565b60008135905061261281613a6f565b92915050565b60008135905061262781613a86565b92915050565b600082601f83011261263e57600080fd5b813561265161264c82613907565b6138d6565b9150808252602083016020830185838301111561266d57600080fd5b612678838284613a10565b50505092915050565b60008135905061269081613a9d565b92915050565b6000813590506126a581613ab4565b92915050565b6000813590506126ba81613acb565b92915050565b6000813590506126cf81613ae2565b92915050565b6000602082840312156126e757600080fd5b60006126f584828501612603565b91505092915050565b6000806040838503121561271157600080fd5b600061271f85828601612603565b925050602061273085828601612603565b9150509250929050565b60008060006060848603121561274f57600080fd5b600061275d86828701612603565b935050602061276e86828701612603565b925050604061277f86828701612696565b9150509250925092565b60008060008060008060008060006101208a8c0312156127a857600080fd5b60006127b68c828d01612603565b99505060206127c78c828d01612603565b98505060406127d88c828d01612696565b97505060606127e98c828d01612696565b96505060806127fa8c828d01612696565b95505060a061280b8c828d01612618565b94505060c061281c8c828d016126c0565b93505060e061282d8c828d01612618565b92505061010061283f8c828d01612618565b9150509295985092959850929598565b600080600080600080600060e0888a03121561286a57600080fd5b60006128788a828b01612603565b97505060206128898a828b01612603565b965050604061289a8a828b01612696565b95505060606128ab8a828b01612696565b94505060806128bc8a828b016126c0565b93505060a06128cd8a828b01612618565b92505060c06128de8a828b01612618565b91505092959891949750929550565b6000806040838503121561290057600080fd5b600061290e85828601612603565b925050602061291f85828601612618565b9150509250929050565b6000806040838503121561293c57600080fd5b600061294a85828601612603565b925050602061295b85828601612696565b9150509250929050565b6000806040838503121561297857600080fd5b600083013567ffffffffffffffff81111561299257600080fd5b61299e8582860161262d565b925050602083013567ffffffffffffffff8111156129bb57600080fd5b6129c78582860161262d565b9150509250929050565b6000602082840312156129e357600080fd5b60006129f184828501612681565b91505092915050565b600060208284031215612a0c57600080fd5b6000612a1a848285016126ab565b91505092915050565b612a2c81613993565b82525050565b612a3b816139a5565b82525050565b612a4a816139b1565b82525050565b612a61612a5c826139b1565b613a52565b82525050565b600081546001811660008114612a845760018114612aa957612aed565b607f6002830416612a95818761396c565b955060ff1983168652808601935050612aed565b60028204612ab7818761396c565b9550612ac285613937565b60005b82811015612ae457815481890152600182019150602081019050612ac5565b82880195505050505b505092915050565b6000612b0082613961565b612b0a8185613977565b9350612b1a818560208601613a1f565b612b2381613a5e565b840191505092915050565b600081546001811660008114612b4b5760018114612b7057612bb4565b607f6002830416612b5c8187613988565b955060ff1983168652808601935050612bb4565b60028204612b7e8187613988565b9550612b898561394c565b60005b82811015612bab57815481890152600182019150602081019050612b8c565b82880195505050505b505092915050565b6000612bc9602383613977565b91507f417263683a3a6d696e743a206d696e74696e67206e6f7420616c6c6f7765642060008301527f79657400000000000000000000000000000000000000000000000000000000006020830152604082019050919050565b6000612c2f602383613977565b91507f417263683a3a6275726e3a206275726e696e67206e6f7420616c6c6f7765642060008301527f79657400000000000000000000000000000000000000000000000000000000006020830152604082019050919050565b6000612c95602f83613977565b91507f417263683a3a6d696e743a2063616e6e6f74207472616e7366657220746f207460008301527f6865207a65726f206164647265737300000000000000000000000000000000006020830152604082019050919050565b6000612cfb600283613988565b91507f19010000000000000000000000000000000000000000000000000000000000006000830152600282019050919050565b6000612d3b602483613977565b91507f417263683a3a76616c69646174655369673a20696e76616c6964207369676e6160008301527f74757265000000000000000000000000000000000000000000000000000000006020830152604082019050919050565b6000612da1602d83613977565b91507f417263683a3a7365744d696e744361703a206f6e6c7920534d2063616e20636860008301527f616e6765206d696e7420636170000000000000000000000000000000000000006020830152604082019050919050565b6000612e07601d83613977565b91507f417263683a3a6d696e743a206578636565646564206d696e74206361700000006000830152602082019050919050565b6000612e47602f83613977565b91507f417263683a3a7365744d657461646174614d616e616765723a206f6e6c79204d60008301527f4d2063616e206368616e6765204d4d00000000000000000000000000000000006020830152604082019050919050565b6000612ead603883613977565b91507f417263683a3a757064617465546f6b656e4d6574613a206f6e6c79204d4d206360008301527f616e2075706461746520746f6b656e206d6574616461746100000000000000006020830152604082019050919050565b6000612f13601f83613977565b91507f417263683a3a7065726d69743a207369676e61747572652065787069726564006000830152602082019050919050565b6000612f53602b83613977565b91507f417263683a3a6d696e743a206f6e6c792074686520737570706c794d616e616760008301527f65722063616e206d696e740000000000000000000000000000000000000000006020830152604082019050919050565b6000612fb9602983613977565b91507f417263683a3a7472616e7366657257697468417574683a206175746820616c7260008301527f65616479207573656400000000000000000000000000000000000000000000006020830152604082019050919050565b600061301f604483613977565b91507f417263683a3a736574537570706c794368616e676557616974696e675065726960008301527f6f643a2077616974696e6720706572696f64206d757374206265203e206d696e60208301527f696d756d000000000000000000000000000000000000000000000000000000006040830152606082019050919050565b60006130ab602483613977565b91507f417263683a3a7472616e7366657257697468417574683a20617574682065787060008301527f69726564000000000000000000000000000000000000000000000000000000006020830152604082019050919050565b6000613111603183613977565b91507f417263683a3a6275726e3a2063616e6e6f74207472616e736665722066726f6d60008301527f20746865207a65726f20616464726573730000000000000000000000000000006020830152604082019050919050565b6000613177603a83613977565b91507f417263683a3a5f7472616e73666572546f6b656e733a2063616e6e6f7420747260008301527f616e7366657220746f20746865207a65726f20616464726573730000000000006020830152604082019050919050565b60006131dd602b83613977565b91507f417263683a3a6275726e3a206f6e6c792074686520737570706c794d616e616760008301527f65722063616e206275726e0000000000000000000000000000000000000000006020830152604082019050919050565b6000613243602a83613977565b91507f417263683a3a7472616e7366657257697468417574683a2061757468206e6f7460008301527f207965742076616c6964000000000000000000000000000000000000000000006020830152604082019050919050565b60006132a9604583613977565b91507f417263683a3a736574537570706c794368616e676557616974696e675065726960008301527f6f643a206f6e6c7920534d2063616e206368616e67652077616974696e67207060208301527f6572696f640000000000000000000000000000000000000000000000000000006040830152606082019050919050565b6000613335602d83613977565b91507f417263683a3a736574537570706c794d616e616765723a206f6e6c7920534d2060008301527f63616e206368616e676520534d000000000000000000000000000000000000006020830152604082019050919050565b613397816139bb565b82525050565b6133a6816139e9565b82525050565b6133b5816139f3565b82525050565b6133c481613a03565b82525050565b60006133d68284612a67565b915081905092915050565b60006133ed8284612b2e565b915081905092915050565b600061340382612cee565b915061340f8285612a50565b60208201915061341f8284612a50565b6020820191508190509392505050565b60006020820190506134446000830184612a23565b92915050565b600060208201905061345f6000830184612a32565b92915050565b600060208201905061347a6000830184612a41565b92915050565b600060c0820190506134956000830189612a41565b6134a26020830188612a23565b6134af6040830187612a23565b6134bc606083018661339d565b6134c9608083018561339d565b6134d660a083018461339d565b979650505050505050565b600060e0820190506134f6600083018a612a41565b6135036020830189612a23565b6135106040830188612a23565b61351d606083018761339d565b61352a608083018661339d565b61353760a083018561339d565b61354460c0830184612a41565b98975050505050505050565b600060a0820190506135656000830188612a41565b6135726020830187612a41565b61357f6040830186612a41565b61358c606083018561339d565b6135996080830184612a23565b9695505050505050565b60006080820190506135b86000830187612a41565b6135c560208301866133bb565b6135d26040830185612a41565b6135df6060830184612a41565b95945050505050565b600060208201905081810360008301526136028184612af5565b905092915050565b6000602082019050818103600083015261362381612bbc565b9050919050565b6000602082019050818103600083015261364381612c22565b9050919050565b6000602082019050818103600083015261366381612c88565b9050919050565b6000602082019050818103600083015261368381612d2e565b9050919050565b600060208201905081810360008301526136a381612d94565b9050919050565b600060208201905081810360008301526136c381612dfa565b9050919050565b600060208201905081810360008301526136e381612e3a565b9050919050565b6000602082019050818103600083015261370381612ea0565b9050919050565b6000602082019050818103600083015261372381612f06565b9050919050565b6000602082019050818103600083015261374381612f46565b9050919050565b6000602082019050818103600083015261376381612fac565b9050919050565b6000602082019050818103600083015261378381613012565b9050919050565b600060208201905081810360008301526137a38161309e565b9050919050565b600060208201905081810360008301526137c381613104565b9050919050565b600060208201905081810360008301526137e38161316a565b9050919050565b60006020820190508181036000830152613803816131d0565b9050919050565b6000602082019050818103600083015261382381613236565b9050919050565b600060208201905081810360008301526138438161329c565b9050919050565b6000602082019050818103600083015261386381613328565b9050919050565b600060208201905061387f600083018461338e565b92915050565b600060208201905061389a600083018461339d565b92915050565b60006020820190506138b560008301846133ac565b92915050565b60006020820190506138d060008301846133bb565b92915050565b6000604051905081810181811067ffffffffffffffff821117156138fd576138fc613a5c565b5b8060405250919050565b600067ffffffffffffffff82111561392257613921613a5c565b5b601f19601f8301169050602081019050919050565b60008190508160005260206000209050919050565b60008190508160005260206000209050919050565b600081519050919050565b600081905092915050565b600082825260208201905092915050565b600081905092915050565b600061399e826139c9565b9050919050565b60008115159050919050565b6000819050919050565b600061ffff82169050919050565b600073ffffffffffffffffffffffffffffffffffffffff82169050919050565b6000819050919050565b600063ffffffff82169050919050565b600060ff82169050919050565b82818337600083830152505050565b60005b83811015613a3d578082015181840152602081019050613a22565b83811115613a4c576000848401525b50505050565b6000819050919050565bfe5b6000601f19601f8301169050919050565b613a7881613993565b8114613a8357600080fd5b50565b613a8f816139b1565b8114613a9a57600080fd5b50565b613aa6816139bb565b8114613ab157600080fd5b50565b613abd816139e9565b8114613ac857600080fd5b50565b613ad4816139f3565b8114613adf57600080fd5b50565b613aeb81613a03565b8114613af657600080fd5b5056fe536166654d6174683a206d756c7469706c69636174696f6e206f766572666c6f77a2646970667358221220f97cf9a00b7605ecd2d1c30ac6eb66b987da7ef3b8f3385c186b2629fb1a274164736f6c63430007040033",
  "devdoc": {
    "details": "The governance token for Archer DAO ERC-20 with supply controls + add-ons to allow for offchain signing See EIP-712, EIP-2612, and EIP-3009 for details",
    "kind": "dev",
    "methods": {
      "allowance(address,address)": {
        "params": {
          "account": "The address of the account holding the funds",
          "spender": "The address of the account spending the funds"
        },
        "returns": {
          "_0": "The number of tokens approved"
        }
      },
      "approve(address,uint256)": {
        "details": "This will overwrite the approval amount for `spender`  and is subject to issues noted [here](https://eips.ethereum.org/EIPS/eip-20#approve)",
        "params": {
          "amount": "The number of tokens that are approved (2^256-1 means infinite)",
          "spender": "The address of the account which may transfer tokens"
        },
        "returns": {
          "_0": "Whether or not the approval succeeded"
        }
      },
      "balanceOf(address)": {
        "params": {
          "account": "The address of the account to get the balance of"
        },
        "returns": {
          "_0": "The number of tokens held"
        }
      },
      "burn(address,uint256)": {
        "params": {
          "amount": "The number of tokens to be burned",
          "src": "The account that will burn tokens"
        },
        "returns": {
          "_0": "Boolean indicating success of burn"
        }
      },
      "constructor": {
        "params": {
          "_firstSupplyChangeAllowed": "The timestamp after which the first supply change may occur",
          "_metadataManager": "The account with the ability to change token metadata",
          "_supplyManager": "The address with minting ability"
        }
      },
      "getDomainSeparator()": {
        "returns": {
          "_0": "Separator"
        }
      },
      "mint(address,uint256)": {
        "params": {
          "amount": "The number of tokens to be minted",
          "dst": "The address of the destination account"
        },
        "returns": {
          "_0": "Boolean indicating success of mint"
        }
      },
      "permit(address,address,uint256,uint256,uint8,bytes32,bytes32)": {
        "params": {
          "deadline": "The time at which to expire the signature",
          "owner": "The address to approve from",
          "r": "Half of the ECDSA signature pair",
          "s": "Half of the ECDSA signature pair",
          "spender": "The address to be approved",
          "v": "The recovery byte of the signature",
          "value": "The number of tokens that are approved (2^256-1 means infinite)"
        }
      },
      "setMetadataManager(address)": {
        "params": {
          "newMetadataManager": "The address of the new metadata manager"
        },
        "returns": {
          "_0": "true if successful"
        }
      },
      "setMintCap(uint16)": {
        "params": {
          "newCap": "The new mint cap in bips (10,000 bips = 1% of totalSupply)"
        },
        "returns": {
          "_0": "true if successful"
        }
      },
      "setSupplyChangeWaitingPeriod(uint32)": {
        "params": {
          "period": "The new supply change waiting period"
        },
        "returns": {
          "_0": "true if succssful"
        }
      },
      "setSupplyManager(address)": {
        "params": {
          "newSupplyManager": "The address of the new supply manager"
        },
        "returns": {
          "_0": "true if successful"
        }
      },
      "transfer(address,uint256)": {
        "params": {
          "amount": "The number of tokens to transfer",
          "dst": "The address of the destination account"
        },
        "returns": {
          "_0": "Whether or not the transfer succeeded"
        }
      },
      "transferFrom(address,address,uint256)": {
        "params": {
          "amount": "The number of tokens to transfer",
          "dst": "The address of the destination account",
          "src": "The address of the source account"
        },
        "returns": {
          "_0": "Whether or not the transfer succeeded"
        }
      },
      "transferWithAuthorization(address,address,uint256,uint256,uint256,bytes32,uint8,bytes32,bytes32)": {
        "params": {
          "from": "Payer's address (Authorizer)",
          "nonce": "Unique nonce",
          "r": "Half of the ECDSA signature pair",
          "s": "Half of the ECDSA signature pair",
          "to": "Payee's address",
          "v": "The recovery byte of the signature",
          "validAfter": "The time after which this is valid (unix time)",
          "validBefore": "The time before which this is valid (unix time)",
          "value": "Amount to be transferred"
        }
      },
      "updateTokenMetadata(string,string)": {
        "params": {
          "tokenName": "The new name for the token",
          "tokenSymbol": "The new symbol for the token"
        },
        "returns": {
          "_0": "true if successful"
        }
      }
    },
    "stateVariables": {
      "allowances": {
        "details": "Allowance amounts on behalf of others"
      },
      "authorizationState": {
        "details": "authorizer address > nonce > state (true = used / false = unused)"
      },
      "balances": {
        "details": "Official record of token balances for each account"
      }
    },
    "title": "ArchToken",
    "version": 1
  },
  "userdoc": {
    "events": {
      "Approval(address,address,uint256)": {
        "notice": "The standard EIP-20 approval event"
      },
      "AuthorizationUsed(address,bytes32)": {
        "notice": "An event that's emitted whenever an authorized transfer occurs"
      },
      "MetadataManagerChanged(address,address)": {
        "notice": "An event that's emitted when the metadataManager address is changed"
      },
      "MintCapChanged(uint16,uint16)": {
        "notice": "An event that's emitted when the mintCap is changed"
      },
      "SupplyChangeWaitingPeriodChanged(uint32,uint32)": {
        "notice": "An event that's emitted when the supplyChangeWaitingPeriod is changed"
      },
      "SupplyManagerChanged(address,address)": {
        "notice": "An event that's emitted when the supplyManager address is changed"
      },
      "TokenMetaUpdated(string,string)": {
        "notice": "An event that's emitted when the token name and symbol are changed"
      },
      "Transfer(address,address,uint256)": {
        "notice": "The standard EIP-20 transfer event"
      }
    },
    "kind": "user",
    "methods": {
      "DOMAIN_TYPEHASH()": {
        "notice": "The EIP-712 typehash for the contract's domain keccak256(\"EIP712Domain(string name,string version,uint256 chainId,address verifyingContract)\")"
      },
      "PERMIT_TYPEHASH()": {
        "notice": "The EIP-712 typehash for the permit struct used by the contract keccak256(\"Permit(address owner,address spender,uint256 value,uint256 nonce,uint256 deadline)\");"
      },
      "TRANSFER_WITH_AUTHORIZATION_TYPEHASH()": {
        "notice": "The EIP-3009 typehash for transferWithAuthorization keccak256(\"TransferWithAuthorization(address from,address to,uint256 value,uint256 validAfter,uint256 validBefore,bytes32 nonce)\");"
      },
      "VERSION_HASH()": {
        "notice": "The EIP-712 version hash keccak256(\"1\");"
      },
      "allowance(address,address)": {
        "notice": "Get the number of tokens `spender` is approved to spend on behalf of `account`"
      },
      "approve(address,uint256)": {
        "notice": "Approve `spender` to transfer up to `amount` from `src`"
      },
      "balanceOf(address)": {
        "notice": "Get the number of tokens held by the `account`"
      },
      "burn(address,uint256)": {
        "notice": "Burn tokens"
      },
      "constructor": {
        "notice": "Construct a new Arch token"
      },
      "decimals()": {
        "notice": "EIP-20 token decimals for this token"
      },
      "getDomainSeparator()": {
        "notice": "EIP-712 Domain separator"
      },
      "metadataManager()": {
        "notice": "Address which may change token metadata"
      },
      "mint(address,uint256)": {
        "notice": "Mint new tokens"
      },
      "mintCap()": {
        "notice": "Cap on the total amount that can be minted at each mint (measured in bips: 10,000 bips = 1% of current totalSupply)"
      },
      "name()": {
        "notice": "EIP-20 token name for this token"
      },
      "nonces(address)": {
        "notice": "A record of states for signing / validating signatures"
      },
      "permit(address,address,uint256,uint256,uint8,bytes32,bytes32)": {
        "notice": "Triggers an approval from owner to spender"
      },
      "setMetadataManager(address)": {
        "notice": "Change the metadataManager address"
      },
      "setMintCap(uint16)": {
        "notice": "Set the maximum amount of tokens that can be minted at once"
      },
      "setSupplyChangeWaitingPeriod(uint32)": {
        "notice": "Set the minimum time between supply changes"
      },
      "setSupplyManager(address)": {
        "notice": "Change the supplyManager address"
      },
      "supplyChangeAllowedAfter()": {
        "notice": "The timestamp after which a supply change may occur"
      },
      "supplyChangeWaitingPeriod()": {
        "notice": "The initial minimum time between changing the token supply"
      },
      "supplyChangeWaitingPeriodMinimum()": {
        "notice": "Hard cap on the minimum time between changing the token supply"
      },
      "supplyManager()": {
        "notice": "Address which may mint/burn tokens"
      },
      "symbol()": {
        "notice": "EIP-20 token symbol for this token"
      },
      "totalSupply()": {
        "notice": "Total number of tokens in circulation"
      },
      "transfer(address,uint256)": {
        "notice": "Transfer `amount` tokens from `msg.sender` to `dst`"
      },
      "transferFrom(address,address,uint256)": {
        "notice": "Transfer `amount` tokens from `src` to `dst`"
      },
      "transferWithAuthorization(address,address,uint256,uint256,uint256,bytes32,uint8,bytes32,bytes32)": {
        "notice": "Transfer tokens with a signed authorization"
      },
      "updateTokenMetadata(string,string)": {
        "notice": "Update the token name and symbol"
      }
    },
    "version": 1
  },
  "storageLayout": {
    "storage": [
      {
        "astId": 11,
        "contract": "contracts/ArchToken.sol:ArchToken",
        "label": "name",
        "offset": 0,
        "slot": "0",
        "type": "t_string_storage"
      },
      {
        "astId": 15,
        "contract": "contracts/ArchToken.sol:ArchToken",
        "label": "symbol",
        "offset": 0,
        "slot": "1",
        "type": "t_string_storage"
      },
      {
        "astId": 23,
        "contract": "contracts/ArchToken.sol:ArchToken",
        "label": "totalSupply",
        "offset": 0,
        "slot": "2",
        "type": "t_uint256"
      },
      {
        "astId": 26,
        "contract": "contracts/ArchToken.sol:ArchToken",
        "label": "supplyManager",
        "offset": 0,
        "slot": "3",
        "type": "t_address"
      },
      {
        "astId": 29,
        "contract": "contracts/ArchToken.sol:ArchToken",
        "label": "metadataManager",
        "offset": 0,
        "slot": "4",
        "type": "t_address"
      },
      {
        "astId": 32,
        "contract": "contracts/ArchToken.sol:ArchToken",
        "label": "supplyChangeAllowedAfter",
        "offset": 0,
        "slot": "5",
        "type": "t_uint256"
      },
      {
        "astId": 38,
        "contract": "contracts/ArchToken.sol:ArchToken",
        "label": "supplyChangeWaitingPeriod",
        "offset": 0,
        "slot": "6",
        "type": "t_uint32"
      },
      {
        "astId": 48,
        "contract": "contracts/ArchToken.sol:ArchToken",
        "label": "mintCap",
        "offset": 4,
        "slot": "6",
        "type": "t_uint16"
      },
      {
        "astId": 55,
        "contract": "contracts/ArchToken.sol:ArchToken",
        "label": "allowances",
        "offset": 0,
        "slot": "7",
        "type": "t_mapping(t_address,t_mapping(t_address,t_uint256))"
      },
      {
        "astId": 60,
        "contract": "contracts/ArchToken.sol:ArchToken",
        "label": "balances",
        "offset": 0,
        "slot": "8",
        "type": "t_mapping(t_address,t_uint256)"
      },
      {
        "astId": 81,
        "contract": "contracts/ArchToken.sol:ArchToken",
        "label": "nonces",
        "offset": 0,
        "slot": "9",
        "type": "t_mapping(t_address,t_uint256)"
      },
      {
        "astId": 88,
        "contract": "contracts/ArchToken.sol:ArchToken",
        "label": "authorizationState",
        "offset": 0,
        "slot": "10",
        "type": "t_mapping(t_address,t_mapping(t_bytes32,t_bool))"
      }
    ],
    "types": {
      "t_address": {
        "encoding": "inplace",
        "label": "address",
        "numberOfBytes": "20"
      },
      "t_bool": {
        "encoding": "inplace",
        "label": "bool",
        "numberOfBytes": "1"
      },
      "t_bytes32": {
        "encoding": "inplace",
        "label": "bytes32",
        "numberOfBytes": "32"
      },
      "t_mapping(t_address,t_mapping(t_address,t_uint256))": {
        "encoding": "mapping",
        "key": "t_address",
        "label": "mapping(address => mapping(address => uint256))",
        "numberOfBytes": "32",
        "value": "t_mapping(t_address,t_uint256)"
      },
      "t_mapping(t_address,t_mapping(t_bytes32,t_bool))": {
        "encoding": "mapping",
        "key": "t_address",
        "label": "mapping(address => mapping(bytes32 => bool))",
        "numberOfBytes": "32",
        "value": "t_mapping(t_bytes32,t_bool)"
      },
      "t_mapping(t_address,t_uint256)": {
        "encoding": "mapping",
        "key": "t_address",
        "label": "mapping(address => uint256)",
        "numberOfBytes": "32",
        "value": "t_uint256"
      },
      "t_mapping(t_bytes32,t_bool)": {
        "encoding": "mapping",
        "key": "t_bytes32",
        "label": "mapping(bytes32 => bool)",
        "numberOfBytes": "32",
        "value": "t_bool"
      },
      "t_string_storage": {
        "encoding": "bytes",
        "label": "string",
        "numberOfBytes": "32"
      },
      "t_uint16": {
        "encoding": "inplace",
        "label": "uint16",
        "numberOfBytes": "2"
      },
      "t_uint256": {
        "encoding": "inplace",
        "label": "uint256",
        "numberOfBytes": "32"
      },
      "t_uint32": {
        "encoding": "inplace",
        "label": "uint32",
        "numberOfBytes": "4"
      }
    }
  }
}