{
  "address": "0x918146B39e4249E34A9FeA2eAd58320f7fa37f6c",
  "abi": [
    {
      "inputs": [
        {
          "internalType": "address",
          "name": "_token",
          "type": "address"
        },
        {
          "internalType": "address",
          "name": "_admin",
          "type": "address"
        }
      ],
      "stateMutability": "nonpayable",
      "type": "constructor"
    },
    {
      "anonymous": false,
      "inputs": [
        {
          "indexed": true,
          "internalType": "address",
          "name": "oldAdmin",
          "type": "address"
        },
        {
          "indexed": true,
          "internalType": "address",
          "name": "newAdmin",
          "type": "address"
        }
      ],
      "name": "AdminAccepted",
      "type": "event"
    },
    {
      "anonymous": false,
      "inputs": [
        {
          "indexed": true,
          "internalType": "address",
          "name": "proposedAdmin",
          "type": "address"
        }
      ],
      "name": "AdminCanceled",
      "type": "event"
    },
    {
      "anonymous": false,
      "inputs": [
        {
          "indexed": true,
          "internalType": "address",
          "name": "oldAdmin",
          "type": "address"
        },
        {
          "indexed": true,
          "internalType": "address",
          "name": "newAdmin",
          "type": "address"
        },
        {
          "indexed": false,
          "internalType": "uint256",
          "name": "eta",
          "type": "uint256"
        }
      ],
      "name": "AdminProposed",
      "type": "event"
    },
    {
      "anonymous": false,
      "inputs": [
        {
          "indexed": true,
          "internalType": "uint256",
          "name": "amount",
          "type": "uint256"
        },
        {
          "indexed": true,
          "internalType": "address",
          "name": "source",
          "type": "address"
        },
        {
          "indexed": false,
          "internalType": "uint256",
          "name": "oldSupply",
          "type": "uint256"
        },
        {
          "indexed": false,
          "internalType": "uint256",
          "name": "newSupply",
          "type": "uint256"
        }
      ],
      "name": "BurnAccepted",
      "type": "event"
    },
    {
      "anonymous": false,
      "inputs": [
        {
          "indexed": true,
          "internalType": "uint256",
          "name": "amount",
          "type": "uint256"
        },
        {
          "indexed": true,
          "internalType": "address",
          "name": "source",
          "type": "address"
        }
      ],
      "name": "BurnCanceled",
      "type": "event"
    },
    {
      "anonymous": false,
      "inputs": [
        {
          "indexed": true,
          "internalType": "uint256",
          "name": "amount",
          "type": "uint256"
        },
        {
          "indexed": true,
          "internalType": "address",
          "name": "source",
          "type": "address"
        },
        {
          "indexed": false,
          "internalType": "uint256",
          "name": "oldSupply",
          "type": "uint256"
        },
        {
          "indexed": false,
          "internalType": "uint256",
          "name": "newSupply",
          "type": "uint256"
        },
        {
          "indexed": false,
          "internalType": "uint256",
          "name": "eta",
          "type": "uint256"
        }
      ],
      "name": "BurnProposed",
      "type": "event"
    },
    {
      "anonymous": false,
      "inputs": [
        {
          "indexed": true,
          "internalType": "uint256",
          "name": "amount",
          "type": "uint256"
        },
        {
          "indexed": true,
          "internalType": "address",
          "name": "recipient",
          "type": "address"
        },
        {
          "indexed": false,
          "internalType": "uint256",
          "name": "oldSupply",
          "type": "uint256"
        },
        {
          "indexed": false,
          "internalType": "uint256",
          "name": "newSupply",
          "type": "uint256"
        }
      ],
      "name": "MintAccepted",
      "type": "event"
    },
    {
      "anonymous": false,
      "inputs": [
        {
          "indexed": true,
          "internalType": "uint256",
          "name": "amount",
          "type": "uint256"
        },
        {
          "indexed": true,
          "internalType": "address",
          "name": "recipient",
          "type": "address"
        }
      ],
      "name": "MintCanceled",
      "type": "event"
    },
    {
      "anonymous": false,
      "inputs": [
        {
          "indexed": true,
          "internalType": "uint16",
          "name": "oldCap",
          "type": "uint16"
        },
        {
          "indexed": true,
          "internalType": "uint16",
          "name": "newCap",
          "type": "uint16"
        }
      ],
      "name": "MintCapAccepted",
      "type": "event"
    },
    {
      "anonymous": false,
      "inputs": [
        {
          "indexed": true,
          "internalType": "uint16",
          "name": "proposedCap",
          "type": "uint16"
        }
      ],
      "name": "MintCapCanceled",
      "type": "event"
    },
    {
      "anonymous": false,
      "inputs": [
        {
          "indexed": true,
          "internalType": "uint16",
          "name": "oldCap",
          "type": "uint16"
        },
        {
          "indexed": true,
          "internalType": "uint16",
          "name": "newCap",
          "type": "uint16"
        },
        {
          "indexed": false,
          "internalType": "uint256",
          "name": "eta",
          "type": "uint256"
        }
      ],
      "name": "MintCapProposed",
      "type": "event"
    },
    {
      "anonymous": false,
      "inputs": [
        {
          "indexed": true,
          "internalType": "uint256",
          "name": "amount",
          "type": "uint256"
        },
        {
          "indexed": true,
          "internalType": "address",
          "name": "recipient",
          "type": "address"
        },
        {
          "indexed": false,
          "internalType": "uint256",
          "name": "oldSupply",
          "type": "uint256"
        },
        {
          "indexed": false,
          "internalType": "uint256",
          "name": "newSupply",
          "type": "uint256"
        },
        {
          "indexed": false,
          "internalType": "uint256",
          "name": "eta",
          "type": "uint256"
        }
      ],
      "name": "MintProposed",
      "type": "event"
    },
    {
      "anonymous": false,
      "inputs": [
        {
          "indexed": true,
          "internalType": "uint32",
          "name": "oldProposalLength",
          "type": "uint32"
        },
        {
          "indexed": true,
          "internalType": "uint32",
          "name": "newProposalLength",
          "type": "uint32"
        }
      ],
      "name": "ProposalLengthAccepted",
      "type": "event"
    },
    {
      "anonymous": false,
      "inputs": [
        {
          "indexed": true,
          "internalType": "uint32",
          "name": "proposedProposalLength",
          "type": "uint32"
        }
      ],
      "name": "ProposalLengthCanceled",
      "type": "event"
    },
    {
      "anonymous": false,
      "inputs": [
        {
          "indexed": true,
          "internalType": "uint32",
          "name": "oldProposalLength",
          "type": "uint32"
        },
        {
          "indexed": true,
          "internalType": "uint32",
          "name": "newProposalLength",
          "type": "uint32"
        },
        {
          "indexed": false,
          "internalType": "uint256",
          "name": "eta",
          "type": "uint256"
        }
      ],
      "name": "ProposalLengthProposed",
      "type": "event"
    },
    {
      "anonymous": false,
      "inputs": [
        {
          "indexed": true,
          "internalType": "address",
          "name": "oldSupplyManager",
          "type": "address"
        },
        {
          "indexed": true,
          "internalType": "address",
          "name": "newSupplyManager",
          "type": "address"
        }
      ],
      "name": "SupplyManagerAccepted",
      "type": "event"
    },
    {
      "anonymous": false,
      "inputs": [
        {
          "indexed": true,
          "internalType": "address",
          "name": "proposedSupplyManager",
          "type": "address"
        }
      ],
      "name": "SupplyManagerCanceled",
      "type": "event"
    },
    {
      "anonymous": false,
      "inputs": [
        {
          "indexed": true,
          "internalType": "address",
          "name": "oldSupplyManager",
          "type": "address"
        },
        {
          "indexed": true,
          "internalType": "address",
          "name": "newSupplyManager",
          "type": "address"
        },
        {
          "indexed": false,
          "internalType": "uint256",
          "name": "eta",
          "type": "uint256"
        }
      ],
      "name": "SupplyManagerProposed",
      "type": "event"
    },
    {
      "anonymous": false,
      "inputs": [
        {
          "indexed": true,
          "internalType": "uint32",
          "name": "oldWaitingPeriod",
          "type": "uint32"
        },
        {
          "indexed": true,
          "internalType": "uint32",
          "name": "newWaitingPeriod",
          "type": "uint32"
        }
      ],
      "name": "WaitingPeriodAccepted",
      "type": "event"
    },
    {
      "anonymous": false,
      "inputs": [
        {
          "indexed": true,
          "internalType": "uint32",
          "name": "proposedWaitingPeriod",
          "type": "uint32"
        }
      ],
      "name": "WaitingPeriodCanceled",
      "type": "event"
    },
    {
      "anonymous": false,
      "inputs": [
        {
          "indexed": true,
          "internalType": "uint32",
          "name": "oldWaitingPeriod",
          "type": "uint32"
        },
        {
          "indexed": true,
          "internalType": "uint32",
          "name": "newWaitingPeriod",
          "type": "uint32"
        },
        {
          "indexed": false,
          "internalType": "uint256",
          "name": "eta",
          "type": "uint256"
        }
      ],
      "name": "WaitingPeriodProposed",
      "type": "event"
    },
    {
      "inputs": [],
      "name": "acceptAdmin",
      "outputs": [],
      "stateMutability": "nonpayable",
      "type": "function"
    },
    {
      "inputs": [],
      "name": "acceptBurn",
      "outputs": [],
      "stateMutability": "nonpayable",
      "type": "function"
    },
    {
      "inputs": [],
      "name": "acceptMint",
      "outputs": [],
      "stateMutability": "nonpayable",
      "type": "function"
    },
    {
      "inputs": [],
      "name": "acceptMintCap",
      "outputs": [],
      "stateMutability": "nonpayable",
      "type": "function"
    },
    {
      "inputs": [],
      "name": "acceptProposalLength",
      "outputs": [],
      "stateMutability": "nonpayable",
      "type": "function"
    },
    {
      "inputs": [],
      "name": "acceptSupplyChangeWaitingPeriod",
      "outputs": [],
      "stateMutability": "nonpayable",
      "type": "function"
    },
    {
      "inputs": [],
      "name": "acceptSupplyManager",
      "outputs": [],
      "stateMutability": "nonpayable",
      "type": "function"
    },
    {
      "inputs": [],
      "name": "admin",
      "outputs": [
        {
          "internalType": "address",
          "name": "",
          "type": "address"
        }
      ],
      "stateMutability": "view",
      "type": "function"
    },
    {
      "inputs": [],
      "name": "cancelAdmin",
      "outputs": [],
      "stateMutability": "nonpayable",
      "type": "function"
    },
    {
      "inputs": [],
      "name": "cancelBurn",
      "outputs": [],
      "stateMutability": "nonpayable",
      "type": "function"
    },
    {
      "inputs": [],
      "name": "cancelMint",
      "outputs": [],
      "stateMutability": "nonpayable",
      "type": "function"
    },
    {
      "inputs": [],
      "name": "cancelMintCap",
      "outputs": [],
      "stateMutability": "nonpayable",
      "type": "function"
    },
    {
      "inputs": [],
      "name": "cancelProposalLength",
      "outputs": [],
      "stateMutability": "nonpayable",
      "type": "function"
    },
    {
      "inputs": [],
      "name": "cancelSupplyManager",
      "outputs": [],
      "stateMutability": "nonpayable",
      "type": "function"
    },
    {
      "inputs": [],
      "name": "cancelWaitingPeriod",
      "outputs": [],
      "stateMutability": "nonpayable",
      "type": "function"
    },
    {
      "inputs": [],
      "name": "changeAllowedAfter",
      "outputs": [
        {
          "internalType": "uint256",
          "name": "",
          "type": "uint256"
        }
      ],
      "stateMutability": "view",
      "type": "function"
    },
    {
      "inputs": [],
      "name": "pendingAdmin",
      "outputs": [
        {
          "internalType": "uint256",
          "name": "eta",
          "type": "uint256"
        },
        {
          "internalType": "address",
          "name": "newAdmin",
          "type": "address"
        }
      ],
      "stateMutability": "view",
      "type": "function"
    },
    {
      "inputs": [],
      "name": "pendingBurn",
      "outputs": [
        {
          "internalType": "uint256",
          "name": "eta",
          "type": "uint256"
        },
        {
          "internalType": "address",
          "name": "source",
          "type": "address"
        },
        {
          "internalType": "uint256",
          "name": "amount",
          "type": "uint256"
        }
      ],
      "stateMutability": "view",
      "type": "function"
    },
    {
      "inputs": [],
      "name": "pendingMint",
      "outputs": [
        {
          "internalType": "uint256",
          "name": "eta",
          "type": "uint256"
        },
        {
          "internalType": "address",
          "name": "destination",
          "type": "address"
        },
        {
          "internalType": "uint256",
          "name": "amount",
          "type": "uint256"
        }
      ],
      "stateMutability": "view",
      "type": "function"
    },
    {
      "inputs": [],
      "name": "pendingMintCap",
      "outputs": [
        {
          "internalType": "uint256",
          "name": "eta",
          "type": "uint256"
        },
        {
          "internalType": "uint16",
          "name": "newCap",
          "type": "uint16"
        }
      ],
      "stateMutability": "view",
      "type": "function"
    },
    {
      "inputs": [],
      "name": "pendingProposalLength",
      "outputs": [
        {
          "internalType": "uint256",
          "name": "eta",
          "type": "uint256"
        },
        {
          "internalType": "uint32",
          "name": "newLength",
          "type": "uint32"
        }
      ],
      "stateMutability": "view",
      "type": "function"
    },
    {
      "inputs": [],
      "name": "pendingSupplyManager",
      "outputs": [
        {
          "internalType": "uint256",
          "name": "eta",
          "type": "uint256"
        },
        {
          "internalType": "address",
          "name": "newSupplyManager",
          "type": "address"
        }
      ],
      "stateMutability": "view",
      "type": "function"
    },
    {
      "inputs": [],
      "name": "pendingWaitingPeriod",
      "outputs": [
        {
          "internalType": "uint256",
          "name": "eta",
          "type": "uint256"
        },
        {
          "internalType": "uint32",
          "name": "newPeriod",
          "type": "uint32"
        }
      ],
      "stateMutability": "view",
      "type": "function"
    },
    {
      "inputs": [],
      "name": "proposalLength",
      "outputs": [
        {
          "internalType": "uint32",
          "name": "",
          "type": "uint32"
        }
      ],
      "stateMutability": "view",
      "type": "function"
    },
    {
      "inputs": [],
      "name": "proposalLengthMinimum",
      "outputs": [
        {
          "internalType": "uint32",
          "name": "",
          "type": "uint32"
        }
      ],
      "stateMutability": "view",
      "type": "function"
    },
    {
      "inputs": [
        {
          "internalType": "address",
          "name": "newAdmin",
          "type": "address"
        }
      ],
      "name": "proposeAdmin",
      "outputs": [],
      "stateMutability": "nonpayable",
      "type": "function"
    },
    {
      "inputs": [
        {
          "internalType": "address",
          "name": "src",
          "type": "address"
        },
        {
          "internalType": "uint256",
          "name": "amount",
          "type": "uint256"
        }
      ],
      "name": "proposeBurn",
      "outputs": [],
      "stateMutability": "nonpayable",
      "type": "function"
    },
    {
      "inputs": [
        {
          "internalType": "address",
          "name": "dst",
          "type": "address"
        },
        {
          "internalType": "uint256",
          "name": "amount",
          "type": "uint256"
        }
      ],
      "name": "proposeMint",
      "outputs": [],
      "stateMutability": "nonpayable",
      "type": "function"
    },
    {
      "inputs": [
        {
          "internalType": "uint16",
          "name": "newCap",
          "type": "uint16"
        }
      ],
      "name": "proposeMintCap",
      "outputs": [],
      "stateMutability": "nonpayable",
      "type": "function"
    },
    {
      "inputs": [
        {
          "internalType": "uint32",
          "name": "newLength",
          "type": "uint32"
        }
      ],
      "name": "proposeNewProposalLength",
      "outputs": [],
      "stateMutability": "nonpayable",
      "type": "function"
    },
    {
      "inputs": [
        {
          "internalType": "uint32",
          "name": "newPeriod",
          "type": "uint32"
        }
      ],
      "name": "proposeSupplyChangeWaitingPeriod",
      "outputs": [],
      "stateMutability": "nonpayable",
      "type": "function"
    },
    {
      "inputs": [
        {
          "internalType": "address",
          "name": "newSupplyManager",
          "type": "address"
        }
      ],
      "name": "proposeSupplyManager",
      "outputs": [],
      "stateMutability": "nonpayable",
      "type": "function"
    },
    {
      "inputs": [],
      "name": "token",
      "outputs": [
        {
          "internalType": "contract IArchToken",
          "name": "",
          "type": "address"
        }
      ],
      "stateMutability": "view",
      "type": "function"
    }
  ],
  "transactionHash": "0x507fc9cadd155db7516ebc70f35bb60dfa19645ffa2c46dab5276c5f64749552",
  "args": [
    "0xA13406168baEA1E09350200359392FFCc6Dd9Bb4",
    "0xFd90411B0c246743aE0000BB18c723A3BB909Dee"
  ],
  "solcInputHash": "9619705638476ac1e96b874a4a35846a",
  "bytecode": "0x608060405262278d00600360006101000a81548163ffffffff021916908363ffffffff16021790555062093a80600360046101000a81548163ffffffff021916908363ffffffff1602179055503480156200005957600080fd5b50604051620062303803806200623083398181016040528101906200007f9190620001de565b816000806101000a81548173ffffffffffffffffffffffffffffffffffffffff021916908373ffffffffffffffffffffffffffffffffffffffff16021790555060008054906101000a900473ffffffffffffffffffffffffffffffffffffffff1673ffffffffffffffffffffffffffffffffffffffff1663892b0edf6040518163ffffffff1660e01b815260040160206040518083038186803b1580156200012657600080fd5b505afa1580156200013b573d6000803e3d6000fd5b505050506040513d601f19601f820116820180604052508101906200016191906200021f565b60028190555080600160006101000a81548173ffffffffffffffffffffffffffffffffffffffff021916908373ffffffffffffffffffffffffffffffffffffffff1602179055505050620002bd565b600081519050620001c18162000289565b92915050565b600081519050620001d881620002a3565b92915050565b60008060408385031215620001f257600080fd5b60006200020285828601620001b0565b92505060206200021585828601620001b0565b9150509250929050565b6000602082840312156200023257600080fd5b60006200024284828501620001c7565b91505092915050565b600062000258826200025f565b9050919050565b600073ffffffffffffffffffffffffffffffffffffffff82169050919050565b6000819050919050565b62000294816200024b565b8114620002a057600080fd5b50565b620002ae816200027f565b8114620002ba57600080fd5b50565b615f6380620002cd6000396000f3fe608060405234801561001057600080fd5b50600436106101fb5760003560e01c80636efc39041161011a578063d7510b29116100ad578063e91de2601161007c578063e91de26014610440578063ecd13fb11461044a578063f851a44014610469578063fc0c546a14610487578063ff76f6d3146104a5576101fb565b8063d7510b29146103db578063e0c6a23f146103e5578063e114482c14610401578063e11749a914610421576101fb565b80639279dc3b116100e95780639279dc3b146103a1578063a4f1f256146103ab578063b48c589f146103b5578063bd1bfaa7146103d1576101fb565b80636efc39041461033e578063732e49911461035c5780637796d76c146103665780638ee08a5414610385576101fb565b8063288b52c91161019257806359fe0e6d1161016157806359fe0e6d1461030457806367f237491461030e57806369a441ce1461032a5780636a420fb314610334576101fb565b8063288b52c91461029d578063371f530a146102a757806339557d3d146102c757806359b3a049146102e5576101fb565b8063147bf6c4116101ce578063147bf6c41461022857806315d4c5d51461024457806326465af214610260578063267822471461027e576101fb565b806306f79457146102005780630a4673c01461020a5780630c7252aa146102145780630e18b6811461021e575b600080fd5b6102086104c1565b005b610212610687565b005b61021c6107fd565b005b6102266109da565b005b610242600480360381019061023d9190613fc8565b610c6e565b005b61025e6004803603810190610259919061401a565b610e39565b005b6102686112f2565b6040516102759190615cb6565b60405180910390f35b6102866112f8565b604051610294929190615cd1565b60405180910390f35b6102a561132a565b005b6102af61170a565b6040516102be93929190615cfa565b60405180910390f35b6102cf611742565b6040516102dc9190615de3565b60405180910390f35b6102ed611758565b6040516102fb929190615dba565b60405180910390f35b61030c61177a565b005b610328600480360381019061032391906140fa565b611ac7565b005b610332611cbd565b005b61033c611e9a565b005b610346612006565b6040516103539190615de3565b60405180910390f35b61036461201c565b005b61036e6123d5565b60405161037c929190615cd1565b60405180910390f35b61039f600480360381019061039a9190613fc8565b612407565b005b6103a961264d565b005b6103b36129a6565b005b6103cf60048036038101906103ca91906140fa565b612baa565b005b6103d9612d76565b005b6103e3613156565b005b6103ff60048036038101906103fa919061401a565b6132cc565b005b61040961376d565b60405161041893929190615cfa565b60405180910390f35b6104296137a5565b604051610437929190615d31565b60405180910390f35b6104486137c5565b005b61045261398b565b604051610460929190615dba565b60405180910390f35b6104716139ad565b60405161047e9190615553565b60405180910390f35b61048f6139d3565b60405161049c91906155c0565b60405180910390f35b6104bf60048036038101906104ba919061407f565b6139f7565b005b600160009054906101000a900473ffffffffffffffffffffffffffffffffffffffff1673ffffffffffffffffffffffffffffffffffffffff163373ffffffffffffffffffffffffffffffffffffffff1614610551576040517f08c379a0000000000000000000000000000000000000000000000000000000008152600401610548906159fb565b60405180910390fd5b6000600460000154141561059a576040517f08c379a00000000000000000000000000000000000000000000000000000000081526004016105919061561b565b60405180910390fd5b600460010160009054906101000a900473ffffffffffffffffffffffffffffffffffffffff1673ffffffffffffffffffffffffffffffffffffffff167f7e1c1ea415e8c17951a8760539329f3a983d473c0cb62890172086b6a339915760405160405180910390a2604051806040016040528060008152602001600073ffffffffffffffffffffffffffffffffffffffff1681525060046000820151816000015560208201518160010160006101000a81548173ffffffffffffffffffffffffffffffffffffffff021916908373ffffffffffffffffffffffffffffffffffffffff160217905550905050565b600160009054906101000a900473ffffffffffffffffffffffffffffffffffffffff1673ffffffffffffffffffffffffffffffffffffffff163373ffffffffffffffffffffffffffffffffffffffff1614610717576040517f08c379a000000000000000000000000000000000000000000000000000000000815260040161070e90615b7b565b60405180910390fd5b60006012600001541415610760576040517f08c379a000000000000000000000000000000000000000000000000000000000815260040161075790615c3b565b60405180910390fd5b601260010160009054906101000a900463ffffffff1663ffffffff167f268e39839b17c0ddd4b92771a64137229a8bffba784f353f24833c16bcf0e31e60405160405180910390a2604051806040016040528060008152602001600063ffffffff1681525060126000820151816000015560208201518160010160006101000a81548163ffffffff021916908363ffffffff160217905550905050565b600160009054906101000a900473ffffffffffffffffffffffffffffffffffffffff1673ffffffffffffffffffffffffffffffffffffffff163373ffffffffffffffffffffffffffffffffffffffff161461088d576040517f08c379a00000000000000000000000000000000000000000000000000000000081526004016108849061593b565b60405180910390fd5b600060066000015414156108d6576040517f08c379a00000000000000000000000000000000000000000000000000000000081526004016108cd906159bb565b60405180910390fd5b600660010160009054906101000a900473ffffffffffffffffffffffffffffffffffffffff1673ffffffffffffffffffffffffffffffffffffffff166006600201547fcbba48cbe11f5f53a4b8f86013b3dced6bfa520669fbeb42b44f4ef4a6ba57e160405160405180910390a3604051806060016040528060008152602001600073ffffffffffffffffffffffffffffffffffffffff168152602001600081525060066000820151816000015560208201518160010160006101000a81548173ffffffffffffffffffffffffffffffffffffffff021916908373ffffffffffffffffffffffffffffffffffffffff16021790555060408201518160020155905050565b600160009054906101000a900473ffffffffffffffffffffffffffffffffffffffff1673ffffffffffffffffffffffffffffffffffffffff163373ffffffffffffffffffffffffffffffffffffffff1614610a6a576040517f08c379a0000000000000000000000000000000000000000000000000000000008152600401610a6190615a7b565b60405180910390fd5b60006004600001541415610ab3576040517f08c379a0000000000000000000000000000000000000000000000000000000008152600401610aaa9061573b565b60405180910390fd5b600460000154421015610afb576040517f08c379a0000000000000000000000000000000000000000000000000000000008152600401610af29061571b565b60405180910390fd5b6000600160009054906101000a900473ffffffffffffffffffffffffffffffffffffffff1690506000600460010160009054906101000a900473ffffffffffffffffffffffffffffffffffffffff169050604051806040016040528060008152602001600073ffffffffffffffffffffffffffffffffffffffff1681525060046000820151816000015560208201518160010160006101000a81548173ffffffffffffffffffffffffffffffffffffffff021916908373ffffffffffffffffffffffffffffffffffffffff16021790555090505080600160006101000a81548173ffffffffffffffffffffffffffffffffffffffff021916908373ffffffffffffffffffffffffffffffffffffffff1602179055508073ffffffffffffffffffffffffffffffffffffffff168273ffffffffffffffffffffffffffffffffffffffff167f12309f939c005790a0458600b5b21d505bb0d61ad30e57962e52c68748788bdc60405160405180910390a35050565b600160009054906101000a900473ffffffffffffffffffffffffffffffffffffffff1673ffffffffffffffffffffffffffffffffffffffff163373ffffffffffffffffffffffffffffffffffffffff1614610cfe576040517f08c379a0000000000000000000000000000000000000000000000000000000008152600401610cf5906157fb565b60405180910390fd5b6000610d2b600360049054906101000a900463ffffffff1663ffffffff1642613be390919063ffffffff16565b905060405180604001604052808281526020018373ffffffffffffffffffffffffffffffffffffffff1681525060046000820151816000015560208201518160010160006101000a81548173ffffffffffffffffffffffffffffffffffffffff021916908373ffffffffffffffffffffffffffffffffffffffff1602179055509050508173ffffffffffffffffffffffffffffffffffffffff16600160009054906101000a900473ffffffffffffffffffffffffffffffffffffffff1673ffffffffffffffffffffffffffffffffffffffff167f41b10bd706b2642889f1b32e2d77c19fb200a1a8a237ef32a7b2c48dbfc3ff4083604051610e2d9190615cb6565b60405180910390a35050565b60008060009054906101000a900473ffffffffffffffffffffffffffffffffffffffff1673ffffffffffffffffffffffffffffffffffffffff166318160ddd6040518163ffffffff1660e01b815260040160206040518083038186803b158015610ea257600080fd5b505afa158015610eb6573d6000803e3d6000fd5b505050506040513d601f19601f82011682018060405250810190610eda91906140d1565b9050600160009054906101000a900473ffffffffffffffffffffffffffffffffffffffff1673ffffffffffffffffffffffffffffffffffffffff163373ffffffffffffffffffffffffffffffffffffffff1614610f6c576040517f08c379a0000000000000000000000000000000000000000000000000000000008152600401610f63906156bb565b60405180910390fd5b600073ffffffffffffffffffffffffffffffffffffffff168373ffffffffffffffffffffffffffffffffffffffff161415610fdc576040517f08c379a0000000000000000000000000000000000000000000000000000000008152600401610fd390615bdb565b60405180910390fd5b6110a5620f424061109760008054906101000a900473ffffffffffffffffffffffffffffffffffffffff1673ffffffffffffffffffffffffffffffffffffffff166376c71ca16040518163ffffffff1660e01b815260040160206040518083038186803b15801561104c57600080fd5b505afa158015611060573d6000803e3d6000fd5b505050506040513d601f19601f8201168201806040525081019061108491906140a8565b61ffff1684613c6b90919063ffffffff16565b613cf190919063ffffffff16565b8211156110e7576040517f08c379a00000000000000000000000000000000000000000000000000000000081526004016110de906155db565b60405180910390fd5b6000611114600360009054906101000a900463ffffffff1663ffffffff1642613be390919063ffffffff16565b905060008054906101000a900473ffffffffffffffffffffffffffffffffffffffff1673ffffffffffffffffffffffffffffffffffffffff1663892b0edf6040518163ffffffff1660e01b815260040160206040518083038186803b15801561117c57600080fd5b505afa158015611190573d6000803e3d6000fd5b505050506040513d601f19601f820116820180604052508101906111b491906140d1565b8110156111f6576040517f08c379a00000000000000000000000000000000000000000000000000000000081526004016111ed90615abb565b60405180910390fd5b60405180606001604052808281526020018573ffffffffffffffffffffffffffffffffffffffff1681526020018481525060066000820151816000015560208201518160010160006101000a81548173ffffffffffffffffffffffffffffffffffffffff021916908373ffffffffffffffffffffffffffffffffffffffff160217905550604082015181600201559050508373ffffffffffffffffffffffffffffffffffffffff16837f77217190dc6169d79fa5e0fae70258ac2c7aff9a26395192a26a46fe8f73a738846112d48787613be390919063ffffffff16565b856040516112e493929190615d83565b60405180910390a350505050565b60025481565b60048060000154908060010160009054906101000a900473ffffffffffffffffffffffffffffffffffffffff16905082565b600160009054906101000a900473ffffffffffffffffffffffffffffffffffffffff1673ffffffffffffffffffffffffffffffffffffffff163373ffffffffffffffffffffffffffffffffffffffff16146113ba576040517f08c379a00000000000000000000000000000000000000000000000000000000081526004016113b190615a1b565b60405180910390fd5b60006006600001541415611403576040517f08c379a00000000000000000000000000000000000000000000000000000000081526004016113fa9061587b565b60405180910390fd5b60066000015442101561144b576040517f08c379a000000000000000000000000000000000000000000000000000000000815260040161144290615a5b565b60405180910390fd5b6000600660010160009054906101000a900473ffffffffffffffffffffffffffffffffffffffff1690506000600660020154905060008060009054906101000a900473ffffffffffffffffffffffffffffffffffffffff1673ffffffffffffffffffffffffffffffffffffffff166318160ddd6040518163ffffffff1660e01b815260040160206040518083038186803b1580156114e857600080fd5b505afa1580156114fc573d6000803e3d6000fd5b505050506040513d601f19601f8201168201806040525081019061152091906140d1565b9050604051806060016040528060008152602001600073ffffffffffffffffffffffffffffffffffffffff168152602001600081525060066000820151816000015560208201518160010160006101000a81548173ffffffffffffffffffffffffffffffffffffffff021916908373ffffffffffffffffffffffffffffffffffffffff1602179055506040820151816002015590505060008054906101000a900473ffffffffffffffffffffffffffffffffffffffff1673ffffffffffffffffffffffffffffffffffffffff166340c10f1984846040518363ffffffff1660e01b8152600401611611929190615597565b602060405180830381600087803b15801561162b57600080fd5b505af115801561163f573d6000803e3d6000fd5b505050506040513d601f19601f820116820180604052508101906116639190614056565b6116a2576040517f08c379a000000000000000000000000000000000000000000000000000000000815260040161169990615b3b565b60405180910390fd5b8273ffffffffffffffffffffffffffffffffffffffff16827fcbaf6b8a944325ef48927f70dda9445819f52d3a516f9ddff17ec1ad4d3e44cd836116ef8686613be390919063ffffffff16565b6040516116fd929190615d5a565b60405180910390a3505050565b60098060000154908060010160009054906101000a900473ffffffffffffffffffffffffffffffffffffffff16908060020154905083565b600360009054906101000a900463ffffffff1681565b60128060000154908060010160009054906101000a900463ffffffff16905082565b600160009054906101000a900473ffffffffffffffffffffffffffffffffffffffff1673ffffffffffffffffffffffffffffffffffffffff163373ffffffffffffffffffffffffffffffffffffffff161461180a576040517f08c379a00000000000000000000000000000000000000000000000000000000081526004016118019061581b565b60405180910390fd5b6000600c600001541415611853576040517f08c379a000000000000000000000000000000000000000000000000000000000815260040161184a9061577b565b60405180910390fd5b600c6000015442101561189b576040517f08c379a00000000000000000000000000000000000000000000000000000000081526004016118929061591b565b60405180910390fd5b60008060009054906101000a900473ffffffffffffffffffffffffffffffffffffffff1673ffffffffffffffffffffffffffffffffffffffff166376c71ca16040518163ffffffff1660e01b815260040160206040518083038186803b15801561190457600080fd5b505afa158015611918573d6000803e3d6000fd5b505050506040513d601f19601f8201168201806040525081019061193c91906140a8565b90506000600c60010160009054906101000a900461ffff169050604051806040016040528060008152602001600061ffff16815250600c6000820151816000015560208201518160010160006101000a81548161ffff021916908361ffff16021790555090505060008054906101000a900473ffffffffffffffffffffffffffffffffffffffff1673ffffffffffffffffffffffffffffffffffffffff16631bb8a4c6826040518263ffffffff1660e01b81526004016119fc9190615c9b565b602060405180830381600087803b158015611a1657600080fd5b505af1158015611a2a573d6000803e3d6000fd5b505050506040513d601f19601f82011682018060405250810190611a4e9190614056565b611a8d576040517f08c379a0000000000000000000000000000000000000000000000000000000008152600401611a849061583b565b60405180910390fd5b8061ffff168261ffff167f5582d36f2668e5190e5c83cef7ea9e6f8279e82c8b2d7c02e67a2d798d52a61060405160405180910390a35050565b600160009054906101000a900473ffffffffffffffffffffffffffffffffffffffff1673ffffffffffffffffffffffffffffffffffffffff163373ffffffffffffffffffffffffffffffffffffffff1614611b57576040517f08c379a0000000000000000000000000000000000000000000000000000000008152600401611b4e906158fb565b60405180910390fd5b6000611b84600360009054906101000a900463ffffffff1663ffffffff1642613be390919063ffffffff16565b905060405180604001604052808281526020018363ffffffff16815250600e6000820151816000015560208201518160010160006101000a81548163ffffffff021916908363ffffffff1602179055509050508163ffffffff1660008054906101000a900473ffffffffffffffffffffffffffffffffffffffff1673ffffffffffffffffffffffffffffffffffffffff1663941acc496040518163ffffffff1660e01b815260040160206040518083038186803b158015611c4457600080fd5b505afa158015611c58573d6000803e3d6000fd5b505050506040513d601f19601f82011682018060405250810190611c7c9190614123565b63ffffffff167fc2c16c71c9c502bf94ab9f1a0daabd5381971788a55723198760940ec854c54683604051611cb19190615cb6565b60405180910390a35050565b600160009054906101000a900473ffffffffffffffffffffffffffffffffffffffff1673ffffffffffffffffffffffffffffffffffffffff163373ffffffffffffffffffffffffffffffffffffffff1614611d4d576040517f08c379a0000000000000000000000000000000000000000000000000000000008152600401611d449061589b565b60405180910390fd5b60006009600001541415611d96576040517f08c379a0000000000000000000000000000000000000000000000000000000008152600401611d8d90615a3b565b60405180910390fd5b600960010160009054906101000a900473ffffffffffffffffffffffffffffffffffffffff1673ffffffffffffffffffffffffffffffffffffffff166009600201547f3d6cc2bba18f18586d6b9b1beab8aac2cee2c506d36c60a11935a30f81af407d60405160405180910390a3604051806060016040528060008152602001600073ffffffffffffffffffffffffffffffffffffffff168152602001600081525060096000820151816000015560208201518160010160006101000a81548173ffffffffffffffffffffffffffffffffffffffff021916908373ffffffffffffffffffffffffffffffffffffffff16021790555060408201518160020155905050565b600160009054906101000a900473ffffffffffffffffffffffffffffffffffffffff1673ffffffffffffffffffffffffffffffffffffffff163373ffffffffffffffffffffffffffffffffffffffff1614611f2a576040517f08c379a0000000000000000000000000000000000000000000000000000000008152600401611f219061595b565b60405180910390fd5b6000600c600001541415611f73576040517f08c379a0000000000000000000000000000000000000000000000000000000008152600401611f6a90615c7b565b60405180910390fd5b600c60010160009054906101000a900461ffff1661ffff167fbffab6b61a6bf644905cc5d086ac3462e2241f85dc2fc75b48ad971f46e028cd60405160405180910390a2604051806040016040528060008152602001600061ffff16815250600c6000820151816000015560208201518160010160006101000a81548161ffff021916908361ffff160217905550905050565b600360049054906101000a900463ffffffff1681565b600160009054906101000a900473ffffffffffffffffffffffffffffffffffffffff1673ffffffffffffffffffffffffffffffffffffffff163373ffffffffffffffffffffffffffffffffffffffff16146120ac576040517f08c379a00000000000000000000000000000000000000000000000000000000081526004016120a3906157db565b60405180910390fd5b600060106000015414156120f5576040517f08c379a00000000000000000000000000000000000000000000000000000000081526004016120ec9061565b565b60405180910390fd5b60106000015442101561213d576040517f08c379a000000000000000000000000000000000000000000000000000000000815260040161213490615bfb565b60405180910390fd5b60008060009054906101000a900473ffffffffffffffffffffffffffffffffffffffff1673ffffffffffffffffffffffffffffffffffffffff1663f147389f6040518163ffffffff1660e01b815260040160206040518083038186803b1580156121a657600080fd5b505afa1580156121ba573d6000803e3d6000fd5b505050506040513d601f19601f820116820180604052508101906121de9190613ff1565b90506000601060010160009054906101000a900473ffffffffffffffffffffffffffffffffffffffff169050604051806040016040528060008152602001600073ffffffffffffffffffffffffffffffffffffffff1681525060106000820151816000015560208201518160010160006101000a81548173ffffffffffffffffffffffffffffffffffffffff021916908373ffffffffffffffffffffffffffffffffffffffff16021790555090505060008054906101000a900473ffffffffffffffffffffffffffffffffffffffff1673ffffffffffffffffffffffffffffffffffffffff1663191250d7826040518263ffffffff1660e01b81526004016122e69190615553565b602060405180830381600087803b15801561230057600080fd5b505af1158015612314573d6000803e3d6000fd5b505050506040513d601f19601f820116820180604052508101906123389190614056565b612377576040517f08c379a000000000000000000000000000000000000000000000000000000000815260040161236e90615b1b565b60405180910390fd5b8073ffffffffffffffffffffffffffffffffffffffff168273ffffffffffffffffffffffffffffffffffffffff167f2c6bec894922f2ba10b6a4cad52a1bfa1fd844d06d78d90da30c1719f2756ff160405160405180910390a35050565b60108060000154908060010160009054906101000a900473ffffffffffffffffffffffffffffffffffffffff16905082565b600160009054906101000a900473ffffffffffffffffffffffffffffffffffffffff1673ffffffffffffffffffffffffffffffffffffffff163373ffffffffffffffffffffffffffffffffffffffff1614612497576040517f08c379a000000000000000000000000000000000000000000000000000000000815260040161248e9061563b565b60405180910390fd5b60006124c4600360009054906101000a900463ffffffff1663ffffffff1642613be390919063ffffffff16565b905060405180604001604052808281526020018373ffffffffffffffffffffffffffffffffffffffff1681525060106000820151816000015560208201518160010160006101000a81548173ffffffffffffffffffffffffffffffffffffffff021916908373ffffffffffffffffffffffffffffffffffffffff1602179055509050508173ffffffffffffffffffffffffffffffffffffffff1660008054906101000a900473ffffffffffffffffffffffffffffffffffffffff1673ffffffffffffffffffffffffffffffffffffffff1663f147389f6040518163ffffffff1660e01b815260040160206040518083038186803b1580156125c457600080fd5b505afa1580156125d8573d6000803e3d6000fd5b505050506040513d601f19601f820116820180604052508101906125fc9190613ff1565b73ffffffffffffffffffffffffffffffffffffffff167f1b60a6ca94e03e86f3d4d463de5a2caca6cd6c0e9fbeec67acd289ef7068e9d5836040516126419190615cb6565b60405180910390a35050565b600160009054906101000a900473ffffffffffffffffffffffffffffffffffffffff1673ffffffffffffffffffffffffffffffffffffffff163373ffffffffffffffffffffffffffffffffffffffff16146126dd576040517f08c379a00000000000000000000000000000000000000000000000000000000081526004016126d490615a9b565b60405180910390fd5b6000600e600001541415612726576040517f08c379a000000000000000000000000000000000000000000000000000000000815260040161271d9061567b565b60405180910390fd5b600e6000015442101561276e576040517f08c379a000000000000000000000000000000000000000000000000000000000815260040161276590615b5b565b60405180910390fd5b60008060009054906101000a900473ffffffffffffffffffffffffffffffffffffffff1673ffffffffffffffffffffffffffffffffffffffff1663941acc496040518163ffffffff1660e01b815260040160206040518083038186803b1580156127d757600080fd5b505afa1580156127eb573d6000803e3d6000fd5b505050506040513d601f19601f8201168201806040525081019061280f9190614123565b90506000600e60010160009054906101000a900463ffffffff169050604051806040016040528060008152602001600063ffffffff16815250600e6000820151816000015560208201518160010160006101000a81548163ffffffff021916908363ffffffff16021790555090505060008054906101000a900473ffffffffffffffffffffffffffffffffffffffff1673ffffffffffffffffffffffffffffffffffffffff16631d4f8072826040518263ffffffff1660e01b81526004016128d79190615de3565b602060405180830381600087803b1580156128f157600080fd5b505af1158015612905573d6000803e3d6000fd5b505050506040513d601f19601f820116820180604052508101906129299190614056565b612968576040517f08c379a000000000000000000000000000000000000000000000000000000000815260040161295f906156fb565b60405180910390fd5b8063ffffffff168263ffffffff167f7025e54ef5c16a096828ea481527440f63a7fbdc6305b0ade9a4389ffd8cf0d760405160405180910390a35050565b600160009054906101000a900473ffffffffffffffffffffffffffffffffffffffff1673ffffffffffffffffffffffffffffffffffffffff163373ffffffffffffffffffffffffffffffffffffffff1614612a36576040517f08c379a0000000000000000000000000000000000000000000000000000000008152600401612a2d9061579b565b60405180910390fd5b60006012600001541415612a7f576040517f08c379a0000000000000000000000000000000000000000000000000000000008152600401612a7690615c5b565b60405180910390fd5b601260000154421015612ac7576040517f08c379a0000000000000000000000000000000000000000000000000000000008152600401612abe90615b9b565b60405180910390fd5b6000600360009054906101000a900463ffffffff1690506000601260010160009054906101000a900463ffffffff169050604051806040016040528060008152602001600063ffffffff1681525060126000820151816000015560208201518160010160006101000a81548163ffffffff021916908363ffffffff16021790555090505080600360006101000a81548163ffffffff021916908363ffffffff1602179055508063ffffffff168263ffffffff167f3ee0f8b74189553d82e64fbb1afcf149c2490693194978e4fd0d119967aabf3560405160405180910390a35050565b600160009054906101000a900473ffffffffffffffffffffffffffffffffffffffff1673ffffffffffffffffffffffffffffffffffffffff163373ffffffffffffffffffffffffffffffffffffffff1614612c3a576040517f08c379a0000000000000000000000000000000000000000000000000000000008152600401612c3190615c1b565b60405180910390fd5b600360049054906101000a900463ffffffff1663ffffffff168163ffffffff161015612c9b576040517f08c379a0000000000000000000000000000000000000000000000000000000008152600401612c929061599b565b60405180910390fd5b6000612cc8600360009054906101000a900463ffffffff1663ffffffff1642613be390919063ffffffff16565b905060405180604001604052808281526020018363ffffffff1681525060126000820151816000015560208201518160010160006101000a81548163ffffffff021916908363ffffffff1602179055509050508163ffffffff16600360009054906101000a900463ffffffff1663ffffffff167f069598cb2d57f0d331816a082dc250a4166ca53fbd97029d6b275b8173365e5f83604051612d6a9190615cb6565b60405180910390a35050565b600160009054906101000a900473ffffffffffffffffffffffffffffffffffffffff1673ffffffffffffffffffffffffffffffffffffffff163373ffffffffffffffffffffffffffffffffffffffff1614612e06576040517f08c379a0000000000000000000000000000000000000000000000000000000008152600401612dfd9061569b565b60405180910390fd5b60006009600001541415612e4f576040517f08c379a0000000000000000000000000000000000000000000000000000000008152600401612e469061597b565b60405180910390fd5b600960000154421015612e97576040517f08c379a0000000000000000000000000000000000000000000000000000000008152600401612e8e90615adb565b60405180910390fd5b6000600960010160009054906101000a900473ffffffffffffffffffffffffffffffffffffffff16905060006009600201549050604051806060016040528060008152602001600073ffffffffffffffffffffffffffffffffffffffff168152602001600081525060096000820151816000015560208201518160010160006101000a81548173ffffffffffffffffffffffffffffffffffffffff021916908373ffffffffffffffffffffffffffffffffffffffff1602179055506040820151816002015590505060008054906101000a900473ffffffffffffffffffffffffffffffffffffffff1673ffffffffffffffffffffffffffffffffffffffff16639dc29fac83836040518363ffffffff1660e01b8152600401612fba929190615597565b602060405180830381600087803b158015612fd457600080fd5b505af1158015612fe8573d6000803e3d6000fd5b505050506040513d601f19601f8201168201806040525081019061300c9190614056565b61304b576040517f08c379a0000000000000000000000000000000000000000000000000000000008152600401613042906155fb565b60405180910390fd5b60008060009054906101000a900473ffffffffffffffffffffffffffffffffffffffff1673ffffffffffffffffffffffffffffffffffffffff166318160ddd6040518163ffffffff1660e01b815260040160206040518083038186803b1580156130b457600080fd5b505afa1580156130c8573d6000803e3d6000fd5b505050506040513d601f19601f820116820180604052508101906130ec91906140d1565b90508273ffffffffffffffffffffffffffffffffffffffff16827f09c59a79c658ab5a8ed31ebecb2e804b41b6a74bf519b7980b26c06af31a537561313a8585613be390919063ffffffff16565b84604051613149929190615d5a565b60405180910390a3505050565b600160009054906101000a900473ffffffffffffffffffffffffffffffffffffffff1673ffffffffffffffffffffffffffffffffffffffff163373ffffffffffffffffffffffffffffffffffffffff16146131e6576040517f08c379a00000000000000000000000000000000000000000000000000000000081526004016131dd906158db565b60405180910390fd5b6000600e60000154141561322f576040517f08c379a0000000000000000000000000000000000000000000000000000000008152600401613226906159db565b60405180910390fd5b604051806040016040528060008152602001600063ffffffff16815250600e6000820151816000015560208201518160010160006101000a81548163ffffffff021916908363ffffffff160217905550905050600e60010160009054906101000a900463ffffffff1663ffffffff167f334d41ac66c5a2fdc0ce0e80d3774e9a0a2396ce959e99260267e9c05ec486ff60405160405180910390a2565b600160009054906101000a900473ffffffffffffffffffffffffffffffffffffffff1673ffffffffffffffffffffffffffffffffffffffff163373ffffffffffffffffffffffffffffffffffffffff161461335c576040517f08c379a00000000000000000000000000000000000000000000000000000000081526004016133539061585b565b60405180910390fd5b600073ffffffffffffffffffffffffffffffffffffffff168273ffffffffffffffffffffffffffffffffffffffff1614156133cc576040517f08c379a00000000000000000000000000000000000000000000000000000000081526004016133c3906158bb565b60405180910390fd5b8060008054906101000a900473ffffffffffffffffffffffffffffffffffffffff1673ffffffffffffffffffffffffffffffffffffffff1663dd62ed3e84306040518363ffffffff1660e01b815260040161342892919061556e565b60206040518083038186803b15801561344057600080fd5b505afa158015613454573d6000803e3d6000fd5b505050506040513d601f19601f8201168201806040525081019061347891906140d1565b10156134b9576040517f08c379a00000000000000000000000000000000000000000000000000000000081526004016134b090615bbb565b60405180910390fd5b60008060009054906101000a900473ffffffffffffffffffffffffffffffffffffffff1673ffffffffffffffffffffffffffffffffffffffff166318160ddd6040518163ffffffff1660e01b815260040160206040518083038186803b15801561352257600080fd5b505afa158015613536573d6000803e3d6000fd5b505050506040513d601f19601f8201168201806040525081019061355a91906140d1565b905060006135718383613d3b90919063ffffffff16565b905060006135a0600360009054906101000a900463ffffffff1663ffffffff1642613be390919063ffffffff16565b905060008054906101000a900473ffffffffffffffffffffffffffffffffffffffff1673ffffffffffffffffffffffffffffffffffffffff1663892b0edf6040518163ffffffff1660e01b815260040160206040518083038186803b15801561360857600080fd5b505afa15801561361c573d6000803e3d6000fd5b505050506040513d601f19601f8201168201806040525081019061364091906140d1565b811015613682576040517f08c379a000000000000000000000000000000000000000000000000000000000815260040161367990615afb565b60405180910390fd5b60405180606001604052808281526020018673ffffffffffffffffffffffffffffffffffffffff1681526020018581525060096000820151816000015560208201518160010160006101000a81548173ffffffffffffffffffffffffffffffffffffffff021916908373ffffffffffffffffffffffffffffffffffffffff160217905550604082015181600201559050508473ffffffffffffffffffffffffffffffffffffffff16847fb090ef20572b93378e0ec84252d95d856bb4c2243e1d4a2d695c852f38576cd785858560405161375e93929190615d83565b60405180910390a35050505050565b60068060000154908060010160009054906101000a900473ffffffffffffffffffffffffffffffffffffffff16908060020154905083565b600c8060000154908060010160009054906101000a900461ffff16905082565b600160009054906101000a900473ffffffffffffffffffffffffffffffffffffffff1673ffffffffffffffffffffffffffffffffffffffff163373ffffffffffffffffffffffffffffffffffffffff1614613855576040517f08c379a000000000000000000000000000000000000000000000000000000000815260040161384c906157bb565b60405180910390fd5b6000601060000154141561389e576040517f08c379a0000000000000000000000000000000000000000000000000000000008152600401613895906156db565b60405180910390fd5b601060010160009054906101000a900473ffffffffffffffffffffffffffffffffffffffff1673ffffffffffffffffffffffffffffffffffffffff167ff89bb1b6e2fbcf05d2e7cc87334f623c93aad7daa51f412eb24508896046c71c60405160405180910390a2604051806040016040528060008152602001600073ffffffffffffffffffffffffffffffffffffffff1681525060106000820151816000015560208201518160010160006101000a81548173ffffffffffffffffffffffffffffffffffffffff021916908373ffffffffffffffffffffffffffffffffffffffff160217905550905050565b600e8060000154908060010160009054906101000a900463ffffffff16905082565b600160009054906101000a900473ffffffffffffffffffffffffffffffffffffffff1681565b60008054906101000a900473ffffffffffffffffffffffffffffffffffffffff1681565b600160009054906101000a900473ffffffffffffffffffffffffffffffffffffffff1673ffffffffffffffffffffffffffffffffffffffff163373ffffffffffffffffffffffffffffffffffffffff1614613a87576040517f08c379a0000000000000000000000000000000000000000000000000000000008152600401613a7e9061575b565b60405180910390fd5b6000613ab4600360009054906101000a900463ffffffff1663ffffffff1642613be390919063ffffffff16565b905060405180604001604052808281526020018361ffff16815250600c6000820151816000015560208201518160010160006101000a81548161ffff021916908361ffff1602179055509050508161ffff1660008054906101000a900473ffffffffffffffffffffffffffffffffffffffff1673ffffffffffffffffffffffffffffffffffffffff166376c71ca16040518163ffffffff1660e01b815260040160206040518083038186803b158015613b6c57600080fd5b505afa158015613b80573d6000803e3d6000fd5b505050506040513d601f19601f82011682018060405250810190613ba491906140a8565b61ffff167f74f421014a657af56c25bea584d2b372d7bc876c327efdae247585bfedd0808f83604051613bd79190615cb6565b60405180910390a35050565b600080828401905083811015613c61576040517f08c379a000000000000000000000000000000000000000000000000000000000815260040180806020018281038252601b8152602001807f536166654d6174683a206164646974696f6e206f766572666c6f77000000000081525060200191505060405180910390fd5b8091505092915050565b600080831415613c7e5760009050613ceb565b6000828402905082848281613c8f57fe5b0414613ce6576040517f08c379a0000000000000000000000000000000000000000000000000000000008152600401808060200182810382526021815260200180615f0d6021913960400191505060405180910390fd5b809150505b92915050565b6000613d3383836040518060400160405280601a81526020017f536166654d6174683a206469766973696f6e206279207a65726f000000000000815250613d85565b905092915050565b6000613d7d83836040518060400160405280601f81526020017f536166654d6174683a207375627472616374696f6e20756e646572666c6f7700815250613e4b565b905092915050565b60008083118290613e31576040517f08c379a00000000000000000000000000000000000000000000000000000000081526004018080602001828103825283818151815260200191508051906020019080838360005b83811015613df6578082015181840152602081019050613ddb565b50505050905090810190601f168015613e235780820380516001836020036101000a031916815260200191505b509250505060405180910390fd5b506000838581613e3d57fe5b049050809150509392505050565b6000838311158290613ef8576040517f08c379a00000000000000000000000000000000000000000000000000000000081526004018080602001828103825283818151815260200191508051906020019080838360005b83811015613ebd578082015181840152602081019050613ea2565b50505050905090810190601f168015613eea5780820380516001836020036101000a031916815260200191505b509250505060405180910390fd5b5060008385039050809150509392505050565b600081359050613f1a81615e99565b92915050565b600081519050613f2f81615e99565b92915050565b600081519050613f4481615eb0565b92915050565b600081359050613f5981615ec7565b92915050565b600081519050613f6e81615ec7565b92915050565b600081359050613f8381615ede565b92915050565b600081519050613f9881615ede565b92915050565b600081359050613fad81615ef5565b92915050565b600081519050613fc281615ef5565b92915050565b600060208284031215613fda57600080fd5b6000613fe884828501613f0b565b91505092915050565b60006020828403121561400357600080fd5b600061401184828501613f20565b91505092915050565b6000806040838503121561402d57600080fd5b600061403b85828601613f0b565b925050602061404c85828601613f74565b9150509250929050565b60006020828403121561406857600080fd5b600061407684828501613f35565b91505092915050565b60006020828403121561409157600080fd5b600061409f84828501613f4a565b91505092915050565b6000602082840312156140ba57600080fd5b60006140c884828501613f5f565b91505092915050565b6000602082840312156140e357600080fd5b60006140f184828501613f89565b91505092915050565b60006020828403121561410c57600080fd5b600061411a84828501613f9e565b91505092915050565b60006020828403121561413557600080fd5b600061414384828501613fb3565b91505092915050565b61415581615e0f565b82525050565b61416481615e75565b82525050565b6000614177602883615dfe565b91507f534d3a3a70726f706f73654d696e743a20616d6f756e7420657863656564732060008301527f6d696e74206361700000000000000000000000000000000000000000000000006020830152604082019050919050565b60006141dd601c83615dfe565b91507f534d3a3a6163636570744275726e3a20756e7375636365737366756c000000006000830152602082019050919050565b600061421d602383615dfe565b91507f534d3a3a63616e63656c41646d696e3a206e6f206163746976652070726f706f60008301527f73616c00000000000000000000000000000000000000000000000000000000006020830152604082019050919050565b6000614283602383615dfe565b91507f534d3a3a70726f706f7365534d3a2063616c6c6572206d75737420626520616460008301527f6d696e00000000000000000000000000000000000000000000000000000000006020830152604082019050919050565b60006142e9602083615dfe565b91507f534d3a3a616363657074534d3a206e6f206163746976652070726f706f73616c6000830152602082019050919050565b6000614329602083615dfe565b91507f534d3a3a61636365707457503a206e6f206163746976652070726f706f73616c6000830152602082019050919050565b6000614369602483615dfe565b91507f534d3a3a6163636570744275726e3a2063616c6c6572206d757374206265206160008301527f646d696e000000000000000000000000000000000000000000000000000000006020830152604082019050919050565b60006143cf602583615dfe565b91507f534d3a3a70726f706f73654d696e743a2063616c6c6572206d7573742062652060008301527f61646d696e0000000000000000000000000000000000000000000000000000006020830152604082019050919050565b6000614435602083615dfe565b91507f534d3a3a63616e63656c534d3a206e6f206163746976652070726f706f73616c6000830152602082019050919050565b6000614475601a83615dfe565b91507f534d3a3a61636365707457503a20756e7375636365737366756c0000000000006000830152602082019050919050565b60006144b5602c83615dfe565b91507f534d3a3a61636365707441646d696e3a2070726f706f73616c20657461206e6f60008301527f74207965742070617373656400000000000000000000000000000000000000006020830152604082019050919050565b600061451b602383615dfe565b91507f534d3a3a61636365707441646d696e3a206e6f206163746976652070726f706f60008301527f73616c00000000000000000000000000000000000000000000000000000000006020830152604082019050919050565b6000614581602383615dfe565b91507f534d3a3a70726f706f73654d433a2063616c6c6572206d75737420626520616460008301527f6d696e00000000000000000000000000000000000000000000000000000000006020830152604082019050919050565b60006145e7602083615dfe565b91507f534d3a3a6163636570744d433a206e6f206163746976652070726f706f73616c6000830152602082019050919050565b6000614627602283615dfe565b91507f534d3a3a616363657074504c3a2063616c6c6572206d7573742062652061646d60008301527f696e0000000000000000000000000000000000000000000000000000000000006020830152604082019050919050565b600061468d602283615dfe565b91507f534d3a3a63616e63656c534d3a2063616c6c6572206d7573742062652061646d60008301527f696e0000000000000000000000000000000000000000000000000000000000006020830152604082019050919050565b60006146f3602283615dfe565b91507f534d3a3a616363657074534d3a2063616c6c6572206d7573742062652061646d60008301527f696e0000000000000000000000000000000000000000000000000000000000006020830152604082019050919050565b6000614759602683615dfe565b91507f534d3a3a70726f706f736541646d696e3a2063616c6c6572206d75737420626560008301527f2061646d696e00000000000000000000000000000000000000000000000000006020830152604082019050919050565b60006147bf602283615dfe565b91507f534d3a3a6163636570744d433a2063616c6c6572206d7573742062652061646d60008301527f696e0000000000000000000000000000000000000000000000000000000000006020830152604082019050919050565b6000614825601a83615dfe565b91507f534d3a3a6163636570744d433a20756e7375636365737366756c0000000000006000830152602082019050919050565b6000614865602583615dfe565b91507f534d3a3a70726f706f73654275726e3a2063616c6c6572206d7573742062652060008301527f61646d696e0000000000000000000000000000000000000000000000000000006020830152604082019050919050565b60006148cb602283615dfe565b91507f534d3a3a6163636570744d696e743a206e6f206163746976652070726f706f7360008301527f616c0000000000000000000000000000000000000000000000000000000000006020830152604082019050919050565b6000614931602483615dfe565b91507f534d3a3a63616e63656c4275726e3a2063616c6c6572206d757374206265206160008301527f646d696e000000000000000000000000000000000000000000000000000000006020830152604082019050919050565b6000614997603683615dfe565b91507f534d3a3a70726f706f73654275726e3a2063616e6e6f74207472616e7366657260008301527f2066726f6d20746865207a65726f2061646472657373000000000000000000006020830152604082019050919050565b60006149fd602283615dfe565b91507f534d3a3a63616e63656c57503a2063616c6c6572206d7573742062652061646d60008301527f696e0000000000000000000000000000000000000000000000000000000000006020830152604082019050919050565b6000614a63602383615dfe565b91507f534d3a3a70726f706f736557503a2063616c6c6572206d75737420626520616460008301527f6d696e00000000000000000000000000000000000000000000000000000000006020830152604082019050919050565b6000614ac9602983615dfe565b91507f534d3a3a6163636570744d433a2070726f706f73616c20657461206e6f74207960008301527f65742070617373656400000000000000000000000000000000000000000000006020830152604082019050919050565b6000614b2f602483615dfe565b91507f534d3a3a63616e63656c4d696e743a2063616c6c6572206d757374206265206160008301527f646d696e000000000000000000000000000000000000000000000000000000006020830152604082019050919050565b6000614b95602283615dfe565b91507f534d3a3a63616e63656c4d433a2063616c6c6572206d7573742062652061646d60008301527f696e0000000000000000000000000000000000000000000000000000000000006020830152604082019050919050565b6000614bfb602283615dfe565b91507f534d3a3a6163636570744275726e3a206e6f206163746976652070726f706f7360008301527f616c0000000000000000000000000000000000000000000000000000000000006020830152604082019050919050565b6000614c61602883615dfe565b91507f534d3a3a70726f706f7365504c3a206c656e677468206d757374206265203e3d60008301527f206d696e696d756d0000000000000000000000000000000000000000000000006020830152604082019050919050565b6000614cc7602283615dfe565b91507f534d3a3a63616e63656c4d696e743a206e6f206163746976652070726f706f7360008301527f616c0000000000000000000000000000000000000000000000000000000000006020830152604082019050919050565b6000614d2d602b83615dfe565b91507f534d3a3a63616e63656c57616974696e67506572696f643a206e6f206163746960008301527f76652070726f706f73616c0000000000000000000000000000000000000000006020830152604082019050919050565b6000614d93602583615dfe565b91507f534d3a3a63616e63656c41646d696e3a2063616c6c6572206d7573742062652060008301527f61646d696e0000000000000000000000000000000000000000000000000000006020830152604082019050919050565b6000614df9602483615dfe565b91507f534d3a3a6163636570744d696e743a2063616c6c6572206d757374206265206160008301527f646d696e000000000000000000000000000000000000000000000000000000006020830152604082019050919050565b6000614e5f602283615dfe565b91507f534d3a3a63616e63656c4275726e3a206e6f206163746976652070726f706f7360008301527f616c0000000000000000000000000000000000000000000000000000000000006020830152604082019050919050565b6000614ec5602b83615dfe565b91507f534d3a3a6163636570744d696e743a2070726f706f73616c20657461206e6f7460008301527f20796574207061737365640000000000000000000000000000000000000000006020830152604082019050919050565b6000614f2b602583615dfe565b91507f534d3a3a61636365707441646d696e3a2063616c6c6572206d7573742062652060008301527f61646d696e0000000000000000000000000000000000000000000000000000006020830152604082019050919050565b6000614f91602283615dfe565b91507f534d3a3a61636365707457503a2063616c6c6572206d7573742062652061646d60008301527f696e0000000000000000000000000000000000000000000000000000000000006020830152604082019050919050565b6000614ff7602883615dfe565b91507f534d3a3a70726f706f73654d696e743a206d696e74696e67206e6f7420616c6c60008301527f6f776564207965740000000000000000000000000000000000000000000000006020830152604082019050919050565b600061505d602b83615dfe565b91507f534d3a3a6163636570744275726e3a2070726f706f73616c20657461206e6f7460008301527f20796574207061737365640000000000000000000000000000000000000000006020830152604082019050919050565b60006150c3602883615dfe565b91507f534d3a3a70726f706f73654275726e3a206275726e696e67206e6f7420616c6c60008301527f6f776564207965740000000000000000000000000000000000000000000000006020830152604082019050919050565b6000615129601a83615dfe565b91507f534d3a3a616363657074534d3a20756e7375636365737366756c0000000000006000830152602082019050919050565b6000615169601c83615dfe565b91507f534d3a3a6163636570744d696e743a20756e7375636365737366756c000000006000830152602082019050919050565b60006151a9602983615dfe565b91507f534d3a3a61636365707457503a2070726f706f73616c20657461206e6f74207960008301527f65742070617373656400000000000000000000000000000000000000000000006020830152604082019050919050565b600061520f602283615dfe565b91507f534d3a3a63616e63656c504c3a2063616c6c6572206d7573742062652061646d60008301527f696e0000000000000000000000000000000000000000000000000000000000006020830152604082019050919050565b6000615275602983615dfe565b91507f534d3a3a616363657074504c3a2070726f706f73616c20657461206e6f74207960008301527f65742070617373656400000000000000000000000000000000000000000000006020830152604082019050919050565b60006152db603083615dfe565b91507f534d3a3a70726f706f73654275726e3a20737570706c794d616e61676572206160008301527f7070726f76616c203c20616d6f756e74000000000000000000000000000000006020830152604082019050919050565b6000615341603483615dfe565b91507f534d3a3a70726f706f73654d696e743a2063616e6e6f74207472616e7366657260008301527f20746f20746865207a65726f20616464726573730000000000000000000000006020830152604082019050919050565b60006153a7602983615dfe565b91507f534d3a3a616363657074534d3a2070726f706f73616c20657461206e6f74207960008301527f65742070617373656400000000000000000000000000000000000000000000006020830152604082019050919050565b600061540d602383615dfe565b91507f534d3a3a70726f706f7365504c3a2063616c6c6572206d75737420626520616460008301527f6d696e00000000000000000000000000000000000000000000000000000000006020830152604082019050919050565b6000615473602083615dfe565b91507f534d3a3a63616e63656c504c3a206e6f206163746976652070726f706f73616c6000830152602082019050919050565b60006154b3602083615dfe565b91507f534d3a3a616363657074504c3a206e6f206163746976652070726f706f73616c6000830152602082019050919050565b60006154f3602083615dfe565b91507f534d3a3a63616e63656c4d433a206e6f206163746976652070726f706f73616c6000830152602082019050919050565b61552f81615e2d565b82525050565b61553e81615e5b565b82525050565b61554d81615e65565b82525050565b6000602082019050615568600083018461414c565b92915050565b6000604082019050615583600083018561414c565b615590602083018461414c565b9392505050565b60006040820190506155ac600083018561414c565b6155b96020830184615535565b9392505050565b60006020820190506155d5600083018461415b565b92915050565b600060208201905081810360008301526155f48161416a565b9050919050565b60006020820190508181036000830152615614816141d0565b9050919050565b6000602082019050818103600083015261563481614210565b9050919050565b6000602082019050818103600083015261565481614276565b9050919050565b60006020820190508181036000830152615674816142dc565b9050919050565b600060208201905081810360008301526156948161431c565b9050919050565b600060208201905081810360008301526156b48161435c565b9050919050565b600060208201905081810360008301526156d4816143c2565b9050919050565b600060208201905081810360008301526156f481614428565b9050919050565b6000602082019050818103600083015261571481614468565b9050919050565b60006020820190508181036000830152615734816144a8565b9050919050565b600060208201905081810360008301526157548161450e565b9050919050565b6000602082019050818103600083015261577481614574565b9050919050565b60006020820190508181036000830152615794816145da565b9050919050565b600060208201905081810360008301526157b48161461a565b9050919050565b600060208201905081810360008301526157d481614680565b9050919050565b600060208201905081810360008301526157f4816146e6565b9050919050565b600060208201905081810360008301526158148161474c565b9050919050565b60006020820190508181036000830152615834816147b2565b9050919050565b6000602082019050818103600083015261585481614818565b9050919050565b6000602082019050818103600083015261587481614858565b9050919050565b60006020820190508181036000830152615894816148be565b9050919050565b600060208201905081810360008301526158b481614924565b9050919050565b600060208201905081810360008301526158d48161498a565b9050919050565b600060208201905081810360008301526158f4816149f0565b9050919050565b6000602082019050818103600083015261591481614a56565b9050919050565b6000602082019050818103600083015261593481614abc565b9050919050565b6000602082019050818103600083015261595481614b22565b9050919050565b6000602082019050818103600083015261597481614b88565b9050919050565b6000602082019050818103600083015261599481614bee565b9050919050565b600060208201905081810360008301526159b481614c54565b9050919050565b600060208201905081810360008301526159d481614cba565b9050919050565b600060208201905081810360008301526159f481614d20565b9050919050565b60006020820190508181036000830152615a1481614d86565b9050919050565b60006020820190508181036000830152615a3481614dec565b9050919050565b60006020820190508181036000830152615a5481614e52565b9050919050565b60006020820190508181036000830152615a7481614eb8565b9050919050565b60006020820190508181036000830152615a9481614f1e565b9050919050565b60006020820190508181036000830152615ab481614f84565b9050919050565b60006020820190508181036000830152615ad481614fea565b9050919050565b60006020820190508181036000830152615af481615050565b9050919050565b60006020820190508181036000830152615b14816150b6565b9050919050565b60006020820190508181036000830152615b348161511c565b9050919050565b60006020820190508181036000830152615b548161515c565b9050919050565b60006020820190508181036000830152615b748161519c565b9050919050565b60006020820190508181036000830152615b9481615202565b9050919050565b60006020820190508181036000830152615bb481615268565b9050919050565b60006020820190508181036000830152615bd4816152ce565b9050919050565b60006020820190508181036000830152615bf481615334565b9050919050565b60006020820190508181036000830152615c148161539a565b9050919050565b60006020820190508181036000830152615c3481615400565b9050919050565b60006020820190508181036000830152615c5481615466565b9050919050565b60006020820190508181036000830152615c74816154a6565b9050919050565b60006020820190508181036000830152615c94816154e6565b9050919050565b6000602082019050615cb06000830184615526565b92915050565b6000602082019050615ccb6000830184615535565b92915050565b6000604082019050615ce66000830185615535565b615cf3602083018461414c565b9392505050565b6000606082019050615d0f6000830186615535565b615d1c602083018561414c565b615d296040830184615535565b949350505050565b6000604082019050615d466000830185615535565b615d536020830184615526565b9392505050565b6000604082019050615d6f6000830185615535565b615d7c6020830184615535565b9392505050565b6000606082019050615d986000830186615535565b615da56020830185615535565b615db26040830184615535565b949350505050565b6000604082019050615dcf6000830185615535565b615ddc6020830184615544565b9392505050565b6000602082019050615df86000830184615544565b92915050565b600082825260208201905092915050565b6000615e1a82615e3b565b9050919050565b60008115159050919050565b600061ffff82169050919050565b600073ffffffffffffffffffffffffffffffffffffffff82169050919050565b6000819050919050565b600063ffffffff82169050919050565b6000615e8082615e87565b9050919050565b6000615e9282615e3b565b9050919050565b615ea281615e0f565b8114615ead57600080fd5b50565b615eb981615e21565b8114615ec457600080fd5b50565b615ed081615e2d565b8114615edb57600080fd5b50565b615ee781615e5b565b8114615ef257600080fd5b50565b615efe81615e65565b8114615f0957600080fd5b5056fe536166654d6174683a206d756c7469706c69636174696f6e206f766572666c6f77a26469706673582212203b6ef5b9417828dd343e54cf1e316f9316d789fa7549cb521af6c30082d0011664736f6c63430007040033",
  "devdoc": {
    "details": "Responsible for enacting decisions related to ARCH token supply Decisions are made via a timelocked propose/accept scheme Initial proposal length (timelock) is 30 days",
    "kind": "dev",
    "methods": {
      "constructor": {
        "params": {
          "_admin": "The admin account for this contract",
          "_token": "The address for the token"
        }
      },
      "proposeAdmin(address)": {
        "params": {
          "newAdmin": "The address of the new admin"
        }
      },
      "proposeBurn(address,uint256)": {
        "params": {
          "amount": "The number of tokens to be burned",
          "src": "The address of the account that will burn tokens"
        }
      },
      "proposeMint(address,uint256)": {
        "params": {
          "amount": "The number of tokens to be minted",
          "dst": "The address of the destination account"
        }
      },
      "proposeMintCap(uint16)": {
        "params": {
          "newCap": "The new mint cap in bips (10,000 bips = 1% of totalSupply)"
        }
      },
      "proposeNewProposalLength(uint32)": {
        "params": {
          "newLength": "new proposal length"
        }
      },
      "proposeSupplyChangeWaitingPeriod(uint32)": {
        "params": {
          "newPeriod": "new waiting period"
        }
      },
      "proposeSupplyManager(address)": {
        "params": {
          "newSupplyManager": "new supply manager address"
        }
      }
    },
    "title": "SupplyManager",
    "version": 1
  },
  "userdoc": {
    "events": {
      "AdminAccepted(address,address)": {
        "notice": "An event that's emitted when a new admin is accepted"
      },
      "AdminCanceled(address)": {
        "notice": "An event that's emitted when an admin proposal is canceled"
      },
      "AdminProposed(address,address,uint256)": {
        "notice": "An event that's emitted when a new admin is proposed"
      },
      "BurnAccepted(uint256,address,uint256,uint256)": {
        "notice": "An event that's emitted when a new burn is accepted"
      },
      "BurnCanceled(uint256,address)": {
        "notice": "An event that's emitted when a burn proposal is canceled"
      },
      "BurnProposed(uint256,address,uint256,uint256,uint256)": {
        "notice": "An event that's emitted when a new burn is proposed"
      },
      "MintAccepted(uint256,address,uint256,uint256)": {
        "notice": "An event that's emitted when a new mint is accepted"
      },
      "MintCanceled(uint256,address)": {
        "notice": "An event that's emitted when a mint proposal is canceled"
      },
      "MintCapAccepted(uint16,uint16)": {
        "notice": "An event that's emitted when a new mint cap is accepted"
      },
      "MintCapCanceled(uint16)": {
        "notice": "An event that's emitted when a mint cap proposal is canceled"
      },
      "MintCapProposed(uint16,uint16,uint256)": {
        "notice": "An event that's emitted when a new mint cap is proposed"
      },
      "MintProposed(uint256,address,uint256,uint256,uint256)": {
        "notice": "An event that's emitted when a new mint is proposed"
      },
      "ProposalLengthAccepted(uint32,uint32)": {
        "notice": "An event that's emitted when a new proposal length is accepted"
      },
      "ProposalLengthCanceled(uint32)": {
        "notice": "An event that's emitted when a proposal length proposal is canceled"
      },
      "ProposalLengthProposed(uint32,uint32,uint256)": {
        "notice": "An event that's emitted when a new proposal length is proposed"
      },
      "SupplyManagerAccepted(address,address)": {
        "notice": "An event that's emitted when a new supply manager is accepted"
      },
      "SupplyManagerCanceled(address)": {
        "notice": "An event that's emitted when a supply manager proposal is canceled"
      },
      "SupplyManagerProposed(address,address,uint256)": {
        "notice": "An event that's emitted when a new supply manager is proposed"
      },
      "WaitingPeriodAccepted(uint32,uint32)": {
        "notice": "An event that's emitted when a new waiting period is accepted"
      },
      "WaitingPeriodCanceled(uint32)": {
        "notice": "An event that's emitted when a waiting period proposal is canceled"
      },
      "WaitingPeriodProposed(uint32,uint32,uint256)": {
        "notice": "An event that's emitted when a new waiting period is proposed"
      }
    },
    "kind": "user",
    "methods": {
      "acceptAdmin()": {
        "notice": "Accept proposed admin"
      },
      "acceptBurn()": {
        "notice": "Accept proposed token burn"
      },
      "acceptMint()": {
        "notice": "Accept proposed token mint"
      },
      "acceptMintCap()": {
        "notice": "Accept change to the maximum amount of tokens that can be minted at once"
      },
      "acceptProposalLength()": {
        "notice": "Accept change to the proposal length"
      },
      "acceptSupplyChangeWaitingPeriod()": {
        "notice": "Accept change to the supply change waiting period"
      },
      "acceptSupplyManager()": {
        "notice": "Accept change to the supplyManager address"
      },
      "admin()": {
        "notice": "Address which may make changes to token supply by calling provided functions"
      },
      "cancelAdmin()": {
        "notice": "Cancel proposed admin change"
      },
      "cancelBurn()": {
        "notice": "Cancel proposed token burn"
      },
      "cancelMint()": {
        "notice": "Cancel proposed token mint"
      },
      "cancelMintCap()": {
        "notice": "Cancel proposed mint cap"
      },
      "cancelProposalLength()": {
        "notice": "Cancel proposed update to proposal length"
      },
      "cancelSupplyManager()": {
        "notice": "Cancel proposed supply manager update"
      },
      "cancelWaitingPeriod()": {
        "notice": "Cancel proposed waiting period"
      },
      "changeAllowedAfter()": {
        "notice": "The timestamp after which a change may occur"
      },
      "constructor": {
        "notice": "Construct a new supply manager"
      },
      "pendingAdmin()": {
        "notice": "Current pending admin proposal"
      },
      "pendingBurn()": {
        "notice": "Current pending burn proposal"
      },
      "pendingMint()": {
        "notice": "Current pending mint proposal"
      },
      "pendingMintCap()": {
        "notice": "Current pending mint cap proposal"
      },
      "pendingProposalLength()": {
        "notice": "Current pending proposal length proposal"
      },
      "pendingSupplyManager()": {
        "notice": "Current pending supply manager proposal"
      },
      "pendingWaitingPeriod()": {
        "notice": "Current pending waiting period proposal"
      },
      "proposalLength()": {
        "notice": "The current time between proposal and acceptance"
      },
      "proposalLengthMinimum()": {
        "notice": "The minimum time between proposal and acceptance"
      },
      "proposeAdmin(address)": {
        "notice": "Propose a new admin"
      },
      "proposeBurn(address,uint256)": {
        "notice": "Propose a new token burn"
      },
      "proposeMint(address,uint256)": {
        "notice": "Propose a new token mint"
      },
      "proposeMintCap(uint16)": {
        "notice": "Propose change to the maximum amount of tokens that can be minted at once"
      },
      "proposeNewProposalLength(uint32)": {
        "notice": "Propose change to the proposal length"
      },
      "proposeSupplyChangeWaitingPeriod(uint32)": {
        "notice": "Propose change to the supply change waiting period"
      },
      "proposeSupplyManager(address)": {
        "notice": "Propose change to the supplyManager address"
      },
      "token()": {
        "notice": "ARCH token"
      }
    },
    "version": 1
  },
  "storageLayout": {
    "storage": [
      {
        "astId": 1465,
        "contract": "contracts/SupplyManager.sol:SupplyManager",
        "label": "token",
        "offset": 0,
        "slot": "0",
        "type": "t_contract(IArchToken)4780"
      },
      {
        "astId": 1468,
        "contract": "contracts/SupplyManager.sol:SupplyManager",
        "label": "admin",
        "offset": 0,
        "slot": "1",
        "type": "t_address"
      },
      {
        "astId": 1471,
        "contract": "contracts/SupplyManager.sol:SupplyManager",
        "label": "changeAllowedAfter",
        "offset": 0,
        "slot": "2",
        "type": "t_uint256"
      },
      {
        "astId": 1477,
        "contract": "contracts/SupplyManager.sol:SupplyManager",
        "label": "proposalLength",
        "offset": 0,
        "slot": "3",
        "type": "t_uint32"
      },
      {
        "astId": 1483,
        "contract": "contracts/SupplyManager.sol:SupplyManager",
        "label": "proposalLengthMinimum",
        "offset": 4,
        "slot": "3",
        "type": "t_uint32"
      },
      {
        "astId": 1525,
        "contract": "contracts/SupplyManager.sol:SupplyManager",
        "label": "pendingAdmin",
        "offset": 0,
        "slot": "4",
        "type": "t_struct(AdminProposal)1488_storage"
      },
      {
        "astId": 1528,
        "contract": "contracts/SupplyManager.sol:SupplyManager",
        "label": "pendingMint",
        "offset": 0,
        "slot": "6",
        "type": "t_struct(MintProposal)1495_storage"
      },
      {
        "astId": 1531,
        "contract": "contracts/SupplyManager.sol:SupplyManager",
        "label": "pendingBurn",
        "offset": 0,
        "slot": "9",
        "type": "t_struct(BurnProposal)1502_storage"
      },
      {
        "astId": 1534,
        "contract": "contracts/SupplyManager.sol:SupplyManager",
        "label": "pendingMintCap",
        "offset": 0,
        "slot": "12",
        "type": "t_struct(MintCapProposal)1507_storage"
      },
      {
        "astId": 1537,
        "contract": "contracts/SupplyManager.sol:SupplyManager",
        "label": "pendingWaitingPeriod",
        "offset": 0,
        "slot": "14",
        "type": "t_struct(WaitingPeriodProposal)1512_storage"
      },
      {
        "astId": 1540,
        "contract": "contracts/SupplyManager.sol:SupplyManager",
        "label": "pendingSupplyManager",
        "offset": 0,
        "slot": "16",
        "type": "t_struct(SupplyManagerProposal)1517_storage"
      },
      {
        "astId": 1543,
        "contract": "contracts/SupplyManager.sol:SupplyManager",
        "label": "pendingProposalLength",
        "offset": 0,
        "slot": "18",
        "type": "t_struct(ProposalLengthProposal)1522_storage"
      }
    ],
    "types": {
      "t_address": {
        "encoding": "inplace",
        "label": "address",
        "numberOfBytes": "20"
      },
      "t_contract(IArchToken)4780": {
        "encoding": "inplace",
        "label": "contract IArchToken",
        "numberOfBytes": "20"
      },
      "t_struct(AdminProposal)1488_storage": {
        "encoding": "inplace",
        "label": "struct SupplyManager.AdminProposal",
        "members": [
          {
            "astId": 1485,
            "contract": "contracts/SupplyManager.sol:SupplyManager",
            "label": "eta",
            "offset": 0,
            "slot": "0",
            "type": "t_uint256"
          },
          {
            "astId": 1487,
            "contract": "contracts/SupplyManager.sol:SupplyManager",
            "label": "newAdmin",
            "offset": 0,
            "slot": "1",
            "type": "t_address"
          }
        ],
        "numberOfBytes": "64"
      },
      "t_struct(BurnProposal)1502_storage": {
        "encoding": "inplace",
        "label": "struct SupplyManager.BurnProposal",
        "members": [
          {
            "astId": 1497,
            "contract": "contracts/SupplyManager.sol:SupplyManager",
            "label": "eta",
            "offset": 0,
            "slot": "0",
            "type": "t_uint256"
          },
          {
            "astId": 1499,
            "contract": "contracts/SupplyManager.sol:SupplyManager",
            "label": "source",
            "offset": 0,
            "slot": "1",
            "type": "t_address"
          },
          {
            "astId": 1501,
            "contract": "contracts/SupplyManager.sol:SupplyManager",
            "label": "amount",
            "offset": 0,
            "slot": "2",
            "type": "t_uint256"
          }
        ],
        "numberOfBytes": "96"
      },
      "t_struct(MintCapProposal)1507_storage": {
        "encoding": "inplace",
        "label": "struct SupplyManager.MintCapProposal",
        "members": [
          {
            "astId": 1504,
            "contract": "contracts/SupplyManager.sol:SupplyManager",
            "label": "eta",
            "offset": 0,
            "slot": "0",
            "type": "t_uint256"
          },
          {
            "astId": 1506,
            "contract": "contracts/SupplyManager.sol:SupplyManager",
            "label": "newCap",
            "offset": 0,
            "slot": "1",
            "type": "t_uint16"
          }
        ],
        "numberOfBytes": "64"
      },
      "t_struct(MintProposal)1495_storage": {
        "encoding": "inplace",
        "label": "struct SupplyManager.MintProposal",
        "members": [
          {
            "astId": 1490,
            "contract": "contracts/SupplyManager.sol:SupplyManager",
            "label": "eta",
            "offset": 0,
            "slot": "0",
            "type": "t_uint256"
          },
          {
            "astId": 1492,
            "contract": "contracts/SupplyManager.sol:SupplyManager",
            "label": "destination",
            "offset": 0,
            "slot": "1",
            "type": "t_address"
          },
          {
            "astId": 1494,
            "contract": "contracts/SupplyManager.sol:SupplyManager",
            "label": "amount",
            "offset": 0,
            "slot": "2",
            "type": "t_uint256"
          }
        ],
        "numberOfBytes": "96"
      },
      "t_struct(ProposalLengthProposal)1522_storage": {
        "encoding": "inplace",
        "label": "struct SupplyManager.ProposalLengthProposal",
        "members": [
          {
            "astId": 1519,
            "contract": "contracts/SupplyManager.sol:SupplyManager",
            "label": "eta",
            "offset": 0,
            "slot": "0",
            "type": "t_uint256"
          },
          {
            "astId": 1521,
            "contract": "contracts/SupplyManager.sol:SupplyManager",
            "label": "newLength",
            "offset": 0,
            "slot": "1",
            "type": "t_uint32"
          }
        ],
        "numberOfBytes": "64"
      },
      "t_struct(SupplyManagerProposal)1517_storage": {
        "encoding": "inplace",
        "label": "struct SupplyManager.SupplyManagerProposal",
        "members": [
          {
            "astId": 1514,
            "contract": "contracts/SupplyManager.sol:SupplyManager",
            "label": "eta",
            "offset": 0,
            "slot": "0",
            "type": "t_uint256"
          },
          {
            "astId": 1516,
            "contract": "contracts/SupplyManager.sol:SupplyManager",
            "label": "newSupplyManager",
            "offset": 0,
            "slot": "1",
            "type": "t_address"
          }
        ],
        "numberOfBytes": "64"
      },
      "t_struct(WaitingPeriodProposal)1512_storage": {
        "encoding": "inplace",
        "label": "struct SupplyManager.WaitingPeriodProposal",
        "members": [
          {
            "astId": 1509,
            "contract": "contracts/SupplyManager.sol:SupplyManager",
            "label": "eta",
            "offset": 0,
            "slot": "0",
            "type": "t_uint256"
          },
          {
            "astId": 1511,
            "contract": "contracts/SupplyManager.sol:SupplyManager",
            "label": "newPeriod",
            "offset": 0,
            "slot": "1",
            "type": "t_uint32"
          }
        ],
        "numberOfBytes": "64"
      },
      "t_uint16": {
        "encoding": "inplace",
        "label": "uint16",
        "numberOfBytes": "2"
      },
      "t_uint256": {
        "encoding": "inplace",
        "label": "uint256",
        "numberOfBytes": "32"
      },
      "t_uint32": {
        "encoding": "inplace",
        "label": "uint32",
        "numberOfBytes": "4"
      }
    }
  }
}