{
  "address": "0x044ff396000E07E17dD1D87075E734c64Cb22d3E",
  "abi": [
    {
      "anonymous": false,
      "inputs": [
        {
          "indexed": true,
          "internalType": "address",
          "name": "token",
          "type": "address"
        },
        {
          "indexed": true,
          "internalType": "address",
          "name": "locker",
          "type": "address"
        },
        {
          "indexed": true,
          "internalType": "address",
          "name": "receiver",
          "type": "address"
        },
        {
          "indexed": false,
          "internalType": "uint256",
          "name": "amount",
          "type": "uint256"
        },
        {
          "indexed": false,
          "internalType": "uint256",
          "name": "startTime",
          "type": "uint256"
        },
        {
          "indexed": false,
          "internalType": "uint16",
          "name": "durationInDays",
          "type": "uint16"
        },
        {
          "indexed": false,
          "internalType": "uint256",
          "name": "lockId",
          "type": "uint256"
        }
      ],
      "name": "LockCreated",
      "type": "event"
    },
    {
      "anonymous": false,
      "inputs": [
        {
          "indexed": true,
          "internalType": "uint16",
          "name": "oldDuration",
          "type": "uint16"
        },
        {
          "indexed": true,
          "internalType": "uint16",
          "name": "newDuration",
          "type": "uint16"
        },
        {
          "indexed": false,
          "internalType": "uint256",
          "name": "startTime",
          "type": "uint256"
        },
        {
          "indexed": false,
          "internalType": "uint256",
          "name": "lockId",
          "type": "uint256"
        }
      ],
      "name": "LockExtended",
      "type": "event"
    },
    {
      "anonymous": false,
      "inputs": [
        {
          "indexed": true,
          "internalType": "address",
          "name": "receiver",
          "type": "address"
        },
        {
          "indexed": true,
          "internalType": "address",
          "name": "token",
          "type": "address"
        },
        {
          "indexed": true,
          "internalType": "uint256",
          "name": "amountClaimed",
          "type": "uint256"
        },
        {
          "indexed": false,
          "internalType": "uint256",
          "name": "lockId",
          "type": "uint256"
        }
      ],
      "name": "UnlockedTokensClaimed",
      "type": "event"
    },
    {
      "inputs": [
        {
          "internalType": "address",
          "name": "",
          "type": "address"
        },
        {
          "internalType": "uint256",
          "name": "",
          "type": "uint256"
        }
      ],
      "name": "activeLocks",
      "outputs": [
        {
          "internalType": "uint256",
          "name": "",
          "type": "uint256"
        }
      ],
      "stateMutability": "view",
      "type": "function"
    },
    {
      "inputs": [
        {
          "internalType": "uint256",
          "name": "lockId",
          "type": "uint256"
        }
      ],
      "name": "claimAllUnlockedTokens",
      "outputs": [],
      "stateMutability": "nonpayable",
      "type": "function"
    },
    {
      "inputs": [
        {
          "internalType": "uint256",
          "name": "lockId",
          "type": "uint256"
        },
        {
          "internalType": "uint256",
          "name": "amount",
          "type": "uint256"
        }
      ],
      "name": "claimUnlockedTokens",
      "outputs": [],
      "stateMutability": "nonpayable",
      "type": "function"
    },
    {
      "inputs": [
        {
          "internalType": "uint256",
          "name": "lockId",
          "type": "uint256"
        },
        {
          "internalType": "uint16",
          "name": "daysToAdd",
          "type": "uint16"
        }
      ],
      "name": "extendLock",
      "outputs": [],
      "stateMutability": "nonpayable",
      "type": "function"
    },
    {
      "inputs": [
        {
          "internalType": "address",
          "name": "receiver",
          "type": "address"
        }
      ],
      "name": "getActiveLocks",
      "outputs": [
        {
          "internalType": "uint256[]",
          "name": "",
          "type": "uint256[]"
        }
      ],
      "stateMutability": "view",
      "type": "function"
    },
    {
      "inputs": [
        {
          "internalType": "address",
          "name": "receiver",
          "type": "address"
        }
      ],
      "name": "getAllActiveLocks",
      "outputs": [
        {
          "components": [
            {
              "internalType": "address",
              "name": "token",
              "type": "address"
            },
            {
              "internalType": "address",
              "name": "receiver",
              "type": "address"
            },
            {
              "internalType": "uint256",
              "name": "startTime",
              "type": "uint256"
            },
            {
              "internalType": "uint256",
              "name": "amount",
              "type": "uint256"
            },
            {
              "internalType": "uint16",
              "name": "duration",
              "type": "uint16"
            },
            {
              "internalType": "uint256",
              "name": "amountClaimed",
              "type": "uint256"
            }
          ],
          "internalType": "struct Vault.Lock[]",
          "name": "receiverLocks",
          "type": "tuple[]"
        }
      ],
      "stateMutability": "view",
      "type": "function"
    },
    {
      "inputs": [
        {
          "internalType": "uint256",
          "name": "lockId",
          "type": "uint256"
        }
      ],
      "name": "getLockedBalance",
      "outputs": [
        {
          "internalType": "uint256",
          "name": "",
          "type": "uint256"
        }
      ],
      "stateMutability": "view",
      "type": "function"
    },
    {
      "inputs": [
        {
          "internalType": "address",
          "name": "token",
          "type": "address"
        },
        {
          "internalType": "address",
          "name": "receiver",
          "type": "address"
        }
      ],
      "name": "getLockedTokenBalance",
      "outputs": [
        {
          "internalType": "uint256",
          "name": "lockedBalance",
          "type": "uint256"
        }
      ],
      "stateMutability": "view",
      "type": "function"
    },
    {
      "inputs": [
        {
          "internalType": "uint256",
          "name": "lockId",
          "type": "uint256"
        }
      ],
      "name": "getTokenLock",
      "outputs": [
        {
          "components": [
            {
              "internalType": "address",
              "name": "token",
              "type": "address"
            },
            {
              "internalType": "address",
              "name": "receiver",
              "type": "address"
            },
            {
              "internalType": "uint256",
              "name": "startTime",
              "type": "uint256"
            },
            {
              "internalType": "uint256",
              "name": "amount",
              "type": "uint256"
            },
            {
              "internalType": "uint16",
              "name": "duration",
              "type": "uint16"
            },
            {
              "internalType": "uint256",
              "name": "amountClaimed",
              "type": "uint256"
            }
          ],
          "internalType": "struct Vault.Lock",
          "name": "",
          "type": "tuple"
        }
      ],
      "stateMutability": "view",
      "type": "function"
    },
    {
      "inputs": [
        {
          "internalType": "uint256",
          "name": "lockId",
          "type": "uint256"
        }
      ],
      "name": "getUnlockedBalance",
      "outputs": [
        {
          "internalType": "uint256",
          "name": "",
          "type": "uint256"
        }
      ],
      "stateMutability": "view",
      "type": "function"
    },
    {
      "inputs": [
        {
          "internalType": "address",
          "name": "token",
          "type": "address"
        },
        {
          "internalType": "address",
          "name": "receiver",
          "type": "address"
        }
      ],
      "name": "getUnlockedTokenBalance",
      "outputs": [
        {
          "internalType": "uint256",
          "name": "unlockedBalance",
          "type": "uint256"
        }
      ],
      "stateMutability": "view",
      "type": "function"
    },
    {
      "inputs": [
        {
          "internalType": "address",
          "name": "token",
          "type": "address"
        },
        {
          "internalType": "address",
          "name": "locker",
          "type": "address"
        },
        {
          "internalType": "address",
          "name": "receiver",
          "type": "address"
        },
        {
          "internalType": "uint256",
          "name": "startTime",
          "type": "uint256"
        },
        {
          "internalType": "uint256",
          "name": "amount",
          "type": "uint256"
        },
        {
          "internalType": "uint16",
          "name": "lockDurationInDays",
          "type": "uint16"
        }
      ],
      "name": "lockTokens",
      "outputs": [],
      "stateMutability": "nonpayable",
      "type": "function"
    },
    {
      "inputs": [
        {
          "internalType": "address",
          "name": "token",
          "type": "address"
        },
        {
          "internalType": "address",
          "name": "locker",
          "type": "address"
        },
        {
          "internalType": "address",
          "name": "receiver",
          "type": "address"
        },
        {
          "internalType": "uint256",
          "name": "startTime",
          "type": "uint256"
        },
        {
          "internalType": "uint256",
          "name": "amount",
          "type": "uint256"
        },
        {
          "internalType": "uint16",
          "name": "lockDurationInDays",
          "type": "uint16"
        },
        {
          "internalType": "uint256",
          "name": "deadline",
          "type": "uint256"
        },
        {
          "internalType": "uint8",
          "name": "v",
          "type": "uint8"
        },
        {
          "internalType": "bytes32",
          "name": "r",
          "type": "bytes32"
        },
        {
          "internalType": "bytes32",
          "name": "s",
          "type": "bytes32"
        }
      ],
      "name": "lockTokensWithPermit",
      "outputs": [],
      "stateMutability": "nonpayable",
      "type": "function"
    },
    {
      "inputs": [],
      "name": "numLocks",
      "outputs": [
        {
          "internalType": "uint256",
          "name": "",
          "type": "uint256"
        }
      ],
      "stateMutability": "view",
      "type": "function"
    },
    {
      "inputs": [
        {
          "internalType": "uint256",
          "name": "",
          "type": "uint256"
        }
      ],
      "name": "tokenLocks",
      "outputs": [
        {
          "internalType": "address",
          "name": "token",
          "type": "address"
        },
        {
          "internalType": "address",
          "name": "receiver",
          "type": "address"
        },
        {
          "internalType": "uint256",
          "name": "startTime",
          "type": "uint256"
        },
        {
          "internalType": "uint256",
          "name": "amount",
          "type": "uint256"
        },
        {
          "internalType": "uint16",
          "name": "duration",
          "type": "uint16"
        },
        {
          "internalType": "uint256",
          "name": "amountClaimed",
          "type": "uint256"
        }
      ],
      "stateMutability": "view",
      "type": "function"
    }
  ],
  "transactionHash": "0x2c63fe2e8387b821c6db9f62022ef72b0d2a4040264d1bd66fe167fdaac8315b",
  "args": [],
  "solcInputHash": "f4815cf56486cfc72ff39d7bd883ae64",
  "bytecode": "0x608060405234801561001057600080fd5b5061302a806100206000396000f3fe608060405234801561001057600080fd5b50600436106100f55760003560e01c80637eaecc2611610097578063b0b5babe11610066578063b0b5babe146102d3578063b5145e6214610303578063d422cf581461031f578063e5aa64d81461033d576100f5565b80637eaecc26146102225780638d11301214610252578063946ca9491461026e57806398b04a3a146102a3576100f5565b806351807ad5116100d357806351807ad51461017657806361496d5914610192578063763d1bd6146101c25780637976ea16146101f2576100f5565b80632c4e9ebd146100fa578063334a23101461012a5780633adcbadc1461015a575b600080fd5b610114600480360381019061010f91906120bf565b610359565b6040516101219190612d7e565b60405180910390f35b610144600480360381019061013f9190611eba565b6103f7565b6040516101519190612d7e565b60405180910390f35b610174600480360381019061016f91906120bf565b610590565b005b610190600480360381019061018b9190611f7f565b610858565b005b6101ac60048036038101906101a79190611e91565b610cde565b6040516101b99190612b3f565b60405180910390f35b6101dc60048036038101906101d79190611e91565b610d75565b6040516101e99190612b1d565b60405180910390f35b61020c60048036038101906102079190611eba565b610e2b565b6040516102199190612d7e565b60405180910390f35b61023c600480360381019061023791906120bf565b610fe3565b6040516102499190612d7e565b60405180910390f35b61026c600480360381019061026791906120e8565b611095565b005b610288600480360381019061028391906120bf565b6111e8565b60405161029a96959493929190612a24565b60405180910390f35b6102bd60048036038101906102b8919061205a565b611272565b6040516102ca9190612d7e565b60405180910390f35b6102ed60048036038101906102e891906120bf565b6112a3565b6040516102fa9190612d63565b60405180910390f35b61031d60048036038101906103189190611ef6565b6113b9565b005b6103276117c4565b6040516103349190612d7e565b60405180910390f35b61035760048036038101906103529190612124565b6117ca565b005b60008060008084815260200190815260200160002090506000610389826002015442611aa990919063ffffffff16565b905060006103a36201518083611af390919063ffffffff16565b90508260040160009054906101000a900461ffff1661ffff1681106103d157826003015493505050506103f2565b6103ec83600501548460030154611aa990919063ffffffff16565b93505050505b919050565b6000606061040483610d75565b905060005b8151811015610588578473ffffffffffffffffffffffffffffffffffffffff1682828151811061043557fe5b60200260200101516000015173ffffffffffffffffffffffffffffffffffffffff16141561057b5781818151811061046957fe5b60200260200101516040015142111561057a5760006104a883838151811061048d57fe5b60200260200101516040015142611aa990919063ffffffff16565b905060006104c26201518083611af390919063ffffffff16565b90508383815181106104d057fe5b60200260200101516080015161ffff16811015801561051d57508383815181106104f657fe5b60200260200101516060015184848151811061050e57fe5b602002602001015160a0015114155b156105775761057584848151811061053157fe5b602002602001015160a0015161056786868151811061054c57fe5b60200260200101516060015188611b3d90919063ffffffff16565b611aa990919063ffffffff16565b505b50505b5b8080600101915050610409565b505092915050565b600061059b82610fe3565b9050600081116105e0576040517f08c379a00000000000000000000000000000000000000000000000000000000081526004016105d790612c63565b60405180910390fd5b600080600084815260200190815260200160002090508181600501819055508060010160009054906101000a900473ffffffffffffffffffffffffffffffffffffffff1673ffffffffffffffffffffffffffffffffffffffff163373ffffffffffffffffffffffffffffffffffffffff1614610691576040517f08c379a000000000000000000000000000000000000000000000000000000000815260040161068890612c43565b60405180910390fd5b8060000160009054906101000a900473ffffffffffffffffffffffffffffffffffffffff1673ffffffffffffffffffffffffffffffffffffffff1663a9059cbb8260010160009054906101000a900473ffffffffffffffffffffffffffffffffffffffff16846040518363ffffffff1660e01b8152600401610714929190612af4565b602060405180830381600087803b15801561072e57600080fd5b505af1158015610742573d6000803e3d6000fd5b505050506040513d601f19601f820116820180604052508101906107669190612096565b6107a5576040517f08c379a000000000000000000000000000000000000000000000000000000000815260040161079c90612b83565b60405180910390fd5b818160000160009054906101000a900473ffffffffffffffffffffffffffffffffffffffff1673ffffffffffffffffffffffffffffffffffffffff168260010160009054906101000a900473ffffffffffffffffffffffffffffffffffffffff1673ffffffffffffffffffffffffffffffffffffffff167f93900409fdb269cad2f66fb6f629bca922bca043b1a6aaea0f6d36aac5efa3e28660405161084b9190612d7e565b60405180910390a4505050565b60008561ffff161161089f576040517f08c379a000000000000000000000000000000000000000000000000000000000815260040161089690612bc3565b60405180910390fd5b6123a58561ffff1611156108e8576040517f08c379a00000000000000000000000000000000000000000000000000000000081526004016108df90612ba3565b60405180910390fd5b6000861161092b576040517f08c379a000000000000000000000000000000000000000000000000000000000815260040161092290612d23565b60405180910390fd5b8973ffffffffffffffffffffffffffffffffffffffff1663d505accf8a3089888888886040518863ffffffff1660e01b81526004016109709796959493929190612a85565b600060405180830381600087803b15801561098a57600080fd5b505af115801561099e573d6000803e3d6000fd5b505050508973ffffffffffffffffffffffffffffffffffffffff166323b872dd8a30896040518463ffffffff1660e01b81526004016109df939291906129ed565b602060405180830381600087803b1580156109f957600080fd5b505af1158015610a0d573d6000803e3d6000fd5b505050506040513d601f19601f82011682018060405250810190610a319190612096565b610a70576040517f08c379a0000000000000000000000000000000000000000000000000000000008152600401610a6790612c83565b60405180910390fd5b6000808814610a7f5787610a81565b425b9050610a8b611dad565b6040518060c001604052808d73ffffffffffffffffffffffffffffffffffffffff1681526020018b73ffffffffffffffffffffffffffffffffffffffff1681526020018381526020018981526020018861ffff1681526020016000815250905080600080600254815260200190815260200160002060008201518160000160006101000a81548173ffffffffffffffffffffffffffffffffffffffff021916908373ffffffffffffffffffffffffffffffffffffffff16021790555060208201518160010160006101000a81548173ffffffffffffffffffffffffffffffffffffffff021916908373ffffffffffffffffffffffffffffffffffffffff160217905550604082015181600201556060820151816003015560808201518160040160006101000a81548161ffff021916908361ffff16021790555060a08201518160050155905050600160008b73ffffffffffffffffffffffffffffffffffffffff1673ffffffffffffffffffffffffffffffffffffffff16815260200190815260200160002060025490806001815401808255809150506001900390600052602060002001600090919091909150558973ffffffffffffffffffffffffffffffffffffffff168b73ffffffffffffffffffffffffffffffffffffffff168d73ffffffffffffffffffffffffffffffffffffffff167f30e2bc2d3d392db8b8e24983a41a4f2bb25e8c6e4eeb390289a3d3b747a937b68b868c600254604051610cb69493929190612dc2565b60405180910390a4600260008154809291906001019190505550505050505050505050505050565b6060600160008373ffffffffffffffffffffffffffffffffffffffff1673ffffffffffffffffffffffffffffffffffffffff168152602001908152602001600020805480602002602001604051908101604052809291908181526020018280548015610d6957602002820191906000526020600020905b815481526020019060010190808311610d55575b50505050509050919050565b606080610d8183610cde565b9050805167ffffffffffffffff81118015610d9b57600080fd5b50604051908082528060200260200182016040528015610dd557816020015b610dc2611dad565b815260200190600190039081610dba5790505b50915060005b8151811015610e2457610e00828281518110610df357fe5b60200260200101516112a3565b838281518110610e0c57fe5b60200260200101819052508080600101915050610ddb565b5050919050565b60006060610e3883610d75565b905060005b8151811015610fdb578473ffffffffffffffffffffffffffffffffffffffff16828281518110610e6957fe5b60200260200101516000015173ffffffffffffffffffffffffffffffffffffffff161415610fce57818181518110610e9d57fe5b6020026020010151604001514211610edb57610ed9828281518110610ebe57fe5b60200260200101516060015184611b3d90919063ffffffff16565b505b6000610f07838381518110610eec57fe5b60200260200101516040015142611aa990919063ffffffff16565b90506000610f216201518083611af390919063ffffffff16565b9050838381518110610f2f57fe5b60200260200101516080015161ffff16811015610f7657610f70848481518110610f5557fe5b60200260200101516060015186611b3d90919063ffffffff16565b50610fcb565b610fc9610fba858581518110610f8857fe5b602002602001015160a00151868681518110610fa057fe5b602002602001015160600151611aa990919063ffffffff16565b86611b3d90919063ffffffff16565b505b50505b8080600101915050610e3d565b505092915050565b60008060008084815260200190815260200160002090508060020154421015611010576000915050611090565b6000611029826002015442611aa990919063ffffffff16565b905060006110436201518083611af390919063ffffffff16565b90508260040160009054906101000a900461ffff1661ffff1681101561106f5760009350505050611090565b61108a83600501548460030154611aa990919063ffffffff16565b93505050505b919050565b600080600084815260200190815260200160002090508060010160009054906101000a900473ffffffffffffffffffffffffffffffffffffffff1673ffffffffffffffffffffffffffffffffffffffff163373ffffffffffffffffffffffffffffffffffffffff161461113d576040517f08c379a000000000000000000000000000000000000000000000000000000000815260040161113490612d03565b60405180910390fd5b60008160040160009054906101000a900461ffff16905060006111798285604051806060016040528060248152602001612fd160249139611bc5565b9050808360040160006101000a81548161ffff021916908361ffff1602179055508061ffff168261ffff167f44b1182afdf36e6e6a6954eae4cb656741a62da83fd42203bb0163ec695355758560020154886040516111d9929190612d99565b60405180910390a35050505050565b60006020528060005260406000206000915090508060000160009054906101000a900473ffffffffffffffffffffffffffffffffffffffff16908060010160009054906101000a900473ffffffffffffffffffffffffffffffffffffffff16908060020154908060030154908060040160009054906101000a900461ffff16908060050154905086565b6001602052816000526040600020818154811061128e57600080fd5b90600052602060002001600091509150505481565b6112ab611dad565b6000808381526020019081526020016000206040518060c00160405290816000820160009054906101000a900473ffffffffffffffffffffffffffffffffffffffff1673ffffffffffffffffffffffffffffffffffffffff1673ffffffffffffffffffffffffffffffffffffffff1681526020016001820160009054906101000a900473ffffffffffffffffffffffffffffffffffffffff1673ffffffffffffffffffffffffffffffffffffffff1673ffffffffffffffffffffffffffffffffffffffff16815260200160028201548152602001600382015481526020016004820160009054906101000a900461ffff1661ffff1661ffff1681526020016005820154815250509050919050565b60008161ffff1611611400576040517f08c379a00000000000000000000000000000000000000000000000000000000081526004016113f790612cc3565b60405180910390fd5b6123a58161ffff161115611449576040517f08c379a000000000000000000000000000000000000000000000000000000000815260040161144090612ce3565b60405180910390fd5b6000821161148c576040517f08c379a000000000000000000000000000000000000000000000000000000000815260040161148390612c03565b60405180910390fd5b8573ffffffffffffffffffffffffffffffffffffffff166323b872dd8630856040518463ffffffff1660e01b81526004016114c9939291906129ed565b602060405180830381600087803b1580156114e357600080fd5b505af11580156114f7573d6000803e3d6000fd5b505050506040513d601f19601f8201168201806040525081019061151b9190612096565b61155a576040517f08c379a000000000000000000000000000000000000000000000000000000000815260040161155190612ca3565b60405180910390fd5b6000808414611569578361156b565b425b9050611575611dad565b6040518060c001604052808973ffffffffffffffffffffffffffffffffffffffff1681526020018773ffffffffffffffffffffffffffffffffffffffff1681526020018381526020018581526020018461ffff1681526020016000815250905080600080600254815260200190815260200160002060008201518160000160006101000a81548173ffffffffffffffffffffffffffffffffffffffff021916908373ffffffffffffffffffffffffffffffffffffffff16021790555060208201518160010160006101000a81548173ffffffffffffffffffffffffffffffffffffffff021916908373ffffffffffffffffffffffffffffffffffffffff160217905550604082015181600201556060820151816003015560808201518160040160006101000a81548161ffff021916908361ffff16021790555060a08201518160050155905050600160008773ffffffffffffffffffffffffffffffffffffffff1673ffffffffffffffffffffffffffffffffffffffff16815260200190815260200160002060025490806001815401808255809150506001900390600052602060002001600090919091909150558573ffffffffffffffffffffffffffffffffffffffff168773ffffffffffffffffffffffffffffffffffffffff168973ffffffffffffffffffffffffffffffffffffffff167f30e2bc2d3d392db8b8e24983a41a4f2bb25e8c6e4eeb390289a3d3b747a937b68786886002546040516117a09493929190612dc2565b60405180910390a46002600081548092919060010191905055505050505050505050565b60025481565b60006117d583610fe3565b90508181101561181a576040517f08c379a000000000000000000000000000000000000000000000000000000000815260040161181190612be3565b60405180910390fd5b60008060008581526020019081526020016000209050611847838260050154611b3d90919063ffffffff16565b81600501819055508060010160009054906101000a900473ffffffffffffffffffffffffffffffffffffffff1673ffffffffffffffffffffffffffffffffffffffff163373ffffffffffffffffffffffffffffffffffffffff16146118e1576040517f08c379a00000000000000000000000000000000000000000000000000000000081526004016118d890612d43565b60405180910390fd5b8060000160009054906101000a900473ffffffffffffffffffffffffffffffffffffffff1673ffffffffffffffffffffffffffffffffffffffff1663a9059cbb8260010160009054906101000a900473ffffffffffffffffffffffffffffffffffffffff16856040518363ffffffff1660e01b8152600401611964929190612af4565b602060405180830381600087803b15801561197e57600080fd5b505af1158015611992573d6000803e3d6000fd5b505050506040513d601f19601f820116820180604052508101906119b69190612096565b6119f5576040517f08c379a00000000000000000000000000000000000000000000000000000000081526004016119ec90612c23565b60405180910390fd5b828160000160009054906101000a900473ffffffffffffffffffffffffffffffffffffffff1673ffffffffffffffffffffffffffffffffffffffff168260010160009054906101000a900473ffffffffffffffffffffffffffffffffffffffff1673ffffffffffffffffffffffffffffffffffffffff167f93900409fdb269cad2f66fb6f629bca922bca043b1a6aaea0f6d36aac5efa3e287604051611a9b9190612d7e565b60405180910390a450505050565b6000611aeb83836040518060400160405280601f81526020017f536166654d6174683a207375627472616374696f6e20756e646572666c6f7700815250611c27565b905092915050565b6000611b3583836040518060400160405280601a81526020017f536166654d6174683a206469766973696f6e206279207a65726f000000000000815250611ce7565b905092915050565b600080828401905083811015611bbb576040517f08c379a000000000000000000000000000000000000000000000000000000000815260040180806020018281038252601b8152602001807f536166654d6174683a206164646974696f6e206f766572666c6f77000000000081525060200191505060405180910390fd5b8091505092915050565b60008083850190508461ffff168161ffff1610158390611c1b576040517f08c379a0000000000000000000000000000000000000000000000000000000008152600401611c129190612b61565b60405180910390fd5b50809150509392505050565b6000838311158290611cd4576040517f08c379a00000000000000000000000000000000000000000000000000000000081526004018080602001828103825283818151815260200191508051906020019080838360005b83811015611c99578082015181840152602081019050611c7e565b50505050905090810190601f168015611cc65780820380516001836020036101000a031916815260200191505b509250505060405180910390fd5b5060008385039050809150509392505050565b60008083118290611d93576040517f08c379a00000000000000000000000000000000000000000000000000000000081526004018080602001828103825283818151815260200191508051906020019080838360005b83811015611d58578082015181840152602081019050611d3d565b50505050905090810190601f168015611d855780820380516001836020036101000a031916815260200191505b509250505060405180910390fd5b506000838581611d9f57fe5b049050809150509392505050565b6040518060c00160405280600073ffffffffffffffffffffffffffffffffffffffff168152602001600073ffffffffffffffffffffffffffffffffffffffff1681526020016000815260200160008152602001600061ffff168152602001600081525090565b600081359050611e2281612f46565b92915050565b600081519050611e3781612f5d565b92915050565b600081359050611e4c81612f74565b92915050565b600081359050611e6181612f8b565b92915050565b600081359050611e7681612fa2565b92915050565b600081359050611e8b81612fb9565b92915050565b600060208284031215611ea357600080fd5b6000611eb184828501611e13565b91505092915050565b60008060408385031215611ecd57600080fd5b6000611edb85828601611e13565b9250506020611eec85828601611e13565b9150509250929050565b60008060008060008060c08789031215611f0f57600080fd5b6000611f1d89828a01611e13565b9650506020611f2e89828a01611e13565b9550506040611f3f89828a01611e13565b9450506060611f5089828a01611e67565b9350506080611f6189828a01611e67565b92505060a0611f7289828a01611e52565b9150509295509295509295565b6000806000806000806000806000806101408b8d031215611f9f57600080fd5b6000611fad8d828e01611e13565b9a50506020611fbe8d828e01611e13565b9950506040611fcf8d828e01611e13565b9850506060611fe08d828e01611e67565b9750506080611ff18d828e01611e67565b96505060a06120028d828e01611e52565b95505060c06120138d828e01611e67565b94505060e06120248d828e01611e7c565b9350506101006120368d828e01611e3d565b9250506101206120488d828e01611e3d565b9150509295989b9194979a5092959850565b6000806040838503121561206d57600080fd5b600061207b85828601611e13565b925050602061208c85828601611e67565b9150509250929050565b6000602082840312156120a857600080fd5b60006120b684828501611e28565b91505092915050565b6000602082840312156120d157600080fd5b60006120df84828501611e67565b91505092915050565b600080604083850312156120fb57600080fd5b600061210985828601611e67565b925050602061211a85828601611e52565b9150509250929050565b6000806040838503121561213757600080fd5b600061214585828601611e67565b925050602061215685828601611e67565b9150509250929050565b600061216c83836128ac565b60c08301905092915050565b600061218483836129c0565b60208301905092915050565b61219981612e95565b82525050565b6121a881612e95565b82525050565b60006121b982612e27565b6121c38185612e62565b93506121ce83612e07565b8060005b838110156121ff5781516121e68882612160565b97506121f183612e48565b9250506001810190506121d2565b5085935050505092915050565b600061221782612e32565b6122218185612e73565b935061222c83612e17565b8060005b8381101561225d5781516122448882612178565b975061224f83612e55565b925050600181019050612230565b5085935050505092915050565b61227381612eb3565b82525050565b600061228482612e3d565b61228e8185612e84565b935061229e818560208601612f02565b6122a781612f35565b840191505092915050565b60006122bf602e83612e84565b91507f5661756c743a3a636c61696d416c6c556e6c6f636b6564546f6b656e733a207460008301527f72616e73666572206661696c65640000000000000000000000000000000000006020830152604082019050919050565b6000612325603883612e84565b91507f5661756c743a3a6c6f636b546f6b656e73576974685065726d69743a2064757260008301527f6174696f6e206d6f7265207468616e20323520796561727300000000000000006020830152604082019050919050565b600061238b603183612e84565b91507f5661756c743a3a6c6f636b546f6b656e73576974685065726d69743a2064757260008301527f6174696f6e206d757374206265203e20300000000000000000000000000000006020830152604082019050919050565b60006123f1603383612e84565b91507f5661756c743a3a636c61696d556e6c6f636b6564546f6b656e733a20756e6c6f60008301527f636b6564416d6f756e74203c20616d6f756e74000000000000000000000000006020830152604082019050919050565b6000612457602183612e84565b91507f5661756c743a3a6c6f636b546f6b656e733a20616d6f756e74206e6f74203e2060008301527f30000000000000000000000000000000000000000000000000000000000000006020830152604082019050919050565b60006124bd602b83612e84565b91507f5661756c743a3a636c61696d556e6c6f636b6564546f6b656e733a207472616e60008301527f73666572206661696c65640000000000000000000000000000000000000000006020830152604082019050919050565b6000612523603a83612e84565b91507f5661756c743a3a636c61696d416c6c556e6c6f636b6564546f6b656e733a206d60008301527f73672e73656e646572206d7573742062652072656365697665720000000000006020830152604082019050919050565b6000612589603283612e84565b91507f5661756c743a3a636c61696d416c6c556e6c6f636b6564546f6b656e733a207560008301527f6e6c6f636b6564416d6f756e74206973203000000000000000000000000000006020830152604082019050919050565b60006125ef602c83612e84565b91507f5661756c743a3a6c6f636b546f6b656e73576974685065726d69743a2074726160008301527f6e73666572206661696c656400000000000000000000000000000000000000006020830152604082019050919050565b6000612655602283612e84565b91507f5661756c743a3a6c6f636b546f6b656e733a207472616e73666572206661696c60008301527f65640000000000000000000000000000000000000000000000000000000000006020830152604082019050919050565b60006126bb602783612e84565b91507f5661756c743a3a6c6f636b546f6b656e733a206475726174696f6e206d75737460008301527f206265203e2030000000000000000000000000000000000000000000000000006020830152604082019050919050565b6000612721602e83612e84565b91507f5661756c743a3a6c6f636b546f6b656e733a206475726174696f6e206d6f726560008301527f207468616e2032352079656172730000000000000000000000000000000000006020830152604082019050919050565b6000612787602e83612e84565b91507f5661756c743a3a657874656e644c6f636b3a206d73672e73656e646572206d7560008301527f73742062652072656365697665720000000000000000000000000000000000006020830152604082019050919050565b60006127ed602b83612e84565b91507f5661756c743a3a6c6f636b546f6b656e73576974685065726d69743a20616d6f60008301527f756e74206e6f74203e20300000000000000000000000000000000000000000006020830152604082019050919050565b6000612853603783612e84565b91507f5661756c743a3a636c61696d556e6c6f636b6564546f6b656e733a206d73672e60008301527f73656e646572206d7573742062652072656365697665720000000000000000006020830152604082019050919050565b60c0820160008201516128c26000850182612190565b5060208201516128d56020850182612190565b5060408201516128e860408501826129c0565b5060608201516128fb60608501826129c0565b50608082015161290e60808501826129a2565b5060a082015161292160a08501826129c0565b50505050565b60c08201600082015161293d6000850182612190565b5060208201516129506020850182612190565b50604082015161296360408501826129c0565b50606082015161297660608501826129c0565b50608082015161298960808501826129a2565b5060a082015161299c60a08501826129c0565b50505050565b6129ab81612ebd565b82525050565b6129ba81612ebd565b82525050565b6129c981612eeb565b82525050565b6129d881612eeb565b82525050565b6129e781612ef5565b82525050565b6000606082019050612a02600083018661219f565b612a0f602083018561219f565b612a1c60408301846129cf565b949350505050565b600060c082019050612a39600083018961219f565b612a46602083018861219f565b612a5360408301876129cf565b612a6060608301866129cf565b612a6d60808301856129b1565b612a7a60a08301846129cf565b979650505050505050565b600060e082019050612a9a600083018a61219f565b612aa7602083018961219f565b612ab460408301886129cf565b612ac160608301876129cf565b612ace60808301866129de565b612adb60a083018561226a565b612ae860c083018461226a565b98975050505050505050565b6000604082019050612b09600083018561219f565b612b1660208301846129cf565b9392505050565b60006020820190508181036000830152612b3781846121ae565b905092915050565b60006020820190508181036000830152612b59818461220c565b905092915050565b60006020820190508181036000830152612b7b8184612279565b905092915050565b60006020820190508181036000830152612b9c816122b2565b9050919050565b60006020820190508181036000830152612bbc81612318565b9050919050565b60006020820190508181036000830152612bdc8161237e565b9050919050565b60006020820190508181036000830152612bfc816123e4565b9050919050565b60006020820190508181036000830152612c1c8161244a565b9050919050565b60006020820190508181036000830152612c3c816124b0565b9050919050565b60006020820190508181036000830152612c5c81612516565b9050919050565b60006020820190508181036000830152612c7c8161257c565b9050919050565b60006020820190508181036000830152612c9c816125e2565b9050919050565b60006020820190508181036000830152612cbc81612648565b9050919050565b60006020820190508181036000830152612cdc816126ae565b9050919050565b60006020820190508181036000830152612cfc81612714565b9050919050565b60006020820190508181036000830152612d1c8161277a565b9050919050565b60006020820190508181036000830152612d3c816127e0565b9050919050565b60006020820190508181036000830152612d5c81612846565b9050919050565b600060c082019050612d786000830184612927565b92915050565b6000602082019050612d9360008301846129cf565b92915050565b6000604082019050612dae60008301856129cf565b612dbb60208301846129cf565b9392505050565b6000608082019050612dd760008301876129cf565b612de460208301866129cf565b612df160408301856129b1565b612dfe60608301846129cf565b95945050505050565b6000819050602082019050919050565b6000819050602082019050919050565b600081519050919050565b600081519050919050565b600081519050919050565b6000602082019050919050565b6000602082019050919050565b600082825260208201905092915050565b600082825260208201905092915050565b600082825260208201905092915050565b6000612ea082612ecb565b9050919050565b60008115159050919050565b6000819050919050565b600061ffff82169050919050565b600073ffffffffffffffffffffffffffffffffffffffff82169050919050565b6000819050919050565b600060ff82169050919050565b60005b83811015612f20578082015181840152602081019050612f05565b83811115612f2f576000848401525b50505050565b6000601f19601f8301169050919050565b612f4f81612e95565b8114612f5a57600080fd5b50565b612f6681612ea7565b8114612f7157600080fd5b50565b612f7d81612eb3565b8114612f8857600080fd5b50565b612f9481612ebd565b8114612f9f57600080fd5b50565b612fab81612eeb565b8114612fb657600080fd5b50565b612fc281612ef5565b8114612fcd57600080fd5b5056fe5661756c743a3a657874656e644c6f636b3a206d61782064617973206578636565646564a264697066735822122010b123be9e5c69e864f0bd87876ae3890d1ca69abf2389aaa9afa9ee175c86a864736f6c63430007040033",
  "devdoc": {
    "details": "Contract for locking up tokens for set periods of time Tokens locked in this contract DO NOT count towards voting power",
    "kind": "dev",
    "methods": {
      "claimAllUnlockedTokens(uint256)": {
        "details": "Errors if no tokens are unlockedIt is advised receivers check they are entitled to claim via `getUnlockedBalance` before calling this",
        "params": {
          "lockId": "The lock id for an unlocked token balance"
        }
      },
      "claimUnlockedTokens(uint256,uint256)": {
        "details": "Errors if no tokens are unlockedIt is advised receivers check they are entitled to claim via `getUnlockedBalance` before calling this",
        "params": {
          "amount": "The amount of unlocked tokens to claim",
          "lockId": "The lock id for an unlocked token balance"
        }
      },
      "extendLock(uint256,uint16)": {
        "params": {
          "daysToAdd": "The number of days to add to duration",
          "lockId": "The lock id for a locked token balance"
        }
      },
      "getActiveLocks(address)": {
        "params": {
          "receiver": "The address that has locked balances"
        },
        "returns": {
          "_0": "the lock ids"
        }
      },
      "getAllActiveLocks(address)": {
        "params": {
          "receiver": "The address that has locked balances"
        },
        "returns": {
          "receiverLocks": "the lock ids"
        }
      },
      "getLockedBalance(uint256)": {
        "details": "Returns 0 if duration has ended",
        "params": {
          "lockId": "The lock ID"
        },
        "returns": {
          "_0": "The amount that is locked"
        }
      },
      "getLockedTokenBalance(address,address)": {
        "params": {
          "receiver": "The address that has locked balances",
          "token": "The token to check"
        },
        "returns": {
          "lockedBalance": "the total amount of `token` locked "
        }
      },
      "getTokenLock(uint256)": {
        "params": {
          "lockId": "The ID for the locked balance"
        },
        "returns": {
          "_0": "the lock"
        }
      },
      "getUnlockedBalance(uint256)": {
        "details": "Returns 0 if duration has not ended",
        "params": {
          "lockId": "The lock ID"
        },
        "returns": {
          "_0": "The amount that can be claimed"
        }
      },
      "getUnlockedTokenBalance(address,address)": {
        "params": {
          "receiver": "The address that has unlocked balances",
          "token": "The token to check"
        },
        "returns": {
          "unlockedBalance": "the total amount of `token` unlocked "
        }
      },
      "lockTokens(address,address,address,uint256,uint256,uint16)": {
        "params": {
          "amount": "The amount of tokens being locked",
          "lockDurationInDays": "The lock period in days",
          "locker": "The account that is locking tokens",
          "receiver": "The account that will be able to retrieve unlocked tokens",
          "startTime": "The unix timestamp when the lock period will start"
        }
      },
      "lockTokensWithPermit(address,address,address,uint256,uint256,uint16,uint256,uint8,bytes32,bytes32)": {
        "params": {
          "amount": "The amount of tokens being locked",
          "deadline": "The time at which to expire the signature",
          "lockDurationInDays": "The lock period in days",
          "locker": "The account that is locking tokens",
          "r": "Half of the ECDSA signature pair",
          "receiver": "The account that will be able to retrieve unlocked tokens",
          "s": "Half of the ECDSA signature pair",
          "startTime": "The unix timestamp when the lock period will start",
          "token": "Address of token to lock",
          "v": "The recovery byte of the signature"
        }
      }
    },
    "stateVariables": {
      "SECONDS_PER_DAY": {
        "details": "Used to translate lock periods specified in days to seconds"
      }
    },
    "title": "Vault",
    "version": 1
  },
  "userdoc": {
    "events": {
      "LockCreated(address,address,address,uint256,uint256,uint16,uint256)": {
        "notice": "Event emitted when a new lock is created"
      },
      "LockExtended(uint16,uint16,uint256,uint256)": {
        "notice": "Event emitted when lock duration extended"
      },
      "UnlockedTokensClaimed(address,address,uint256,uint256)": {
        "notice": "Event emitted when tokens are claimed by a receiver from an unlocked balance"
      }
    },
    "kind": "user",
    "methods": {
      "activeLocks(address,uint256)": {
        "notice": "Mapping of address to lock id"
      },
      "claimAllUnlockedTokens(uint256)": {
        "notice": "Allows receiver to claim all of their unlocked tokens for a given lock"
      },
      "claimUnlockedTokens(uint256,uint256)": {
        "notice": "Allows receiver to claim a portion of their unlocked tokens for a given lock"
      },
      "extendLock(uint256,uint16)": {
        "notice": "Allows receiver extend lock period for a given lock"
      },
      "getActiveLocks(address)": {
        "notice": "Get token locks for receiver"
      },
      "getAllActiveLocks(address)": {
        "notice": "Get all active token locks for receiver"
      },
      "getLockedBalance(uint256)": {
        "notice": "Get locked balance for a given lock id"
      },
      "getLockedTokenBalance(address,address)": {
        "notice": "Get total locked token balance of receiver"
      },
      "getTokenLock(uint256)": {
        "notice": "Get token lock for given lock id"
      },
      "getUnlockedBalance(uint256)": {
        "notice": "Get unlocked balance for a given lock id"
      },
      "getUnlockedTokenBalance(address,address)": {
        "notice": "Get total unlocked token balance of receiver"
      },
      "lockTokens(address,address,address,uint256,uint256,uint16)": {
        "notice": "Lock tokens"
      },
      "lockTokensWithPermit(address,address,address,uint256,uint256,uint16,uint256,uint8,bytes32,bytes32)": {
        "notice": "Lock tokens"
      },
      "numLocks()": {
        "notice": "Number of locks"
      },
      "tokenLocks(uint256)": {
        "notice": "Mapping of lock id > token locks"
      }
    },
    "version": 1
  },
  "storageLayout": {
    "storage": [
      {
        "astId": 30,
        "contract": "contracts/Vault.sol:Vault",
        "label": "tokenLocks",
        "offset": 0,
        "slot": "0",
        "type": "t_mapping(t_uint256,t_struct(Lock)21_storage)"
      },
      {
        "astId": 36,
        "contract": "contracts/Vault.sol:Vault",
        "label": "activeLocks",
        "offset": 0,
        "slot": "1",
        "type": "t_mapping(t_address,t_array(t_uint256)dyn_storage)"
      },
      {
        "astId": 39,
        "contract": "contracts/Vault.sol:Vault",
        "label": "numLocks",
        "offset": 0,
        "slot": "2",
        "type": "t_uint256"
      }
    ],
    "types": {
      "t_address": {
        "encoding": "inplace",
        "label": "address",
        "numberOfBytes": "20"
      },
      "t_array(t_uint256)dyn_storage": {
        "base": "t_uint256",
        "encoding": "dynamic_array",
        "label": "uint256[]",
        "numberOfBytes": "32"
      },
      "t_mapping(t_address,t_array(t_uint256)dyn_storage)": {
        "encoding": "mapping",
        "key": "t_address",
        "label": "mapping(address => uint256[])",
        "numberOfBytes": "32",
        "value": "t_array(t_uint256)dyn_storage"
      },
      "t_mapping(t_uint256,t_struct(Lock)21_storage)": {
        "encoding": "mapping",
        "key": "t_uint256",
        "label": "mapping(uint256 => struct Vault.Lock)",
        "numberOfBytes": "32",
        "value": "t_struct(Lock)21_storage"
      },
      "t_struct(Lock)21_storage": {
        "encoding": "inplace",
        "label": "struct Vault.Lock",
        "members": [
          {
            "astId": 10,
            "contract": "contracts/Vault.sol:Vault",
            "label": "token",
            "offset": 0,
            "slot": "0",
            "type": "t_address"
          },
          {
            "astId": 12,
            "contract": "contracts/Vault.sol:Vault",
            "label": "receiver",
            "offset": 0,
            "slot": "1",
            "type": "t_address"
          },
          {
            "astId": 14,
            "contract": "contracts/Vault.sol:Vault",
            "label": "startTime",
            "offset": 0,
            "slot": "2",
            "type": "t_uint256"
          },
          {
            "astId": 16,
            "contract": "contracts/Vault.sol:Vault",
            "label": "amount",
            "offset": 0,
            "slot": "3",
            "type": "t_uint256"
          },
          {
            "astId": 18,
            "contract": "contracts/Vault.sol:Vault",
            "label": "duration",
            "offset": 0,
            "slot": "4",
            "type": "t_uint16"
          },
          {
            "astId": 20,
            "contract": "contracts/Vault.sol:Vault",
            "label": "amountClaimed",
            "offset": 0,
            "slot": "5",
            "type": "t_uint256"
          }
        ],
        "numberOfBytes": "192"
      },
      "t_uint16": {
        "encoding": "inplace",
        "label": "uint16",
        "numberOfBytes": "2"
      },
      "t_uint256": {
        "encoding": "inplace",
        "label": "uint256",
        "numberOfBytes": "32"
      }
    }
  }
}