{
  "address": "0x16c2832eaB29577221653c804Ccb8cc2AD39d9a8",
  "abi": [
    {
      "inputs": [
        {
          "internalType": "address",
          "name": "_token",
          "type": "address"
        }
      ],
      "stateMutability": "nonpayable",
      "type": "constructor"
    },
    {
      "anonymous": false,
      "inputs": [
        {
          "indexed": true,
          "internalType": "address",
          "name": "newOwner",
          "type": "address"
        },
        {
          "indexed": false,
          "internalType": "address",
          "name": "oldOwner",
          "type": "address"
        }
      ],
      "name": "ChangedOwner",
      "type": "event"
    },
    {
      "anonymous": false,
      "inputs": [
        {
          "indexed": true,
          "internalType": "address",
          "name": "newContract",
          "type": "address"
        },
        {
          "indexed": false,
          "internalType": "address",
          "name": "oldContract",
          "type": "address"
        }
      ],
      "name": "ChangedVotingPower",
      "type": "event"
    },
    {
      "anonymous": false,
      "inputs": [
        {
          "indexed": true,
          "internalType": "address",
          "name": "recipient",
          "type": "address"
        },
        {
          "indexed": false,
          "internalType": "uint256",
          "name": "amount",
          "type": "uint256"
        },
        {
          "indexed": false,
          "internalType": "uint256",
          "name": "startTime",
          "type": "uint256"
        },
        {
          "indexed": false,
          "internalType": "uint16",
          "name": "vestingDurationInDays",
          "type": "uint16"
        },
        {
          "indexed": false,
          "internalType": "uint16",
          "name": "vestingCliffInDays",
          "type": "uint16"
        }
      ],
      "name": "GrantAdded",
      "type": "event"
    },
    {
      "anonymous": false,
      "inputs": [
        {
          "indexed": false,
          "internalType": "address",
          "name": "recipient",
          "type": "address"
        },
        {
          "indexed": false,
          "internalType": "uint256",
          "name": "amountVested",
          "type": "uint256"
        },
        {
          "indexed": false,
          "internalType": "uint256",
          "name": "amountNotVested",
          "type": "uint256"
        }
      ],
      "name": "GrantRemoved",
      "type": "event"
    },
    {
      "anonymous": false,
      "inputs": [
        {
          "indexed": true,
          "internalType": "address",
          "name": "recipient",
          "type": "address"
        },
        {
          "indexed": false,
          "internalType": "uint256",
          "name": "amountClaimed",
          "type": "uint256"
        }
      ],
      "name": "GrantTokensClaimed",
      "type": "event"
    },
    {
      "inputs": [
        {
          "internalType": "address",
          "name": "recipient",
          "type": "address"
        },
        {
          "internalType": "uint256",
          "name": "startTime",
          "type": "uint256"
        },
        {
          "internalType": "uint256",
          "name": "amount",
          "type": "uint256"
        },
        {
          "internalType": "uint16",
          "name": "vestingDurationInDays",
          "type": "uint16"
        },
        {
          "internalType": "uint16",
          "name": "vestingCliffInDays",
          "type": "uint16"
        }
      ],
      "name": "addTokenGrant",
      "outputs": [],
      "stateMutability": "nonpayable",
      "type": "function"
    },
    {
      "inputs": [
        {
          "internalType": "address",
          "name": "recipient",
          "type": "address"
        }
      ],
      "name": "calculateGrantClaim",
      "outputs": [
        {
          "internalType": "uint256",
          "name": "",
          "type": "uint256"
        }
      ],
      "stateMutability": "view",
      "type": "function"
    },
    {
      "inputs": [
        {
          "internalType": "address",
          "name": "newOwner",
          "type": "address"
        }
      ],
      "name": "changeOwner",
      "outputs": [],
      "stateMutability": "nonpayable",
      "type": "function"
    },
    {
      "inputs": [
        {
          "internalType": "address",
          "name": "recipient",
          "type": "address"
        }
      ],
      "name": "claimVestedTokens",
      "outputs": [],
      "stateMutability": "nonpayable",
      "type": "function"
    },
    {
      "inputs": [
        {
          "internalType": "address",
          "name": "recipient",
          "type": "address"
        }
      ],
      "name": "claimedBalance",
      "outputs": [
        {
          "internalType": "uint256",
          "name": "",
          "type": "uint256"
        }
      ],
      "stateMutability": "view",
      "type": "function"
    },
    {
      "inputs": [
        {
          "internalType": "address",
          "name": "recipient",
          "type": "address"
        }
      ],
      "name": "getTokenGrant",
      "outputs": [
        {
          "components": [
            {
              "internalType": "uint256",
              "name": "startTime",
              "type": "uint256"
            },
            {
              "internalType": "uint256",
              "name": "amount",
              "type": "uint256"
            },
            {
              "internalType": "uint16",
              "name": "vestingDuration",
              "type": "uint16"
            },
            {
              "internalType": "uint16",
              "name": "vestingCliff",
              "type": "uint16"
            },
            {
              "internalType": "uint256",
              "name": "totalClaimed",
              "type": "uint256"
            }
          ],
          "internalType": "struct Vesting.Grant",
          "name": "",
          "type": "tuple"
        }
      ],
      "stateMutability": "view",
      "type": "function"
    },
    {
      "inputs": [],
      "name": "owner",
      "outputs": [
        {
          "internalType": "address",
          "name": "",
          "type": "address"
        }
      ],
      "stateMutability": "view",
      "type": "function"
    },
    {
      "inputs": [
        {
          "internalType": "address",
          "name": "newContract",
          "type": "address"
        }
      ],
      "name": "setVotingPowerContract",
      "outputs": [],
      "stateMutability": "nonpayable",
      "type": "function"
    },
    {
      "inputs": [],
      "name": "token",
      "outputs": [
        {
          "internalType": "contract IArchToken",
          "name": "",
          "type": "address"
        }
      ],
      "stateMutability": "view",
      "type": "function"
    },
    {
      "inputs": [
        {
          "internalType": "address",
          "name": "",
          "type": "address"
        }
      ],
      "name": "tokenGrants",
      "outputs": [
        {
          "internalType": "uint256",
          "name": "startTime",
          "type": "uint256"
        },
        {
          "internalType": "uint256",
          "name": "amount",
          "type": "uint256"
        },
        {
          "internalType": "uint16",
          "name": "vestingDuration",
          "type": "uint16"
        },
        {
          "internalType": "uint16",
          "name": "vestingCliff",
          "type": "uint16"
        },
        {
          "internalType": "uint256",
          "name": "totalClaimed",
          "type": "uint256"
        }
      ],
      "stateMutability": "view",
      "type": "function"
    },
    {
      "inputs": [
        {
          "internalType": "address",
          "name": "recipient",
          "type": "address"
        }
      ],
      "name": "tokensVestedPerDay",
      "outputs": [
        {
          "internalType": "uint256",
          "name": "",
          "type": "uint256"
        }
      ],
      "stateMutability": "view",
      "type": "function"
    },
    {
      "inputs": [
        {
          "internalType": "address",
          "name": "recipient",
          "type": "address"
        }
      ],
      "name": "vestedBalance",
      "outputs": [
        {
          "internalType": "uint256",
          "name": "",
          "type": "uint256"
        }
      ],
      "stateMutability": "view",
      "type": "function"
    },
    {
      "inputs": [],
      "name": "votingPower",
      "outputs": [
        {
          "internalType": "contract IVotingPower",
          "name": "",
          "type": "address"
        }
      ],
      "stateMutability": "view",
      "type": "function"
    }
  ],
  "transactionHash": "0x937831c0683935dcb06fad2d9c13f9289a7a042ff0983e476ed38dcd0c708c6f",
  "args": [
    "0x7e62A600e789000862b29BedB80D796c9E08D691"
  ],
  "solcInputHash": "717d290eaa30525657880968a67e5e00",
  "bytecode": "0x60806040523480156200001157600080fd5b506040516200271b3803806200271b833981810160405281019062000037919062000149565b600073ffffffffffffffffffffffffffffffffffffffff168173ffffffffffffffffffffffffffffffffffffffff161415620000aa576040517f08c379a0000000000000000000000000000000000000000000000000000000008152600401620000a190620001dd565b60405180910390fd5b806000806101000a81548173ffffffffffffffffffffffffffffffffffffffff021916908373ffffffffffffffffffffffffffffffffffffffff16021790555033600360006101000a81548173ffffffffffffffffffffffffffffffffffffffff021916908373ffffffffffffffffffffffffffffffffffffffff160217905550506200025e565b600081519050620001438162000244565b92915050565b6000602082840312156200015c57600080fd5b60006200016c8482850162000132565b91505092915050565b600062000184602e83620001ff565b91507f566573743a3a636f6e7374727563746f723a206d7573742062652076616c696460008301527f20746f6b656e20616464726573730000000000000000000000000000000000006020830152604082019050919050565b60006020820190508181036000830152620001f88162000175565b9050919050565b600082825260208201905092915050565b60006200021d8262000224565b9050919050565b600073ffffffffffffffffffffffffffffffffffffffff82169050919050565b6200024f8162000210565b81146200025b57600080fd5b50565b6124ad806200026e6000396000f3fe608060405234801561001057600080fd5b50600436106100cf5760003560e01c80639886c2a51161008c578063b81a4d8f11610066578063b81a4d8f14610224578063e04c64d214610258578063fc0c546a14610274578063fd75b8d414610292576100cf565b80639886c2a5146101bc57806398f3b12d146101ec578063a6f9dae114610208576100cf565b8063376d3b8f146100d45780635ca2fc53146101045780636087349c1461012057806377174f85146101505780638da5cb5b1461016e5780639114557e1461018c575b600080fd5b6100ee60048036038101906100e991906118ca565b6102c2565b6040516100fb919061227d565b60405180910390f35b61011e600480360381019061011991906118f3565b610379565b005b61013a600480360381019061013591906118ca565b610993565b6040516101479190612298565b60405180910390f35b610158610a0c565b6040516101659190612082565b60405180910390f35b610176610a32565b6040516101839190611fec565b60405180910390f35b6101a660048036038101906101a191906118ca565b610a58565b6040516101b39190612298565b60405180910390f35b6101d660048036038101906101d191906118ca565b610bae565b6040516101e39190612298565b60405180910390f35b610206600480360381019061020191906118ca565b610bff565b005b610222600480360381019061021d91906118ca565b610e7f565b005b61023e600480360381019061023991906118ca565b6110c9565b60405161024f9594939291906122f8565b60405180910390f35b610272600480360381019061026d91906118ca565b61111b565b005b61027c611365565b6040516102899190612067565b60405180910390f35b6102ac60048036038101906102a791906118ca565b611389565b6040516102b99190612298565b60405180910390f35b6102ca61183f565b600260008373ffffffffffffffffffffffffffffffffffffffff1673ffffffffffffffffffffffffffffffffffffffff1681526020019081526020016000206040518060a001604052908160008201548152602001600182015481526020016002820160009054906101000a900461ffff1661ffff1661ffff1681526020016002820160029054906101000a900461ffff1661ffff1661ffff1681526020016003820154815250509050919050565b600360009054906101000a900473ffffffffffffffffffffffffffffffffffffffff1673ffffffffffffffffffffffffffffffffffffffff163373ffffffffffffffffffffffffffffffffffffffff1614610409576040517f08c379a0000000000000000000000000000000000000000000000000000000008152600401610400906120fd565b60405180910390fd5b600073ffffffffffffffffffffffffffffffffffffffff16600160009054906101000a900473ffffffffffffffffffffffffffffffffffffffff1673ffffffffffffffffffffffffffffffffffffffff16141561049b576040517f08c379a0000000000000000000000000000000000000000000000000000000008152600401610492906121fd565b60405180910390fd5b610e428161ffff1611156104e4576040517f08c379a00000000000000000000000000000000000000000000000000000000081526004016104db9061211d565b60405180910390fd5b60008261ffff161161052b576040517f08c379a00000000000000000000000000000000000000000000000000000000081526004016105229061213d565b60405180910390fd5b6123a58261ffff161115610574576040517f08c379a000000000000000000000000000000000000000000000000000000000815260040161056b9061219d565b60405180910390fd5b8061ffff168261ffff1610156105bf576040517f08c379a00000000000000000000000000000000000000000000000000000000081526004016105b69061209d565b60405180910390fd5b6000600260008773ffffffffffffffffffffffffffffffffffffffff1673ffffffffffffffffffffffffffffffffffffffff1681526020019081526020016000206001015414610644576040517f08c379a000000000000000000000000000000000000000000000000000000000815260040161063b906120bd565b60405180910390fd5b600061065d8361ffff168561151790919063ffffffff16565b9050600081116106a2576040517f08c379a00000000000000000000000000000000000000000000000000000000081526004016106999061225d565b60405180910390fd5b60008054906101000a900473ffffffffffffffffffffffffffffffffffffffff1673ffffffffffffffffffffffffffffffffffffffff166323b872dd600360009054906101000a900473ffffffffffffffffffffffffffffffffffffffff1630876040518463ffffffff1660e01b815260040161072193929190612007565b602060405180830381600087803b15801561073b57600080fd5b505af115801561074f573d6000803e3d6000fd5b505050506040513d601f19601f82011682018060405250810190610773919061196a565b6107b2576040517f08c379a00000000000000000000000000000000000000000000000000000000081526004016107a99061215d565b60405180910390fd5b60008086146107c157856107c3565b425b90506107cd61183f565b6040518060a001604052808381526020018781526020018661ffff1681526020018561ffff1681526020016000815250905080600260008a73ffffffffffffffffffffffffffffffffffffffff1673ffffffffffffffffffffffffffffffffffffffff168152602001908152602001600020600082015181600001556020820151816001015560408201518160020160006101000a81548161ffff021916908361ffff16021790555060608201518160020160026101000a81548161ffff021916908361ffff160217905550608082015181600301559050508773ffffffffffffffffffffffffffffffffffffffff167f289b4a3bfb88b0c05450910f26d440c9e13127d17a232782f02184d45606bd53878488886040516108f294939291906122b3565b60405180910390a2600160009054906101000a900473ffffffffffffffffffffffffffffffffffffffff1673ffffffffffffffffffffffffffffffffffffffff16639b92ac4a89886040518363ffffffff1660e01b815260040161095792919061203e565b600060405180830381600087803b15801561097157600080fd5b505af1158015610985573d6000803e3d6000fd5b505050505050505050505050565b600080600260008473ffffffffffffffffffffffffffffffffffffffff1673ffffffffffffffffffffffffffffffffffffffff1681526020019081526020016000209050610a048160020160009054906101000a900461ffff1661ffff16826001015461151790919063ffffffff16565b915050919050565b600160009054906101000a900473ffffffffffffffffffffffffffffffffffffffff1681565b600360009054906101000a900473ffffffffffffffffffffffffffffffffffffffff1681565b600080600260008473ffffffffffffffffffffffffffffffffffffffff1673ffffffffffffffffffffffffffffffffffffffff16815260200190815260200160002090508060000154421015610ab2576000915050610ba9565b6000610acb82600001544261156190919063ffffffff16565b90506000610ae5620151808361151790919063ffffffff16565b90508260020160029054906101000a900461ffff1661ffff16811015610b115760009350505050610ba9565b8260020160009054906101000a900461ffff1661ffff168110610b3d5782600101549350505050610ba9565b6000610b6b620151808560020160009054906101000a900461ffff1661ffff166115ab90919063ffffffff16565b90506000610b8682866001015461151790919063ffffffff16565b90506000610b9d85836115ab90919063ffffffff16565b90508096505050505050505b919050565b600080600260008473ffffffffffffffffffffffffffffffffffffffff1673ffffffffffffffffffffffffffffffffffffffff16815260200190815260200160002090508060030154915050919050565b6000610c0a82611389565b905060008111610c4f576040517f08c379a0000000000000000000000000000000000000000000000000000000008152600401610c469061217d565b60405180910390fd5b600160009054906101000a900473ffffffffffffffffffffffffffffffffffffffff1673ffffffffffffffffffffffffffffffffffffffff16631efaa44283836040518363ffffffff1660e01b8152600401610cac92919061203e565b600060405180830381600087803b158015610cc657600080fd5b505af1158015610cda573d6000803e3d6000fd5b505050506000600260008473ffffffffffffffffffffffffffffffffffffffff1673ffffffffffffffffffffffffffffffffffffffff1681526020019081526020016000209050610d3882826003015461163190919063ffffffff16565b816003018190555060008054906101000a900473ffffffffffffffffffffffffffffffffffffffff1673ffffffffffffffffffffffffffffffffffffffff1663a9059cbb84846040518363ffffffff1660e01b8152600401610d9b92919061203e565b602060405180830381600087803b158015610db557600080fd5b505af1158015610dc9573d6000803e3d6000fd5b505050506040513d601f19601f82011682018060405250810190610ded919061196a565b610e2c576040517f08c379a0000000000000000000000000000000000000000000000000000000008152600401610e23906120dd565b60405180910390fd5b8273ffffffffffffffffffffffffffffffffffffffff167fc6cbb4aa8681b18644bf64921eea8f2b9f44cbd58d64fc07a110bfccc203829683604051610e729190612298565b60405180910390a2505050565b600360009054906101000a900473ffffffffffffffffffffffffffffffffffffffff1673ffffffffffffffffffffffffffffffffffffffff163373ffffffffffffffffffffffffffffffffffffffff1614610f0f576040517f08c379a0000000000000000000000000000000000000000000000000000000008152600401610f069061221d565b60405180910390fd5b600073ffffffffffffffffffffffffffffffffffffffff168173ffffffffffffffffffffffffffffffffffffffff1614158015610f7857503073ffffffffffffffffffffffffffffffffffffffff168173ffffffffffffffffffffffffffffffffffffffff1614155b8015610fd0575060008054906101000a900473ffffffffffffffffffffffffffffffffffffffff1673ffffffffffffffffffffffffffffffffffffffff168173ffffffffffffffffffffffffffffffffffffffff1614155b61100f576040517f08c379a0000000000000000000000000000000000000000000000000000000008152600401611006906121bd565b60405180910390fd5b6000600360009054906101000a900473ffffffffffffffffffffffffffffffffffffffff16905081600360006101000a81548173ffffffffffffffffffffffffffffffffffffffff021916908373ffffffffffffffffffffffffffffffffffffffff1602179055508173ffffffffffffffffffffffffffffffffffffffff167f2748503f8f31d8071821d1d5144384ba6a465036cda17fa1629a8a2509ccee0e826040516110bd9190611fec565b60405180910390a25050565b60026020528060005260406000206000915090508060000154908060010154908060020160009054906101000a900461ffff16908060020160029054906101000a900461ffff16908060030154905085565b600360009054906101000a900473ffffffffffffffffffffffffffffffffffffffff1673ffffffffffffffffffffffffffffffffffffffff163373ffffffffffffffffffffffffffffffffffffffff16146111ab576040517f08c379a00000000000000000000000000000000000000000000000000000000081526004016111a29061223d565b60405180910390fd5b600073ffffffffffffffffffffffffffffffffffffffff168173ffffffffffffffffffffffffffffffffffffffff161415801561121457503073ffffffffffffffffffffffffffffffffffffffff168173ffffffffffffffffffffffffffffffffffffffff1614155b801561126c575060008054906101000a900473ffffffffffffffffffffffffffffffffffffffff1673ffffffffffffffffffffffffffffffffffffffff168173ffffffffffffffffffffffffffffffffffffffff1614155b6112ab576040517f08c379a00000000000000000000000000000000000000000000000000000000081526004016112a2906121dd565b60405180910390fd5b6000600160009054906101000a900473ffffffffffffffffffffffffffffffffffffffff16905081600160006101000a81548173ffffffffffffffffffffffffffffffffffffffff021916908373ffffffffffffffffffffffffffffffffffffffff1602179055508173ffffffffffffffffffffffffffffffffffffffff167fd5ebd1c28f18d0ac07c2bde08a54c730dce59088921d8ca0c1b92bd9f2e89038826040516113599190611fec565b60405180910390a25050565b60008054906101000a900473ffffffffffffffffffffffffffffffffffffffff1681565b600080600260008473ffffffffffffffffffffffffffffffffffffffff1673ffffffffffffffffffffffffffffffffffffffff168152602001908152602001600020905080600001544210156113e3576000915050611512565b60006113fc82600001544261156190919063ffffffff16565b90506000611416620151808361151790919063ffffffff16565b90508260020160029054906101000a900461ffff1661ffff168110156114425760009350505050611512565b8260020160009054906101000a900461ffff1661ffff16811061148a57600061147c8460030154856001015461156190919063ffffffff16565b905080945050505050611512565b60006114b8620151808560020160009054906101000a900461ffff1661ffff166115ab90919063ffffffff16565b905060006114d382866001015461151790919063ffffffff16565b905060006114ea85836115ab90919063ffffffff16565b9050600061150587600301548361156190919063ffffffff16565b9050809750505050505050505b919050565b600061155983836040518060400160405280601a81526020017f536166654d6174683a206469766973696f6e206279207a65726f0000000000008152506116b9565b905092915050565b60006115a383836040518060400160405280601f81526020017f536166654d6174683a207375627472616374696f6e20756e646572666c6f770081525061177f565b905092915050565b6000808314156115be576000905061162b565b60008284029050828482816115cf57fe5b0414611626576040517f08c379a00000000000000000000000000000000000000000000000000000000081526004018080602001828103825260218152602001806124576021913960400191505060405180910390fd5b809150505b92915050565b6000808284019050838110156116af576040517f08c379a000000000000000000000000000000000000000000000000000000000815260040180806020018281038252601b8152602001807f536166654d6174683a206164646974696f6e206f766572666c6f77000000000081525060200191505060405180910390fd5b8091505092915050565b60008083118290611765576040517f08c379a00000000000000000000000000000000000000000000000000000000081526004018080602001828103825283818151815260200191508051906020019080838360005b8381101561172a57808201518184015260208101905061170f565b50505050905090810190601f1680156117575780820380516001836020036101000a031916815260200191505b509250505060405180910390fd5b50600083858161177157fe5b049050809150509392505050565b600083831115829061182c576040517f08c379a00000000000000000000000000000000000000000000000000000000081526004018080602001828103825283818151815260200191508051906020019080838360005b838110156117f15780820151818401526020810190506117d6565b50505050905090810190601f16801561181e5780820380516001836020036101000a031916815260200191505b509250505060405180910390fd5b5060008385039050809150509392505050565b6040518060a001604052806000815260200160008152602001600061ffff168152602001600061ffff168152602001600081525090565b600081359050611885816123fa565b92915050565b60008151905061189a81612411565b92915050565b6000813590506118af81612428565b92915050565b6000813590506118c48161243f565b92915050565b6000602082840312156118dc57600080fd5b60006118ea84828501611876565b91505092915050565b600080600080600060a0868803121561190b57600080fd5b600061191988828901611876565b955050602061192a888289016118b5565b945050604061193b888289016118b5565b935050606061194c888289016118a0565b925050608061195d888289016118a0565b9150509295509295909350565b60006020828403121561197c57600080fd5b600061198a8482850161188b565b91505092915050565b61199c8161235c565b82525050565b6119ab816123b2565b82525050565b6119ba816123d6565b82525050565b60006119cd60258361234b565b91507f566573743a3a616464546f6b656e4772616e743a204475726174696f6e203c2060008301527f436c6966660000000000000000000000000000000000000000000000000000006020830152604082019050919050565b6000611a3360358361234b565b91507f566573743a3a616464546f6b656e4772616e743a206772616e7420616c72656160008301527f64792065786973747320666f72206163636f756e7400000000000000000000006020830152604082019050919050565b6000611a99601c8361234b565b91507f566573743a3a636c61696d5665737465643a206e6f20746f6b656e73000000006000830152602082019050919050565b6000611ad9601e8361234b565b91507f566573743a3a616464546f6b656e4772616e743a206e6f74206f776e657200006000830152602082019050919050565b6000611b19602d8361234b565b91507f566573743a3a616464546f6b656e4772616e743a20636c696666206d6f72652060008301527f7468616e203130207965617273000000000000000000000000000000000000006020830152604082019050919050565b6000611b7f60298361234b565b91507f566573743a3a616464546f6b656e4772616e743a206475726174696f6e206d7560008301527f7374206265203e203000000000000000000000000000000000000000000000006020830152604082019050919050565b6000611be560248361234b565b91507f566573743a3a616464546f6b656e4772616e743a207472616e7366657220666160008301527f696c6564000000000000000000000000000000000000000000000000000000006020830152604082019050919050565b6000611c4b60248361234b565b91507f566573743a3a636c61696d5665737465643a20616d6f756e745665737465642060008301527f69732030000000000000000000000000000000000000000000000000000000006020830152604082019050919050565b6000611cb160308361234b565b91507f566573743a3a616464546f6b656e4772616e743a206475726174696f6e206d6f60008301527f7265207468616e203235207965617273000000000000000000000000000000006020830152604082019050919050565b6000611d1760248361234b565b91507f566573743a3a6368616e67654f776e65723a206e6f742076616c69642061646460008301527f72657373000000000000000000000000000000000000000000000000000000006020830152604082019050919050565b6000611d7d60388361234b565b91507f566573743a3a736574566f74696e67506f776572436f6e74726163743a206e6f60008301527f742076616c696420636f6e7472616374206164647265737300000000000000006020830152604082019050919050565b6000611de360348361234b565b91507f566573743a3a616464546f6b656e4772616e743a2053657420566f74696e672060008301527f506f77657220636f6e74726163742066697273740000000000000000000000006020830152604082019050919050565b6000611e49601c8361234b565b91507f566573743a3a6368616e67654f776e65723a206e6f74206f776e6572000000006000830152602082019050919050565b6000611e8960278361234b565b91507f566573743a3a736574566f74696e67506f776572436f6e74726163743a206e6f60008301527f74206f776e6572000000000000000000000000000000000000000000000000006020830152604082019050919050565b6000611eef602b8361234b565b91507f566573743a3a616464546f6b656e4772616e743a20616d6f756e74566573746560008301527f64506572446179203e20300000000000000000000000000000000000000000006020830152604082019050919050565b60a082016000820151611f5e6000850182611fce565b506020820151611f716020850182611fce565b506040820151611f846040850182611fb0565b506060820151611f976060850182611fb0565b506080820151611faa6080850182611fce565b50505050565b611fb98161237a565b82525050565b611fc88161237a565b82525050565b611fd7816123a8565b82525050565b611fe6816123a8565b82525050565b60006020820190506120016000830184611993565b92915050565b600060608201905061201c6000830186611993565b6120296020830185611993565b6120366040830184611fdd565b949350505050565b60006040820190506120536000830185611993565b6120606020830184611fdd565b9392505050565b600060208201905061207c60008301846119a2565b92915050565b600060208201905061209760008301846119b1565b92915050565b600060208201905081810360008301526120b6816119c0565b9050919050565b600060208201905081810360008301526120d681611a26565b9050919050565b600060208201905081810360008301526120f681611a8c565b9050919050565b6000602082019050818103600083015261211681611acc565b9050919050565b6000602082019050818103600083015261213681611b0c565b9050919050565b6000602082019050818103600083015261215681611b72565b9050919050565b6000602082019050818103600083015261217681611bd8565b9050919050565b6000602082019050818103600083015261219681611c3e565b9050919050565b600060208201905081810360008301526121b681611ca4565b9050919050565b600060208201905081810360008301526121d681611d0a565b9050919050565b600060208201905081810360008301526121f681611d70565b9050919050565b6000602082019050818103600083015261221681611dd6565b9050919050565b6000602082019050818103600083015261223681611e3c565b9050919050565b6000602082019050818103600083015261225681611e7c565b9050919050565b6000602082019050818103600083015261227681611ee2565b9050919050565b600060a0820190506122926000830184611f48565b92915050565b60006020820190506122ad6000830184611fdd565b92915050565b60006080820190506122c86000830187611fdd565b6122d56020830186611fdd565b6122e26040830185611fbf565b6122ef6060830184611fbf565b95945050505050565b600060a08201905061230d6000830188611fdd565b61231a6020830187611fdd565b6123276040830186611fbf565b6123346060830185611fbf565b6123416080830184611fdd565b9695505050505050565b600082825260208201905092915050565b600061236782612388565b9050919050565b60008115159050919050565b600061ffff82169050919050565b600073ffffffffffffffffffffffffffffffffffffffff82169050919050565b6000819050919050565b60006123bd826123c4565b9050919050565b60006123cf82612388565b9050919050565b60006123e1826123e8565b9050919050565b60006123f382612388565b9050919050565b6124038161235c565b811461240e57600080fd5b50565b61241a8161236e565b811461242557600080fd5b50565b6124318161237a565b811461243c57600080fd5b50565b612448816123a8565b811461245357600080fd5b5056fe536166654d6174683a206d756c7469706c69636174696f6e206f766572666c6f77a264697066735822122086d7bff25d2ece01a2777011671bf8470f26cd698d21d5c58dd523bebdc9cfb064736f6c63430007040033",
  "devdoc": {
    "kind": "dev",
    "methods": {
      "addTokenGrant(address,uint256,uint256,uint16,uint16)": {
        "params": {
          "amount": "The amount of tokens being granted",
          "recipient": "The address that is receicing the grant",
          "startTime": "The unix timestamp when the grant will start",
          "vestingCliffInDays": "The vesting cliff duration in days",
          "vestingDurationInDays": "The vesting period in days"
        }
      },
      "calculateGrantClaim(address)": {
        "details": "Due to rounding errors once grant duration is reached, returns the entire left grant amountReturns 0 if cliff has not been reached",
        "params": {
          "recipient": "The address that has a grant"
        },
        "returns": {
          "_0": "The amount recipient can claim"
        }
      },
      "changeOwner(address)": {
        "params": {
          "newOwner": "New owner address"
        }
      },
      "claimVestedTokens(address)": {
        "details": "Errors if no tokens have vestedIt is advised recipients check they are entitled to claim via `calculateGrantClaim` before calling this",
        "params": {
          "recipient": "The address that has a grant"
        }
      },
      "claimedBalance(address)": {
        "params": {
          "recipient": "The address that has a grant"
        },
        "returns": {
          "_0": "the number of claimed tokens by `recipient`"
        }
      },
      "getTokenGrant(address)": {
        "params": {
          "recipient": "The address that has a grant"
        },
        "returns": {
          "_0": "the grant"
        }
      },
      "setVotingPowerContract(address)": {
        "params": {
          "newContract": "New voting power contract address"
        }
      },
      "tokensVestedPerDay(address)": {
        "params": {
          "recipient": "The address that has a grant"
        },
        "returns": {
          "_0": "Number of tokens that will vest per day"
        }
      },
      "vestedBalance(address)": {
        "details": "Returns 0 if cliff has not been reached",
        "params": {
          "recipient": "The address that has a grant"
        },
        "returns": {
          "_0": "Total vested balance (claimed + unclaimed)"
        }
      }
    },
    "version": 1
  },
  "userdoc": {
    "kind": "user",
    "methods": {
      "addTokenGrant(address,uint256,uint256,uint16,uint16)": {
        "notice": "Add a new token grant"
      },
      "calculateGrantClaim(address)": {
        "notice": "Calculate the vested and unclaimed tokens available for `recipient` to claim"
      },
      "changeOwner(address)": {
        "notice": "Change owner of vesting contract"
      },
      "claimVestedTokens(address)": {
        "notice": "Allows a grant recipient to claim their vested tokens"
      },
      "claimedBalance(address)": {
        "notice": "The balance claimed by `recipient`"
      },
      "getTokenGrant(address)": {
        "notice": "Get token grant for recipient"
      },
      "setVotingPowerContract(address)": {
        "notice": "Set voting power contract address"
      },
      "tokensVestedPerDay(address)": {
        "notice": "Calculate the number of tokens that will vest per day for the given recipient"
      },
      "vestedBalance(address)": {
        "notice": "Calculate the vested (claimed + unclaimed) tokens for `recipient`"
      }
    },
    "version": 1
  },
  "storageLayout": {
    "storage": [
      {
        "astId": 1124,
        "contract": "contracts/Vesting.sol:Vesting",
        "label": "token",
        "offset": 0,
        "slot": "0",
        "type": "t_contract(IArchToken)3214"
      },
      {
        "astId": 1126,
        "contract": "contracts/Vesting.sol:Vesting",
        "label": "votingPower",
        "offset": 0,
        "slot": "1",
        "type": "t_contract(IVotingPower)3348"
      },
      {
        "astId": 1130,
        "contract": "contracts/Vesting.sol:Vesting",
        "label": "tokenGrants",
        "offset": 0,
        "slot": "2",
        "type": "t_mapping(t_address,t_struct(Grant)1084_storage)"
      },
      {
        "astId": 1132,
        "contract": "contracts/Vesting.sol:Vesting",
        "label": "owner",
        "offset": 0,
        "slot": "3",
        "type": "t_address"
      }
    ],
    "types": {
      "t_address": {
        "encoding": "inplace",
        "label": "address",
        "numberOfBytes": "20"
      },
      "t_contract(IArchToken)3214": {
        "encoding": "inplace",
        "label": "contract IArchToken",
        "numberOfBytes": "20"
      },
      "t_contract(IVotingPower)3348": {
        "encoding": "inplace",
        "label": "contract IVotingPower",
        "numberOfBytes": "20"
      },
      "t_mapping(t_address,t_struct(Grant)1084_storage)": {
        "encoding": "mapping",
        "key": "t_address",
        "label": "mapping(address => struct Vesting.Grant)",
        "numberOfBytes": "32",
        "value": "t_struct(Grant)1084_storage"
      },
      "t_struct(Grant)1084_storage": {
        "encoding": "inplace",
        "label": "struct Vesting.Grant",
        "members": [
          {
            "astId": 1075,
            "contract": "contracts/Vesting.sol:Vesting",
            "label": "startTime",
            "offset": 0,
            "slot": "0",
            "type": "t_uint256"
          },
          {
            "astId": 1077,
            "contract": "contracts/Vesting.sol:Vesting",
            "label": "amount",
            "offset": 0,
            "slot": "1",
            "type": "t_uint256"
          },
          {
            "astId": 1079,
            "contract": "contracts/Vesting.sol:Vesting",
            "label": "vestingDuration",
            "offset": 0,
            "slot": "2",
            "type": "t_uint16"
          },
          {
            "astId": 1081,
            "contract": "contracts/Vesting.sol:Vesting",
            "label": "vestingCliff",
            "offset": 2,
            "slot": "2",
            "type": "t_uint16"
          },
          {
            "astId": 1083,
            "contract": "contracts/Vesting.sol:Vesting",
            "label": "totalClaimed",
            "offset": 0,
            "slot": "3",
            "type": "t_uint256"
          }
        ],
        "numberOfBytes": "128"
      },
      "t_uint16": {
        "encoding": "inplace",
        "label": "uint16",
        "numberOfBytes": "2"
      },
      "t_uint256": {
        "encoding": "inplace",
        "label": "uint256",
        "numberOfBytes": "32"
      }
    }
  }
}