{
  "address": "0x9a3b35c430e34EaAE75F3f17634e6c4352445a4a",
  "abi": [
    {
      "inputs": [
        {
          "internalType": "address",
          "name": "_token",
          "type": "address"
        }
      ],
      "stateMutability": "nonpayable",
      "type": "constructor"
    },
    {
      "anonymous": false,
      "inputs": [
        {
          "indexed": true,
          "internalType": "address",
          "name": "newOwner",
          "type": "address"
        },
        {
          "indexed": false,
          "internalType": "address",
          "name": "oldOwner",
          "type": "address"
        }
      ],
      "name": "ChangedOwner",
      "type": "event"
    },
    {
      "anonymous": false,
      "inputs": [
        {
          "indexed": true,
          "internalType": "address",
          "name": "newContract",
          "type": "address"
        },
        {
          "indexed": false,
          "internalType": "address",
          "name": "oldContract",
          "type": "address"
        }
      ],
      "name": "ChangedVotingPower",
      "type": "event"
    },
    {
      "anonymous": false,
      "inputs": [
        {
          "indexed": true,
          "internalType": "address",
          "name": "recipient",
          "type": "address"
        },
        {
          "indexed": false,
          "internalType": "uint256",
          "name": "amount",
          "type": "uint256"
        },
        {
          "indexed": false,
          "internalType": "uint256",
          "name": "startTime",
          "type": "uint256"
        },
        {
          "indexed": false,
          "internalType": "uint16",
          "name": "vestingDurationInDays",
          "type": "uint16"
        },
        {
          "indexed": false,
          "internalType": "uint16",
          "name": "vestingCliffInDays",
          "type": "uint16"
        }
      ],
      "name": "GrantAdded",
      "type": "event"
    },
    {
      "anonymous": false,
      "inputs": [
        {
          "indexed": false,
          "internalType": "address",
          "name": "recipient",
          "type": "address"
        },
        {
          "indexed": false,
          "internalType": "uint256",
          "name": "amountVested",
          "type": "uint256"
        },
        {
          "indexed": false,
          "internalType": "uint256",
          "name": "amountNotVested",
          "type": "uint256"
        }
      ],
      "name": "GrantRemoved",
      "type": "event"
    },
    {
      "anonymous": false,
      "inputs": [
        {
          "indexed": true,
          "internalType": "address",
          "name": "recipient",
          "type": "address"
        },
        {
          "indexed": false,
          "internalType": "uint256",
          "name": "amountClaimed",
          "type": "uint256"
        }
      ],
      "name": "GrantTokensClaimed",
      "type": "event"
    },
    {
      "inputs": [
        {
          "internalType": "address",
          "name": "recipient",
          "type": "address"
        },
        {
          "internalType": "uint256",
          "name": "startTime",
          "type": "uint256"
        },
        {
          "internalType": "uint256",
          "name": "amount",
          "type": "uint256"
        },
        {
          "internalType": "uint16",
          "name": "vestingDurationInDays",
          "type": "uint16"
        },
        {
          "internalType": "uint16",
          "name": "vestingCliffInDays",
          "type": "uint16"
        }
      ],
      "name": "addTokenGrant",
      "outputs": [],
      "stateMutability": "nonpayable",
      "type": "function"
    },
    {
      "inputs": [
        {
          "internalType": "address",
          "name": "recipient",
          "type": "address"
        }
      ],
      "name": "calculateGrantClaim",
      "outputs": [
        {
          "internalType": "uint256",
          "name": "",
          "type": "uint256"
        }
      ],
      "stateMutability": "view",
      "type": "function"
    },
    {
      "inputs": [
        {
          "internalType": "address",
          "name": "newOwner",
          "type": "address"
        }
      ],
      "name": "changeOwner",
      "outputs": [],
      "stateMutability": "nonpayable",
      "type": "function"
    },
    {
      "inputs": [
        {
          "internalType": "address",
          "name": "recipient",
          "type": "address"
        }
      ],
      "name": "claimVestedTokens",
      "outputs": [],
      "stateMutability": "nonpayable",
      "type": "function"
    },
    {
      "inputs": [
        {
          "internalType": "address",
          "name": "recipient",
          "type": "address"
        }
      ],
      "name": "claimedBalance",
      "outputs": [
        {
          "internalType": "uint256",
          "name": "",
          "type": "uint256"
        }
      ],
      "stateMutability": "view",
      "type": "function"
    },
    {
      "inputs": [
        {
          "internalType": "address",
          "name": "recipient",
          "type": "address"
        }
      ],
      "name": "getTokenGrant",
      "outputs": [
        {
          "components": [
            {
              "internalType": "uint256",
              "name": "startTime",
              "type": "uint256"
            },
            {
              "internalType": "uint256",
              "name": "amount",
              "type": "uint256"
            },
            {
              "internalType": "uint16",
              "name": "vestingDuration",
              "type": "uint16"
            },
            {
              "internalType": "uint16",
              "name": "vestingCliff",
              "type": "uint16"
            },
            {
              "internalType": "uint256",
              "name": "totalClaimed",
              "type": "uint256"
            }
          ],
          "internalType": "struct Vesting.Grant",
          "name": "",
          "type": "tuple"
        }
      ],
      "stateMutability": "view",
      "type": "function"
    },
    {
      "inputs": [],
      "name": "owner",
      "outputs": [
        {
          "internalType": "address",
          "name": "",
          "type": "address"
        }
      ],
      "stateMutability": "view",
      "type": "function"
    },
    {
      "inputs": [
        {
          "internalType": "address",
          "name": "newContract",
          "type": "address"
        }
      ],
      "name": "setVotingPowerContract",
      "outputs": [],
      "stateMutability": "nonpayable",
      "type": "function"
    },
    {
      "inputs": [],
      "name": "token",
      "outputs": [
        {
          "internalType": "contract IArchToken",
          "name": "",
          "type": "address"
        }
      ],
      "stateMutability": "view",
      "type": "function"
    },
    {
      "inputs": [
        {
          "internalType": "address",
          "name": "",
          "type": "address"
        }
      ],
      "name": "tokenGrants",
      "outputs": [
        {
          "internalType": "uint256",
          "name": "startTime",
          "type": "uint256"
        },
        {
          "internalType": "uint256",
          "name": "amount",
          "type": "uint256"
        },
        {
          "internalType": "uint16",
          "name": "vestingDuration",
          "type": "uint16"
        },
        {
          "internalType": "uint16",
          "name": "vestingCliff",
          "type": "uint16"
        },
        {
          "internalType": "uint256",
          "name": "totalClaimed",
          "type": "uint256"
        }
      ],
      "stateMutability": "view",
      "type": "function"
    },
    {
      "inputs": [
        {
          "internalType": "address",
          "name": "recipient",
          "type": "address"
        }
      ],
      "name": "tokensVestedPerDay",
      "outputs": [
        {
          "internalType": "uint256",
          "name": "",
          "type": "uint256"
        }
      ],
      "stateMutability": "view",
      "type": "function"
    },
    {
      "inputs": [
        {
          "internalType": "address",
          "name": "recipient",
          "type": "address"
        }
      ],
      "name": "vestedBalance",
      "outputs": [
        {
          "internalType": "uint256",
          "name": "",
          "type": "uint256"
        }
      ],
      "stateMutability": "view",
      "type": "function"
    },
    {
      "inputs": [],
      "name": "votingPower",
      "outputs": [
        {
          "internalType": "contract IVotingPower",
          "name": "",
          "type": "address"
        }
      ],
      "stateMutability": "view",
      "type": "function"
    }
  ],
  "transactionHash": "0xfa4f809dc48659f0b0c6b2381d8146c64ca355204d957fe3960a32c5eda4dda9",
  "args": [
    "0xE5C12A715453C3d0B8562e965665F50E033928aE"
  ],
  "solcInputHash": "8517297e191c379bd811d702f16b2a33",
  "bytecode": "0x60806040523480156200001157600080fd5b50604051620026eb380380620026eb833981810160405281019062000037919062000149565b600073ffffffffffffffffffffffffffffffffffffffff168173ffffffffffffffffffffffffffffffffffffffff161415620000aa576040517f08c379a0000000000000000000000000000000000000000000000000000000008152600401620000a190620001dd565b60405180910390fd5b806000806101000a81548173ffffffffffffffffffffffffffffffffffffffff021916908373ffffffffffffffffffffffffffffffffffffffff16021790555033600360006101000a81548173ffffffffffffffffffffffffffffffffffffffff021916908373ffffffffffffffffffffffffffffffffffffffff160217905550506200025e565b600081519050620001438162000244565b92915050565b6000602082840312156200015c57600080fd5b60006200016c8482850162000132565b91505092915050565b600062000184603283620001ff565b91507f41726368566573743a3a636f6e7374727563746f723a206d757374206265207660008301527f616c696420746f6b656e206164647265737300000000000000000000000000006020830152604082019050919050565b60006020820190508181036000830152620001f88162000175565b9050919050565b600082825260208201905092915050565b60006200021d8262000224565b9050919050565b600073ffffffffffffffffffffffffffffffffffffffff82169050919050565b6200024f8162000210565b81146200025b57600080fd5b50565b61247d806200026e6000396000f3fe608060405234801561001057600080fd5b50600436106100cf5760003560e01c80639886c2a51161008c578063b81a4d8f11610066578063b81a4d8f14610224578063e04c64d214610258578063fc0c546a14610274578063fd75b8d414610292576100cf565b80639886c2a5146101bc57806398f3b12d146101ec578063a6f9dae114610208576100cf565b8063376d3b8f146100d45780635ca2fc53146101045780636087349c1461012057806377174f85146101505780638da5cb5b1461016e5780639114557e1461018c575b600080fd5b6100ee60048036038101906100e9919061189a565b6102c2565b6040516100fb919061224d565b60405180910390f35b61011e600480360381019061011991906118c3565b610379565b005b61013a6004803603810190610135919061189a565b610993565b6040516101479190612268565b60405180910390f35b610158610a0c565b6040516101659190612052565b60405180910390f35b610176610a32565b6040516101839190611fbc565b60405180910390f35b6101a660048036038101906101a1919061189a565b610a58565b6040516101b39190612268565b60405180910390f35b6101d660048036038101906101d1919061189a565b610b96565b6040516101e39190612268565b60405180910390f35b6102066004803603810190610201919061189a565b610be7565b005b610222600480360381019061021d919061189a565b610e67565b005b61023e6004803603810190610239919061189a565b6110b1565b60405161024f9594939291906122c8565b60405180910390f35b610272600480360381019061026d919061189a565b611103565b005b61027c61134d565b6040516102899190612037565b60405180910390f35b6102ac60048036038101906102a7919061189a565b611371565b6040516102b99190612268565b60405180910390f35b6102ca61180f565b600260008373ffffffffffffffffffffffffffffffffffffffff1673ffffffffffffffffffffffffffffffffffffffff1681526020019081526020016000206040518060a001604052908160008201548152602001600182015481526020016002820160009054906101000a900461ffff1661ffff1661ffff1681526020016002820160029054906101000a900461ffff1661ffff1661ffff1681526020016003820154815250509050919050565b600360009054906101000a900473ffffffffffffffffffffffffffffffffffffffff1673ffffffffffffffffffffffffffffffffffffffff163373ffffffffffffffffffffffffffffffffffffffff1614610409576040517f08c379a0000000000000000000000000000000000000000000000000000000008152600401610400906120cd565b60405180910390fd5b600073ffffffffffffffffffffffffffffffffffffffff16600160009054906101000a900473ffffffffffffffffffffffffffffffffffffffff1673ffffffffffffffffffffffffffffffffffffffff16141561049b576040517f08c379a00000000000000000000000000000000000000000000000000000000081526004016104929061210d565b60405180910390fd5b610e428161ffff1611156104e4576040517f08c379a00000000000000000000000000000000000000000000000000000000081526004016104db9061208d565b60405180910390fd5b60008261ffff161161052b576040517f08c379a0000000000000000000000000000000000000000000000000000000008152600401610522906120ad565b60405180910390fd5b6123a58261ffff161115610574576040517f08c379a000000000000000000000000000000000000000000000000000000000815260040161056b9061220d565b60405180910390fd5b8061ffff168261ffff1610156105bf576040517f08c379a00000000000000000000000000000000000000000000000000000000081526004016105b69061206d565b60405180910390fd5b6000600260008773ffffffffffffffffffffffffffffffffffffffff1673ffffffffffffffffffffffffffffffffffffffff1681526020019081526020016000206001015414610644576040517f08c379a000000000000000000000000000000000000000000000000000000000815260040161063b9061212d565b60405180910390fd5b600061065d8361ffff16856114e790919063ffffffff16565b9050600081116106a2576040517f08c379a0000000000000000000000000000000000000000000000000000000008152600401610699906121ed565b60405180910390fd5b60008054906101000a900473ffffffffffffffffffffffffffffffffffffffff1673ffffffffffffffffffffffffffffffffffffffff166323b872dd600360009054906101000a900473ffffffffffffffffffffffffffffffffffffffff1630876040518463ffffffff1660e01b815260040161072193929190611fd7565b602060405180830381600087803b15801561073b57600080fd5b505af115801561074f573d6000803e3d6000fd5b505050506040513d601f19601f82011682018060405250810190610773919061193a565b6107b2576040517f08c379a00000000000000000000000000000000000000000000000000000000081526004016107a99061222d565b60405180910390fd5b60008086146107c157856107c3565b425b90506107cd61180f565b6040518060a001604052808381526020018781526020018661ffff1681526020018561ffff1681526020016000815250905080600260008a73ffffffffffffffffffffffffffffffffffffffff1673ffffffffffffffffffffffffffffffffffffffff168152602001908152602001600020600082015181600001556020820151816001015560408201518160020160006101000a81548161ffff021916908361ffff16021790555060608201518160020160026101000a81548161ffff021916908361ffff160217905550608082015181600301559050508773ffffffffffffffffffffffffffffffffffffffff167f289b4a3bfb88b0c05450910f26d440c9e13127d17a232782f02184d45606bd53878488886040516108f29493929190612283565b60405180910390a2600160009054906101000a900473ffffffffffffffffffffffffffffffffffffffff1673ffffffffffffffffffffffffffffffffffffffff16639b92ac4a89886040518363ffffffff1660e01b815260040161095792919061200e565b600060405180830381600087803b15801561097157600080fd5b505af1158015610985573d6000803e3d6000fd5b505050505050505050505050565b600080600260008473ffffffffffffffffffffffffffffffffffffffff1673ffffffffffffffffffffffffffffffffffffffff1681526020019081526020016000209050610a048160020160009054906101000a900461ffff1661ffff1682600101546114e790919063ffffffff16565b915050919050565b600160009054906101000a900473ffffffffffffffffffffffffffffffffffffffff1681565b600360009054906101000a900473ffffffffffffffffffffffffffffffffffffffff1681565b600080600260008473ffffffffffffffffffffffffffffffffffffffff1673ffffffffffffffffffffffffffffffffffffffff16815260200190815260200160002090508060000154421015610ab2576000915050610b91565b6000610acb82600001544261153190919063ffffffff16565b90506000610ae562015180836114e790919063ffffffff16565b90508260020160029054906101000a900461ffff1661ffff16811015610b115760009350505050610b91565b8260020160009054906101000a900461ffff1661ffff168110610b3d5782600101549350505050610b91565b6000610b6b620151808560020160009054906101000a900461ffff1661ffff1661157b90919063ffffffff16565b90506000610b868286600101546114e790919063ffffffff16565b905080955050505050505b919050565b600080600260008473ffffffffffffffffffffffffffffffffffffffff1673ffffffffffffffffffffffffffffffffffffffff16815260200190815260200160002090508060030154915050919050565b6000610bf282611371565b905060008111610c37576040517f08c379a0000000000000000000000000000000000000000000000000000000008152600401610c2e9061214d565b60405180910390fd5b600160009054906101000a900473ffffffffffffffffffffffffffffffffffffffff1673ffffffffffffffffffffffffffffffffffffffff16631efaa44283836040518363ffffffff1660e01b8152600401610c9492919061200e565b600060405180830381600087803b158015610cae57600080fd5b505af1158015610cc2573d6000803e3d6000fd5b505050506000600260008473ffffffffffffffffffffffffffffffffffffffff1673ffffffffffffffffffffffffffffffffffffffff1681526020019081526020016000209050610d2082826003015461160190919063ffffffff16565b816003018190555060008054906101000a900473ffffffffffffffffffffffffffffffffffffffff1673ffffffffffffffffffffffffffffffffffffffff1663a9059cbb84846040518363ffffffff1660e01b8152600401610d8392919061200e565b602060405180830381600087803b158015610d9d57600080fd5b505af1158015610db1573d6000803e3d6000fd5b505050506040513d601f19601f82011682018060405250810190610dd5919061193a565b610e14576040517f08c379a0000000000000000000000000000000000000000000000000000000008152600401610e0b906121ad565b60405180910390fd5b8273ffffffffffffffffffffffffffffffffffffffff167fc6cbb4aa8681b18644bf64921eea8f2b9f44cbd58d64fc07a110bfccc203829683604051610e5a9190612268565b60405180910390a2505050565b600360009054906101000a900473ffffffffffffffffffffffffffffffffffffffff1673ffffffffffffffffffffffffffffffffffffffff163373ffffffffffffffffffffffffffffffffffffffff1614610ef7576040517f08c379a0000000000000000000000000000000000000000000000000000000008152600401610eee9061218d565b60405180910390fd5b600073ffffffffffffffffffffffffffffffffffffffff168173ffffffffffffffffffffffffffffffffffffffff1614158015610f6057503073ffffffffffffffffffffffffffffffffffffffff168173ffffffffffffffffffffffffffffffffffffffff1614155b8015610fb8575060008054906101000a900473ffffffffffffffffffffffffffffffffffffffff1673ffffffffffffffffffffffffffffffffffffffff168173ffffffffffffffffffffffffffffffffffffffff1614155b610ff7576040517f08c379a0000000000000000000000000000000000000000000000000000000008152600401610fee9061216d565b60405180910390fd5b6000600360009054906101000a900473ffffffffffffffffffffffffffffffffffffffff16905081600360006101000a81548173ffffffffffffffffffffffffffffffffffffffff021916908373ffffffffffffffffffffffffffffffffffffffff1602179055508173ffffffffffffffffffffffffffffffffffffffff167f2748503f8f31d8071821d1d5144384ba6a465036cda17fa1629a8a2509ccee0e826040516110a59190611fbc565b60405180910390a25050565b60026020528060005260406000206000915090508060000154908060010154908060020160009054906101000a900461ffff16908060020160029054906101000a900461ffff16908060030154905085565b600360009054906101000a900473ffffffffffffffffffffffffffffffffffffffff1673ffffffffffffffffffffffffffffffffffffffff163373ffffffffffffffffffffffffffffffffffffffff1614611193576040517f08c379a000000000000000000000000000000000000000000000000000000000815260040161118a906121cd565b60405180910390fd5b600073ffffffffffffffffffffffffffffffffffffffff168173ffffffffffffffffffffffffffffffffffffffff16141580156111fc57503073ffffffffffffffffffffffffffffffffffffffff168173ffffffffffffffffffffffffffffffffffffffff1614155b8015611254575060008054906101000a900473ffffffffffffffffffffffffffffffffffffffff1673ffffffffffffffffffffffffffffffffffffffff168173ffffffffffffffffffffffffffffffffffffffff1614155b611293576040517f08c379a000000000000000000000000000000000000000000000000000000000815260040161128a906120ed565b60405180910390fd5b6000600160009054906101000a900473ffffffffffffffffffffffffffffffffffffffff16905081600160006101000a81548173ffffffffffffffffffffffffffffffffffffffff021916908373ffffffffffffffffffffffffffffffffffffffff1602179055508173ffffffffffffffffffffffffffffffffffffffff167fd5ebd1c28f18d0ac07c2bde08a54c730dce59088921d8ca0c1b92bd9f2e89038826040516113419190611fbc565b60405180910390a25050565b60008054906101000a900473ffffffffffffffffffffffffffffffffffffffff1681565b600080600260008473ffffffffffffffffffffffffffffffffffffffff1673ffffffffffffffffffffffffffffffffffffffff168152602001908152602001600020905080600001544210156113cb5760009150506114e2565b60006113e482600001544261153190919063ffffffff16565b905060006113fe62015180836114e790919063ffffffff16565b90508260020160029054906101000a900461ffff1661ffff1681101561142a57600093505050506114e2565b8260020160009054906101000a900461ffff1661ffff1681106114725760006114648460030154856001015461153190919063ffffffff16565b9050809450505050506114e2565b60006114a0620151808560020160009054906101000a900461ffff1661ffff1661157b90919063ffffffff16565b905060006114bb8286600101546114e790919063ffffffff16565b905060006114d686600301548361153190919063ffffffff16565b90508096505050505050505b919050565b600061152983836040518060400160405280601a81526020017f536166654d6174683a206469766973696f6e206279207a65726f000000000000815250611689565b905092915050565b600061157383836040518060400160405280601f81526020017f536166654d6174683a207375627472616374696f6e20756e646572666c6f770081525061174f565b905092915050565b60008083141561158e57600090506115fb565b600082840290508284828161159f57fe5b04146115f6576040517f08c379a00000000000000000000000000000000000000000000000000000000081526004018080602001828103825260218152602001806124276021913960400191505060405180910390fd5b809150505b92915050565b60008082840190508381101561167f576040517f08c379a000000000000000000000000000000000000000000000000000000000815260040180806020018281038252601b8152602001807f536166654d6174683a206164646974696f6e206f766572666c6f77000000000081525060200191505060405180910390fd5b8091505092915050565b60008083118290611735576040517f08c379a00000000000000000000000000000000000000000000000000000000081526004018080602001828103825283818151815260200191508051906020019080838360005b838110156116fa5780820151818401526020810190506116df565b50505050905090810190601f1680156117275780820380516001836020036101000a031916815260200191505b509250505060405180910390fd5b50600083858161174157fe5b049050809150509392505050565b60008383111582906117fc576040517f08c379a00000000000000000000000000000000000000000000000000000000081526004018080602001828103825283818151815260200191508051906020019080838360005b838110156117c15780820151818401526020810190506117a6565b50505050905090810190601f1680156117ee5780820380516001836020036101000a031916815260200191505b509250505060405180910390fd5b5060008385039050809150509392505050565b6040518060a001604052806000815260200160008152602001600061ffff168152602001600061ffff168152602001600081525090565b600081359050611855816123ca565b92915050565b60008151905061186a816123e1565b92915050565b60008135905061187f816123f8565b92915050565b6000813590506118948161240f565b92915050565b6000602082840312156118ac57600080fd5b60006118ba84828501611846565b91505092915050565b600080600080600060a086880312156118db57600080fd5b60006118e988828901611846565b95505060206118fa88828901611885565b945050604061190b88828901611885565b935050606061191c88828901611870565b925050608061192d88828901611870565b9150509295509295909350565b60006020828403121561194c57600080fd5b600061195a8482850161185b565b91505092915050565b61196c8161232c565b82525050565b61197b81612382565b82525050565b61198a816123a6565b82525050565b600061199d60298361231b565b91507f41726368566573743a3a616464546f6b656e4772616e743a204475726174696f60008301527f6e203c20436c69666600000000000000000000000000000000000000000000006020830152604082019050919050565b6000611a0360318361231b565b91507f41726368566573743a3a616464546f6b656e4772616e743a20636c696666206d60008301527f6f7265207468616e2031302079656172730000000000000000000000000000006020830152604082019050919050565b6000611a69602d8361231b565b91507f41726368566573743a3a616464546f6b656e4772616e743a206475726174696f60008301527f6e206d757374206265203e2030000000000000000000000000000000000000006020830152604082019050919050565b6000611acf60228361231b565b91507f41726368566573743a3a616464546f6b656e4772616e743a206e6f74206f776e60008301527f65720000000000000000000000000000000000000000000000000000000000006020830152604082019050919050565b6000611b35603c8361231b565b91507f41726368566573743a3a736574566f74696e67506f776572436f6e747261637460008301527f3a206e6f742076616c696420636f6e74726163742061646472657373000000006020830152604082019050919050565b6000611b9b60388361231b565b91507f41726368566573743a3a616464546f6b656e4772616e743a2053657420566f7460008301527f696e6720506f77657220636f6e747261637420666972737400000000000000006020830152604082019050919050565b6000611c0160398361231b565b91507f41726368566573743a3a616464546f6b656e4772616e743a206772616e74206160008301527f6c72656164792065786973747320666f72206163636f756e74000000000000006020830152604082019050919050565b6000611c6760118361231b565b91507f616d6f756e7456657374656420697320300000000000000000000000000000006000830152602082019050919050565b6000611ca760288361231b565b91507f41726368566573743a3a6368616e67654f776e65723a206e6f742076616c696460008301527f20616464726573730000000000000000000000000000000000000000000000006020830152604082019050919050565b6000611d0d60208361231b565b91507f41726368566573743a3a6368616e67654f776e65723a206e6f74206f776e65726000830152602082019050919050565b6000611d4d60098361231b565b91507f6e6f20746f6b656e7300000000000000000000000000000000000000000000006000830152602082019050919050565b6000611d8d602b8361231b565b91507f41726368566573743a3a736574566f74696e67506f776572436f6e747261637460008301527f3a206e6f74206f776e65720000000000000000000000000000000000000000006020830152604082019050919050565b6000611df3602f8361231b565b91507f41726368566573743a3a616464546f6b656e4772616e743a20616d6f756e745660008301527f6573746564506572446179203e203000000000000000000000000000000000006020830152604082019050919050565b6000611e5960348361231b565b91507f41726368566573743a3a616464546f6b656e4772616e743a206475726174696f60008301527f6e206d6f7265207468616e2032352079656172730000000000000000000000006020830152604082019050919050565b6000611ebf60288361231b565b91507f41726368566573743a3a616464546f6b656e4772616e743a207472616e73666560008301527f72206661696c65640000000000000000000000000000000000000000000000006020830152604082019050919050565b60a082016000820151611f2e6000850182611f9e565b506020820151611f416020850182611f9e565b506040820151611f546040850182611f80565b506060820151611f676060850182611f80565b506080820151611f7a6080850182611f9e565b50505050565b611f898161234a565b82525050565b611f988161234a565b82525050565b611fa781612378565b82525050565b611fb681612378565b82525050565b6000602082019050611fd16000830184611963565b92915050565b6000606082019050611fec6000830186611963565b611ff96020830185611963565b6120066040830184611fad565b949350505050565b60006040820190506120236000830185611963565b6120306020830184611fad565b9392505050565b600060208201905061204c6000830184611972565b92915050565b60006020820190506120676000830184611981565b92915050565b6000602082019050818103600083015261208681611990565b9050919050565b600060208201905081810360008301526120a6816119f6565b9050919050565b600060208201905081810360008301526120c681611a5c565b9050919050565b600060208201905081810360008301526120e681611ac2565b9050919050565b6000602082019050818103600083015261210681611b28565b9050919050565b6000602082019050818103600083015261212681611b8e565b9050919050565b6000602082019050818103600083015261214681611bf4565b9050919050565b6000602082019050818103600083015261216681611c5a565b9050919050565b6000602082019050818103600083015261218681611c9a565b9050919050565b600060208201905081810360008301526121a681611d00565b9050919050565b600060208201905081810360008301526121c681611d40565b9050919050565b600060208201905081810360008301526121e681611d80565b9050919050565b6000602082019050818103600083015261220681611de6565b9050919050565b6000602082019050818103600083015261222681611e4c565b9050919050565b6000602082019050818103600083015261224681611eb2565b9050919050565b600060a0820190506122626000830184611f18565b92915050565b600060208201905061227d6000830184611fad565b92915050565b60006080820190506122986000830187611fad565b6122a56020830186611fad565b6122b26040830185611f8f565b6122bf6060830184611f8f565b95945050505050565b600060a0820190506122dd6000830188611fad565b6122ea6020830187611fad565b6122f76040830186611f8f565b6123046060830185611f8f565b6123116080830184611fad565b9695505050505050565b600082825260208201905092915050565b600061233782612358565b9050919050565b60008115159050919050565b600061ffff82169050919050565b600073ffffffffffffffffffffffffffffffffffffffff82169050919050565b6000819050919050565b600061238d82612394565b9050919050565b600061239f82612358565b9050919050565b60006123b1826123b8565b9050919050565b60006123c382612358565b9050919050565b6123d38161232c565b81146123de57600080fd5b50565b6123ea8161233e565b81146123f557600080fd5b50565b6124018161234a565b811461240c57600080fd5b50565b61241881612378565b811461242357600080fd5b5056fe536166654d6174683a206d756c7469706c69636174696f6e206f766572666c6f77a264697066735822122039a1ae17065e145b2f85289074ae33c5a4ba147e3b89b80fd7711db77198189664736f6c63430007040033"
}