{
  "address": "0x0F000460e1208003D0D69EA1D8ed30040110C007",
  "abi": [
    {
      "inputs": [
        {
          "internalType": "address",
          "name": "_admin",
          "type": "address"
        }
      ],
      "stateMutability": "nonpayable",
      "type": "constructor"
    },
    {
      "anonymous": false,
      "inputs": [
        {
          "indexed": true,
          "internalType": "address",
          "name": "oldAdmin",
          "type": "address"
        },
        {
          "indexed": true,
          "internalType": "address",
          "name": "newAdmin",
          "type": "address"
        }
      ],
      "name": "NewAdmin",
      "type": "event"
    },
    {
      "anonymous": false,
      "inputs": [
        {
          "indexed": true,
          "internalType": "address",
          "name": "oldImplementation",
          "type": "address"
        },
        {
          "indexed": true,
          "internalType": "address",
          "name": "newImplementation",
          "type": "address"
        }
      ],
      "name": "NewImplementation",
      "type": "event"
    },
    {
      "anonymous": false,
      "inputs": [
        {
          "indexed": true,
          "internalType": "address",
          "name": "oldPendingAdmin",
          "type": "address"
        },
        {
          "indexed": true,
          "internalType": "address",
          "name": "newPendingAdmin",
          "type": "address"
        }
      ],
      "name": "NewPendingAdmin",
      "type": "event"
    },
    {
      "anonymous": false,
      "inputs": [
        {
          "indexed": true,
          "internalType": "address",
          "name": "oldPendingImplementation",
          "type": "address"
        },
        {
          "indexed": true,
          "internalType": "address",
          "name": "newPendingImplementation",
          "type": "address"
        }
      ],
      "name": "NewPendingImplementation",
      "type": "event"
    },
    {
      "stateMutability": "payable",
      "type": "fallback"
    },
    {
      "inputs": [],
      "name": "acceptProxyAdmin",
      "outputs": [
        {
          "internalType": "bool",
          "name": "",
          "type": "bool"
        }
      ],
      "stateMutability": "nonpayable",
      "type": "function"
    },
    {
      "inputs": [],
      "name": "acceptProxyImplementation",
      "outputs": [
        {
          "internalType": "bool",
          "name": "",
          "type": "bool"
        }
      ],
      "stateMutability": "nonpayable",
      "type": "function"
    },
    {
      "inputs": [],
      "name": "pendingProxyAdmin",
      "outputs": [
        {
          "internalType": "address",
          "name": "",
          "type": "address"
        }
      ],
      "stateMutability": "view",
      "type": "function"
    },
    {
      "inputs": [],
      "name": "pendingProxyImplementation",
      "outputs": [
        {
          "internalType": "address",
          "name": "",
          "type": "address"
        }
      ],
      "stateMutability": "view",
      "type": "function"
    },
    {
      "inputs": [],
      "name": "proxyAdmin",
      "outputs": [
        {
          "internalType": "address",
          "name": "",
          "type": "address"
        }
      ],
      "stateMutability": "view",
      "type": "function"
    },
    {
      "inputs": [],
      "name": "proxyImplementation",
      "outputs": [
        {
          "internalType": "address",
          "name": "",
          "type": "address"
        }
      ],
      "stateMutability": "view",
      "type": "function"
    },
    {
      "inputs": [],
      "name": "proxyImplementationVersion",
      "outputs": [
        {
          "internalType": "uint8",
          "name": "",
          "type": "uint8"
        }
      ],
      "stateMutability": "view",
      "type": "function"
    },
    {
      "inputs": [
        {
          "internalType": "address",
          "name": "newPendingAdmin",
          "type": "address"
        }
      ],
      "name": "setPendingProxyAdmin",
      "outputs": [
        {
          "internalType": "bool",
          "name": "",
          "type": "bool"
        }
      ],
      "stateMutability": "nonpayable",
      "type": "function"
    },
    {
      "inputs": [
        {
          "internalType": "address",
          "name": "newPendingImplementation",
          "type": "address"
        }
      ],
      "name": "setPendingProxyImplementation",
      "outputs": [
        {
          "internalType": "bool",
          "name": "",
          "type": "bool"
        }
      ],
      "stateMutability": "nonpayable",
      "type": "function"
    },
    {
      "stateMutability": "payable",
      "type": "receive"
    }
  ],
  "transactionHash": "0xae15509c3451fb4cc73d797ee722b5761cbd85638153ee2d0e12ddd7da2c727a",
  "args": [
    "0x90043523b2c8f00fF658ba8EbD0b531e6A04427b"
  ],
  "solcInputHash": "4c771aa185e6c3e1950d901b5c589a6d",
  "bytecode": "0x60806040523480156200001157600080fd5b506040516200127e3803806200127e8339818101604052810190620000379190620000da565b6000620000496200009660201b60201c565b9050818160000160006101000a81548173ffffffffffffffffffffffffffffffffffffffff021916908373ffffffffffffffffffffffffffffffffffffffff160217905550505062000154565b6000807f0e44922e752e5aec2c0503d75bafd73ddc558f76127cf1484a1819fd3dfb6b9090508091505090565b600081519050620000d4816200013a565b92915050565b600060208284031215620000ed57600080fd5b6000620000fd84828501620000c3565b91505092915050565b600062000113826200011a565b9050919050565b600073ffffffffffffffffffffffffffffffffffffffff82169050919050565b620001458162000106565b81146200015157600080fd5b50565b61111a80620001646000396000f3fe60806040526004361061008a5760003560e01c80633e47158c116100595780633e47158c14610161578063640590161461018c57806394d8fbd0146101b75780639c2562db146101e2578063ec10bbd51461020d57610099565b80630758e714146100a35780630c870f91146100e057806315596a201461010b57806325f86cbb1461013657610099565b366100995761009761024a565b005b6100a161024a565b005b3480156100af57600080fd5b506100ca60048036038101906100c59190610d5a565b610301565b6040516100d79190610fa1565b60405180910390f35b3480156100ec57600080fd5b506100f5610495565b6040516101029190610f86565b60405180910390f35b34801561011757600080fd5b506101206104cd565b60405161012d919061103c565b60405180910390f35b34801561014257600080fd5b5061014b6104f2565b6040516101589190610f86565b60405180910390f35b34801561016d57600080fd5b5061017661052a565b6040516101839190610f86565b60405180910390f35b34801561019857600080fd5b506101a1610562565b6040516101ae9190610fa1565b60405180910390f35b3480156101c357600080fd5b506101cc61083d565b6040516101d99190610fa1565b60405180910390f35b3480156101ee57600080fd5b506101f7610b70565b6040516102049190610f86565b60405180910390f35b34801561021957600080fd5b50610234600480360381019061022f9190610d5a565b610ba8565b6040516102419190610fa1565b60405180910390f35b6000610254610d18565b905060008160020160009054906101000a900473ffffffffffffffffffffffffffffffffffffffff1673ffffffffffffffffffffffffffffffffffffffff166000366040516102a4929190610f6d565b600060405180830381855af49150503d80600081146102df576040519150601f19603f3d011682016040523d82523d6000602084013e6102e4565b606091505b505090506040513d6000823e81600081146102fd573d82f35b3d82fd5b60008061030c610d18565b90508060000160009054906101000a900473ffffffffffffffffffffffffffffffffffffffff1673ffffffffffffffffffffffffffffffffffffffff163373ffffffffffffffffffffffffffffffffffffffff16146103a0576040517f08c379a000000000000000000000000000000000000000000000000000000000815260040161039790610ffc565b60405180910390fd5b60008160030160009054906101000a900473ffffffffffffffffffffffffffffffffffffffff169050838260030160006101000a81548173ffffffffffffffffffffffffffffffffffffffff021916908373ffffffffffffffffffffffffffffffffffffffff1602179055508160030160009054906101000a900473ffffffffffffffffffffffffffffffffffffffff1673ffffffffffffffffffffffffffffffffffffffff168173ffffffffffffffffffffffffffffffffffffffff167fe945ccee5d701fc83f9b8aa8ca94ea4219ec1fcbd4f4cab4f0ea57c5c3e1d81560405160405180910390a3600192505050919050565b6000806104a0610d18565b90508060020160009054906101000a900473ffffffffffffffffffffffffffffffffffffffff1691505090565b6000806104d8610d18565b90508060030160149054906101000a900460ff1691505090565b6000806104fd610d18565b90508060010160009054906101000a900473ffffffffffffffffffffffffffffffffffffffff1691505090565b600080610535610d18565b90508060000160009054906101000a900473ffffffffffffffffffffffffffffffffffffffff1691505090565b60008061056d610d18565b90508060010160009054906101000a900473ffffffffffffffffffffffffffffffffffffffff1673ffffffffffffffffffffffffffffffffffffffff163373ffffffffffffffffffffffffffffffffffffffff161480156105fb5750600073ffffffffffffffffffffffffffffffffffffffff163373ffffffffffffffffffffffffffffffffffffffff1614155b61063a576040517f08c379a000000000000000000000000000000000000000000000000000000000815260040161063190610fbc565b60405180910390fd5b60008160000160009054906101000a900473ffffffffffffffffffffffffffffffffffffffff16905060008260010160009054906101000a900473ffffffffffffffffffffffffffffffffffffffff1690508260010160009054906101000a900473ffffffffffffffffffffffffffffffffffffffff168360000160006101000a81548173ffffffffffffffffffffffffffffffffffffffff021916908373ffffffffffffffffffffffffffffffffffffffff16021790555060008360010160006101000a81548173ffffffffffffffffffffffffffffffffffffffff021916908373ffffffffffffffffffffffffffffffffffffffff1602179055508260000160009054906101000a900473ffffffffffffffffffffffffffffffffffffffff1673ffffffffffffffffffffffffffffffffffffffff168273ffffffffffffffffffffffffffffffffffffffff167ff9ffabca9c8276e99321725bcb43fb076a6c66a54b7f21c4e8146d8519b417dc60405160405180910390a38260010160009054906101000a900473ffffffffffffffffffffffffffffffffffffffff1673ffffffffffffffffffffffffffffffffffffffff168173ffffffffffffffffffffffffffffffffffffffff167fca4f2f25d0898edd99413412fb94012f9e54ec8142f9b093e7720646a95b16a960405160405180910390a36001935050505090565b600080610848610d18565b90508060030160009054906101000a900473ffffffffffffffffffffffffffffffffffffffff1673ffffffffffffffffffffffffffffffffffffffff163373ffffffffffffffffffffffffffffffffffffffff161480156108fa5750600073ffffffffffffffffffffffffffffffffffffffff168160030160009054906101000a900473ffffffffffffffffffffffffffffffffffffffff1673ffffffffffffffffffffffffffffffffffffffff1614155b610939576040517f08c379a000000000000000000000000000000000000000000000000000000000815260040161093090610fdc565b60405180910390fd5b60008160020160009054906101000a900473ffffffffffffffffffffffffffffffffffffffff16905060008260030160009054906101000a900473ffffffffffffffffffffffffffffffffffffffff1690508260030160009054906101000a900473ffffffffffffffffffffffffffffffffffffffff168360020160006101000a81548173ffffffffffffffffffffffffffffffffffffffff021916908373ffffffffffffffffffffffffffffffffffffffff16021790555060008360030160006101000a81548173ffffffffffffffffffffffffffffffffffffffff021916908373ffffffffffffffffffffffffffffffffffffffff16021790555082600301601481819054906101000a900460ff168092919060010191906101000a81548160ff021916908360ff160217905550508260020160009054906101000a900473ffffffffffffffffffffffffffffffffffffffff1673ffffffffffffffffffffffffffffffffffffffff168273ffffffffffffffffffffffffffffffffffffffff167fd604de94d45953f9138079ec1b82d533cb2160c906d1076d1f7ed54befbca97a60405160405180910390a38260030160009054906101000a900473ffffffffffffffffffffffffffffffffffffffff1673ffffffffffffffffffffffffffffffffffffffff168173ffffffffffffffffffffffffffffffffffffffff167fe945ccee5d701fc83f9b8aa8ca94ea4219ec1fcbd4f4cab4f0ea57c5c3e1d81560405160405180910390a36001935050505090565b600080610b7b610d18565b90508060030160009054906101000a900473ffffffffffffffffffffffffffffffffffffffff1691505090565b600080610bb3610d18565b90508060000160009054906101000a900473ffffffffffffffffffffffffffffffffffffffff1673ffffffffffffffffffffffffffffffffffffffff163373ffffffffffffffffffffffffffffffffffffffff1614610c47576040517f08c379a0000000000000000000000000000000000000000000000000000000008152600401610c3e9061101c565b60405180910390fd5b60008160010160009054906101000a900473ffffffffffffffffffffffffffffffffffffffff169050838260010160006101000a81548173ffffffffffffffffffffffffffffffffffffffff021916908373ffffffffffffffffffffffffffffffffffffffff1602179055508373ffffffffffffffffffffffffffffffffffffffff168173ffffffffffffffffffffffffffffffffffffffff167fca4f2f25d0898edd99413412fb94012f9e54ec8142f9b093e7720646a95b16a960405160405180910390a3600192505050919050565b6000807f0e44922e752e5aec2c0503d75bafd73ddc558f76127cf1484a1819fd3dfb6b9090508091505090565b600081359050610d54816110cd565b92915050565b600060208284031215610d6c57600080fd5b6000610d7a84828501610d45565b91505092915050565b610d8c81611073565b82525050565b610d9b81611085565b82525050565b6000610dad8385611057565b9350610dba8385846110be565b82840190509392505050565b6000610dd3603583611062565b91507f507269736d3a3a61636365707450726f787941646d696e3a2063616c6c65722060008301527f6d7573742062652070656e64696e672061646d696e00000000000000000000006020830152604082019050919050565b6000610e39603c83611062565b91507f507269736d3a3a61636365707450726f7879496d703a2063616c6c6572206d7560008301527f73742062652070656e64696e6720696d706c656d656e746174696f6e000000006020830152604082019050919050565b6000610e9f602f83611062565b91507f507269736d3a3a73657450656e64696e6750726f7879496d703a2063616c6c6560008301527f72206d7573742062652061646d696e00000000000000000000000000000000006020830152604082019050919050565b6000610f05603183611062565b91507f507269736d3a3a73657450656e64696e6750726f787941646d696e3a2063616c60008301527f6c6572206d7573742062652061646d696e0000000000000000000000000000006020830152604082019050919050565b610f67816110b1565b82525050565b6000610f7a828486610da1565b91508190509392505050565b6000602082019050610f9b6000830184610d83565b92915050565b6000602082019050610fb66000830184610d92565b92915050565b60006020820190508181036000830152610fd581610dc6565b9050919050565b60006020820190508181036000830152610ff581610e2c565b9050919050565b6000602082019050818103600083015261101581610e92565b9050919050565b6000602082019050818103600083015261103581610ef8565b9050919050565b60006020820190506110516000830184610f5e565b92915050565b600081905092915050565b600082825260208201905092915050565b600061107e82611091565b9050919050565b60008115159050919050565b600073ffffffffffffffffffffffffffffffffffffffff82169050919050565b600060ff82169050919050565b82818337600083830152505050565b6110d681611073565b81146110e157600080fd5b5056fea2646970667358221220b9e15254e3939f91b729581684cf951a08a5ec94e363a12781dfafd8aab0170564736f6c63430007040033",
  "devdoc": {
    "details": "Storage for voting power is at this address, while execution is delegated to the prism proxy implementation contract All contracts that use voting power should reference this contract.",
    "kind": "dev",
    "methods": {
      "acceptProxyAdmin()": {
        "details": "Admin function for pending admin to accept role and update admin",
        "returns": {
          "_0": "boolean indicating success of operation"
        }
      },
      "acceptProxyImplementation()": {
        "details": "Admin function for new implementation to accept it's role as implementation",
        "returns": {
          "_0": "boolean indicating success of operation"
        }
      },
      "constructor": {
        "details": "Sets initial proxy admin to `_admin`",
        "params": {
          "_admin": "Initial proxy admin"
        }
      },
      "pendingProxyAdmin()": {
        "returns": {
          "_0": "admin address"
        }
      },
      "pendingProxyImplementation()": {
        "returns": {
          "_0": "pending implementation address"
        }
      },
      "proxyAdmin()": {
        "returns": {
          "_0": "admin address"
        }
      },
      "proxyImplementation()": {
        "returns": {
          "_0": "implementation address"
        }
      },
      "proxyImplementationVersion()": {
        "returns": {
          "_0": "version number"
        }
      },
      "setPendingProxyAdmin(address)": {
        "details": "Admin function to begin change of admin. The newPendingAdmin must call `acceptAdmin` to finalize the transfer.",
        "params": {
          "newPendingAdmin": "New pending admin."
        },
        "returns": {
          "_0": "boolean indicating success of operation"
        }
      },
      "setPendingProxyImplementation(address)": {
        "details": "Admin function for proposing new implementation contract",
        "returns": {
          "_0": "boolean indicating success of operation"
        }
      }
    },
    "title": "VotingPowerPrism",
    "version": 1
  },
  "userdoc": {
    "events": {
      "NewAdmin(address,address)": {
        "notice": "Emitted when pendingAdmin is accepted, which means admin is updated"
      },
      "NewImplementation(address,address)": {
        "notice": "Emitted when pendingImplementation is accepted, which means implementation is updated"
      },
      "NewPendingAdmin(address,address)": {
        "notice": "Emitted when pendingAdmin is changed"
      },
      "NewPendingImplementation(address,address)": {
        "notice": "Emitted when pendingImplementation is changed"
      }
    },
    "kind": "user",
    "methods": {
      "acceptProxyAdmin()": {
        "notice": "Accepts transfer of admin rights. msg.sender must be pendingAdmin"
      },
      "acceptProxyImplementation()": {
        "notice": "Accepts new implementation for prism. msg.sender must be pendingImplementation"
      },
      "constructor": {
        "notice": "Construct a new Voting Power Prism Proxy"
      },
      "pendingProxyAdmin()": {
        "notice": "Get pending admin for prism proxy"
      },
      "pendingProxyImplementation()": {
        "notice": "Address of pending implementation contract"
      },
      "proxyAdmin()": {
        "notice": "Get current admin for prism proxy"
      },
      "proxyImplementation()": {
        "notice": "Address of implementation contract"
      },
      "proxyImplementationVersion()": {
        "notice": "Current implementation version for proxy"
      },
      "setPendingProxyAdmin(address)": {
        "notice": "Begins transfer of admin rights. The newPendingAdmin must call `acceptAdmin` to finalize the transfer."
      },
      "setPendingProxyImplementation(address)": {
        "notice": "Create new pending implementation for prism. msg.sender must be admin"
      }
    },
    "version": 1
  },
  "storageLayout": {
    "storage": [],
    "types": null
  }
}