{
  "address": "0x90f5e5503EF5d08774b360D8AFfaeD846df2A27d",
  "abi": [
    {
      "inputs": [],
      "stateMutability": "nonpayable",
      "type": "constructor"
    },
    {
      "anonymous": false,
      "inputs": [
        {
          "indexed": false,
          "internalType": "address",
          "name": "oldAdmin",
          "type": "address"
        },
        {
          "indexed": false,
          "internalType": "address",
          "name": "newAdmin",
          "type": "address"
        }
      ],
      "name": "NewAdmin",
      "type": "event"
    },
    {
      "anonymous": false,
      "inputs": [
        {
          "indexed": false,
          "internalType": "address",
          "name": "oldImplementation",
          "type": "address"
        },
        {
          "indexed": false,
          "internalType": "address",
          "name": "newImplementation",
          "type": "address"
        }
      ],
      "name": "NewImplementation",
      "type": "event"
    },
    {
      "anonymous": false,
      "inputs": [
        {
          "indexed": false,
          "internalType": "address",
          "name": "oldPendingAdmin",
          "type": "address"
        },
        {
          "indexed": false,
          "internalType": "address",
          "name": "newPendingAdmin",
          "type": "address"
        }
      ],
      "name": "NewPendingAdmin",
      "type": "event"
    },
    {
      "anonymous": false,
      "inputs": [
        {
          "indexed": false,
          "internalType": "address",
          "name": "oldPendingImplementation",
          "type": "address"
        },
        {
          "indexed": false,
          "internalType": "address",
          "name": "newPendingImplementation",
          "type": "address"
        }
      ],
      "name": "NewPendingImplementation",
      "type": "event"
    },
    {
      "stateMutability": "payable",
      "type": "fallback"
    },
    {
      "inputs": [],
      "name": "acceptAdmin",
      "outputs": [
        {
          "internalType": "bool",
          "name": "",
          "type": "bool"
        }
      ],
      "stateMutability": "nonpayable",
      "type": "function"
    },
    {
      "inputs": [],
      "name": "acceptImplementation",
      "outputs": [
        {
          "internalType": "bool",
          "name": "",
          "type": "bool"
        }
      ],
      "stateMutability": "nonpayable",
      "type": "function"
    },
    {
      "inputs": [],
      "name": "pendingProxyAdmin",
      "outputs": [
        {
          "internalType": "address",
          "name": "",
          "type": "address"
        }
      ],
      "stateMutability": "view",
      "type": "function"
    },
    {
      "inputs": [],
      "name": "pendingVotingPowerImplementation",
      "outputs": [
        {
          "internalType": "address",
          "name": "",
          "type": "address"
        }
      ],
      "stateMutability": "view",
      "type": "function"
    },
    {
      "inputs": [],
      "name": "proxyAdmin",
      "outputs": [
        {
          "internalType": "address",
          "name": "",
          "type": "address"
        }
      ],
      "stateMutability": "view",
      "type": "function"
    },
    {
      "inputs": [
        {
          "internalType": "address",
          "name": "newPendingAdmin",
          "type": "address"
        }
      ],
      "name": "setPendingAdmin",
      "outputs": [
        {
          "internalType": "bool",
          "name": "",
          "type": "bool"
        }
      ],
      "stateMutability": "nonpayable",
      "type": "function"
    },
    {
      "inputs": [
        {
          "internalType": "address",
          "name": "newPendingImplementation",
          "type": "address"
        }
      ],
      "name": "setPendingImplementation",
      "outputs": [
        {
          "internalType": "bool",
          "name": "",
          "type": "bool"
        }
      ],
      "stateMutability": "nonpayable",
      "type": "function"
    },
    {
      "inputs": [],
      "name": "version",
      "outputs": [
        {
          "internalType": "uint8",
          "name": "",
          "type": "uint8"
        }
      ],
      "stateMutability": "view",
      "type": "function"
    },
    {
      "inputs": [],
      "name": "votingPowerImplementation",
      "outputs": [
        {
          "internalType": "address",
          "name": "",
          "type": "address"
        }
      ],
      "stateMutability": "view",
      "type": "function"
    },
    {
      "stateMutability": "payable",
      "type": "receive"
    }
  ],
  "transactionHash": "0xb0e2e0ef4c324a8915e12a67b81125869b3a4e89ef1f998de20ea13ead9d7e99",
  "args": [],
  "solcInputHash": "717d290eaa30525657880968a67e5e00",
  "bytecode": "0x608060405234801561001057600080fd5b50600061002561007060201b610c521760201c565b9050338160000160006101000a81548173ffffffffffffffffffffffffffffffffffffffff021916908373ffffffffffffffffffffffffffffffffffffffff1602179055505061009d565b6000807f11f054be2564f2730b7085dc3db2944f046752747bd172c8fe02101b7bc19b3090508091505090565b61107d806100ac6000396000f3fe60806040526004361061008a5760003560e01c80633e47158c116100595780633e47158c146101615780634dd18bf51461018c578063519c167e146101c957806354fd4d50146101f4578063e424b4f51461021f57610099565b806309ed43c9146100a35780630e18b681146100e057806315ba56e51461010b57806325f86cbb1461013657610099565b366100995761009761024a565b005b6100a161024a565b005b3480156100af57600080fd5b506100ca60048036038101906100c59190610c94565b610301565b6040516100d79190610f04565b60405180910390f35b3480156100ec57600080fd5b506100f5610474565b6040516101029190610f04565b60405180910390f35b34801561011757600080fd5b5061012061070d565b60405161012d9190610f04565b60405180910390f35b34801561014257600080fd5b5061014b6109fe565b6040516101589190610ec0565b60405180910390f35b34801561016d57600080fd5b50610176610a36565b6040516101839190610ec0565b60405180910390f35b34801561019857600080fd5b506101b360048036038101906101ae9190610c94565b610a6e565b6040516101c09190610f04565b60405180910390f35b3480156101d557600080fd5b506101de610bbd565b6040516101eb9190610ec0565b60405180910390f35b34801561020057600080fd5b50610209610bf5565b6040516102169190610f9f565b60405180910390f35b34801561022b57600080fd5b50610234610c1a565b6040516102419190610ec0565b60405180910390f35b6000610254610c52565b905060008160020160009054906101000a900473ffffffffffffffffffffffffffffffffffffffff1673ffffffffffffffffffffffffffffffffffffffff166000366040516102a4929190610ea7565b600060405180830381855af49150503d80600081146102df576040519150601f19603f3d011682016040523d82523d6000602084013e6102e4565b606091505b505090506040513d6000823e81600081146102fd573d82f35b3d82fd5b60008061030c610c52565b90508060000160009054906101000a900473ffffffffffffffffffffffffffffffffffffffff1673ffffffffffffffffffffffffffffffffffffffff163373ffffffffffffffffffffffffffffffffffffffff16146103a0576040517f08c379a000000000000000000000000000000000000000000000000000000000815260040161039790610f3f565b60405180910390fd5b60008160030160009054906101000a900473ffffffffffffffffffffffffffffffffffffffff169050838260030160006101000a81548173ffffffffffffffffffffffffffffffffffffffff021916908373ffffffffffffffffffffffffffffffffffffffff1602179055507fe945ccee5d701fc83f9b8aa8ca94ea4219ec1fcbd4f4cab4f0ea57c5c3e1d815818360030160009054906101000a900473ffffffffffffffffffffffffffffffffffffffff16604051610461929190610edb565b60405180910390a1600192505050919050565b60008061047f610c52565b90508060010160009054906101000a900473ffffffffffffffffffffffffffffffffffffffff1673ffffffffffffffffffffffffffffffffffffffff163373ffffffffffffffffffffffffffffffffffffffff1614801561050d5750600073ffffffffffffffffffffffffffffffffffffffff163373ffffffffffffffffffffffffffffffffffffffff1614155b61054c576040517f08c379a000000000000000000000000000000000000000000000000000000000815260040161054390610f7f565b60405180910390fd5b60008160000160009054906101000a900473ffffffffffffffffffffffffffffffffffffffff16905060008260010160009054906101000a900473ffffffffffffffffffffffffffffffffffffffff1690508260010160009054906101000a900473ffffffffffffffffffffffffffffffffffffffff168360000160006101000a81548173ffffffffffffffffffffffffffffffffffffffff021916908373ffffffffffffffffffffffffffffffffffffffff16021790555060008360010160006101000a81548173ffffffffffffffffffffffffffffffffffffffff021916908373ffffffffffffffffffffffffffffffffffffffff1602179055507ff9ffabca9c8276e99321725bcb43fb076a6c66a54b7f21c4e8146d8519b417dc828460000160009054906101000a900473ffffffffffffffffffffffffffffffffffffffff1660405161069e929190610edb565b60405180910390a17fca4f2f25d0898edd99413412fb94012f9e54ec8142f9b093e7720646a95b16a9818460010160009054906101000a900473ffffffffffffffffffffffffffffffffffffffff166040516106fb929190610edb565b60405180910390a16001935050505090565b600080610718610c52565b90508060030160009054906101000a900473ffffffffffffffffffffffffffffffffffffffff1673ffffffffffffffffffffffffffffffffffffffff163373ffffffffffffffffffffffffffffffffffffffff161480156107ca5750600073ffffffffffffffffffffffffffffffffffffffff168160030160009054906101000a900473ffffffffffffffffffffffffffffffffffffffff1673ffffffffffffffffffffffffffffffffffffffff1614155b610809576040517f08c379a000000000000000000000000000000000000000000000000000000000815260040161080090610f1f565b60405180910390fd5b60008160020160009054906101000a900473ffffffffffffffffffffffffffffffffffffffff16905060008260030160009054906101000a900473ffffffffffffffffffffffffffffffffffffffff1690508260030160009054906101000a900473ffffffffffffffffffffffffffffffffffffffff168360020160006101000a81548173ffffffffffffffffffffffffffffffffffffffff021916908373ffffffffffffffffffffffffffffffffffffffff16021790555060008360030160006101000a81548173ffffffffffffffffffffffffffffffffffffffff021916908373ffffffffffffffffffffffffffffffffffffffff16021790555082600301601481819054906101000a900460ff168092919060010191906101000a81548160ff021916908360ff160217905550507fd604de94d45953f9138079ec1b82d533cb2160c906d1076d1f7ed54befbca97a828460020160009054906101000a900473ffffffffffffffffffffffffffffffffffffffff1660405161098f929190610edb565b60405180910390a17fe945ccee5d701fc83f9b8aa8ca94ea4219ec1fcbd4f4cab4f0ea57c5c3e1d815818460030160009054906101000a900473ffffffffffffffffffffffffffffffffffffffff166040516109ec929190610edb565b60405180910390a16001935050505090565b600080610a09610c52565b90508060010160009054906101000a900473ffffffffffffffffffffffffffffffffffffffff1691505090565b600080610a41610c52565b90508060000160009054906101000a900473ffffffffffffffffffffffffffffffffffffffff1691505090565b600080610a79610c52565b90508060000160009054906101000a900473ffffffffffffffffffffffffffffffffffffffff1673ffffffffffffffffffffffffffffffffffffffff163373ffffffffffffffffffffffffffffffffffffffff1614610b0d576040517f08c379a0000000000000000000000000000000000000000000000000000000008152600401610b0490610f5f565b60405180910390fd5b60008160010160009054906101000a900473ffffffffffffffffffffffffffffffffffffffff169050838260010160006101000a81548173ffffffffffffffffffffffffffffffffffffffff021916908373ffffffffffffffffffffffffffffffffffffffff1602179055507fca4f2f25d0898edd99413412fb94012f9e54ec8142f9b093e7720646a95b16a98185604051610baa929190610edb565b60405180910390a1600192505050919050565b600080610bc8610c52565b90508060030160009054906101000a900473ffffffffffffffffffffffffffffffffffffffff1691505090565b600080610c00610c52565b90508060030160149054906101000a900460ff1691505090565b600080610c25610c52565b90508060020160009054906101000a900473ffffffffffffffffffffffffffffffffffffffff1691505090565b6000807f11f054be2564f2730b7085dc3db2944f046752747bd172c8fe02101b7bc19b3090508091505090565b600081359050610c8e81611030565b92915050565b600060208284031215610ca657600080fd5b6000610cb484828501610c7f565b91505092915050565b610cc681610fd6565b82525050565b610cd581610fe8565b82525050565b6000610ce78385610fba565b9350610cf4838584611021565b82840190509392505050565b6000610d0d603483610fc5565b91507f56503a3a616363657074496d703a2063616c6c6572206d75737420626520706560008301527f6e64696e6720696d706c656d656e746174696f6e0000000000000000000000006020830152604082019050919050565b6000610d73602783610fc5565b91507f56503a3a73657450656e64696e67496d703a2063616c6c6572206d757374206260008301527f652061646d696e000000000000000000000000000000000000000000000000006020830152604082019050919050565b6000610dd9602983610fc5565b91507f56503a3a73657450656e64696e6741646d696e3a2063616c6c6572206d75737460008301527f2062652061646d696e00000000000000000000000000000000000000000000006020830152604082019050919050565b6000610e3f602d83610fc5565b91507f56503a3a61636365707441646d696e3a2063616c6c6572206d7573742062652060008301527f70656e64696e672061646d696e000000000000000000000000000000000000006020830152604082019050919050565b610ea181611014565b82525050565b6000610eb4828486610cdb565b91508190509392505050565b6000602082019050610ed56000830184610cbd565b92915050565b6000604082019050610ef06000830185610cbd565b610efd6020830184610cbd565b9392505050565b6000602082019050610f196000830184610ccc565b92915050565b60006020820190508181036000830152610f3881610d00565b9050919050565b60006020820190508181036000830152610f5881610d66565b9050919050565b60006020820190508181036000830152610f7881610dcc565b9050919050565b60006020820190508181036000830152610f9881610e32565b9050919050565b6000602082019050610fb46000830184610e98565b92915050565b600081905092915050565b600082825260208201905092915050565b6000610fe182610ff4565b9050919050565b60008115159050919050565b600073ffffffffffffffffffffffffffffffffffffffff82169050919050565b600060ff82169050919050565b82818337600083830152505050565b61103981610fd6565b811461104457600080fd5b5056fea26469706673582212205703254f59e34dfbac9ec94a7f854031099be28d71d271aaa942846236afa9cd64736f6c63430007040033",
  "devdoc": {
    "details": "Storage for voting power is at this address, while execution is delegated to the `votingPowerImplementation`. All contracts that use voting power should reference this contract.",
    "kind": "dev",
    "methods": {
      "acceptAdmin()": {
        "details": "Admin function for pending admin to accept role and update admin",
        "returns": {
          "_0": "boolean indicating success of operation"
        }
      },
      "acceptImplementation()": {
        "details": "Admin function for new implementation to accept it's role as implementation",
        "returns": {
          "_0": "boolean indicating success of operation"
        }
      },
      "setPendingAdmin(address)": {
        "details": "Admin function to begin change of admin. The newPendingAdmin must call `_acceptAdmin` to finalize the transfer.",
        "params": {
          "newPendingAdmin": "New pending admin."
        },
        "returns": {
          "_0": "boolean indicating success of operation"
        }
      },
      "setPendingImplementation(address)": {
        "details": "Admin function for proposing new implementation contract",
        "returns": {
          "_0": "boolean indicating success of operation"
        }
      }
    },
    "title": "VotingPowerPrism",
    "version": 1
  },
  "userdoc": {
    "events": {
      "NewAdmin(address,address)": {
        "notice": "Emitted when pendingAdmin is accepted, which means admin is updated"
      },
      "NewImplementation(address,address)": {
        "notice": "Emitted when pendingVotingPowerImplementation is accepted, which means voting power implementation is updated"
      },
      "NewPendingAdmin(address,address)": {
        "notice": "Emitted when pendingAdmin is changed"
      },
      "NewPendingImplementation(address,address)": {
        "notice": "Emitted when pendingVotingPowerImplementation is changed"
      }
    },
    "kind": "user",
    "methods": {
      "acceptAdmin()": {
        "notice": "Accepts transfer of admin rights. msg.sender must be pendingAdmin"
      },
      "acceptImplementation()": {
        "notice": "Accepts new implementation of voting power. msg.sender must be pendingImplementation"
      },
      "setPendingAdmin(address)": {
        "notice": "Begins transfer of admin rights. The newPendingAdmin must call `_acceptAdmin` to finalize the transfer."
      },
      "setPendingImplementation(address)": {
        "notice": "Create new pending implementation of voting power. msg.sender must be admin"
      }
    },
    "version": 1
  },
  "storageLayout": {
    "storage": [],
    "types": null
  }
}