{
  "address": "0x160bfc7ffF2077a507814b8758E0Bbd752b7853f",
  "abi": [
    {
      "inputs": [],
      "stateMutability": "nonpayable",
      "type": "constructor"
    },
    {
      "anonymous": false,
      "inputs": [
        {
          "indexed": false,
          "internalType": "address",
          "name": "oldAdmin",
          "type": "address"
        },
        {
          "indexed": false,
          "internalType": "address",
          "name": "newAdmin",
          "type": "address"
        }
      ],
      "name": "NewAdmin",
      "type": "event"
    },
    {
      "anonymous": false,
      "inputs": [
        {
          "indexed": false,
          "internalType": "address",
          "name": "oldImplementation",
          "type": "address"
        },
        {
          "indexed": false,
          "internalType": "address",
          "name": "newImplementation",
          "type": "address"
        }
      ],
      "name": "NewImplementation",
      "type": "event"
    },
    {
      "anonymous": false,
      "inputs": [
        {
          "indexed": false,
          "internalType": "address",
          "name": "oldPendingAdmin",
          "type": "address"
        },
        {
          "indexed": false,
          "internalType": "address",
          "name": "newPendingAdmin",
          "type": "address"
        }
      ],
      "name": "NewPendingAdmin",
      "type": "event"
    },
    {
      "anonymous": false,
      "inputs": [
        {
          "indexed": false,
          "internalType": "address",
          "name": "oldPendingImplementation",
          "type": "address"
        },
        {
          "indexed": false,
          "internalType": "address",
          "name": "newPendingImplementation",
          "type": "address"
        }
      ],
      "name": "NewPendingImplementation",
      "type": "event"
    },
    {
      "stateMutability": "payable",
      "type": "fallback"
    },
    {
      "inputs": [],
      "name": "acceptAdmin",
      "outputs": [
        {
          "internalType": "bool",
          "name": "",
          "type": "bool"
        }
      ],
      "stateMutability": "nonpayable",
      "type": "function"
    },
    {
      "inputs": [],
      "name": "acceptImplementation",
      "outputs": [
        {
          "internalType": "bool",
          "name": "",
          "type": "bool"
        }
      ],
      "stateMutability": "nonpayable",
      "type": "function"
    },
    {
      "inputs": [],
      "name": "pendingProxyAdmin",
      "outputs": [
        {
          "internalType": "address",
          "name": "",
          "type": "address"
        }
      ],
      "stateMutability": "view",
      "type": "function"
    },
    {
      "inputs": [],
      "name": "pendingVotingPowerImplementation",
      "outputs": [
        {
          "internalType": "address",
          "name": "",
          "type": "address"
        }
      ],
      "stateMutability": "view",
      "type": "function"
    },
    {
      "inputs": [],
      "name": "proxyAdmin",
      "outputs": [
        {
          "internalType": "address",
          "name": "",
          "type": "address"
        }
      ],
      "stateMutability": "view",
      "type": "function"
    },
    {
      "inputs": [
        {
          "internalType": "address",
          "name": "newPendingAdmin",
          "type": "address"
        }
      ],
      "name": "setPendingAdmin",
      "outputs": [
        {
          "internalType": "bool",
          "name": "",
          "type": "bool"
        }
      ],
      "stateMutability": "nonpayable",
      "type": "function"
    },
    {
      "inputs": [
        {
          "internalType": "address",
          "name": "newPendingImplementation",
          "type": "address"
        }
      ],
      "name": "setPendingImplementation",
      "outputs": [
        {
          "internalType": "bool",
          "name": "",
          "type": "bool"
        }
      ],
      "stateMutability": "nonpayable",
      "type": "function"
    },
    {
      "inputs": [],
      "name": "version",
      "outputs": [
        {
          "internalType": "uint8",
          "name": "",
          "type": "uint8"
        }
      ],
      "stateMutability": "view",
      "type": "function"
    },
    {
      "inputs": [],
      "name": "votingPowerImplementation",
      "outputs": [
        {
          "internalType": "address",
          "name": "",
          "type": "address"
        }
      ],
      "stateMutability": "view",
      "type": "function"
    },
    {
      "stateMutability": "payable",
      "type": "receive"
    }
  ],
  "transactionHash": "0x80d22b8491d370aa4d3d3d88aefcf7b06f774f27f0e32b93a457296591860571",
  "args": [],
  "solcInputHash": "3d50da70de0d5b1d87466f94d547b75f",
  "bytecode": "0x608060405234801561001057600080fd5b50600061002561007060201b6103281760201c565b9050338160000160006101000a81548173ffffffffffffffffffffffffffffffffffffffff021916908373ffffffffffffffffffffffffffffffffffffffff1602179055505061009d565b6000807f11f054be2564f2730b7085dc3db2944f046752747bd172c8fe02101b7bc19b3090508091505090565b611032806100ac6000396000f3fe60806040526004361061008a5760003560e01c80633e47158c116100595780633e47158c1461023f5780634dd18bf51461026a578063519c167e146102a757806354fd4d50146102d2578063e424b4f5146102fd576100ca565b806309ed43c9146101815780630e18b681146101be57806315ba56e5146101e957806325f86cbb14610214576100ca565b366100ca576040517f08c379a00000000000000000000000000000000000000000000000000000000081526004016100c190610f34565b60405180910390fd5b60006100d4610328565b905060008160020160009054906101000a900473ffffffffffffffffffffffffffffffffffffffff1673ffffffffffffffffffffffffffffffffffffffff16600036604051610124929190610e5c565b600060405180830381855af49150503d806000811461015f576040519150601f19603f3d011682016040523d82523d6000602084013e610164565b606091505b505090506040513d6000823e816000811461017d573d82f35b3d82fd5b34801561018d57600080fd5b506101a860048036038101906101a39190610cbb565b610355565b6040516101b59190610eb9565b60405180910390f35b3480156101ca57600080fd5b506101d36104c8565b6040516101e09190610eb9565b60405180910390f35b3480156101f557600080fd5b506101fe610761565b60405161020b9190610eb9565b60405180910390f35b34801561022057600080fd5b50610229610a52565b6040516102369190610e75565b60405180910390f35b34801561024b57600080fd5b50610254610a8a565b6040516102619190610e75565b60405180910390f35b34801561027657600080fd5b50610291600480360381019061028c9190610cbb565b610ac2565b60405161029e9190610eb9565b60405180910390f35b3480156102b357600080fd5b506102bc610c11565b6040516102c99190610e75565b60405180910390f35b3480156102de57600080fd5b506102e7610c49565b6040516102f49190610f54565b60405180910390f35b34801561030957600080fd5b50610312610c6e565b60405161031f9190610e75565b60405180910390f35b6000807f11f054be2564f2730b7085dc3db2944f046752747bd172c8fe02101b7bc19b3090508091505090565b600080610360610328565b90508060000160009054906101000a900473ffffffffffffffffffffffffffffffffffffffff1673ffffffffffffffffffffffffffffffffffffffff163373ffffffffffffffffffffffffffffffffffffffff16146103f4576040517f08c379a00000000000000000000000000000000000000000000000000000000081526004016103eb90610ef4565b60405180910390fd5b60008160030160009054906101000a900473ffffffffffffffffffffffffffffffffffffffff169050838260030160006101000a81548173ffffffffffffffffffffffffffffffffffffffff021916908373ffffffffffffffffffffffffffffffffffffffff1602179055507fe945ccee5d701fc83f9b8aa8ca94ea4219ec1fcbd4f4cab4f0ea57c5c3e1d815818360030160009054906101000a900473ffffffffffffffffffffffffffffffffffffffff166040516104b5929190610e90565b60405180910390a1600192505050919050565b6000806104d3610328565b90508060010160009054906101000a900473ffffffffffffffffffffffffffffffffffffffff1673ffffffffffffffffffffffffffffffffffffffff163373ffffffffffffffffffffffffffffffffffffffff161480156105615750600073ffffffffffffffffffffffffffffffffffffffff163373ffffffffffffffffffffffffffffffffffffffff1614155b6105a0576040517f08c379a000000000000000000000000000000000000000000000000000000000815260040161059790610f14565b60405180910390fd5b60008160000160009054906101000a900473ffffffffffffffffffffffffffffffffffffffff16905060008260010160009054906101000a900473ffffffffffffffffffffffffffffffffffffffff1690508260010160009054906101000a900473ffffffffffffffffffffffffffffffffffffffff168360000160006101000a81548173ffffffffffffffffffffffffffffffffffffffff021916908373ffffffffffffffffffffffffffffffffffffffff16021790555060008360010160006101000a81548173ffffffffffffffffffffffffffffffffffffffff021916908373ffffffffffffffffffffffffffffffffffffffff1602179055507ff9ffabca9c8276e99321725bcb43fb076a6c66a54b7f21c4e8146d8519b417dc828460000160009054906101000a900473ffffffffffffffffffffffffffffffffffffffff166040516106f2929190610e90565b60405180910390a17fca4f2f25d0898edd99413412fb94012f9e54ec8142f9b093e7720646a95b16a9818460010160009054906101000a900473ffffffffffffffffffffffffffffffffffffffff1660405161074f929190610e90565b60405180910390a16001935050505090565b60008061076c610328565b90508060030160009054906101000a900473ffffffffffffffffffffffffffffffffffffffff1673ffffffffffffffffffffffffffffffffffffffff163373ffffffffffffffffffffffffffffffffffffffff1614801561081e5750600073ffffffffffffffffffffffffffffffffffffffff168160030160009054906101000a900473ffffffffffffffffffffffffffffffffffffffff1673ffffffffffffffffffffffffffffffffffffffff1614155b61085d576040517f08c379a000000000000000000000000000000000000000000000000000000000815260040161085490610ed4565b60405180910390fd5b60008160020160009054906101000a900473ffffffffffffffffffffffffffffffffffffffff16905060008260030160009054906101000a900473ffffffffffffffffffffffffffffffffffffffff1690508260030160009054906101000a900473ffffffffffffffffffffffffffffffffffffffff168360020160006101000a81548173ffffffffffffffffffffffffffffffffffffffff021916908373ffffffffffffffffffffffffffffffffffffffff16021790555060008360030160006101000a81548173ffffffffffffffffffffffffffffffffffffffff021916908373ffffffffffffffffffffffffffffffffffffffff16021790555082600301601481819054906101000a900460ff168092919060010191906101000a81548160ff021916908360ff160217905550507fd604de94d45953f9138079ec1b82d533cb2160c906d1076d1f7ed54befbca97a828460020160009054906101000a900473ffffffffffffffffffffffffffffffffffffffff166040516109e3929190610e90565b60405180910390a17fe945ccee5d701fc83f9b8aa8ca94ea4219ec1fcbd4f4cab4f0ea57c5c3e1d815818460030160009054906101000a900473ffffffffffffffffffffffffffffffffffffffff16604051610a40929190610e90565b60405180910390a16001935050505090565b600080610a5d610328565b90508060010160009054906101000a900473ffffffffffffffffffffffffffffffffffffffff1691505090565b600080610a95610328565b90508060000160009054906101000a900473ffffffffffffffffffffffffffffffffffffffff1691505090565b600080610acd610328565b90508060000160009054906101000a900473ffffffffffffffffffffffffffffffffffffffff1673ffffffffffffffffffffffffffffffffffffffff163373ffffffffffffffffffffffffffffffffffffffff1614610b61576040517f08c379a0000000000000000000000000000000000000000000000000000000008152600401610b5890610ef4565b60405180910390fd5b60008160010160009054906101000a900473ffffffffffffffffffffffffffffffffffffffff169050838260010160006101000a81548173ffffffffffffffffffffffffffffffffffffffff021916908373ffffffffffffffffffffffffffffffffffffffff1602179055507fca4f2f25d0898edd99413412fb94012f9e54ec8142f9b093e7720646a95b16a98185604051610bfe929190610e90565b60405180910390a1600192505050919050565b600080610c1c610328565b90508060030160009054906101000a900473ffffffffffffffffffffffffffffffffffffffff1691505090565b600080610c54610328565b90508060030160149054906101000a900460ff1691505090565b600080610c79610328565b90508060020160009054906101000a900473ffffffffffffffffffffffffffffffffffffffff1691505090565b600081359050610cb581610fe5565b92915050565b600060208284031215610ccd57600080fd5b6000610cdb84828501610ca6565b91505092915050565b610ced81610f8b565b82525050565b610cfc81610f9d565b82525050565b6000610d0e8385610f6f565b9350610d1b838584610fd6565b82840190509392505050565b6000610d34602583610f7a565b91507f43616c6c6572206d7573742062652070656e64696e6720696d706c656d656e7460008301527f6174696f6e0000000000000000000000000000000000000000000000000000006020830152604082019050919050565b6000610d9a601483610f7a565b91507f43616c6c6572206d7573742062652061646d696e0000000000000000000000006000830152602082019050919050565b6000610dda601c83610f7a565b91507f43616c6c6572206d7573742062652070656e64696e672061646d696e000000006000830152602082019050919050565b6000610e1a601883610f7a565b91507f43616e6e6f742073656e6420455448206469726563746c7900000000000000006000830152602082019050919050565b610e5681610fc9565b82525050565b6000610e69828486610d02565b91508190509392505050565b6000602082019050610e8a6000830184610ce4565b92915050565b6000604082019050610ea56000830185610ce4565b610eb26020830184610ce4565b9392505050565b6000602082019050610ece6000830184610cf3565b92915050565b60006020820190508181036000830152610eed81610d27565b9050919050565b60006020820190508181036000830152610f0d81610d8d565b9050919050565b60006020820190508181036000830152610f2d81610dcd565b9050919050565b60006020820190508181036000830152610f4d81610e0d565b9050919050565b6000602082019050610f696000830184610e4d565b92915050565b600081905092915050565b600082825260208201905092915050565b6000610f9682610fa9565b9050919050565b60008115159050919050565b600073ffffffffffffffffffffffffffffffffffffffff82169050919050565b600060ff82169050919050565b82818337600083830152505050565b610fee81610f8b565b8114610ff957600080fd5b5056fea26469706673582212207044b393af21694e67d72e6c702ce73953e957b9c801c08e9325c3aded9c9f4064736f6c63430007040033",
  "devdoc": {
    "details": "Storage for voting power is at this address, while execution is delegated to the `votingPowerImplementation`. All contracts that use voting power should reference this contract.",
    "kind": "dev",
    "methods": {
      "acceptAdmin()": {
        "details": "Admin function for pending admin to accept role and update admin",
        "returns": {
          "_0": "boolean indicating success of operation"
        }
      },
      "acceptImplementation()": {
        "details": "Admin function for new implementation to accept it's role as implementation",
        "returns": {
          "_0": "boolean indicating success of operation"
        }
      },
      "setPendingAdmin(address)": {
        "details": "Admin function to begin change of admin. The newPendingAdmin must call `_acceptAdmin` to finalize the transfer.",
        "params": {
          "newPendingAdmin": "New pending admin."
        },
        "returns": {
          "_0": "boolean indicating success of operation"
        }
      },
      "setPendingImplementation(address)": {
        "details": "Admin function for proposing new implementation contract",
        "returns": {
          "_0": "boolean indicating success of operation"
        }
      }
    },
    "title": "VotingPowerPrism",
    "version": 1
  },
  "userdoc": {
    "events": {
      "NewAdmin(address,address)": {
        "notice": "Emitted when pendingAdmin is accepted, which means admin is updated"
      },
      "NewImplementation(address,address)": {
        "notice": "Emitted when pendingVotingPowerImplementation is accepted, which means voting power implementation is updated"
      },
      "NewPendingAdmin(address,address)": {
        "notice": "Emitted when pendingAdmin is changed"
      },
      "NewPendingImplementation(address,address)": {
        "notice": "Emitted when pendingVotingPowerImplementation is changed"
      }
    },
    "kind": "user",
    "methods": {
      "acceptAdmin()": {
        "notice": "Accepts transfer of admin rights. msg.sender must be pendingAdmin"
      },
      "acceptImplementation()": {
        "notice": "Accepts new implementation of voting power. msg.sender must be pendingImplementation"
      },
      "setPendingAdmin(address)": {
        "notice": "Begins transfer of admin rights. The newPendingAdmin must call `_acceptAdmin` to finalize the transfer."
      },
      "setPendingImplementation(address)": {
        "notice": "Create new pending implementation of voting power. msg.sender must be admin"
      }
    },
    "version": 1
  },
  "storageLayout": {
    "storage": [],
    "types": null
  }
}