{
  "address": "0x68CB730510E9821553FC4646AcEB51758e3A65dE",
  "abi": [
    {
      "inputs": [
        {
          "internalType": "uint256",
          "name": "amount",
          "type": "uint256"
        }
      ],
      "name": "convertTokensToVotingPower",
      "outputs": [
        {
          "internalType": "uint256",
          "name": "",
          "type": "uint256"
        }
      ],
      "stateMutability": "pure",
      "type": "function"
    }
  ],
  "transactionHash": "0x532e42ddc5fb85495e4a6746502a49f7ec55d5e63b64169fe14adbdff65a3251",
  "args": [],
  "solcInputHash": "2e9142a3380a2374076d02017f19bf74",
  "bytecode": "0x6080604052348015600f57600080fd5b5060928061001e6000396000f3fe6080604052348015600f57600080fd5b506004361060285760003560e01c8063b69fb7f914602d575b600080fd5b604760048036036020811015604157600080fd5b50356059565b60408051918252519081900360200190f35b9056fea2646970667358221220eb265659992a8e10d2ced785f3a5701d4973ff8c739189e269ff82b8de9373fd64736f6c63430007040033",
  "devdoc": {
    "details": "Convert ARCH to voting power",
    "kind": "dev",
    "methods": {
      "convertTokensToVotingPower(uint256)": {
        "details": "Always converts 1-1",
        "params": {
          "amount": "token amount"
        },
        "returns": {
          "_0": "voting power amount"
        }
      }
    },
    "title": "ArchFormula",
    "version": 1
  },
  "userdoc": {
    "kind": "user",
    "methods": {
      "convertTokensToVotingPower(uint256)": {
        "notice": "Convert ARCH amount to voting power"
      }
    },
    "version": 1
  },
  "storageLayout": {
    "storage": [],
    "types": null
  }
}