{
  "address": "0xB05834034b21531F1689456B1D79fb0569E23474",
  "abi": [
    {
      "inputs": [
        {
          "internalType": "address",
          "name": "_votingPower",
          "type": "address"
        },
        {
          "internalType": "address",
          "name": "_roleManager",
          "type": "address"
        }
      ],
      "stateMutability": "nonpayable",
      "type": "constructor"
    },
    {
      "anonymous": false,
      "inputs": [
        {
          "indexed": true,
          "internalType": "bytes32",
          "name": "role",
          "type": "bytes32"
        },
        {
          "indexed": true,
          "internalType": "bytes32",
          "name": "previousAdminRole",
          "type": "bytes32"
        },
        {
          "indexed": true,
          "internalType": "bytes32",
          "name": "newAdminRole",
          "type": "bytes32"
        }
      ],
      "name": "RoleAdminChanged",
      "type": "event"
    },
    {
      "anonymous": false,
      "inputs": [
        {
          "indexed": true,
          "internalType": "bytes32",
          "name": "role",
          "type": "bytes32"
        },
        {
          "indexed": true,
          "internalType": "address",
          "name": "account",
          "type": "address"
        },
        {
          "indexed": true,
          "internalType": "address",
          "name": "sender",
          "type": "address"
        }
      ],
      "name": "RoleGranted",
      "type": "event"
    },
    {
      "anonymous": false,
      "inputs": [
        {
          "indexed": true,
          "internalType": "bytes32",
          "name": "role",
          "type": "bytes32"
        },
        {
          "indexed": true,
          "internalType": "address",
          "name": "account",
          "type": "address"
        },
        {
          "indexed": true,
          "internalType": "address",
          "name": "sender",
          "type": "address"
        }
      ],
      "name": "RoleRevoked",
      "type": "event"
    },
    {
      "anonymous": false,
      "inputs": [
        {
          "indexed": true,
          "internalType": "address",
          "name": "user",
          "type": "address"
        },
        {
          "indexed": true,
          "internalType": "address",
          "name": "token",
          "type": "address"
        },
        {
          "indexed": true,
          "internalType": "uint256",
          "name": "amount",
          "type": "uint256"
        },
        {
          "indexed": false,
          "internalType": "uint256",
          "name": "votingPower",
          "type": "uint256"
        }
      ],
      "name": "StakeLocked",
      "type": "event"
    },
    {
      "anonymous": false,
      "inputs": [
        {
          "indexed": true,
          "internalType": "address",
          "name": "user",
          "type": "address"
        },
        {
          "indexed": true,
          "internalType": "address",
          "name": "token",
          "type": "address"
        },
        {
          "indexed": true,
          "internalType": "uint256",
          "name": "amount",
          "type": "uint256"
        },
        {
          "indexed": false,
          "internalType": "uint256",
          "name": "votingPower",
          "type": "uint256"
        }
      ],
      "name": "StakeUnlocked",
      "type": "event"
    },
    {
      "inputs": [],
      "name": "DEFAULT_ADMIN_ROLE",
      "outputs": [
        {
          "internalType": "bytes32",
          "name": "",
          "type": "bytes32"
        }
      ],
      "stateMutability": "view",
      "type": "function"
    },
    {
      "inputs": [],
      "name": "LOCKER_ROLE",
      "outputs": [
        {
          "internalType": "bytes32",
          "name": "",
          "type": "bytes32"
        }
      ],
      "stateMutability": "view",
      "type": "function"
    },
    {
      "inputs": [
        {
          "internalType": "address",
          "name": "token",
          "type": "address"
        },
        {
          "internalType": "uint256",
          "name": "amount",
          "type": "uint256"
        }
      ],
      "name": "calculateVotingPower",
      "outputs": [
        {
          "internalType": "uint256",
          "name": "",
          "type": "uint256"
        }
      ],
      "stateMutability": "view",
      "type": "function"
    },
    {
      "inputs": [
        {
          "internalType": "address",
          "name": "staker",
          "type": "address"
        },
        {
          "internalType": "address",
          "name": "stakedToken",
          "type": "address"
        }
      ],
      "name": "getAmountStaked",
      "outputs": [
        {
          "internalType": "uint256",
          "name": "",
          "type": "uint256"
        }
      ],
      "stateMutability": "view",
      "type": "function"
    },
    {
      "inputs": [
        {
          "internalType": "bytes32",
          "name": "role",
          "type": "bytes32"
        }
      ],
      "name": "getRoleAdmin",
      "outputs": [
        {
          "internalType": "bytes32",
          "name": "",
          "type": "bytes32"
        }
      ],
      "stateMutability": "view",
      "type": "function"
    },
    {
      "inputs": [
        {
          "internalType": "bytes32",
          "name": "role",
          "type": "bytes32"
        },
        {
          "internalType": "uint256",
          "name": "index",
          "type": "uint256"
        }
      ],
      "name": "getRoleMember",
      "outputs": [
        {
          "internalType": "address",
          "name": "",
          "type": "address"
        }
      ],
      "stateMutability": "view",
      "type": "function"
    },
    {
      "inputs": [
        {
          "internalType": "bytes32",
          "name": "role",
          "type": "bytes32"
        }
      ],
      "name": "getRoleMemberCount",
      "outputs": [
        {
          "internalType": "uint256",
          "name": "",
          "type": "uint256"
        }
      ],
      "stateMutability": "view",
      "type": "function"
    },
    {
      "inputs": [
        {
          "internalType": "address",
          "name": "staker",
          "type": "address"
        },
        {
          "internalType": "address",
          "name": "stakedToken",
          "type": "address"
        }
      ],
      "name": "getStake",
      "outputs": [
        {
          "components": [
            {
              "internalType": "uint256",
              "name": "amount",
              "type": "uint256"
            },
            {
              "internalType": "uint256",
              "name": "votingPower",
              "type": "uint256"
            }
          ],
          "internalType": "struct LockManager.LockedStake",
          "name": "",
          "type": "tuple"
        }
      ],
      "stateMutability": "view",
      "type": "function"
    },
    {
      "inputs": [
        {
          "internalType": "bytes32",
          "name": "role",
          "type": "bytes32"
        },
        {
          "internalType": "address",
          "name": "account",
          "type": "address"
        }
      ],
      "name": "grantRole",
      "outputs": [],
      "stateMutability": "nonpayable",
      "type": "function"
    },
    {
      "inputs": [
        {
          "internalType": "address",
          "name": "receiver",
          "type": "address"
        },
        {
          "internalType": "address",
          "name": "token",
          "type": "address"
        },
        {
          "internalType": "uint256",
          "name": "tokenAmount",
          "type": "uint256"
        }
      ],
      "name": "grantVotingPower",
      "outputs": [
        {
          "internalType": "uint256",
          "name": "votingPowerGranted",
          "type": "uint256"
        }
      ],
      "stateMutability": "nonpayable",
      "type": "function"
    },
    {
      "inputs": [
        {
          "internalType": "bytes32",
          "name": "role",
          "type": "bytes32"
        },
        {
          "internalType": "address",
          "name": "account",
          "type": "address"
        }
      ],
      "name": "hasRole",
      "outputs": [
        {
          "internalType": "bool",
          "name": "",
          "type": "bool"
        }
      ],
      "stateMutability": "view",
      "type": "function"
    },
    {
      "inputs": [
        {
          "internalType": "address",
          "name": "receiver",
          "type": "address"
        },
        {
          "internalType": "address",
          "name": "token",
          "type": "address"
        },
        {
          "internalType": "uint256",
          "name": "tokenAmount",
          "type": "uint256"
        }
      ],
      "name": "removeVotingPower",
      "outputs": [
        {
          "internalType": "uint256",
          "name": "votingPowerRemoved",
          "type": "uint256"
        }
      ],
      "stateMutability": "nonpayable",
      "type": "function"
    },
    {
      "inputs": [
        {
          "internalType": "bytes32",
          "name": "role",
          "type": "bytes32"
        },
        {
          "internalType": "address",
          "name": "account",
          "type": "address"
        }
      ],
      "name": "renounceRole",
      "outputs": [],
      "stateMutability": "nonpayable",
      "type": "function"
    },
    {
      "inputs": [
        {
          "internalType": "bytes32",
          "name": "role",
          "type": "bytes32"
        },
        {
          "internalType": "address",
          "name": "account",
          "type": "address"
        }
      ],
      "name": "revokeRole",
      "outputs": [],
      "stateMutability": "nonpayable",
      "type": "function"
    },
    {
      "inputs": [],
      "name": "votingPower",
      "outputs": [
        {
          "internalType": "contract IVotingPower",
          "name": "",
          "type": "address"
        }
      ],
      "stateMutability": "view",
      "type": "function"
    }
  ],
  "transactionHash": "0x37865b6c3281732eb7069b33f044fdad93df73261e266ad0596eb032737ea2ee",
  "args": [
    "0x000100bB517E0c003200502A822083000a3B005d",
    "0x13d5B8Fc84F73fc5a0A5832Aa8373044371314d3"
  ],
  "solcInputHash": "2e9142a3380a2374076d02017f19bf74",
  "bytecode": "0x60806040523480156200001157600080fd5b506040516200183938038062001839833981016040819052620000349162000195565b600280546001600160a01b0319166001600160a01b0384161790556200005c60008262000064565b5050620001cc565b62000070828262000074565b5050565b6000828152602081815260409091206200009991839062000c13620000ed821b17901c565b156200007057620000a96200010d565b6001600160a01b0316816001600160a01b0316837f2f8788117e7eff1d82e926ec794901d17c78024a50270940304540a733656f0d60405160405180910390a45050565b600062000104836001600160a01b03841662000111565b90505b92915050565b3390565b60006200011f838362000160565b620001575750815460018181018455600084815260208082209093018490558454848252828601909352604090209190915562000107565b50600062000107565b60009081526001919091016020526040902054151590565b80516001600160a01b03811681146200019057600080fd5b919050565b60008060408385031215620001a8578182fd5b620001b38362000178565b9150620001c36020840162000178565b90509250929050565b61165d80620001dc6000396000f3fe608060405234801561001057600080fd5b50600436106100f55760003560e01c806391d1485411610097578063ca15c87311610066578063ca15c873146101f4578063d547741f14610207578063e968d9fa1461021a578063f36213671461022d576100f5565b806391d14854146101a6578063a217fddf146101c6578063bc3e1b7a146101ce578063bc61256e146101e1576100f5565b806377174f85116100d357806377174f851461014b5780637741459e1461016057806382dda22d146101735780639010d07c14610193576100f5565b8063248a9ca3146100fa5780632f2ff15d1461012357806336568abe14610138575b600080fd5b61010d6101083660046112d6565b610235565b60405161011a919061139d565b60405180910390f35b6101366101313660046112ee565b61024a565b005b6101366101463660046112ee565b6102cb565b610153610360565b60405161011a919061134b565b61010d61016e366004611233565b61037c565b610186610181366004611233565b610392565b60405161011a919061151a565b6101536101a1366004611312565b6103e6565b6101b96101b43660046112ee565b610405565b60405161011a9190611392565b61010d61041d565b61010d6101dc36600461126b565b610422565b61010d6101ef36600461126b565b6106c8565b61010d6102023660046112d6565b6108d1565b6101366102153660046112ee565b6108e8565b61010d6102283660046112ab565b61095b565b61010d610bef565b60009081526020819052604090206002015490565b600082815260208190526040902060020154610268906101b4610c35565b6102bd576040517f08c379a000000000000000000000000000000000000000000000000000000000815260040180806020018281038252602f815260200180611579602f913960400191505060405180910390fd5b6102c78282610c39565b5050565b6102d3610c35565b73ffffffffffffffffffffffffffffffffffffffff168173ffffffffffffffffffffffffffffffffffffffff1614610356576040517f08c379a000000000000000000000000000000000000000000000000000000000815260040180806020018281038252602f8152602001806115f9602f913960400191505060405180910390fd5b6102c78282610cbc565b60025473ffffffffffffffffffffffffffffffffffffffff1681565b60006103888383610392565b5190505b92915050565b61039a6111fd565b5073ffffffffffffffffffffffffffffffffffffffff91821660009081526001602081815260408084209490951683529283529083902083518085019094528054845201549082015290565b60008281526020819052604081206103fe9083610d3f565b9392505050565b60008281526020819052604081206103fe9083610d4b565b600081565b600061044e7faf9a8bb3cbd6b84fbccefa71ff73e26e798553c6914585a84886212a46a9027933610405565b61048d576040517f08c379a0000000000000000000000000000000000000000000000000000000008152600401610484906114bd565b60405180910390fd5b73ffffffffffffffffffffffffffffffffffffffff8085166000908152600160209081526040808320938716835292905220548211156104f9576040517f08c379a0000000000000000000000000000000000000000000000000000000008152600401610484906113a6565b6105016111fd565b61050b8585610392565b8051602082015191925061052a91610524908690610d6d565b90610de0565b73ffffffffffffffffffffffffffffffffffffffff80871660009081526001602090815260408083209389168352929052205490925061056a9084610e22565b73ffffffffffffffffffffffffffffffffffffffff8681166000908152600160208181526040808420948a16845293905291902091825501546105ad9083610e22565b73ffffffffffffffffffffffffffffffffffffffff80871660009081526001602081815260408084208a8616855290915291829020019290925560025491517f9cc7a367000000000000000000000000000000000000000000000000000000008152911690639cc7a36790610628908890869060040161136c565b600060405180830381600087803b15801561064257600080fd5b505af1158015610656573d6000803e3d6000fd5b50505050828473ffffffffffffffffffffffffffffffffffffffff168673ffffffffffffffffffffffffffffffffffffffff167f84ac76b4af9b0d66201e1a5c4154cbe6580a5a5431447ffdf2210e7fdf15359a856040516106b8919061139d565b60405180910390a4509392505050565b60006106f47faf9a8bb3cbd6b84fbccefa71ff73e26e798553c6914585a84886212a46a9027933610405565b61072a576040517f08c379a0000000000000000000000000000000000000000000000000000000008152600401610484906114bd565b610734838361095b565b73ffffffffffffffffffffffffffffffffffffffff8086166000908152600160209081526040808320938816835292905220549091506107749083610e64565b73ffffffffffffffffffffffffffffffffffffffff8581166000908152600160208181526040808420948916845293905291902091825501546107b79082610e64565b73ffffffffffffffffffffffffffffffffffffffff8086166000908152600160208181526040808420898616855290915291829020019290925560025491517f0bae5b7c000000000000000000000000000000000000000000000000000000008152911690630bae5b7c90610832908790859060040161136c565b600060405180830381600087803b15801561084c57600080fd5b505af1158015610860573d6000803e3d6000fd5b50505050818373ffffffffffffffffffffffffffffffffffffffff168573ffffffffffffffffffffffffffffffffffffffff167f1d80c2b0b59d2f1543a8b483e392137e35f1d5ebfffcb3ad3a85c07a75636313846040516108c2919061139d565b60405180910390a49392505050565b600081815260208190526040812061038c90610ed8565b600082815260208190526040902060020154610906906101b4610c35565b610356576040517f08c379a00000000000000000000000000000000000000000000000000000000081526004018080602001828103825260308152602001806115a86030913960400191505060405180910390fd5b600080600260009054906101000a900473ffffffffffffffffffffffffffffffffffffffff1673ffffffffffffffffffffffffffffffffffffffff16639d23c4c76040518163ffffffff1660e01b815260040160206040518083038186803b1580156109c657600080fd5b505afa1580156109da573d6000803e3d6000fd5b505050506040513d601f19601f820116820180604052508101906109fe9190611217565b905073ffffffffffffffffffffffffffffffffffffffff8116610a4d576040517f08c379a000000000000000000000000000000000000000000000000000000000815260040161048490611460565b6040517fd419935f00000000000000000000000000000000000000000000000000000000815260009073ffffffffffffffffffffffffffffffffffffffff83169063d419935f90610aa290889060040161134b565b60206040518083038186803b158015610aba57600080fd5b505afa158015610ace573d6000803e3d6000fd5b505050506040513d601f19601f82011682018060405250810190610af29190611217565b905073ffffffffffffffffffffffffffffffffffffffff8116610b41576040517f08c379a000000000000000000000000000000000000000000000000000000000815260040161048490611403565b6040517fb69fb7f9000000000000000000000000000000000000000000000000000000008152819073ffffffffffffffffffffffffffffffffffffffff82169063b69fb7f990610b9590889060040161139d565b60206040518083038186803b158015610bad57600080fd5b505afa158015610bc1573d6000803e3d6000fd5b505050506040513d601f19601f82011682018060405250810190610be59190611333565b9695505050505050565b7faf9a8bb3cbd6b84fbccefa71ff73e26e798553c6914585a84886212a46a9027981565b60006103fe8373ffffffffffffffffffffffffffffffffffffffff8416610ee3565b3390565b6000828152602081905260409020610c519082610c13565b156102c757610c5e610c35565b73ffffffffffffffffffffffffffffffffffffffff168173ffffffffffffffffffffffffffffffffffffffff16837f2f8788117e7eff1d82e926ec794901d17c78024a50270940304540a733656f0d60405160405180910390a45050565b6000828152602081905260409020610cd49082610f2d565b156102c757610ce1610c35565b73ffffffffffffffffffffffffffffffffffffffff168173ffffffffffffffffffffffffffffffffffffffff16837ff6391f5c32d9c69d2a47ea670b442974b53935d1edc7fd64eb21e047a839171b60405160405180910390a45050565b60006103fe8383610f4f565b60006103fe8373ffffffffffffffffffffffffffffffffffffffff8416610fcd565b600082610d7c5750600061038c565b82820282848281610d8957fe5b04146103fe576040517f08c379a00000000000000000000000000000000000000000000000000000000081526004018080602001828103825260218152602001806115d86021913960400191505060405180910390fd5b60006103fe83836040518060400160405280601a81526020017f536166654d6174683a206469766973696f6e206279207a65726f000000000000815250610fe5565b60006103fe83836040518060400160405280601f81526020017f536166654d6174683a207375627472616374696f6e20756e646572666c6f77008152506110a1565b6000828201838110156103fe57604080517f08c379a000000000000000000000000000000000000000000000000000000000815260206004820152601b60248201527f536166654d6174683a206164646974696f6e206f766572666c6f770000000000604482015290519081900360640190fd5b600061038c82611115565b6000610eef8383610fcd565b610f255750815460018181018455600084815260208082209093018490558454848252828601909352604090209190915561038c565b50600061038c565b60006103fe8373ffffffffffffffffffffffffffffffffffffffff8416611119565b81546000908210610fab576040517f08c379a00000000000000000000000000000000000000000000000000000000081526004018080602001828103825260228152602001806115576022913960400191505060405180910390fd5b826000018281548110610fba57fe5b9060005260206000200154905092915050565b60009081526001919091016020526040902054151590565b6000818361108b576040517f08c379a00000000000000000000000000000000000000000000000000000000081526004018080602001828103825283818151815260200191508051906020019080838360005b83811015611050578181015183820152602001611038565b50505050905090810190601f16801561107d5780820380516001836020036101000a031916815260200191505b509250505060405180910390fd5b50600083858161109757fe5b0495945050505050565b6000818484111561110d576040517f08c379a0000000000000000000000000000000000000000000000000000000008152602060048201818152835160248401528351909283926044909101919085019080838360008315611050578181015183820152602001611038565b505050900390565b5490565b600081815260018301602052604081205480156111f35783547fffffffffffffffffffffffffffffffffffffffffffffffffffffffffffffffff808301919081019060009087908390811061116a57fe5b906000526020600020015490508087600001848154811061118757fe5b6000918252602080832090910192909255828152600189810190925260409020908401905586548790806111b757fe5b6001900381819060005260206000200160009055905586600101600087815260200190815260200160002060009055600194505050505061038c565b600091505061038c565b604051806040016040528060008152602001600081525090565b600060208284031215611228578081fd5b81516103fe81611531565b60008060408385031215611245578081fd5b823561125081611531565b9150602083013561126081611531565b809150509250929050565b60008060006060848603121561127f578081fd5b833561128a81611531565b9250602084013561129a81611531565b929592945050506040919091013590565b600080604083850312156112bd578182fd5b82356112c881611531565b946020939093013593505050565b6000602082840312156112e7578081fd5b5035919050565b60008060408385031215611300578182fd5b82359150602083013561126081611531565b60008060408385031215611324578182fd5b50508035926020909101359150565b600060208284031215611344578081fd5b5051919050565b73ffffffffffffffffffffffffffffffffffffffff91909116815260200190565b73ffffffffffffffffffffffffffffffffffffffff929092168252602082015260400190565b901515815260200190565b90815260200190565b6020808252602f908201527f4c4d3a3a72656d6f7665566f74696e67506f7765723a206e6f7420656e6f756760408201527f6820746f6b656e73207374616b65640000000000000000000000000000000000606082015260800190565b6020808252602d908201527f4c4d3a3a63616c63756c617465566f74696e67506f7765723a20746f6b656e2060408201527f6e6f7420737570706f7274656400000000000000000000000000000000000000606082015260800190565b6020808252602a908201527f4c4d3a3a63616c63756c617465566f74696e67506f7765723a2072656769737460408201527f7279206e6f742073657400000000000000000000000000000000000000000000606082015260800190565b60208082526021908201527f43616c6c6572206d7573742068617665204c4f434b45525f524f4c4520726f6c60408201527f6500000000000000000000000000000000000000000000000000000000000000606082015260800190565b815181526020918201519181019190915260400190565b73ffffffffffffffffffffffffffffffffffffffff8116811461155357600080fd5b5056fe456e756d657261626c655365743a20696e646578206f7574206f6620626f756e6473416363657373436f6e74726f6c3a2073656e646572206d75737420626520616e2061646d696e20746f206772616e74416363657373436f6e74726f6c3a2073656e646572206d75737420626520616e2061646d696e20746f207265766f6b65536166654d6174683a206d756c7469706c69636174696f6e206f766572666c6f77416363657373436f6e74726f6c3a2063616e206f6e6c792072656e6f756e636520726f6c657320666f722073656c66a2646970667358221220d313d56a1559bdf731e4ccadf9c21c0b5886d7a7858b1352952a0b21ebd5577664736f6c63430007040033",
  "devdoc": {
    "details": "Manages voting power for stakes that are locked within the Archer ecosystem, but not in the Voting Power prism",
    "kind": "dev",
    "methods": {
      "calculateVotingPower(address,uint256)": {
        "params": {
          "amount": "amount of token that will be locked",
          "token": "token that will be locked"
        },
        "returns": {
          "_0": "resulting voting power"
        }
      },
      "constructor": {
        "params": {
          "_roleManager": "address that is in charge of assigning roles",
          "_votingPower": "VotingPower prism contract"
        }
      },
      "getAmountStaked(address,address)": {
        "params": {
          "stakedToken": "The staked token",
          "staker": "The user with staked tokens"
        },
        "returns": {
          "_0": "total amount staked"
        }
      },
      "getRoleAdmin(bytes32)": {
        "details": "Returns the admin role that controls `role`. See {grantRole} and {revokeRole}. To change a role's admin, use {_setRoleAdmin}."
      },
      "getRoleMember(bytes32,uint256)": {
        "details": "Returns one of the accounts that have `role`. `index` must be a value between 0 and {getRoleMemberCount}, non-inclusive. Role bearers are not sorted in any particular way, and their ordering may change at any point. WARNING: When using {getRoleMember} and {getRoleMemberCount}, make sure you perform all queries on the same block. See the following https://forum.openzeppelin.com/t/iterating-over-elements-on-enumerableset-in-openzeppelin-contracts/2296[forum post] for more information."
      },
      "getRoleMemberCount(bytes32)": {
        "details": "Returns the number of accounts that have `role`. Can be used together with {getRoleMember} to enumerate all bearers of a role."
      },
      "getStake(address,address)": {
        "params": {
          "stakedToken": "The staked token",
          "staker": "The user with staked tokens"
        },
        "returns": {
          "_0": "total staked"
        }
      },
      "grantRole(bytes32,address)": {
        "details": "Grants `role` to `account`. If `account` had not been already granted `role`, emits a {RoleGranted} event. Requirements: - the caller must have ``role``'s admin role."
      },
      "grantVotingPower(address,address,uint256)": {
        "params": {
          "receiver": "recipient of voting power",
          "token": "token that is locked",
          "tokenAmount": "amount of token that is locked"
        },
        "returns": {
          "votingPowerGranted": "amount of voting power granted"
        }
      },
      "hasRole(bytes32,address)": {
        "details": "Returns `true` if `account` has been granted `role`."
      },
      "removeVotingPower(address,address,uint256)": {
        "params": {
          "receiver": "holder of voting power",
          "token": "token that is being unlocked",
          "tokenAmount": "amount of token that is being unlocked"
        },
        "returns": {
          "votingPowerRemoved": "amount of voting power removed"
        }
      },
      "renounceRole(bytes32,address)": {
        "details": "Revokes `role` from the calling account. Roles are often managed via {grantRole} and {revokeRole}: this function's purpose is to provide a mechanism for accounts to lose their privileges if they are compromised (such as when a trusted device is misplaced). If the calling account had been granted `role`, emits a {RoleRevoked} event. Requirements: - the caller must be `account`."
      },
      "revokeRole(bytes32,address)": {
        "details": "Revokes `role` from `account`. If `account` had been granted `role`, emits a {RoleRevoked} event. Requirements: - the caller must have ``role``'s admin role."
      }
    },
    "title": "LockManager",
    "version": 1
  },
  "userdoc": {
    "events": {
      "StakeLocked(address,address,uint256,uint256)": {
        "notice": "An event that's emitted when a user's staked balance increases"
      },
      "StakeUnlocked(address,address,uint256,uint256)": {
        "notice": "An event that's emitted when a user's staked balance decreases"
      }
    },
    "kind": "user",
    "methods": {
      "LOCKER_ROLE()": {
        "notice": "Admin role to create voting power from locked stakes"
      },
      "calculateVotingPower(address,uint256)": {
        "notice": "Calculate the voting power that will result from locking `amount` of `token`"
      },
      "constructor": {
        "notice": "Create new LockManager contract"
      },
      "getAmountStaked(address,address)": {
        "notice": "Get total amount of tokens staked in contract by `staker`"
      },
      "getStake(address,address)": {
        "notice": "Get total staked amount and voting power from `stakedToken` staked in contract by `staker`"
      },
      "grantVotingPower(address,address,uint256)": {
        "notice": "Grant voting power from locked `tokenAmount` of `token`"
      },
      "removeVotingPower(address,address,uint256)": {
        "notice": "Remove voting power by unlocking `tokenAmount` of `token`"
      },
      "votingPower()": {
        "notice": "Voting power contract"
      }
    },
    "version": 1
  },
  "storageLayout": {
    "storage": [
      {
        "astId": 10629,
        "contract": "contracts/LockManager.sol:LockManager",
        "label": "_roles",
        "offset": 0,
        "slot": "0",
        "type": "t_mapping(t_bytes32,t_struct(RoleData)10625_storage)"
      },
      {
        "astId": 1298,
        "contract": "contracts/LockManager.sol:LockManager",
        "label": "lockedStakes",
        "offset": 0,
        "slot": "1",
        "type": "t_mapping(t_address,t_mapping(t_address,t_struct(LockedStake)1292_storage))"
      },
      {
        "astId": 1301,
        "contract": "contracts/LockManager.sol:LockManager",
        "label": "votingPower",
        "offset": 0,
        "slot": "2",
        "type": "t_contract(IVotingPower)10596"
      }
    ],
    "types": {
      "t_address": {
        "encoding": "inplace",
        "label": "address",
        "numberOfBytes": "20"
      },
      "t_array(t_bytes32)dyn_storage": {
        "base": "t_bytes32",
        "encoding": "dynamic_array",
        "label": "bytes32[]",
        "numberOfBytes": "32"
      },
      "t_bytes32": {
        "encoding": "inplace",
        "label": "bytes32",
        "numberOfBytes": "32"
      },
      "t_contract(IVotingPower)10596": {
        "encoding": "inplace",
        "label": "contract IVotingPower",
        "numberOfBytes": "20"
      },
      "t_mapping(t_address,t_mapping(t_address,t_struct(LockedStake)1292_storage))": {
        "encoding": "mapping",
        "key": "t_address",
        "label": "mapping(address => mapping(address => struct LockManager.LockedStake))",
        "numberOfBytes": "32",
        "value": "t_mapping(t_address,t_struct(LockedStake)1292_storage)"
      },
      "t_mapping(t_address,t_struct(LockedStake)1292_storage)": {
        "encoding": "mapping",
        "key": "t_address",
        "label": "mapping(address => struct LockManager.LockedStake)",
        "numberOfBytes": "32",
        "value": "t_struct(LockedStake)1292_storage"
      },
      "t_mapping(t_bytes32,t_struct(RoleData)10625_storage)": {
        "encoding": "mapping",
        "key": "t_bytes32",
        "label": "mapping(bytes32 => struct AccessControl.RoleData)",
        "numberOfBytes": "32",
        "value": "t_struct(RoleData)10625_storage"
      },
      "t_mapping(t_bytes32,t_uint256)": {
        "encoding": "mapping",
        "key": "t_bytes32",
        "label": "mapping(bytes32 => uint256)",
        "numberOfBytes": "32",
        "value": "t_uint256"
      },
      "t_struct(AddressSet)11484_storage": {
        "encoding": "inplace",
        "label": "struct EnumerableSet.AddressSet",
        "members": [
          {
            "astId": 11483,
            "contract": "contracts/LockManager.sol:LockManager",
            "label": "_inner",
            "offset": 0,
            "slot": "0",
            "type": "t_struct(Set)11219_storage"
          }
        ],
        "numberOfBytes": "64"
      },
      "t_struct(LockedStake)1292_storage": {
        "encoding": "inplace",
        "label": "struct LockManager.LockedStake",
        "members": [
          {
            "astId": 1289,
            "contract": "contracts/LockManager.sol:LockManager",
            "label": "amount",
            "offset": 0,
            "slot": "0",
            "type": "t_uint256"
          },
          {
            "astId": 1291,
            "contract": "contracts/LockManager.sol:LockManager",
            "label": "votingPower",
            "offset": 0,
            "slot": "1",
            "type": "t_uint256"
          }
        ],
        "numberOfBytes": "64"
      },
      "t_struct(RoleData)10625_storage": {
        "encoding": "inplace",
        "label": "struct AccessControl.RoleData",
        "members": [
          {
            "astId": 10622,
            "contract": "contracts/LockManager.sol:LockManager",
            "label": "members",
            "offset": 0,
            "slot": "0",
            "type": "t_struct(AddressSet)11484_storage"
          },
          {
            "astId": 10624,
            "contract": "contracts/LockManager.sol:LockManager",
            "label": "adminRole",
            "offset": 0,
            "slot": "2",
            "type": "t_bytes32"
          }
        ],
        "numberOfBytes": "96"
      },
      "t_struct(Set)11219_storage": {
        "encoding": "inplace",
        "label": "struct EnumerableSet.Set",
        "members": [
          {
            "astId": 11214,
            "contract": "contracts/LockManager.sol:LockManager",
            "label": "_values",
            "offset": 0,
            "slot": "0",
            "type": "t_array(t_bytes32)dyn_storage"
          },
          {
            "astId": 11218,
            "contract": "contracts/LockManager.sol:LockManager",
            "label": "_indexes",
            "offset": 0,
            "slot": "1",
            "type": "t_mapping(t_bytes32,t_uint256)"
          }
        ],
        "numberOfBytes": "64"
      },
      "t_uint256": {
        "encoding": "inplace",
        "label": "uint256",
        "numberOfBytes": "32"
      }
    }
  }
}