{
  "address": "0x31FF00F7BEb461D13630B2f3c191A726aAD251Cc",
  "abi": [
    {
      "inputs": [
        {
          "internalType": "address",
          "name": "_owner",
          "type": "address"
        },
        {
          "internalType": "address",
          "name": "_lockManager",
          "type": "address"
        },
        {
          "internalType": "address",
          "name": "_vault",
          "type": "address"
        },
        {
          "internalType": "address",
          "name": "_rewardToken",
          "type": "address"
        },
        {
          "internalType": "address",
          "name": "_sushiToken",
          "type": "address"
        },
        {
          "internalType": "address",
          "name": "_masterChef",
          "type": "address"
        },
        {
          "internalType": "uint256",
          "name": "_startBlock",
          "type": "uint256"
        },
        {
          "internalType": "uint256",
          "name": "_rewardTokensPerBlock",
          "type": "uint256"
        }
      ],
      "stateMutability": "nonpayable",
      "type": "constructor"
    },
    {
      "anonymous": false,
      "inputs": [
        {
          "indexed": true,
          "internalType": "string",
          "name": "addressType",
          "type": "string"
        },
        {
          "indexed": true,
          "internalType": "address",
          "name": "oldAddress",
          "type": "address"
        },
        {
          "indexed": true,
          "internalType": "address",
          "name": "newAddress",
          "type": "address"
        }
      ],
      "name": "ChangedAddress",
      "type": "event"
    },
    {
      "anonymous": false,
      "inputs": [
        {
          "indexed": true,
          "internalType": "address",
          "name": "oldOwner",
          "type": "address"
        },
        {
          "indexed": true,
          "internalType": "address",
          "name": "newOwner",
          "type": "address"
        }
      ],
      "name": "ChangedOwner",
      "type": "event"
    },
    {
      "anonymous": false,
      "inputs": [
        {
          "indexed": true,
          "internalType": "uint256",
          "name": "oldRewardTokensPerBlock",
          "type": "uint256"
        },
        {
          "indexed": true,
          "internalType": "uint256",
          "name": "newRewardTokensPerBlock",
          "type": "uint256"
        }
      ],
      "name": "ChangedRewardTokensPerBlock",
      "type": "event"
    },
    {
      "anonymous": false,
      "inputs": [
        {
          "indexed": true,
          "internalType": "uint256",
          "name": "oldEndBlock",
          "type": "uint256"
        },
        {
          "indexed": true,
          "internalType": "uint256",
          "name": "newEndBlock",
          "type": "uint256"
        }
      ],
      "name": "ChangedRewardsEndBlock",
      "type": "event"
    },
    {
      "anonymous": false,
      "inputs": [
        {
          "indexed": true,
          "internalType": "address",
          "name": "user",
          "type": "address"
        },
        {
          "indexed": true,
          "internalType": "uint256",
          "name": "pid",
          "type": "uint256"
        },
        {
          "indexed": false,
          "internalType": "uint256",
          "name": "amount",
          "type": "uint256"
        }
      ],
      "name": "Deposit",
      "type": "event"
    },
    {
      "anonymous": false,
      "inputs": [
        {
          "indexed": true,
          "internalType": "address",
          "name": "user",
          "type": "address"
        },
        {
          "indexed": true,
          "internalType": "uint256",
          "name": "pid",
          "type": "uint256"
        },
        {
          "indexed": false,
          "internalType": "uint256",
          "name": "amount",
          "type": "uint256"
        }
      ],
      "name": "EmergencyWithdraw",
      "type": "event"
    },
    {
      "anonymous": false,
      "inputs": [
        {
          "indexed": true,
          "internalType": "uint256",
          "name": "pid",
          "type": "uint256"
        },
        {
          "indexed": true,
          "internalType": "address",
          "name": "token",
          "type": "address"
        },
        {
          "indexed": false,
          "internalType": "uint256",
          "name": "allocPoints",
          "type": "uint256"
        },
        {
          "indexed": false,
          "internalType": "uint256",
          "name": "totalAllocPoints",
          "type": "uint256"
        },
        {
          "indexed": false,
          "internalType": "uint256",
          "name": "rewardStartBlock",
          "type": "uint256"
        },
        {
          "indexed": false,
          "internalType": "uint256",
          "name": "sushiPid",
          "type": "uint256"
        },
        {
          "indexed": false,
          "internalType": "bool",
          "name": "vpForDeposit",
          "type": "bool"
        },
        {
          "indexed": false,
          "internalType": "bool",
          "name": "vpForVesting",
          "type": "bool"
        }
      ],
      "name": "PoolAdded",
      "type": "event"
    },
    {
      "anonymous": false,
      "inputs": [
        {
          "indexed": true,
          "internalType": "uint256",
          "name": "pid",
          "type": "uint256"
        },
        {
          "indexed": false,
          "internalType": "uint256",
          "name": "oldAllocPoints",
          "type": "uint256"
        },
        {
          "indexed": false,
          "internalType": "uint256",
          "name": "newAllocPoints",
          "type": "uint256"
        },
        {
          "indexed": false,
          "internalType": "uint256",
          "name": "newTotalAllocPoints",
          "type": "uint256"
        }
      ],
      "name": "PoolUpdated",
      "type": "event"
    },
    {
      "anonymous": false,
      "inputs": [
        {
          "indexed": true,
          "internalType": "uint256",
          "name": "startBlock",
          "type": "uint256"
        }
      ],
      "name": "SetRewardsStartBlock",
      "type": "event"
    },
    {
      "anonymous": false,
      "inputs": [
        {
          "indexed": true,
          "internalType": "address",
          "name": "user",
          "type": "address"
        },
        {
          "indexed": true,
          "internalType": "uint256",
          "name": "pid",
          "type": "uint256"
        },
        {
          "indexed": false,
          "internalType": "uint256",
          "name": "amount",
          "type": "uint256"
        }
      ],
      "name": "Withdraw",
      "type": "event"
    },
    {
      "inputs": [
        {
          "internalType": "uint256",
          "name": "allocPoint",
          "type": "uint256"
        },
        {
          "internalType": "address",
          "name": "token",
          "type": "address"
        },
        {
          "internalType": "uint32",
          "name": "vestingPercent",
          "type": "uint32"
        },
        {
          "internalType": "uint16",
          "name": "vestingPeriod",
          "type": "uint16"
        },
        {
          "internalType": "uint16",
          "name": "vestingCliff",
          "type": "uint16"
        },
        {
          "internalType": "bool",
          "name": "withUpdate",
          "type": "bool"
        },
        {
          "internalType": "uint256",
          "name": "sushiPid",
          "type": "uint256"
        },
        {
          "internalType": "bool",
          "name": "vpForDeposit",
          "type": "bool"
        },
        {
          "internalType": "bool",
          "name": "vpForVesting",
          "type": "bool"
        }
      ],
      "name": "add",
      "outputs": [],
      "stateMutability": "nonpayable",
      "type": "function"
    },
    {
      "inputs": [
        {
          "internalType": "uint256",
          "name": "amount",
          "type": "uint256"
        }
      ],
      "name": "addRewardsBalance",
      "outputs": [],
      "stateMutability": "nonpayable",
      "type": "function"
    },
    {
      "inputs": [
        {
          "internalType": "address",
          "name": "newOwner",
          "type": "address"
        }
      ],
      "name": "changeOwner",
      "outputs": [],
      "stateMutability": "nonpayable",
      "type": "function"
    },
    {
      "inputs": [
        {
          "internalType": "uint256",
          "name": "pid",
          "type": "uint256"
        },
        {
          "internalType": "uint256",
          "name": "amount",
          "type": "uint256"
        }
      ],
      "name": "deposit",
      "outputs": [],
      "stateMutability": "nonpayable",
      "type": "function"
    },
    {
      "inputs": [
        {
          "internalType": "uint256",
          "name": "pid",
          "type": "uint256"
        },
        {
          "internalType": "uint256",
          "name": "amount",
          "type": "uint256"
        },
        {
          "internalType": "uint256",
          "name": "deadline",
          "type": "uint256"
        },
        {
          "internalType": "uint8",
          "name": "v",
          "type": "uint8"
        },
        {
          "internalType": "bytes32",
          "name": "r",
          "type": "bytes32"
        },
        {
          "internalType": "bytes32",
          "name": "s",
          "type": "bytes32"
        }
      ],
      "name": "depositWithPermit",
      "outputs": [],
      "stateMutability": "nonpayable",
      "type": "function"
    },
    {
      "inputs": [
        {
          "internalType": "uint256",
          "name": "pid",
          "type": "uint256"
        }
      ],
      "name": "emergencyWithdraw",
      "outputs": [],
      "stateMutability": "nonpayable",
      "type": "function"
    },
    {
      "inputs": [],
      "name": "endBlock",
      "outputs": [
        {
          "internalType": "uint256",
          "name": "",
          "type": "uint256"
        }
      ],
      "stateMutability": "view",
      "type": "function"
    },
    {
      "inputs": [
        {
          "internalType": "uint256",
          "name": "from",
          "type": "uint256"
        },
        {
          "internalType": "uint256",
          "name": "to",
          "type": "uint256"
        }
      ],
      "name": "getMultiplier",
      "outputs": [
        {
          "internalType": "uint256",
          "name": "",
          "type": "uint256"
        }
      ],
      "stateMutability": "view",
      "type": "function"
    },
    {
      "inputs": [],
      "name": "lockManager",
      "outputs": [
        {
          "internalType": "contract ILockManager",
          "name": "",
          "type": "address"
        }
      ],
      "stateMutability": "view",
      "type": "function"
    },
    {
      "inputs": [],
      "name": "massUpdatePools",
      "outputs": [],
      "stateMutability": "nonpayable",
      "type": "function"
    },
    {
      "inputs": [],
      "name": "masterChef",
      "outputs": [
        {
          "internalType": "contract IMasterChef",
          "name": "",
          "type": "address"
        }
      ],
      "stateMutability": "view",
      "type": "function"
    },
    {
      "inputs": [],
      "name": "owner",
      "outputs": [
        {
          "internalType": "address",
          "name": "",
          "type": "address"
        }
      ],
      "stateMutability": "view",
      "type": "function"
    },
    {
      "inputs": [
        {
          "internalType": "uint256",
          "name": "pid",
          "type": "uint256"
        },
        {
          "internalType": "address",
          "name": "account",
          "type": "address"
        }
      ],
      "name": "pendingRewardTokens",
      "outputs": [
        {
          "internalType": "uint256",
          "name": "",
          "type": "uint256"
        }
      ],
      "stateMutability": "view",
      "type": "function"
    },
    {
      "inputs": [
        {
          "internalType": "uint256",
          "name": "pid",
          "type": "uint256"
        },
        {
          "internalType": "address",
          "name": "account",
          "type": "address"
        }
      ],
      "name": "pendingSushi",
      "outputs": [
        {
          "internalType": "uint256",
          "name": "",
          "type": "uint256"
        }
      ],
      "stateMutability": "view",
      "type": "function"
    },
    {
      "inputs": [
        {
          "internalType": "uint256",
          "name": "",
          "type": "uint256"
        }
      ],
      "name": "poolInfo",
      "outputs": [
        {
          "internalType": "contract IERC20",
          "name": "token",
          "type": "address"
        },
        {
          "internalType": "uint256",
          "name": "allocPoint",
          "type": "uint256"
        },
        {
          "internalType": "uint256",
          "name": "lastRewardBlock",
          "type": "uint256"
        },
        {
          "internalType": "uint256",
          "name": "accRewardsPerShare",
          "type": "uint256"
        },
        {
          "internalType": "uint32",
          "name": "vestingPercent",
          "type": "uint32"
        },
        {
          "internalType": "uint16",
          "name": "vestingPeriod",
          "type": "uint16"
        },
        {
          "internalType": "uint16",
          "name": "vestingCliff",
          "type": "uint16"
        },
        {
          "internalType": "uint256",
          "name": "totalStaked",
          "type": "uint256"
        },
        {
          "internalType": "bool",
          "name": "vpForDeposit",
          "type": "bool"
        },
        {
          "internalType": "bool",
          "name": "vpForVesting",
          "type": "bool"
        }
      ],
      "stateMutability": "view",
      "type": "function"
    },
    {
      "inputs": [],
      "name": "poolLength",
      "outputs": [
        {
          "internalType": "uint256",
          "name": "",
          "type": "uint256"
        }
      ],
      "stateMutability": "view",
      "type": "function"
    },
    {
      "inputs": [
        {
          "internalType": "address[]",
          "name": "tokens",
          "type": "address[]"
        },
        {
          "internalType": "uint256[]",
          "name": "amounts",
          "type": "uint256[]"
        },
        {
          "internalType": "address",
          "name": "receiver",
          "type": "address"
        },
        {
          "internalType": "bool",
          "name": "updateRewardsEndBlock",
          "type": "bool"
        }
      ],
      "name": "rescueTokens",
      "outputs": [],
      "stateMutability": "nonpayable",
      "type": "function"
    },
    {
      "inputs": [],
      "name": "resetRewardsEndBlock",
      "outputs": [],
      "stateMutability": "nonpayable",
      "type": "function"
    },
    {
      "inputs": [],
      "name": "rewardToken",
      "outputs": [
        {
          "internalType": "contract IERC20",
          "name": "",
          "type": "address"
        }
      ],
      "stateMutability": "view",
      "type": "function"
    },
    {
      "inputs": [],
      "name": "rewardTokensPerBlock",
      "outputs": [
        {
          "internalType": "uint256",
          "name": "",
          "type": "uint256"
        }
      ],
      "stateMutability": "view",
      "type": "function"
    },
    {
      "inputs": [],
      "name": "rewardsActive",
      "outputs": [
        {
          "internalType": "bool",
          "name": "",
          "type": "bool"
        }
      ],
      "stateMutability": "view",
      "type": "function"
    },
    {
      "inputs": [
        {
          "internalType": "uint256",
          "name": "pid",
          "type": "uint256"
        },
        {
          "internalType": "uint256",
          "name": "allocPoint",
          "type": "uint256"
        },
        {
          "internalType": "bool",
          "name": "withUpdate",
          "type": "bool"
        }
      ],
      "name": "set",
      "outputs": [],
      "stateMutability": "nonpayable",
      "type": "function"
    },
    {
      "inputs": [
        {
          "internalType": "address",
          "name": "newAddress",
          "type": "address"
        }
      ],
      "name": "setLockManager",
      "outputs": [],
      "stateMutability": "nonpayable",
      "type": "function"
    },
    {
      "inputs": [
        {
          "internalType": "address",
          "name": "newAddress",
          "type": "address"
        }
      ],
      "name": "setMasterChef",
      "outputs": [],
      "stateMutability": "nonpayable",
      "type": "function"
    },
    {
      "inputs": [
        {
          "internalType": "address",
          "name": "newToken",
          "type": "address"
        },
        {
          "internalType": "uint256",
          "name": "newRewardTokensPerBlock",
          "type": "uint256"
        }
      ],
      "name": "setRewardToken",
      "outputs": [],
      "stateMutability": "nonpayable",
      "type": "function"
    },
    {
      "inputs": [
        {
          "internalType": "uint256",
          "name": "newRewardTokensPerBlock",
          "type": "uint256"
        }
      ],
      "name": "setRewardsPerBlock",
      "outputs": [],
      "stateMutability": "nonpayable",
      "type": "function"
    },
    {
      "inputs": [
        {
          "internalType": "address",
          "name": "newToken",
          "type": "address"
        }
      ],
      "name": "setSushiToken",
      "outputs": [],
      "stateMutability": "nonpayable",
      "type": "function"
    },
    {
      "inputs": [
        {
          "internalType": "address",
          "name": "newAddress",
          "type": "address"
        }
      ],
      "name": "setVault",
      "outputs": [],
      "stateMutability": "nonpayable",
      "type": "function"
    },
    {
      "inputs": [],
      "name": "startBlock",
      "outputs": [
        {
          "internalType": "uint256",
          "name": "",
          "type": "uint256"
        }
      ],
      "stateMutability": "view",
      "type": "function"
    },
    {
      "inputs": [
        {
          "internalType": "address",
          "name": "",
          "type": "address"
        }
      ],
      "name": "sushiPools",
      "outputs": [
        {
          "internalType": "uint256",
          "name": "",
          "type": "uint256"
        }
      ],
      "stateMutability": "view",
      "type": "function"
    },
    {
      "inputs": [],
      "name": "sushiToken",
      "outputs": [
        {
          "internalType": "contract IERC20",
          "name": "",
          "type": "address"
        }
      ],
      "stateMutability": "view",
      "type": "function"
    },
    {
      "inputs": [
        {
          "internalType": "address[]",
          "name": "tokensToApprove",
          "type": "address[]"
        },
        {
          "internalType": "uint256[]",
          "name": "approvalAmounts",
          "type": "uint256[]"
        },
        {
          "internalType": "address",
          "name": "spender",
          "type": "address"
        }
      ],
      "name": "tokenAllow",
      "outputs": [],
      "stateMutability": "nonpayable",
      "type": "function"
    },
    {
      "inputs": [],
      "name": "totalAllocPoint",
      "outputs": [
        {
          "internalType": "uint256",
          "name": "",
          "type": "uint256"
        }
      ],
      "stateMutability": "view",
      "type": "function"
    },
    {
      "inputs": [
        {
          "internalType": "uint256",
          "name": "pid",
          "type": "uint256"
        }
      ],
      "name": "updatePool",
      "outputs": [],
      "stateMutability": "nonpayable",
      "type": "function"
    },
    {
      "inputs": [
        {
          "internalType": "uint256",
          "name": "",
          "type": "uint256"
        },
        {
          "internalType": "address",
          "name": "",
          "type": "address"
        }
      ],
      "name": "userInfo",
      "outputs": [
        {
          "internalType": "uint256",
          "name": "amount",
          "type": "uint256"
        },
        {
          "internalType": "uint256",
          "name": "rewardTokenDebt",
          "type": "uint256"
        },
        {
          "internalType": "uint256",
          "name": "sushiRewardDebt",
          "type": "uint256"
        }
      ],
      "stateMutability": "view",
      "type": "function"
    },
    {
      "inputs": [],
      "name": "vault",
      "outputs": [
        {
          "internalType": "contract IVault",
          "name": "",
          "type": "address"
        }
      ],
      "stateMutability": "view",
      "type": "function"
    },
    {
      "inputs": [
        {
          "internalType": "uint256",
          "name": "pid",
          "type": "uint256"
        },
        {
          "internalType": "uint256",
          "name": "amount",
          "type": "uint256"
        }
      ],
      "name": "withdraw",
      "outputs": [],
      "stateMutability": "nonpayable",
      "type": "function"
    }
  ],
  "transactionHash": "0x87efcfbd6a260c2942ee5d2d70ac1cd27db7fb1d054fca3089c8103fab30a54a",
  "args": [
    "0x13d5B8Fc84F73fc5a0A5832Aa8373044371314d3",
    "0xB05834034b21531F1689456B1D79fb0569E23474",
    "0x0AdB62b2E331E05c718b96184317D320548A9377",
    "0x1F3f9D3068568F8040775be2e8C03C103C61f3aF",
    "0x6b3595068778dd592e39a122f4f5a5cf09c90fe2",
    "0xc2EdaD668740f1aA35E4D8f227fB8E17dcA888Cd",
    "11920000",
    "2500000000000000000"
  ],
  "solcInputHash": "2e9142a3380a2374076d02017f19bf74",
  "bytecode": "0x60806040523480156200001157600080fd5b50604051620051f9380380620051f9833981016040819052620000349162000729565b6001600081815581546001600160a01b0319166001600160a01b038b169081179092556040517f2748503f8f31d8071821d1d5144384ba6a465036cda17fa1629a8a2509ccee0e908290a3600680546001600160a01b0319166001600160a01b038916908117909155604051600090620000ae90620007fd565b604051908190038120906000805160206200518983398151915290600090a4600580546001600160a01b0319166001600160a01b038816908117909155604051600090620000fc90620007bd565b604051908190038120906000805160206200518983398151915290600090a4600280546001600160a01b0319166001600160a01b0387169081179091556040516000906200014a90620007e5565b604051908190038120906000805160206200518983398151915290600090a4600380546001600160a01b0319166001600160a01b0386169081179091556040516000906200019890620007ce565b604051908190038120906000805160206200518983398151915290600090a4600480546001600160a01b0319166001600160a01b038516908117909155604051600090620001e69062000815565b604051908190038120906000805160206200518983398151915290600090a4811562000213578162000215565b435b600c8190556040517f1b190b90c41faf64e3c69c95576c9ab1ad9fdbd9f620f05d271ab76202a56bd390600090a2600781905560405181906000907f946161e5739a4430df1991fae9a81c63724a1971bf00a784a024333d7a7489eb908290a3600554600254620002a2916001600160a01b039182169116600019620002b0602090811b6200243b17901c565b50505050505050506200082c565b60006200035782856001600160a01b031663dd62ed3e30876040518363ffffffff1660e01b815260040180836001600160a01b03168152602001826001600160a01b031681526020019250505060206040518083038186803b1580156200031657600080fd5b505afa1580156200032b573d6000803e3d6000fd5b505050506040513d60208110156200034257600080fd5b505190620003b9602090811b6200258817901c565b604080516001600160a01b038616602482015260448082018490528251808303909101815260649091019091526020810180516001600160e01b0390811663095ea7b360e01b17909152919250620003b3918691906200041b16565b50505050565b60008282018381101562000414576040805162461bcd60e51b815260206004820152601b60248201527f536166654d6174683a206164646974696f6e206f766572666c6f770000000000604482015290519081900360640190fd5b9392505050565b606062000477826040518060400160405280602081526020017f5361666545524332303a206c6f772d6c6576656c2063616c6c206661696c6564815250856001600160a01b0316620004dc60201b62002603179092919060201c565b805190915015620004d7578080602001905160208110156200049857600080fd5b5051620004d75760405162461bcd60e51b815260040180806020018281038252602a815260200180620051cf602a913960400191505060405180910390fd5b505050565b6060620004ed8484600085620004f5565b949350505050565b606082471015620005385760405162461bcd60e51b8152600401808060200182810382526026815260200180620051a96026913960400191505060405180910390fd5b62000543856200065d565b62000595576040805162461bcd60e51b815260206004820152601d60248201527f416464726573733a2063616c6c20746f206e6f6e2d636f6e7472616374000000604482015290519081900360640190fd5b60006060866001600160a01b031685876040518082805190602001908083835b60208310620005d65780518252601f199092019160209182019101620005b5565b6001836020036101000a03801982511681845116808217855250505050505090500191505060006040518083038185875af1925050503d80600081146200063a576040519150601f19603f3d011682016040523d82523d6000602084013e6200063f565b606091505b5090925090506200065282828662000667565b979650505050505050565b803b15155b919050565b606083156200067857508162000414565b825115620006895782518084602001fd5b8160405162461bcd60e51b81526004018080602001828103825283818151815260200191508051906020019080838360005b83811015620006d5578181015183820152602001620006bb565b50505050905090810190601f168015620007035780820380516001836020036101000a031916815260200191505b509250505060405180910390fd5b80516001600160a01b03811681146200066257600080fd5b600080600080600080600080610100898b03121562000746578384fd5b620007518962000711565b97506200076160208a0162000711565b96506200077160408a0162000711565b95506200078160608a0162000711565b94506200079160808a0162000711565b9350620007a160a08a0162000711565b60c08a015160e0909a0151989b979a5095989497939692505050565b64159055531560da1b815260050190565b6a29aaa9a424afaa27a5a2a760a91b8152600b0190565b6b2922aba0a9222faa27a5a2a760a11b8152600c0190565b6b2627a1a5afa6a0a720a3a2a960a11b8152600c0190565b6a26a0a9aa22a92fa1a422a360a91b8152600b0190565b61494d806200083c6000396000f3fe608060405234801561001057600080fd5b50600436106102775760003560e01c806369af90b911610160578063a6f9dae1116100d8578063e1ea3dee1161008c578063f77a3fb911610071578063f77a3fb9146104d5578063f7c618c1146104e8578063fbfa77cf146104f057610277565b8063e1ea3dee146104af578063e2bbb158146104c257610277565b8063b1de8fdc116100bd578063b1de8fdc14610481578063d4614c6314610494578063deedfdbd1461049c57610277565b8063a6f9dae114610466578063acca30a21461047957610277565b806393f1a40b1161012f578063a1003b2911610114578063a1003b291461042b578063a2d9f4dc1461043e578063a519121a1461045157610277565b806393f1a40b146103f65780639a93534f1461041857610277565b806369af90b9146103b557806379f645f0146103c85780638da5cb5b146103db5780638dbb1e3a146103e357610277565b806348cd4cb1116101f35780635312ea8e116101c2578063630b5ba1116101a7578063630b5ba11461038757806364482f791461038f5780636817031b146103a257610277565b80635312ea8e1461035f578063575a86b21461037257610277565b806348cd4cb11461031e5780634cb5969814610326578063515bc3231461033957806351eb05a61461034c57610277565b806317caf6f11161024a57806329d0fa3e1161022f57806329d0fa3e146102f05780633bb82023146102f8578063441a3e701461030b57610277565b806317caf6f1146102d5578063195426ec146102dd57610277565b8063081e3eda1461027c578063083c63231461029a5780630aaf0d4c146102a25780631526fe27146102ac575b600080fd5b6102846104f8565b60405161029191906147b3565b60405180910390f35b6102846104fe565b6102aa610504565b005b6102bf6102ba366004614129565b610568565b6040516102919a999897969594939291906144d1565b6102846105fb565b6102846102eb366004614159565b610601565b610284610a96565b610284610306366004614159565b610a9c565b6102aa61031936600461422d565b610bb5565b610284610cb1565b6102aa610334366004614188565b610cb7565b6102aa610347366004614279565b611041565b6102aa61035a366004614129565b61119c565b6102aa61036d366004614129565b611253565b61037a611518565b604051610291919061439d565b6102aa611534565b6102aa61039d36600461424e565b611552565b6102aa6103b0366004613f19565b611678565b6102846103c3366004613f19565b61176a565b6102aa6103d6366004613fee565b61177c565b61037a61192a565b6102846103f136600461422d565b611946565b610409610404366004614159565b61197e565b604051610291939291906147ca565b6102aa610426366004613f60565b6119aa565b6102aa610439366004614129565b611cac565b6102aa61044c366004613f19565b611d39565b610459611e2b565b60405161029191906144c6565b6102aa610474366004613f19565b611e62565b61037a611fb2565b6102aa61048f366004614129565b611fce565b61037a61204c565b6102aa6104aa366004613f19565b612068565b6102aa6104bd366004613f19565b61215a565b6102aa6104d036600461422d565b61224c565b6102aa6104e3366004613f35565b612307565b61037a612403565b61037a61241f565b60085490565b600d5481565b60015473ffffffffffffffffffffffffffffffffffffffff16331461055e576040517f08c379a00000000000000000000000000000000000000000000000000000000081526004016105559061477c565b60405180910390fd5b610566612612565b565b6008818154811061057857600080fd5b6000918252602090912060079091020180546001820154600283015460038401546004850154600586015460069096015473ffffffffffffffffffffffffffffffffffffffff909516965092949193909263ffffffff81169261ffff64010000000083048116936601000000000000909304169160ff808216916101009004168a565b600b5481565b6000806008848154811061061157fe5b60009182526020808320878452600a8252604080852073ffffffffffffffffffffffffffffffffffffffff808a168752908452818620600790950290920180549092168552600990925292205491925090806106735760009350505050610a90565b61067b613df7565b600480546040517f1526fe2700000000000000000000000000000000000000000000000000000000815273ffffffffffffffffffffffffffffffffffffffff90911691631526fe27916106d0918691016147b3565b60806040518083038186803b1580156106e857600080fd5b505afa1580156106fc573d6000803e3d6000fd5b505050506040513d601f19601f8201168201806040525081019061072091906140c1565b90506000600460009054906101000a900473ffffffffffffffffffffffffffffffffffffffff1673ffffffffffffffffffffffffffffffffffffffff1663b0bcf42a6040518163ffffffff1660e01b815260040160206040518083038186803b15801561078c57600080fd5b505afa1580156107a0573d6000803e3d6000fd5b505050506040513d601f19601f820116820180604052508101906107c49190614141565b90506000600460009054906101000a900473ffffffffffffffffffffffffffffffffffffffff1673ffffffffffffffffffffffffffffffffffffffff166317caf6f16040518163ffffffff1660e01b815260040160206040518083038186803b15801561083057600080fd5b505afa158015610844573d6000803e3d6000fd5b505050506040513d601f19601f820116820180604052508101906108689190614141565b60608401518451600480546040517f70a08231000000000000000000000000000000000000000000000000000000008152949550929360009373ffffffffffffffffffffffffffffffffffffffff938416936370a08231936108cf9392909116910161439d565b60206040518083038186803b1580156108e757600080fd5b505afa1580156108fb573d6000803e3d6000fd5b505050506040513d601f19601f8201168201806040525081019061091f9190614141565b905084604001514311801561093357508015155b15610a3a576004805460408088015190517f8dbb1e3a00000000000000000000000000000000000000000000000000000000815260009373ffffffffffffffffffffffffffffffffffffffff90931692638dbb1e3a926109979290914391016147bc565b60206040518083038186803b1580156109af57600080fd5b505afa1580156109c3573d6000803e3d6000fd5b505050506040513d601f19601f820116820180604052508101906109e79190614141565b90506000610a1685610a108960200151610a0a8a8761273d90919063ffffffff16565b9061273d565b906127b0565b9050610a35610a2e84610a108464e8d4a5100061273d565b8590612588565b935050505b8654600090610a549064e8d4a5100090610a10908661273d565b90508760020154811015610a745760009950505050505050505050610a90565b6002880154610a849082906127f2565b99505050505050505050505b92915050565b60075481565b60008060088481548110610aac57fe5b60009182526020808320878452600a8252604080852073ffffffffffffffffffffffffffffffffffffffff891686529092529220600360079092029092019081015460058201546002830154929450909143118015610b0a57508015155b15610b63576000610b1f856002015443611946565b90506000610b46600b54610a108860010154610a0a6007548761273d90919063ffffffff16565b9050610b5e610a2e84610a108464e8d4a5100061273d565b935050505b8254600090610b7d9064e8d4a5100090610a10908661273d565b90508360010154811015610b9957600095505050505050610a90565b6001840154610ba99082906127f2565b98975050505050505050565b60026000541415610c2757604080517f08c379a000000000000000000000000000000000000000000000000000000000815260206004820152601f60248201527f5265656e7472616e637947756172643a207265656e7472616e742063616c6c00604482015290519081900360640190fd5b600260005580610c63576040517f08c379a00000000000000000000000000000000000000000000000000000000081526004016105559061453f565b600060088381548110610c7257fe5b60009182526020808320868452600a82526040808520338652909252922060079091029091019150610ca684848484612834565b505060016000555050565b600c5481565b60015473ffffffffffffffffffffffffffffffffffffffff163314610d08576040517f08c379a00000000000000000000000000000000000000000000000000000000081526004016105559061477c565b8315610d1657610d16611534565b6000600c544311610d2957600c54610d2b565b435b9050600b5460001415610d4057610d40612612565b600b54610d4d908b612588565b600b8190555060086040518061014001604052808b73ffffffffffffffffffffffffffffffffffffffff1681526020018c8152602001838152602001600081526020018a63ffffffff1681526020018961ffff1681526020018861ffff168152602001600081526020018515158152602001841515815250908060018154018082558091505060019003906000526020600020906007020160009091909190915060008201518160000160006101000a81548173ffffffffffffffffffffffffffffffffffffffff021916908373ffffffffffffffffffffffffffffffffffffffff16021790555060208201518160010155604082015181600201556060820151816003015560808201518160040160006101000a81548163ffffffff021916908363ffffffff16021790555060a08201518160040160046101000a81548161ffff021916908361ffff16021790555060c08201518160040160066101000a81548161ffff021916908361ffff16021790555060e082015181600501556101008201518160060160006101000a81548160ff0219169083151502179055506101208201518160060160016101000a81548160ff021916908315150217905550505060008414610f6d5773ffffffffffffffffffffffffffffffffffffffff808a166000818152600960205260409020869055600454610f6d92167fffffffffffffffffffffffffffffffffffffffffffffffffffffffffffffffff61243b565b600554610fb49073ffffffffffffffffffffffffffffffffffffffff8b811691167fffffffffffffffffffffffffffffffffffffffffffffffffffffffffffffffff61243b565b600854600b5460405173ffffffffffffffffffffffffffffffffffffffff8c16927fffffffffffffffffffffffffffffffffffffffffffffffffffffffffffffffff01917fcd9dd3b9c8ad5dc0bb8a3af1af7ead00b197d8341021a209fb64b736abe815b19161102d918f9187908b908b908b906147e0565b60405180910390a350505050505050505050565b600260005414156110b357604080517f08c379a000000000000000000000000000000000000000000000000000000000815260206004820152601f60248201527f5265656e7472616e637947756172643a207265656e7472616e742063616c6c00604482015290519081900360640190fd5b6002600090815560088054889081106110c857fe5b600091825260208083208a8452600a8252604080852033808752935293849020600790930201805493517fd505accf000000000000000000000000000000000000000000000000000000008152909450919273ffffffffffffffffffffffffffffffffffffffff169163d505accf9161114f9130908c908c908c908c908c906004016143ef565b600060405180830381600087803b15801561116957600080fd5b505af115801561117d573d6000803e3d6000fd5b5050505061118d88888484612d57565b50506001600055505050505050565b6000600882815481106111ab57fe5b90600052602060002090600702019050806002015443116111cc5750611250565b6005810154806111e3575043600290910155611250565b60006111f3836002015443611946565b9050600061121a600b54610a108660010154610a0a6007548761273d90919063ffffffff16565b905061123d61123284610a108464e8d4a5100061273d565b600386015490612588565b6003850155505043600290920191909155505b50565b600260005414156112c557604080517f08c379a000000000000000000000000000000000000000000000000000000000815260206004820152601f60248201527f5265656e7472616e637947756172643a207265656e7472616e742063616c6c00604482015290519081900360640190fd5b6002600090815560088054839081106112da57fe5b60009182526020808320858452600a8252604080852033865290925292208054600790920290920192501561150e57815473ffffffffffffffffffffffffffffffffffffffff1660009081526009602052604090205480156113c2576004805483546040517f441a3e7000000000000000000000000000000000000000000000000000000000815273ffffffffffffffffffffffffffffffffffffffff9092169263441a3e709261138f9286929091016147bc565b600060405180830381600087803b1580156113a957600080fd5b505af11580156113bd573d6000803e3d6000fd5b505050505b600683015460ff161561148257600654835483546040517fbc3e1b7a00000000000000000000000000000000000000000000000000000000815273ffffffffffffffffffffffffffffffffffffffff9384169363bc3e1b7a9361142e93339392909116916004016143be565b602060405180830381600087803b15801561144857600080fd5b505af115801561145c573d6000803e3d6000fd5b505050506040513d601f19601f820116820180604052508101906114809190614141565b505b81546005840154611492916127f2565b6005840155815483546114bf9173ffffffffffffffffffffffffffffffffffffffff9091169033906132c8565b8154604051859133917fbb757047c2b5f3974fe26b7c10f732e7bce710b0952a71082702781e62ae0595916114f3916147b3565b60405180910390a35060008082556001820181905560028201555b5050600160005550565b60045473ffffffffffffffffffffffffffffffffffffffff1681565b60005b6008548110156112505761154a8161119c565b600101611537565b60015473ffffffffffffffffffffffffffffffffffffffff1633146115a3576040517f08c379a00000000000000000000000000000000000000000000000000000000081526004016105559061477c565b80156115b1576115b1611534565b6115ee826115e8600886815481106115c557fe5b906000526020600020906007020160010154600b546127f290919063ffffffff16565b90612588565b600b81905550827fb0a2ded49817748754bcca0474b24011f01d4574dd5c40e14197ffa2e6540fef6008858154811061162357fe5b90600052602060002090600702016001015484600b54604051611648939291906147ca565b60405180910390a2816008848154811061165e57fe5b906000526020600020906007020160010181905550505050565b60015473ffffffffffffffffffffffffffffffffffffffff1633146116c9576040517f08c379a00000000000000000000000000000000000000000000000000000000081526004016105559061477c565b60055460405173ffffffffffffffffffffffffffffffffffffffff8084169216906116f3906142d0565b604051908190038120907f629c91fc9de3db5e699d8bad8523995c8e14e7f52fb91b49725e6625f2ea45f490600090a4600580547fffffffffffffffffffffffff00000000000000000000000000000000000000001673ffffffffffffffffffffffffffffffffffffffff92909216919091179055565b60096020526000908152604090205481565b60015473ffffffffffffffffffffffffffffffffffffffff1633146117cd576040517f08c379a00000000000000000000000000000000000000000000000000000000081526004016105559061477c565b8151835114611808576040517f08c379a000000000000000000000000000000000000000000000000000000000815260040161055590614745565b60005b835181101561192457600084828151811061182257fe5b602002602001015190507fffffffffffffffffffffffffffffffffffffffffffffffffffffffffffffffff8173ffffffffffffffffffffffffffffffffffffffff1663dd62ed3e30866040518363ffffffff1660e01b815260040161188892919061443d565b60206040518083038186803b1580156118a057600080fd5b505afa1580156118b4573d6000803e3d6000fd5b505050506040513d601f19601f820116820180604052508101906118d89190614141565b1461191b5761191b838584815181106118ed57fe5b60200260200101518373ffffffffffffffffffffffffffffffffffffffff1661335a9092919063ffffffff16565b5060010161180b565b50505050565b60015473ffffffffffffffffffffffffffffffffffffffff1681565b600080600d548311611958578261195c565b600d545b905083811161196c576000611976565b61197681856127f2565b949350505050565b600a60209081526000928352604080842090915290825290208054600182015460029092015490919083565b60015473ffffffffffffffffffffffffffffffffffffffff1633146119fb576040517f08c379a00000000000000000000000000000000000000000000000000000000081526004016105559061477c565b848314611a34576040517f08c379a00000000000000000000000000000000000000000000000000000000081526004016105559061462e565b60005b85811015611c95576000878783818110611a4d57fe5b9050602002016020810190611a629190613f19565b90506000808273ffffffffffffffffffffffffffffffffffffffff166370a08231306040518263ffffffff1660e01b8152600401611aa0919061439d565b60206040518083038186803b158015611ab857600080fd5b505afa158015611acc573d6000803e3d6000fd5b505050506040513d601f19601f82011682018060405250810190611af09190614141565b905060008373ffffffffffffffffffffffffffffffffffffffff1663dd62ed3e30896040518363ffffffff1660e01b8152600401611b2f92919061443d565b60206040518083038186803b158015611b4757600080fd5b505afa158015611b5b573d6000803e3d6000fd5b505050506040513d601f19601f82011682018060405250810190611b7f9190614141565b9050888886818110611b8d57fe5b9050602002013560001415611bb55780821115611bac57809250611bb0565b8192505b611c63565b888886818110611bc157fe5b90506020020135821015611c01576040517f08c379a0000000000000000000000000000000000000000000000000000000008152600401610555906146e8565b888886818110611c0d57fe5b90506020020135811015611c4d576040517f08c379a00000000000000000000000000000000000000000000000000000000081526004016105559061468b565b888886818110611c5957fe5b9050602002013592505b611c8573ffffffffffffffffffffffffffffffffffffffff85163089866134e8565b505060019092019150611a379050565b508015611ca457611ca4612612565b505050505050565b60015473ffffffffffffffffffffffffffffffffffffffff163314611cfd576040517f08c379a00000000000000000000000000000000000000000000000000000000081526004016105559061477c565b6007546040518291907f946161e5739a4430df1991fae9a81c63724a1971bf00a784a024333d7a7489eb90600090a36007819055611250612612565b60015473ffffffffffffffffffffffffffffffffffffffff163314611d8a576040517f08c379a00000000000000000000000000000000000000000000000000000000081526004016105559061477c565b60045460405173ffffffffffffffffffffffffffffffffffffffff808416921690611db490614374565b604051908190038120907f629c91fc9de3db5e699d8bad8523995c8e14e7f52fb91b49725e6625f2ea45f490600090a4600480547fffffffffffffffffffffffff00000000000000000000000000000000000000001673ffffffffffffffffffffffffffffffffffffffff92909216919091179055565b6000600c544310158015611e415750600d544311155b8015611e4f57506000600b54115b611e5a576000611e5d565b60015b905090565b60015473ffffffffffffffffffffffffffffffffffffffff163314611eb3576040517f08c379a00000000000000000000000000000000000000000000000000000000081526004016105559061477c565b73ffffffffffffffffffffffffffffffffffffffff811615801590611eee575073ffffffffffffffffffffffffffffffffffffffff81163014155b611f24576040517f08c379a000000000000000000000000000000000000000000000000000000000815260040161055590614574565b60015460405173ffffffffffffffffffffffffffffffffffffffff8084169216907f2748503f8f31d8071821d1d5144384ba6a465036cda17fa1629a8a2509ccee0e90600090a3600180547fffffffffffffffffffffffff00000000000000000000000000000000000000001673ffffffffffffffffffffffffffffffffffffffff92909216919091179055565b60065473ffffffffffffffffffffffffffffffffffffffff1681565b60015473ffffffffffffffffffffffffffffffffffffffff16331461201f576040517f08c379a00000000000000000000000000000000000000000000000000000000081526004016105559061477c565b6002546120449073ffffffffffffffffffffffffffffffffffffffff163330846134e8565b611250612612565b60035473ffffffffffffffffffffffffffffffffffffffff1681565b60015473ffffffffffffffffffffffffffffffffffffffff1633146120b9576040517f08c379a00000000000000000000000000000000000000000000000000000000081526004016105559061477c565b60065460405173ffffffffffffffffffffffffffffffffffffffff8084169216906120e39061434b565b604051908190038120907f629c91fc9de3db5e699d8bad8523995c8e14e7f52fb91b49725e6625f2ea45f490600090a4600680547fffffffffffffffffffffffff00000000000000000000000000000000000000001673ffffffffffffffffffffffffffffffffffffffff92909216919091179055565b60015473ffffffffffffffffffffffffffffffffffffffff1633146121ab576040517f08c379a00000000000000000000000000000000000000000000000000000000081526004016105559061477c565b60035460405173ffffffffffffffffffffffffffffffffffffffff8084169216906121d5906142f9565b604051908190038120907f629c91fc9de3db5e699d8bad8523995c8e14e7f52fb91b49725e6625f2ea45f490600090a4600380547fffffffffffffffffffffffff00000000000000000000000000000000000000001673ffffffffffffffffffffffffffffffffffffffff92909216919091179055565b600260005414156122be57604080517f08c379a000000000000000000000000000000000000000000000000000000000815260206004820152601f60248201527f5265656e7472616e637947756172643a207265656e7472616e742063616c6c00604482015290519081900360640190fd5b6002600090815560088054849081106122d357fe5b60009182526020808320868452600a82526040808520338652909252922060079091029091019150610ca684848484612d57565b60015473ffffffffffffffffffffffffffffffffffffffff163314612358576040517f08c379a00000000000000000000000000000000000000000000000000000000081526004016105559061477c565b60025460405173ffffffffffffffffffffffffffffffffffffffff80851692169061238290614322565b604051908190038120907f629c91fc9de3db5e699d8bad8523995c8e14e7f52fb91b49725e6625f2ea45f490600090a4600280547fffffffffffffffffffffffff00000000000000000000000000000000000000001673ffffffffffffffffffffffffffffffffffffffff841617905560078190556123ff612612565b5050565b60025473ffffffffffffffffffffffffffffffffffffffff1681565b60055473ffffffffffffffffffffffffffffffffffffffff1681565b60006124f8828573ffffffffffffffffffffffffffffffffffffffff1663dd62ed3e30876040518363ffffffff1660e01b8152600401808373ffffffffffffffffffffffffffffffffffffffff1681526020018273ffffffffffffffffffffffffffffffffffffffff1681526020019250505060206040518083038186803b1580156124c657600080fd5b505afa1580156124da573d6000803e3d6000fd5b505050506040513d60208110156124f057600080fd5b505190612588565b6040805173ffffffffffffffffffffffffffffffffffffffff8616602482015260448082018490528251808303909101815260649091019091526020810180517bffffffffffffffffffffffffffffffffffffffffffffffffffffffff167f095ea7b300000000000000000000000000000000000000000000000000000000179052909150611924908590613579565b6000828201838110156125fc57604080517f08c379a000000000000000000000000000000000000000000000000000000000815260206004820152601b60248201527f536166654d6174683a206164646974696f6e206f766572666c6f770000000000604482015290519081900360640190fd5b9392505050565b60606119768484600085613651565b60075415610566576000600c5443101561262e57600c54612630565b435b6007546002546040517f70a082310000000000000000000000000000000000000000000000000000000081529293506000926126f0926126e992909173ffffffffffffffffffffffffffffffffffffffff909116906370a082319061269990309060040161439d565b60206040518083038186803b1580156126b157600080fd5b505afa1580156126c5573d6000803e3d6000fd5b505050506040513d601f19601f82011682018060405250810190610a109190614141565b8390612588565b905081811180156127035750600d548114155b156123ff57600d546040518291907f55672025ea9236922cf8eb88fd9e344bd872c4c1289101e4c9a2bc0f0b1655f190600090a3600d5550565b60008261274c57506000610a90565b8282028284828161275957fe5b04146125fc576040517f08c379a00000000000000000000000000000000000000000000000000000000081526004018080602001828103825260218152602001806148976021913960400191505060405180910390fd5b60006125fc83836040518060400160405280601a81526020017f536166654d6174683a206469766973696f6e206279207a65726f00000000000081525061380c565b60006125fc83836040518060400160405280601f81526020017f536166654d6174683a207375627472616374696f6e20756e646572666c6f77008152506138c8565b805483111561286f576040517f08c379a0000000000000000000000000000000000000000000000000000000008152600401610555906145d1565b6128788461119c565b815473ffffffffffffffffffffffffffffffffffffffff166000908152600960205260409020548015612b6357600480546040517f51eb05a600000000000000000000000000000000000000000000000000000000815273ffffffffffffffffffffffffffffffffffffffff909116916351eb05a6916128fa918591016147b3565b600060405180830381600087803b15801561291457600080fd5b505af1158015612928573d6000803e3d6000fd5b505050506002820154600480546040517f1526fe270000000000000000000000000000000000000000000000000000000081526000936129fe9390926129f89264e8d4a5100092610a109273ffffffffffffffffffffffffffffffffffffffff1691631526fe279161299c918b91016147b3565b60806040518083038186803b1580156129b457600080fd5b505afa1580156129c8573d6000803e3d6000fd5b505050506040513d601f19601f820116820180604052508101906129ec91906140c1565b6060015188549061273d565b906127f2565b600480546040517f441a3e7000000000000000000000000000000000000000000000000000000000815292935073ffffffffffffffffffffffffffffffffffffffff169163441a3e7091612a569186918a91016147bc565b600060405180830381600087803b158015612a7057600080fd5b505af1158015612a84573d6000803e3d6000fd5b5050600480546040517f1526fe27000000000000000000000000000000000000000000000000000000008152612b4c945064e8d4a510009350610a109273ffffffffffffffffffffffffffffffffffffffff90921691631526fe2791612aec918991016147b3565b60806040518083038186803b158015612b0457600080fd5b505afa158015612b18573d6000803e3d6000fd5b505050506040513d601f19601f82011682018060405250810190612b3c91906140c1565b606001518654610a0a908a6127f2565b60028401558015612b6157612b61338261393c565b505b6000612b9183600101546129f864e8d4a51000610a108860030154886000015461273d90919063ffffffff16565b8354909150612ba090866127f2565b8084556003850154612bbd9164e8d4a5100091610a10919061273d565b60018401558015612c0a5760048401546006850154612c0a913391849163ffffffff81169161ffff640100000000830481169266010000000000009004169060ff61010090910416613a3a565b600684015460ff1615612cc95760065484546040517fbc3e1b7a00000000000000000000000000000000000000000000000000000000815273ffffffffffffffffffffffffffffffffffffffff9283169263bc3e1b7a92612c75923392909116908a906004016143be565b602060405180830381600087803b158015612c8f57600080fd5b505af1158015612ca3573d6000803e3d6000fd5b505050506040513d601f19601f82011682018060405250810190612cc79190614141565b505b6005840154612cd890866127f2565b60058501558354612d009073ffffffffffffffffffffffffffffffffffffffff1633876132c8565b853373ffffffffffffffffffffffffffffffffffffffff167ff279e6a1f5e320cca91135676d9cb6e44ca8a08c0b88342bcdb1144f6511b56887604051612d4791906147b3565b60405180910390a3505050505050565b612d608461119c565b815473ffffffffffffffffffffffffffffffffffffffff16600090815260096020526040812054825490919015612f64576000612dbf84600101546129f864e8d4a51000610a108960030154896000015461273d90919063ffffffff16565b90508015612e095760048501546006860154612e09913391849163ffffffff81169161ffff640100000000830481169266010000000000009004169060ff61010090910416613a3a565b8215612f6257600480546040517f51eb05a600000000000000000000000000000000000000000000000000000000815273ffffffffffffffffffffffffffffffffffffffff909116916351eb05a691612e64918791016147b3565b600060405180830381600087803b158015612e7e57600080fd5b505af1158015612e92573d6000803e3d6000fd5b5050506002850154600480546040517f1526fe27000000000000000000000000000000000000000000000000000000008152612f5f94506129f89264e8d4a5100092610a109273ffffffffffffffffffffffffffffffffffffffff90911691631526fe2791612f03918c91016147b3565b60806040518083038186803b158015612f1b57600080fd5b505afa158015612f2f573d6000803e3d6000fd5b505050506040513d601f19601f82011682018060405250810190612f5391906140c1565b6060015189549061273d565b91505b505b8354612f889073ffffffffffffffffffffffffffffffffffffffff163330886134e8565b6005840154612f979086612588565b60058501558254612fa89086612588565b8084556003850154612fc59164e8d4a5100091610a10919061273d565b600184015581156131a657600480546040517f51eb05a600000000000000000000000000000000000000000000000000000000815273ffffffffffffffffffffffffffffffffffffffff909116916351eb05a691613025918691016147b3565b600060405180830381600087803b15801561303f57600080fd5b505af1158015613053573d6000803e3d6000fd5b5050600480546040517f1526fe27000000000000000000000000000000000000000000000000000000008152613117945064e8d4a510009350610a109273ffffffffffffffffffffffffffffffffffffffff90921691631526fe27916130bb918991016147b3565b60806040518083038186803b1580156130d357600080fd5b505afa1580156130e7573d6000803e3d6000fd5b505050506040513d601f19601f8201168201806040525081019061310b91906140c1565b6060015186549061273d565b6002840155600480546040517fe2bbb15800000000000000000000000000000000000000000000000000000000815273ffffffffffffffffffffffffffffffffffffffff9091169163e2bbb158916131739186918a91016147bc565b600060405180830381600087803b15801561318d57600080fd5b505af11580156131a1573d6000803e3d6000fd5b505050505b6000851180156131ba5750600684015460ff165b156132715760065484546040517fbc61256e00000000000000000000000000000000000000000000000000000000815273ffffffffffffffffffffffffffffffffffffffff9283169263bc61256e9261321d923392909116908a906004016143be565b602060405180830381600087803b15801561323757600080fd5b505af115801561324b573d6000803e3d6000fd5b505050506040513d601f19601f8201168201806040525081019061326f9190614141565b505b801561328157613281338261393c565b853373ffffffffffffffffffffffffffffffffffffffff167f90890809c654f11d6e72a28fa60149770a0d11ec6c92319d6ceb2bb0a4ea1a1587604051612d4791906147b3565b6040805173ffffffffffffffffffffffffffffffffffffffff8416602482015260448082018490528251808303909101815260649091019091526020810180517bffffffffffffffffffffffffffffffffffffffffffffffffffffffff167fa9059cbb00000000000000000000000000000000000000000000000000000000179052613355908490613579565b505050565b8015806134065750604080517fdd62ed3e00000000000000000000000000000000000000000000000000000000815230600482015273ffffffffffffffffffffffffffffffffffffffff848116602483015291519185169163dd62ed3e91604480820192602092909190829003018186803b1580156133d857600080fd5b505afa1580156133ec573d6000803e3d6000fd5b505050506040513d602081101561340257600080fd5b5051155b61345b576040517f08c379a00000000000000000000000000000000000000000000000000000000081526004018080602001828103825260368152602001806148e26036913960400191505060405180910390fd5b6040805173ffffffffffffffffffffffffffffffffffffffff8416602482015260448082018490528251808303909101815260649091019091526020810180517bffffffffffffffffffffffffffffffffffffffffffffffffffffffff167f095ea7b300000000000000000000000000000000000000000000000000000000179052613355908490613579565b6040805173ffffffffffffffffffffffffffffffffffffffff80861660248301528416604482015260648082018490528251808303909101815260849091019091526020810180517bffffffffffffffffffffffffffffffffffffffffffffffffffffffff167f23b872dd000000000000000000000000000000000000000000000000000000001790526119249085905b60606135db826040518060400160405280602081526020017f5361666545524332303a206c6f772d6c6576656c2063616c6c206661696c65648152508573ffffffffffffffffffffffffffffffffffffffff166126039092919063ffffffff16565b805190915015613355578080602001905160208110156135fa57600080fd5b5051613355576040517f08c379a000000000000000000000000000000000000000000000000000000000815260040180806020018281038252602a8152602001806148b8602a913960400191505060405180910390fd5b6060824710156136ac576040517f08c379a00000000000000000000000000000000000000000000000000000000081526004018080602001828103825260268152602001806148716026913960400191505060405180910390fd5b6136b585613c74565b61372057604080517f08c379a000000000000000000000000000000000000000000000000000000000815260206004820152601d60248201527f416464726573733a2063616c6c20746f206e6f6e2d636f6e7472616374000000604482015290519081900360640190fd5b600060608673ffffffffffffffffffffffffffffffffffffffff1685876040518082805190602001908083835b6020831061378a57805182527fffffffffffffffffffffffffffffffffffffffffffffffffffffffffffffffe0909201916020918201910161374d565b6001836020036101000a03801982511681845116808217855250505050505090500191505060006040518083038185875af1925050503d80600081146137ec576040519150601f19603f3d011682016040523d82523d6000602084013e6137f1565b606091505b5091509150613801828286613c7e565b979650505050505050565b600081836138b2576040517f08c379a00000000000000000000000000000000000000000000000000000000081526004018080602001828103825283818151815260200191508051906020019080838360005b8381101561387757818101518382015260200161385f565b50505050905090810190601f1680156138a45780820380516001836020036101000a031916815260200191505b509250505060405180910390fd5b5060008385816138be57fe5b0495945050505050565b60008184841115613934576040517f08c379a000000000000000000000000000000000000000000000000000000000815260206004820181815283516024840152835190928392604490910191908501908083836000831561387757818101518382015260200161385f565b505050900390565b6003546040517f70a0823100000000000000000000000000000000000000000000000000000000815260009173ffffffffffffffffffffffffffffffffffffffff16906370a082319061399390309060040161439d565b60206040518083038186803b1580156139ab57600080fd5b505afa1580156139bf573d6000803e3d6000fd5b505050506040513d601f19601f820116820180604052508101906139e39190614141565b905080821115613a1657600354613a119073ffffffffffffffffffffffffffffffffffffffff1684836132c8565b613355565b6003546133559073ffffffffffffffffffffffffffffffffffffffff1684846132c8565b6002546040517f70a0823100000000000000000000000000000000000000000000000000000000815260009173ffffffffffffffffffffffffffffffffffffffff16906370a0823190613a9190309060040161439d565b60206040518083038186803b158015613aa957600080fd5b505afa158015613abd573d6000803e3d6000fd5b505050506040513d601f19601f82011682018060405250810190613ae19190614141565b8611613aed5785613b93565b6002546040517f70a0823100000000000000000000000000000000000000000000000000000000815273ffffffffffffffffffffffffffffffffffffffff909116906370a0823190613b4390309060040161439d565b60206040518083038186803b158015613b5b57600080fd5b505afa158015613b6f573d6000803e3d6000fd5b505050506040513d601f19601f82011682018060405250810190613b939190614141565b90506000613bb1620f4240610a108463ffffffff808b169061273d16565b6005546002546040517f19ac0d9000000000000000000000000000000000000000000000000000000000815292935073ffffffffffffffffffffffffffffffffffffffff918216926319ac0d9092613c1c92169030908d9060009088908d908d908d90600401614464565b600060405180830381600087803b158015613c3657600080fd5b505af1158015613c4a573d6000803e3d6000fd5b50505050613c6a33613c6583856127f290919063ffffffff16565b613cfe565b5050505050505050565b803b15155b919050565b60608315613c8d5750816125fc565b825115613c9d5782518084602001fd5b6040517f08c379a000000000000000000000000000000000000000000000000000000000815260206004820181815284516024840152845185939192839260440191908501908083836000831561387757818101518382015260200161385f565b6002546040517f70a0823100000000000000000000000000000000000000000000000000000000815260009173ffffffffffffffffffffffffffffffffffffffff16906370a0823190613d5590309060040161439d565b60206040518083038186803b158015613d6d57600080fd5b505afa158015613d81573d6000803e3d6000fd5b505050506040513d601f19601f82011682018060405250810190613da59190614141565b905080821115613dd357600254613a119073ffffffffffffffffffffffffffffffffffffffff1684836132c8565b6002546133559073ffffffffffffffffffffffffffffffffffffffff1684846132c8565b6040518060800160405280600073ffffffffffffffffffffffffffffffffffffffff1681526020016000815260200160008152602001600081525090565b8035613c798161484e565b60008083601f840112613e51578182fd5b50813567ffffffffffffffff811115613e68578182fd5b6020830191508360208083028501011115613e8257600080fd5b9250929050565b600082601f830112613e99578081fd5b8135613eac613ea782614830565b61480c565b818152915060208083019084810181840286018201871015613ecd57600080fd5b60005b84811015613eec57813584529282019290820190600101613ed0565b505050505092915050565b80358015158114613c7957600080fd5b803561ffff81168114613c7957600080fd5b600060208284031215613f2a578081fd5b81356125fc8161484e565b60008060408385031215613f47578081fd5b8235613f528161484e565b946020939093013593505050565b60008060008060008060808789031215613f78578182fd5b863567ffffffffffffffff80821115613f8f578384fd5b613f9b8a838b01613e40565b90985096506020890135915080821115613fb3578384fd5b50613fc089828a01613e40565b9095509350506040870135613fd48161484e565b9150613fe260608801613ef7565b90509295509295509295565b600080600060608486031215614002578283fd5b833567ffffffffffffffff80821115614019578485fd5b818601915086601f83011261402c578485fd5b813561403a613ea782614830565b80828252602080830192508086018b82838702890101111561405a57898afd5b8996505b848710156140855780356140718161484e565b84526001969096019592810192810161405e565b50909750880135935050508082111561409c578384fd5b506140a986828701613e89565b9250506140b860408501613e35565b90509250925092565b6000608082840312156140d2578081fd5b6040516080810181811067ffffffffffffffff821117156140ef57fe5b60405282516140fd8161484e565b808252506020830151602082015260408301516040820152606083015160608201528091505092915050565b60006020828403121561413a578081fd5b5035919050565b600060208284031215614152578081fd5b5051919050565b6000806040838503121561416b578182fd5b82359150602083013561417d8161484e565b809150509250929050565b60008060008060008060008060006101208a8c0312156141a6578283fd5b8935985060208a01356141b88161484e565b975060408a013563ffffffff811681146141d0578384fd5b96506141de60608b01613f07565b95506141ec60808b01613f07565b94506141fa60a08b01613ef7565b935060c08a0135925061420f60e08b01613ef7565b915061421e6101008b01613ef7565b90509295985092959850929598565b6000806040838503121561423f578182fd5b50508035926020909101359150565b600080600060608486031215614262578081fd5b83359250602084013591506140b860408501613ef7565b60008060008060008060c08789031215614291578384fd5b863595506020870135945060408701359350606087013560ff811681146142b6578283fd5b9598949750929560808101359460a0909101359350915050565b7f5641554c54000000000000000000000000000000000000000000000000000000815260050190565b7f53555348495f544f4b454e0000000000000000000000000000000000000000008152600b0190565b7f5245574152445f544f4b454e00000000000000000000000000000000000000008152600c0190565b7f4c4f434b5f4d414e4147455200000000000000000000000000000000000000008152600c0190565b7f4d41535445525f434845460000000000000000000000000000000000000000008152600b0190565b73ffffffffffffffffffffffffffffffffffffffff91909116815260200190565b73ffffffffffffffffffffffffffffffffffffffff9384168152919092166020820152604081019190915260600190565b73ffffffffffffffffffffffffffffffffffffffff97881681529590961660208601526040850193909352606084019190915260ff16608083015260a082015260c081019190915260e00190565b73ffffffffffffffffffffffffffffffffffffffff92831681529116602082015260400190565b73ffffffffffffffffffffffffffffffffffffffff9889168152968816602088015294909616604086015265ffffffffffff929092166060850152608084015261ffff90811660a084015290921660c082015290151560e08201526101000190565b901515815260200190565b73ffffffffffffffffffffffffffffffffffffffff9a909a168a5260208a01989098526040890196909652606088019490945263ffffffff92909216608087015261ffff90811660a08701521660c085015260e0840152151561010083015215156101208201526101400190565b6020808252818101527f524d3a3a77697468647261773a20616d6f756e74206d757374206265203e2030604082015260600190565b60208082526022908201527f524d3a3a6368616e67654f776e65723a206e6f742076616c696420616464726560408201527f7373000000000000000000000000000000000000000000000000000000000000606082015260800190565b60208082526024908201527f524d3a3a5f77697468647261773a20616d6f756e74203e20757365722062616c60408201527f616e636500000000000000000000000000000000000000000000000000000000606082015260800190565b60208082526021908201527f524d3a3a726573637565546f6b656e733a206e6f742073616d65206c656e677460408201527f6800000000000000000000000000000000000000000000000000000000000000606082015260800190565b6020808252602a908201527f524d3a3a726573637565546f6b656e733a20696e63726561736520746f6b656e60408201527f20616c6c6f77616e636500000000000000000000000000000000000000000000606082015260800190565b6020808252602a908201527f524d3a3a726573637565546f6b656e733a20636f6e74726163742062616c616e60408201527f636520746f6f206c6f7700000000000000000000000000000000000000000000606082015260800190565b6020808252601f908201527f524d3a3a746f6b656e416c6c6f773a206e6f742073616d65206c656e67746800604082015260600190565b60208082526009908201527f6e6f74206f776e65720000000000000000000000000000000000000000000000604082015260600190565b90815260200190565b918252602082015260400190565b9283526020830191909152604082015260600190565b95865260208601949094526040850192909252606084015215156080830152151560a082015260c00190565b60405181810167ffffffffffffffff8111828210171561482857fe5b604052919050565b600067ffffffffffffffff82111561484457fe5b5060209081020190565b73ffffffffffffffffffffffffffffffffffffffff8116811461125057600080fdfe416464726573733a20696e73756666696369656e742062616c616e636520666f722063616c6c536166654d6174683a206d756c7469706c69636174696f6e206f766572666c6f775361666545524332303a204552433230206f7065726174696f6e20646964206e6f7420737563636565645361666545524332303a20617070726f76652066726f6d206e6f6e2d7a65726f20746f206e6f6e2d7a65726f20616c6c6f77616e6365a26469706673582212205cfd3814bb165de11350e4d284201f25e1075891b539f48af91eac41f5f0da9564736f6c63430007040033629c91fc9de3db5e699d8bad8523995c8e14e7f52fb91b49725e6625f2ea45f4416464726573733a20696e73756666696369656e742062616c616e636520666f722063616c6c5361666545524332303a204552433230206f7065726174696f6e20646964206e6f742073756363656564",
  "devdoc": {
    "details": "Controls rewards distribution for network",
    "kind": "dev",
    "methods": {
      "add(uint256,address,uint32,uint16,uint16,bool,uint256,bool,bool)": {
        "details": "Can only be called by the owner. DO NOT add the same token more than once. Rewards will be messed up if you do.",
        "params": {
          "allocPoint": "Number of allocation points to allot to this token/pool",
          "sushiPid": "The pid of the Sushiswap pool in the Masterchef contract (if exists, otherwise provide zero)",
          "token": "The token that will be staked for rewards",
          "vestingCliff": "The number of days for the vesting cliff",
          "vestingPercent": "The percentage of rewards from this pool that will vest",
          "vestingPeriod": "The number of days for the vesting period",
          "vpForDeposit": "If true, users get voting power for deposits",
          "vpForVesting": "If true, users get voting power for vesting balances",
          "withUpdate": "if specified, update all pools before adding new pool"
        }
      },
      "addRewardsBalance(uint256)": {
        "details": "Can only be called by the owner",
        "params": {
          "amount": "amount of tokens to add"
        }
      },
      "changeOwner(address)": {
        "details": "Can only be called by the owner",
        "params": {
          "newOwner": "New owner address"
        }
      },
      "constructor": {
        "params": {
          "_lockManager": "address of LockManager contract",
          "_masterChef": "address of SushiSwap MasterChef contract",
          "_owner": "owner of contract",
          "_rewardToken": "address of token that is being offered as a reward",
          "_rewardTokensPerBlock": "initial amount of reward tokens to be distributed per block",
          "_startBlock": "block number when rewards will start",
          "_sushiToken": "address of SUSHI token",
          "_vault": "address of Vault contract"
        }
      },
      "deposit(uint256,uint256)": {
        "params": {
          "amount": "number of tokens to deposit",
          "pid": "pool id"
        }
      },
      "depositWithPermit(uint256,uint256,uint256,uint8,bytes32,bytes32)": {
        "details": "It is up to the frontend developer to ensure the pool token implements permit - otherwise this will fail",
        "params": {
          "amount": "number of tokens to deposit",
          "deadline": "The time at which to expire the signature",
          "pid": "pool id",
          "r": "Half of the ECDSA signature pair",
          "s": "Half of the ECDSA signature pair",
          "v": "The recovery byte of the signature"
        }
      },
      "emergencyWithdraw(uint256)": {
        "params": {
          "pid": "pool id"
        }
      },
      "getMultiplier(uint256,uint256)": {
        "params": {
          "from": "From block number",
          "to": "To block number"
        },
        "returns": {
          "_0": "multiplier"
        }
      },
      "massUpdatePools()": {
        "details": "Be careful of gas spending!"
      },
      "pendingRewardTokens(uint256,address)": {
        "params": {
          "account": "user account to check",
          "pid": "pool id"
        },
        "returns": {
          "_0": "pending rewards"
        }
      },
      "pendingSushi(uint256,address)": {
        "params": {
          "account": "user account to check",
          "pid": "pool id"
        },
        "returns": {
          "_0": "pending SUSHI rewards"
        }
      },
      "poolLength()": {
        "returns": {
          "_0": "pool length"
        }
      },
      "rescueTokens(address[],uint256[],address,bool)": {
        "details": "Can only be called by the owner",
        "params": {
          "amounts": "the amount of each token to withdraw.  If zero, withdraws the maximum allowed amount for each token",
          "receiver": "the address that will receive the tokens",
          "tokens": "the tokens to withdraw",
          "updateRewardsEndBlock": "if true, update the rewards end block after performing transfers"
        }
      },
      "set(uint256,uint256,bool)": {
        "details": "Can only be called by the owner",
        "params": {
          "allocPoint": "New number of allocation points for pool",
          "pid": "The RewardManager pool id",
          "withUpdate": "if specified, update all pools before setting allocation points"
        }
      },
      "setLockManager(address)": {
        "params": {
          "newAddress": "address of new LockManager"
        }
      },
      "setMasterChef(address)": {
        "details": "Can only be called by the owner",
        "params": {
          "newAddress": "address of new MasterChef"
        }
      },
      "setRewardToken(address,uint256)": {
        "params": {
          "newRewardTokensPerBlock": "new amount of reward token to reward each block",
          "newToken": "address of new reward token"
        }
      },
      "setRewardsPerBlock(uint256)": {
        "details": "Can only be called by the owner",
        "params": {
          "newRewardTokensPerBlock": "new amount of reward token to reward each block"
        }
      },
      "setSushiToken(address)": {
        "details": "Can only be called by the owner",
        "params": {
          "newToken": "address of new SUSHI token"
        }
      },
      "setVault(address)": {
        "params": {
          "newAddress": "address of new Vault"
        }
      },
      "tokenAllow(address[],uint256[],address)": {
        "details": "Can only be called by the owner",
        "params": {
          "approvalAmounts": "the token approval amounts",
          "spender": "the address to allow spending of token",
          "tokensToApprove": "the tokens to approve"
        }
      },
      "updatePool(uint256)": {
        "params": {
          "pid": "pool id"
        }
      },
      "withdraw(uint256,uint256)": {
        "params": {
          "amount": "number of tokens to withdraw",
          "pid": "pool id"
        }
      }
    },
    "title": "RewardsManager",
    "version": 1
  },
  "userdoc": {
    "events": {
      "ChangedAddress(string,address,address)": {
        "notice": "Event emitted when contract address is changed"
      },
      "ChangedOwner(address,address)": {
        "notice": "Event emitted when the owner of the rewards manager contract is updated"
      },
      "ChangedRewardTokensPerBlock(uint256,uint256)": {
        "notice": "Event emitted when the amount of reward tokens per block is updated"
      },
      "ChangedRewardsEndBlock(uint256,uint256)": {
        "notice": "Event emitted when the rewards end block is updated"
      },
      "Deposit(address,uint256,uint256)": {
        "notice": "Event emitted when a user deposits funds in the rewards manager"
      },
      "EmergencyWithdraw(address,uint256,uint256)": {
        "notice": "Event emitted when a user withdraws their original funds from the rewards manager without claiming rewards"
      },
      "PoolAdded(uint256,address,uint256,uint256,uint256,uint256,bool,bool)": {
        "notice": "Event emitted when new pool is added to the rewards manager"
      },
      "PoolUpdated(uint256,uint256,uint256,uint256)": {
        "notice": "Event emitted when pool allocation points are updated"
      },
      "SetRewardsStartBlock(uint256)": {
        "notice": "Event emitted when the rewards start block is set"
      },
      "Withdraw(address,uint256,uint256)": {
        "notice": "Event emitted when a user withdraws their original funds + rewards from the rewards manager"
      }
    },
    "kind": "user",
    "methods": {
      "add(uint256,address,uint32,uint16,uint16,bool,uint256,bool,bool)": {
        "notice": "Add a new reward token to the pool"
      },
      "addRewardsBalance(uint256)": {
        "notice": "Add rewards to contract"
      },
      "changeOwner(address)": {
        "notice": "Change owner of vesting contract"
      },
      "constructor": {
        "notice": "Create a new Rewards Manager contract"
      },
      "deposit(uint256,uint256)": {
        "notice": "Deposit tokens to RewardsManager for rewards allocation."
      },
      "depositWithPermit(uint256,uint256,uint256,uint8,bytes32,bytes32)": {
        "notice": "Deposit tokens to RewardsManager for rewards allocation, using permit for approval"
      },
      "emergencyWithdraw(uint256)": {
        "notice": "Withdraw without caring about rewards. EMERGENCY ONLY."
      },
      "endBlock()": {
        "notice": "The block number when rewards end."
      },
      "getMultiplier(uint256,uint256)": {
        "notice": "Return reward multiplier over the given from to to block."
      },
      "lockManager()": {
        "notice": "LockManager contract"
      },
      "massUpdatePools()": {
        "notice": "Update reward variables for all pools"
      },
      "masterChef()": {
        "notice": "Sushi Master Chef"
      },
      "owner()": {
        "notice": "Current owner of this contract"
      },
      "pendingRewardTokens(uint256,address)": {
        "notice": "View function to see pending reward tokens on frontend."
      },
      "pendingSushi(uint256,address)": {
        "notice": "View function to see pending SUSHI on frontend."
      },
      "poolInfo(uint256)": {
        "notice": "Info of each pool."
      },
      "poolLength()": {
        "notice": "View function to see current poolInfo array length"
      },
      "rescueTokens(address[],uint256[],address,bool)": {
        "notice": "Rescue (withdraw) tokens from the smart contract"
      },
      "resetRewardsEndBlock()": {
        "notice": "Reset rewards end block manually based on new balances"
      },
      "rewardToken()": {
        "notice": "Reward token"
      },
      "rewardTokensPerBlock()": {
        "notice": "Reward tokens rewarded per block."
      },
      "rewardsActive()": {
        "notice": "Returns true if rewards are actively being accumulated"
      },
      "set(uint256,uint256,bool)": {
        "notice": "Update the given pool's allocation points"
      },
      "setLockManager(address)": {
        "notice": "Set new LockManager address"
      },
      "setMasterChef(address)": {
        "notice": "Set new MasterChef address"
      },
      "setRewardToken(address,uint256)": {
        "notice": "Set new reward token address"
      },
      "setRewardsPerBlock(uint256)": {
        "notice": "Set new rewards per block"
      },
      "setSushiToken(address)": {
        "notice": "Set new SUSHI token address"
      },
      "setVault(address)": {
        "notice": "Set new Vault address"
      },
      "startBlock()": {
        "notice": "The block number when rewards start."
      },
      "sushiPools(address)": {
        "notice": "Mapping of Sushi tokens to MasterChef pids "
      },
      "sushiToken()": {
        "notice": "SUSHI token"
      },
      "tokenAllow(address[],uint256[],address)": {
        "notice": "Set approvals for external addresses to use contract tokens"
      },
      "totalAllocPoint()": {
        "notice": "Total allocation points. Must be the sum of all allocation points in all pools."
      },
      "updatePool(uint256)": {
        "notice": "Update reward variables of the given pool to be up-to-date"
      },
      "userInfo(uint256,address)": {
        "notice": "Info of each user that stakes tokens."
      },
      "vault()": {
        "notice": "Vault for vesting tokens"
      },
      "withdraw(uint256,uint256)": {
        "notice": "Withdraw tokens from RewardsManager, claiming rewards."
      }
    },
    "version": 1
  },
  "storageLayout": {
    "storage": [
      {
        "astId": 12190,
        "contract": "contracts/RewardsManager.sol:RewardsManager",
        "label": "_status",
        "offset": 0,
        "slot": "0",
        "type": "t_uint256"
      },
      {
        "astId": 1821,
        "contract": "contracts/RewardsManager.sol:RewardsManager",
        "label": "owner",
        "offset": 0,
        "slot": "1",
        "type": "t_address"
      },
      {
        "astId": 1852,
        "contract": "contracts/RewardsManager.sol:RewardsManager",
        "label": "rewardToken",
        "offset": 0,
        "slot": "2",
        "type": "t_contract(IERC20)9841"
      },
      {
        "astId": 1855,
        "contract": "contracts/RewardsManager.sol:RewardsManager",
        "label": "sushiToken",
        "offset": 0,
        "slot": "3",
        "type": "t_contract(IERC20)9841"
      },
      {
        "astId": 1858,
        "contract": "contracts/RewardsManager.sol:RewardsManager",
        "label": "masterChef",
        "offset": 0,
        "slot": "4",
        "type": "t_contract(IMasterChef)9967"
      },
      {
        "astId": 1861,
        "contract": "contracts/RewardsManager.sol:RewardsManager",
        "label": "vault",
        "offset": 0,
        "slot": "5",
        "type": "t_contract(IVault)10209"
      },
      {
        "astId": 1864,
        "contract": "contracts/RewardsManager.sol:RewardsManager",
        "label": "lockManager",
        "offset": 0,
        "slot": "6",
        "type": "t_contract(ILockManager)9899"
      },
      {
        "astId": 1867,
        "contract": "contracts/RewardsManager.sol:RewardsManager",
        "label": "rewardTokensPerBlock",
        "offset": 0,
        "slot": "7",
        "type": "t_uint256"
      },
      {
        "astId": 1871,
        "contract": "contracts/RewardsManager.sol:RewardsManager",
        "label": "poolInfo",
        "offset": 0,
        "slot": "8",
        "type": "t_array(t_struct(PoolInfo)1849_storage)dyn_storage"
      },
      {
        "astId": 1876,
        "contract": "contracts/RewardsManager.sol:RewardsManager",
        "label": "sushiPools",
        "offset": 0,
        "slot": "9",
        "type": "t_mapping(t_address,t_uint256)"
      },
      {
        "astId": 1883,
        "contract": "contracts/RewardsManager.sol:RewardsManager",
        "label": "userInfo",
        "offset": 0,
        "slot": "10",
        "type": "t_mapping(t_uint256,t_mapping(t_address,t_struct(UserInfo)1828_storage))"
      },
      {
        "astId": 1886,
        "contract": "contracts/RewardsManager.sol:RewardsManager",
        "label": "totalAllocPoint",
        "offset": 0,
        "slot": "11",
        "type": "t_uint256"
      },
      {
        "astId": 1889,
        "contract": "contracts/RewardsManager.sol:RewardsManager",
        "label": "startBlock",
        "offset": 0,
        "slot": "12",
        "type": "t_uint256"
      },
      {
        "astId": 1892,
        "contract": "contracts/RewardsManager.sol:RewardsManager",
        "label": "endBlock",
        "offset": 0,
        "slot": "13",
        "type": "t_uint256"
      }
    ],
    "types": {
      "t_address": {
        "encoding": "inplace",
        "label": "address",
        "numberOfBytes": "20"
      },
      "t_array(t_struct(PoolInfo)1849_storage)dyn_storage": {
        "base": "t_struct(PoolInfo)1849_storage",
        "encoding": "dynamic_array",
        "label": "struct RewardsManager.PoolInfo[]",
        "numberOfBytes": "32"
      },
      "t_bool": {
        "encoding": "inplace",
        "label": "bool",
        "numberOfBytes": "1"
      },
      "t_contract(IERC20)9841": {
        "encoding": "inplace",
        "label": "contract IERC20",
        "numberOfBytes": "20"
      },
      "t_contract(ILockManager)9899": {
        "encoding": "inplace",
        "label": "contract ILockManager",
        "numberOfBytes": "20"
      },
      "t_contract(IMasterChef)9967": {
        "encoding": "inplace",
        "label": "contract IMasterChef",
        "numberOfBytes": "20"
      },
      "t_contract(IVault)10209": {
        "encoding": "inplace",
        "label": "contract IVault",
        "numberOfBytes": "20"
      },
      "t_mapping(t_address,t_struct(UserInfo)1828_storage)": {
        "encoding": "mapping",
        "key": "t_address",
        "label": "mapping(address => struct RewardsManager.UserInfo)",
        "numberOfBytes": "32",
        "value": "t_struct(UserInfo)1828_storage"
      },
      "t_mapping(t_address,t_uint256)": {
        "encoding": "mapping",
        "key": "t_address",
        "label": "mapping(address => uint256)",
        "numberOfBytes": "32",
        "value": "t_uint256"
      },
      "t_mapping(t_uint256,t_mapping(t_address,t_struct(UserInfo)1828_storage))": {
        "encoding": "mapping",
        "key": "t_uint256",
        "label": "mapping(uint256 => mapping(address => struct RewardsManager.UserInfo))",
        "numberOfBytes": "32",
        "value": "t_mapping(t_address,t_struct(UserInfo)1828_storage)"
      },
      "t_struct(PoolInfo)1849_storage": {
        "encoding": "inplace",
        "label": "struct RewardsManager.PoolInfo",
        "members": [
          {
            "astId": 1830,
            "contract": "contracts/RewardsManager.sol:RewardsManager",
            "label": "token",
            "offset": 0,
            "slot": "0",
            "type": "t_contract(IERC20)9841"
          },
          {
            "astId": 1832,
            "contract": "contracts/RewardsManager.sol:RewardsManager",
            "label": "allocPoint",
            "offset": 0,
            "slot": "1",
            "type": "t_uint256"
          },
          {
            "astId": 1834,
            "contract": "contracts/RewardsManager.sol:RewardsManager",
            "label": "lastRewardBlock",
            "offset": 0,
            "slot": "2",
            "type": "t_uint256"
          },
          {
            "astId": 1836,
            "contract": "contracts/RewardsManager.sol:RewardsManager",
            "label": "accRewardsPerShare",
            "offset": 0,
            "slot": "3",
            "type": "t_uint256"
          },
          {
            "astId": 1838,
            "contract": "contracts/RewardsManager.sol:RewardsManager",
            "label": "vestingPercent",
            "offset": 0,
            "slot": "4",
            "type": "t_uint32"
          },
          {
            "astId": 1840,
            "contract": "contracts/RewardsManager.sol:RewardsManager",
            "label": "vestingPeriod",
            "offset": 4,
            "slot": "4",
            "type": "t_uint16"
          },
          {
            "astId": 1842,
            "contract": "contracts/RewardsManager.sol:RewardsManager",
            "label": "vestingCliff",
            "offset": 6,
            "slot": "4",
            "type": "t_uint16"
          },
          {
            "astId": 1844,
            "contract": "contracts/RewardsManager.sol:RewardsManager",
            "label": "totalStaked",
            "offset": 0,
            "slot": "5",
            "type": "t_uint256"
          },
          {
            "astId": 1846,
            "contract": "contracts/RewardsManager.sol:RewardsManager",
            "label": "vpForDeposit",
            "offset": 0,
            "slot": "6",
            "type": "t_bool"
          },
          {
            "astId": 1848,
            "contract": "contracts/RewardsManager.sol:RewardsManager",
            "label": "vpForVesting",
            "offset": 1,
            "slot": "6",
            "type": "t_bool"
          }
        ],
        "numberOfBytes": "224"
      },
      "t_struct(UserInfo)1828_storage": {
        "encoding": "inplace",
        "label": "struct RewardsManager.UserInfo",
        "members": [
          {
            "astId": 1823,
            "contract": "contracts/RewardsManager.sol:RewardsManager",
            "label": "amount",
            "offset": 0,
            "slot": "0",
            "type": "t_uint256"
          },
          {
            "astId": 1825,
            "contract": "contracts/RewardsManager.sol:RewardsManager",
            "label": "rewardTokenDebt",
            "offset": 0,
            "slot": "1",
            "type": "t_uint256"
          },
          {
            "astId": 1827,
            "contract": "contracts/RewardsManager.sol:RewardsManager",
            "label": "sushiRewardDebt",
            "offset": 0,
            "slot": "2",
            "type": "t_uint256"
          }
        ],
        "numberOfBytes": "96"
      },
      "t_uint16": {
        "encoding": "inplace",
        "label": "uint16",
        "numberOfBytes": "2"
      },
      "t_uint256": {
        "encoding": "inplace",
        "label": "uint256",
        "numberOfBytes": "32"
      },
      "t_uint32": {
        "encoding": "inplace",
        "label": "uint32",
        "numberOfBytes": "4"
      }
    }
  }
}