{
  "address": "0xa6e743Af491b0f0070fa9Da52ED0D0ee527AcB32",
  "abi": [
    {
      "inputs": [
        {
          "internalType": "address",
          "name": "_owner",
          "type": "address"
        },
        {
          "internalType": "uint32",
          "name": "_cvrRate",
          "type": "uint32"
        }
      ],
      "stateMutability": "nonpayable",
      "type": "constructor"
    },
    {
      "anonymous": false,
      "inputs": [
        {
          "indexed": true,
          "internalType": "address",
          "name": "oldOwner",
          "type": "address"
        },
        {
          "indexed": true,
          "internalType": "address",
          "name": "newOwner",
          "type": "address"
        }
      ],
      "name": "ChangedOwner",
      "type": "event"
    },
    {
      "anonymous": false,
      "inputs": [
        {
          "indexed": false,
          "internalType": "uint32",
          "name": "oldRate",
          "type": "uint32"
        },
        {
          "indexed": false,
          "internalType": "uint32",
          "name": "newRate",
          "type": "uint32"
        }
      ],
      "name": "ConversionRateChanged",
      "type": "event"
    },
    {
      "inputs": [
        {
          "internalType": "address",
          "name": "newOwner",
          "type": "address"
        }
      ],
      "name": "changeOwner",
      "outputs": [],
      "stateMutability": "nonpayable",
      "type": "function"
    },
    {
      "inputs": [],
      "name": "conversionRate",
      "outputs": [
        {
          "internalType": "uint32",
          "name": "",
          "type": "uint32"
        }
      ],
      "stateMutability": "view",
      "type": "function"
    },
    {
      "inputs": [
        {
          "internalType": "uint256",
          "name": "amount",
          "type": "uint256"
        }
      ],
      "name": "convertTokensToVotingPower",
      "outputs": [
        {
          "internalType": "uint256",
          "name": "",
          "type": "uint256"
        }
      ],
      "stateMutability": "view",
      "type": "function"
    },
    {
      "inputs": [],
      "name": "owner",
      "outputs": [
        {
          "internalType": "address",
          "name": "",
          "type": "address"
        }
      ],
      "stateMutability": "view",
      "type": "function"
    },
    {
      "inputs": [
        {
          "internalType": "uint32",
          "name": "newConversionRate",
          "type": "uint32"
        }
      ],
      "name": "setConversionRate",
      "outputs": [],
      "stateMutability": "nonpayable",
      "type": "function"
    }
  ],
  "transactionHash": "0x443aec723f28e62c036a28f4b9dabb81eae7246d2d23b475044bd58466647660",
  "args": [
    "0x13d5B8Fc84F73fc5a0A5832Aa8373044371314d3",
    "3200000"
  ],
  "solcInputHash": "2e9142a3380a2374076d02017f19bf74",
  "bytecode": "0x608060405234801561001057600080fd5b506040516106d53803806106d58339818101604052604081101561003357600080fd5b508051602090910151600080546001600160a01b0319166001600160a01b0380851691909117808355604051911691907f2748503f8f31d8071821d1d5144384ba6a465036cda17fa1629a8a2509ccee0e908290a36000805463ffffffff60a01b1916600160a01b63ffffffff84811682029290921780845560408051948552919004909116602083015280517feaaffbc2ab3e2fdc994897a9d9c2bff2123a3b8cdad9848b944e949ef1198bd49281900390910190a150506105da806100fb6000396000f3fe608060405234801561001057600080fd5b50600436106100675760003560e01c8063a6f9dae111610050578063a6f9dae1146100be578063b69fb7f9146100f3578063e43ccb1a1461012257610067565b80637ffdf53e1461006c5780638da5cb5b1461008d575b600080fd5b610074610145565b6040805163ffffffff9092168252519081900360200190f35b610095610169565b6040805173ffffffffffffffffffffffffffffffffffffffff9092168252519081900360200190f35b6100f1600480360360208110156100d457600080fd5b503573ffffffffffffffffffffffffffffffffffffffff16610185565b005b6101106004803603602081101561010957600080fd5b5035610298565b60408051918252519081900360200190f35b6100f16004803603602081101561013857600080fd5b503563ffffffff166102de565b60005474010000000000000000000000000000000000000000900463ffffffff1681565b60005473ffffffffffffffffffffffffffffffffffffffff1681565b60005473ffffffffffffffffffffffffffffffffffffffff16331461020b57604080517f08c379a000000000000000000000000000000000000000000000000000000000815260206004820152600960248201527f6e6f74206f776e65720000000000000000000000000000000000000000000000604482015290519081900360640190fd5b6000805460405173ffffffffffffffffffffffffffffffffffffffff808516939216917f2748503f8f31d8071821d1d5144384ba6a465036cda17fa1629a8a2509ccee0e91a3600080547fffffffffffffffffffffffff00000000000000000000000000000000000000001673ffffffffffffffffffffffffffffffffffffffff92909216919091179055565b600080546102d890620f4240906102d290859063ffffffff7401000000000000000000000000000000000000000090910481169061041016565b9061048a565b92915050565b60005473ffffffffffffffffffffffffffffffffffffffff16331461036457604080517f08c379a000000000000000000000000000000000000000000000000000000000815260206004820152600960248201527f6e6f74206f776e65720000000000000000000000000000000000000000000000604482015290519081900360640190fd5b6000546040805163ffffffff7401000000000000000000000000000000000000000090930483168152918316602083015280517feaaffbc2ab3e2fdc994897a9d9c2bff2123a3b8cdad9848b944e949ef1198bd49281900390910190a16000805463ffffffff90921674010000000000000000000000000000000000000000027fffffffffffffffff00000000ffffffffffffffffffffffffffffffffffffffff909216919091179055565b60008261041f575060006102d8565b8282028284828161042c57fe5b0414610483576040517f08c379a00000000000000000000000000000000000000000000000000000000081526004018080602001828103825260218152602001806105846021913960400191505060405180910390fd5b9392505050565b600061048383836040518060400160405280601a81526020017f536166654d6174683a206469766973696f6e206279207a65726f0000000000008152506000818361056d576040517f08c379a00000000000000000000000000000000000000000000000000000000081526004018080602001828103825283818151815260200191508051906020019080838360005b8381101561053257818101518382015260200161051a565b50505050905090810190601f16801561055f5780820380516001836020036101000a031916815260200191505b509250505060405180910390fd5b50600083858161057957fe5b049594505050505056fe536166654d6174683a206d756c7469706c69636174696f6e206f766572666c6f77a26469706673582212209daafa6a717695db8cf0e02820a9697c4382ad34ebc580a81ab0c20bd608768c64736f6c63430007040033",
  "devdoc": {
    "details": "Convert Sushi LP tokens to voting power",
    "kind": "dev",
    "methods": {
      "changeOwner(address)": {
        "params": {
          "newOwner": "New owner address"
        }
      },
      "constructor": {
        "params": {
          "_cvrRate": "the conversion rate in bips",
          "_owner": "contract owner"
        }
      },
      "convertTokensToVotingPower(uint256)": {
        "params": {
          "amount": "token amount"
        },
        "returns": {
          "_0": "voting power amount"
        }
      },
      "setConversionRate(uint32)": {
        "params": {
          "newConversionRate": "New conversion rate"
        }
      }
    },
    "title": "SushiLPFormula",
    "version": 1
  },
  "userdoc": {
    "events": {
      "ChangedOwner(address,address)": {
        "notice": "Event emitted when the owner of the contract is updated"
      },
      "ConversionRateChanged(uint32,uint32)": {
        "notice": "Event emitted when the conversion rate of the contract is changed"
      }
    },
    "kind": "user",
    "methods": {
      "changeOwner(address)": {
        "notice": "Change owner of contract"
      },
      "constructor": {
        "notice": "Construct a new voting power formula contract"
      },
      "conversionRate()": {
        "notice": "Conversion rate of token to voting power (measured in bips: 10,000 bips = 1%)"
      },
      "convertTokensToVotingPower(uint256)": {
        "notice": "Convert token amount to voting power"
      },
      "owner()": {
        "notice": "Current owner of this contract"
      },
      "setConversionRate(uint32)": {
        "notice": "Set conversion rate of contract"
      }
    },
    "version": 1
  },
  "storageLayout": {
    "storage": [
      {
        "astId": 9400,
        "contract": "contracts/formulas/SushiLPFormula.sol:SushiLPFormula",
        "label": "owner",
        "offset": 0,
        "slot": "0",
        "type": "t_address"
      },
      {
        "astId": 9403,
        "contract": "contracts/formulas/SushiLPFormula.sol:SushiLPFormula",
        "label": "conversionRate",
        "offset": 20,
        "slot": "0",
        "type": "t_uint32"
      }
    ],
    "types": {
      "t_address": {
        "encoding": "inplace",
        "label": "address",
        "numberOfBytes": "20"
      },
      "t_uint32": {
        "encoding": "inplace",
        "label": "uint32",
        "numberOfBytes": "4"
      }
    }
  }
}