{
  "address": "0x79B6F3A7F6a841eA05C9109447a265d5d0BBca99",
  "abi": [
    {
      "anonymous": false,
      "inputs": [
        {
          "indexed": true,
          "internalType": "address",
          "name": "oldOwner",
          "type": "address"
        },
        {
          "indexed": true,
          "internalType": "address",
          "name": "newOwner",
          "type": "address"
        }
      ],
      "name": "ChangedOwner",
      "type": "event"
    },
    {
      "anonymous": false,
      "inputs": [
        {
          "indexed": true,
          "internalType": "address",
          "name": "user",
          "type": "address"
        },
        {
          "indexed": true,
          "internalType": "address",
          "name": "token",
          "type": "address"
        },
        {
          "indexed": true,
          "internalType": "uint256",
          "name": "amount",
          "type": "uint256"
        },
        {
          "indexed": false,
          "internalType": "uint256",
          "name": "votingPower",
          "type": "uint256"
        }
      ],
      "name": "Staked",
      "type": "event"
    },
    {
      "anonymous": false,
      "inputs": [
        {
          "indexed": true,
          "internalType": "address",
          "name": "voter",
          "type": "address"
        },
        {
          "indexed": true,
          "internalType": "uint256",
          "name": "previousBalance",
          "type": "uint256"
        },
        {
          "indexed": true,
          "internalType": "uint256",
          "name": "newBalance",
          "type": "uint256"
        }
      ],
      "name": "VotingPowerChanged",
      "type": "event"
    },
    {
      "anonymous": false,
      "inputs": [
        {
          "indexed": true,
          "internalType": "address",
          "name": "user",
          "type": "address"
        },
        {
          "indexed": true,
          "internalType": "address",
          "name": "token",
          "type": "address"
        },
        {
          "indexed": true,
          "internalType": "uint256",
          "name": "amount",
          "type": "uint256"
        },
        {
          "indexed": false,
          "internalType": "uint256",
          "name": "votingPower",
          "type": "uint256"
        }
      ],
      "name": "Withdrawn",
      "type": "event"
    },
    {
      "inputs": [
        {
          "internalType": "address",
          "name": "account",
          "type": "address"
        },
        {
          "internalType": "uint256",
          "name": "amount",
          "type": "uint256"
        }
      ],
      "name": "addVotingPowerForLockedTokens",
      "outputs": [],
      "stateMutability": "nonpayable",
      "type": "function"
    },
    {
      "inputs": [
        {
          "internalType": "address",
          "name": "account",
          "type": "address"
        },
        {
          "internalType": "uint256",
          "name": "amount",
          "type": "uint256"
        }
      ],
      "name": "addVotingPowerForVestingTokens",
      "outputs": [],
      "stateMutability": "nonpayable",
      "type": "function"
    },
    {
      "inputs": [],
      "name": "archToken",
      "outputs": [
        {
          "internalType": "address",
          "name": "",
          "type": "address"
        }
      ],
      "stateMutability": "view",
      "type": "function"
    },
    {
      "inputs": [
        {
          "internalType": "address",
          "name": "account",
          "type": "address"
        }
      ],
      "name": "balanceOf",
      "outputs": [
        {
          "internalType": "uint256",
          "name": "",
          "type": "uint256"
        }
      ],
      "stateMutability": "view",
      "type": "function"
    },
    {
      "inputs": [
        {
          "internalType": "address",
          "name": "account",
          "type": "address"
        },
        {
          "internalType": "uint256",
          "name": "blockNumber",
          "type": "uint256"
        }
      ],
      "name": "balanceOfAt",
      "outputs": [
        {
          "internalType": "uint256",
          "name": "",
          "type": "uint256"
        }
      ],
      "stateMutability": "view",
      "type": "function"
    },
    {
      "inputs": [
        {
          "internalType": "contract PrismProxy",
          "name": "prism",
          "type": "address"
        }
      ],
      "name": "become",
      "outputs": [],
      "stateMutability": "nonpayable",
      "type": "function"
    },
    {
      "inputs": [
        {
          "internalType": "address",
          "name": "newOwner",
          "type": "address"
        }
      ],
      "name": "changeOwner",
      "outputs": [],
      "stateMutability": "nonpayable",
      "type": "function"
    },
    {
      "inputs": [],
      "name": "decimals",
      "outputs": [
        {
          "internalType": "uint8",
          "name": "",
          "type": "uint8"
        }
      ],
      "stateMutability": "pure",
      "type": "function"
    },
    {
      "inputs": [
        {
          "internalType": "address",
          "name": "staker",
          "type": "address"
        }
      ],
      "name": "getARCHAmountStaked",
      "outputs": [
        {
          "internalType": "uint256",
          "name": "",
          "type": "uint256"
        }
      ],
      "stateMutability": "view",
      "type": "function"
    },
    {
      "inputs": [
        {
          "internalType": "address",
          "name": "staker",
          "type": "address"
        }
      ],
      "name": "getARCHStake",
      "outputs": [
        {
          "components": [
            {
              "internalType": "uint256",
              "name": "amount",
              "type": "uint256"
            },
            {
              "internalType": "uint256",
              "name": "votingPower",
              "type": "uint256"
            }
          ],
          "internalType": "struct Stake",
          "name": "",
          "type": "tuple"
        }
      ],
      "stateMutability": "view",
      "type": "function"
    },
    {
      "inputs": [
        {
          "internalType": "address",
          "name": "staker",
          "type": "address"
        },
        {
          "internalType": "address",
          "name": "stakedToken",
          "type": "address"
        }
      ],
      "name": "getAmountStaked",
      "outputs": [
        {
          "internalType": "uint256",
          "name": "",
          "type": "uint256"
        }
      ],
      "stateMutability": "view",
      "type": "function"
    },
    {
      "inputs": [
        {
          "internalType": "address",
          "name": "staker",
          "type": "address"
        },
        {
          "internalType": "address",
          "name": "stakedToken",
          "type": "address"
        }
      ],
      "name": "getStake",
      "outputs": [
        {
          "components": [
            {
              "internalType": "uint256",
              "name": "amount",
              "type": "uint256"
            },
            {
              "internalType": "uint256",
              "name": "votingPower",
              "type": "uint256"
            }
          ],
          "internalType": "struct Stake",
          "name": "",
          "type": "tuple"
        }
      ],
      "stateMutability": "view",
      "type": "function"
    },
    {
      "inputs": [
        {
          "internalType": "address",
          "name": "_archToken",
          "type": "address"
        },
        {
          "internalType": "address",
          "name": "_vestingContract",
          "type": "address"
        }
      ],
      "name": "initialize",
      "outputs": [],
      "stateMutability": "nonpayable",
      "type": "function"
    },
    {
      "inputs": [],
      "name": "lockManager",
      "outputs": [
        {
          "internalType": "address",
          "name": "",
          "type": "address"
        }
      ],
      "stateMutability": "view",
      "type": "function"
    },
    {
      "inputs": [],
      "name": "owner",
      "outputs": [
        {
          "internalType": "address",
          "name": "",
          "type": "address"
        }
      ],
      "stateMutability": "view",
      "type": "function"
    },
    {
      "inputs": [
        {
          "internalType": "address",
          "name": "account",
          "type": "address"
        },
        {
          "internalType": "uint256",
          "name": "amount",
          "type": "uint256"
        }
      ],
      "name": "removeVotingPowerForClaimedTokens",
      "outputs": [],
      "stateMutability": "nonpayable",
      "type": "function"
    },
    {
      "inputs": [
        {
          "internalType": "address",
          "name": "account",
          "type": "address"
        },
        {
          "internalType": "uint256",
          "name": "amount",
          "type": "uint256"
        }
      ],
      "name": "removeVotingPowerForUnlockedTokens",
      "outputs": [],
      "stateMutability": "nonpayable",
      "type": "function"
    },
    {
      "inputs": [
        {
          "internalType": "address",
          "name": "newLockManager",
          "type": "address"
        }
      ],
      "name": "setLockManager",
      "outputs": [],
      "stateMutability": "nonpayable",
      "type": "function"
    },
    {
      "inputs": [
        {
          "internalType": "address",
          "name": "registry",
          "type": "address"
        }
      ],
      "name": "setTokenRegistry",
      "outputs": [],
      "stateMutability": "nonpayable",
      "type": "function"
    },
    {
      "inputs": [
        {
          "internalType": "uint256",
          "name": "amount",
          "type": "uint256"
        }
      ],
      "name": "stake",
      "outputs": [],
      "stateMutability": "nonpayable",
      "type": "function"
    },
    {
      "inputs": [
        {
          "internalType": "address",
          "name": "token",
          "type": "address"
        },
        {
          "internalType": "uint256",
          "name": "amount",
          "type": "uint256"
        }
      ],
      "name": "stake",
      "outputs": [],
      "stateMutability": "nonpayable",
      "type": "function"
    },
    {
      "inputs": [
        {
          "internalType": "uint256",
          "name": "amount",
          "type": "uint256"
        },
        {
          "internalType": "uint256",
          "name": "deadline",
          "type": "uint256"
        },
        {
          "internalType": "uint8",
          "name": "v",
          "type": "uint8"
        },
        {
          "internalType": "bytes32",
          "name": "r",
          "type": "bytes32"
        },
        {
          "internalType": "bytes32",
          "name": "s",
          "type": "bytes32"
        }
      ],
      "name": "stakeWithPermit",
      "outputs": [],
      "stateMutability": "nonpayable",
      "type": "function"
    },
    {
      "inputs": [],
      "name": "tokenRegistry",
      "outputs": [
        {
          "internalType": "address",
          "name": "",
          "type": "address"
        }
      ],
      "stateMutability": "view",
      "type": "function"
    },
    {
      "inputs": [],
      "name": "vestingContract",
      "outputs": [
        {
          "internalType": "address",
          "name": "",
          "type": "address"
        }
      ],
      "stateMutability": "view",
      "type": "function"
    },
    {
      "inputs": [
        {
          "internalType": "uint256",
          "name": "amount",
          "type": "uint256"
        }
      ],
      "name": "withdraw",
      "outputs": [],
      "stateMutability": "nonpayable",
      "type": "function"
    },
    {
      "inputs": [
        {
          "internalType": "address",
          "name": "token",
          "type": "address"
        },
        {
          "internalType": "uint256",
          "name": "amount",
          "type": "uint256"
        }
      ],
      "name": "withdraw",
      "outputs": [],
      "stateMutability": "nonpayable",
      "type": "function"
    }
  ],
  "transactionHash": "0xe753e5c8f3962929f091b9ce158148c51a013b3a95c0d469c0b0b6a5bd588715",
  "args": [],
  "solcInputHash": "2e9142a3380a2374076d02017f19bf74",
  "bytecode": "0x608060405234801561001057600080fd5b50613aae806100206000396000f3fe608060405234801561001057600080fd5b50600436106101ae5760003560e01c80638da5cb5b116100ee578063a6f9dae111610097578063adc9772e11610071578063adc9772e14610352578063deedfdbd14610365578063ecd9ba8214610378578063f3fef3a31461038b576101ae565b8063a6f9dae114610324578063a7dec84914610337578063acca30a21461034a576101ae565b80639d23c4c7116100c85780639d23c4c7146102f6578063a1194c8e146102fe578063a694fc3a14610311576101ae565b80638da5cb5b146102c85780639b92ac4a146102d05780639cc7a367146102e3576101ae565b80634ee2cd7e1161015b57806370a082311161013557806370a082311461026f57806375a70bb6146102825780637741459e146102a257806382dda22d146102b5576101ae565b80634ee2cd7e146102325780635e6f60451461025257806361500aa614610267576101ae565b8063313ce5671161018c578063313ce567146101ee57806335a5af921461020c578063485cc9551461021f576101ae565b80630bae5b7c146101b35780631efaa442146101c85780632e1a7d4d146101db575b600080fd5b6101c66101c136600461306e565b61039e565b005b6101c66101d636600461306e565b610513565b6101c66101e93660046130b9565b61064f565b6101f6610783565b604051610203919061399d565b60405180910390f35b6101c661021a366004612ffe565b610788565b6101c661022d366004613036565b610860565b61024561024036600461306e565b6109e0565b6040516102039190613994565b61025a610c99565b6040516102039190613136565b61025a610cc4565b61024561027d366004612ffe565b610cef565b610295610290366004612ffe565b610d9a565b604051610203919061397d565b6102456102b0366004613036565b610ddc565b6102956102c3366004613036565b610df0565b61025a610e54565b6101c66102de36600461306e565b610e7f565b6101c66102f136600461306e565b610fb1565b61025a6110e3565b6101c661030c366004612ffe565b61110e565b6101c661031f3660046130b9565b6112ae565b6101c6610332366004612ffe565b611577565b610245610345366004612ffe565b61170c565b61025a61171e565b6101c661036036600461306e565b611749565b6101c6610373366004612ffe565b611bc4565b6101c66103863660046130e9565b611c9c565b6101c661039936600461306e565b611f4c565b60335460ff1661040f57604080517f08c379a000000000000000000000000000000000000000000000000000000000815260206004820152601f60248201527f5265656e7472616e637947756172643a207265656e7472616e742063616c6c00604482015290519081900360640190fd5b603380547fffffffffffffffffffffffffffffffffffffffffffffffffffffffffffffff001690556000610441612096565b905060008211610486576040517f08c379a000000000000000000000000000000000000000000000000000000000815260040161047d90613809565b60405180910390fd5b600481015473ffffffffffffffffffffffffffffffffffffffff1633146104d9576040517f08c379a000000000000000000000000000000000000000000000000000000000815260040161047d90613601565b6104e383836120ba565b5050603380547fffffffffffffffffffffffffffffffffffffffffffffffffffffffffffffff0016600117905550565b60335460ff1661058457604080517f08c379a000000000000000000000000000000000000000000000000000000000815260206004820152601f60248201527f5265656e7472616e637947756172643a207265656e7472616e742063616c6c00604482015290519081900360640190fd5b603380547fffffffffffffffffffffffffffffffffffffffffffffffffffffffffffffff0016905560006105b6612096565b9050600082116105f2576040517f08c379a000000000000000000000000000000000000000000000000000000000815260040161047d906134b3565b600281015473ffffffffffffffffffffffffffffffffffffffff163314610645576040517f08c379a000000000000000000000000000000000000000000000000000000000815260040161047d9061338b565b6104e38383612183565b60335460ff166106c057604080517f08c379a000000000000000000000000000000000000000000000000000000000815260206004820152601f60248201527f5265656e7472616e637947756172643a207265656e7472616e742063616c6c00604482015290519081900360640190fd5b603380547fffffffffffffffffffffffffffffffffffffffffffffffffffffffffffffff001690558061071f576040517f08c379a000000000000000000000000000000000000000000000000000000000815260040161047d9061341f565b6000610729612096565b600181015490915061075490339073ffffffffffffffffffffffffffffffffffffffff168480612236565b5050603380547fffffffffffffffffffffffffffffffffffffffffffffffffffffffffffffff00166001179055565b601290565b6000610792612096565b600381015490915073ffffffffffffffffffffffffffffffffffffffff1615806107d55750600381015473ffffffffffffffffffffffffffffffffffffffff1633145b61080b576040517f08c379a000000000000000000000000000000000000000000000000000000000815260040161047d90613775565b6000610815612096565b60050180547fffffffffffffffffffffffff00000000000000000000000000000000000000001673ffffffffffffffffffffffffffffffffffffffff94909416939093179092555050565b600054610100900460ff16806108795750610879612452565b80610887575060005460ff16155b6108dc576040517f08c379a000000000000000000000000000000000000000000000000000000000815260040180806020018281038252602e8152602001806139ef602e913960400191505060405180910390fd5b600054610100900460ff1615801561094257600080547fffffffffffffffffffffffffffffffffffffffffffffffffffffffffffffff007fffffffffffffffffffffffffffffffffffffffffffffffffffffffffffff00ff909116610100171660011790555b61094a612458565b6000610954612096565b60018101805473ffffffffffffffffffffffffffffffffffffffff8088167fffffffffffffffffffffffff00000000000000000000000000000000000000009283161790925560029092018054918616919092161790555080156109db57600080547fffffffffffffffffffffffffffffffffffffffffffffffffffffffffffff00ff1690555b505050565b6000438210610a1b576040517f08c379a000000000000000000000000000000000000000000000000000000000815260040161047d9061332e565b6000610a25612596565b73ffffffffffffffffffffffffffffffffffffffff8516600090815260018201602052604090205490915063ffffffff1680610a6657600092505050610c93565b73ffffffffffffffffffffffffffffffffffffffff851660009081526020838152604080832063ffffffff7fffffffffffffffffffffffffffffffffffffffffffffffffffffffffffffffff860181168552925290912054168410610b295773ffffffffffffffffffffffffffffffffffffffff85166000908152602092835260408082207fffffffffffffffffffffffffffffffffffffffffffffffffffffffffffffffff9390930163ffffffff168252919092529020600101549050610c93565b73ffffffffffffffffffffffffffffffffffffffff851660009081526020838152604080832083805290915290205463ffffffff16841015610b7057600092505050610c93565b60007fffffffffffffffffffffffffffffffffffffffffffffffffffffffffffffffff82015b8163ffffffff168163ffffffff161115610c5357600282820363ffffffff16048103610bc0612fcd565b5073ffffffffffffffffffffffffffffffffffffffff881660009081526020868152604080832063ffffffff808616855290835292819020815180830190925280549093168082526001909301549181019190915290881415610c2e57602001519550610c93945050505050565b805163ffffffff16881115610c4557819350610c4c565b6001820392505b5050610b96565b5073ffffffffffffffffffffffffffffffffffffffff861660009081526020938452604080822063ffffffff909316825291909352909120600101549150505b92915050565b600080610ca4612096565b6002015473ffffffffffffffffffffffffffffffffffffffff1691505090565b600080610ccf612096565b6001015473ffffffffffffffffffffffffffffffffffffffff1691505090565b600080610cfa612596565b73ffffffffffffffffffffffffffffffffffffffff8416600090815260018201602052604090205490915063ffffffff1680610d37576000610d92565b73ffffffffffffffffffffffffffffffffffffffff841660009081526020838152604080832063ffffffff7fffffffffffffffffffffffffffffffffffffffffffffffffffffffffffffffff86011684529091529020600101545b949350505050565b610da2612fe4565b6000610dac612096565b6001810154909150610dd590849073ffffffffffffffffffffffffffffffffffffffff16610df0565b9392505050565b6000610de88383610df0565b519392505050565b610df8612fe4565b6000610e026125ba565b73ffffffffffffffffffffffffffffffffffffffff8086166000908152602092835260408082209287168252918352819020815180830190925280548252600101549181019190915291505092915050565b600080610e5f612096565b6003015473ffffffffffffffffffffffffffffffffffffffff1691505090565b60335460ff16610ef057604080517f08c379a000000000000000000000000000000000000000000000000000000000815260206004820152601f60248201527f5265656e7472616e637947756172643a207265656e7472616e742063616c6c00604482015290519081900360640190fd5b603380547fffffffffffffffffffffffffffffffffffffffffffffffffffffffffffffff001690556000610f22612096565b905060008211610f5e576040517f08c379a000000000000000000000000000000000000000000000000000000000815260040161047d90613456565b600281015473ffffffffffffffffffffffffffffffffffffffff1633146104d9576040517f08c379a000000000000000000000000000000000000000000000000000000000815260040161047d9061365e565b60335460ff1661102257604080517f08c379a000000000000000000000000000000000000000000000000000000000815260206004820152601f60248201527f5265656e7472616e637947756172643a207265656e7472616e742063616c6c00604482015290519081900360640190fd5b603380547fffffffffffffffffffffffffffffffffffffffffffffffffffffffffffffff001690556000611054612096565b905060008211611090576040517f08c379a000000000000000000000000000000000000000000000000000000000815260040161047d90613866565b600481015473ffffffffffffffffffffffffffffffffffffffff163314610645576040517f08c379a000000000000000000000000000000000000000000000000000000000815260040161047d90613718565b6000806110ee612096565b6005015473ffffffffffffffffffffffffffffffffffffffff1691505090565b8073ffffffffffffffffffffffffffffffffffffffff16633e47158c6040518163ffffffff1660e01b815260040160206040518083038186803b15801561115457600080fd5b505afa158015611168573d6000803e3d6000fd5b505050506040513d601f19601f8201168201806040525081019061118c919061301a565b73ffffffffffffffffffffffffffffffffffffffff163373ffffffffffffffffffffffffffffffffffffffff16146111f0576040517f08c379a000000000000000000000000000000000000000000000000000000000815260040161047d90613274565b8073ffffffffffffffffffffffffffffffffffffffff166394d8fbd06040518163ffffffff1660e01b8152600401602060405180830381600087803b15801561123857600080fd5b505af115801561124c573d6000803e3d6000fd5b505050506040513d601f19601f820116820180604052508101906112709190613099565b15156001146112ab576040517f08c379a000000000000000000000000000000000000000000000000000000000815260040161047d906136bb565b50565b60335460ff1661131f57604080517f08c379a000000000000000000000000000000000000000000000000000000000815260206004820152601f60248201527f5265656e7472616e637947756172643a207265656e7472616e742063616c6c00604482015290519081900360640190fd5b603380547fffffffffffffffffffffffffffffffffffffffffffffffffffffffffffffff001690556000611351612096565b90506000821161138d576040517f08c379a000000000000000000000000000000000000000000000000000000000815260040161047d9061323d565b60018101546040517f70a08231000000000000000000000000000000000000000000000000000000008152839173ffffffffffffffffffffffffffffffffffffffff16906370a08231906113e5903390600401613136565b60206040518083038186803b1580156113fd57600080fd5b505afa158015611411573d6000803e3d6000fd5b505050506040513d601f19601f8201168201806040525081019061143591906130d1565b101561146d576040517f08c379a000000000000000000000000000000000000000000000000000000000815260040161047d906133e8565b60018101546040517fdd62ed3e000000000000000000000000000000000000000000000000000000008152839173ffffffffffffffffffffffffffffffffffffffff169063dd62ed3e906114c79033903090600401613157565b60206040518083038186803b1580156114df57600080fd5b505afa1580156114f3573d6000803e3d6000fd5b505050506040513d601f19601f8201168201806040525081019061151791906130d1565b101561154f576040517f08c379a000000000000000000000000000000000000000000000000000000000815260040161047d906138c3565b600181015461075490339073ffffffffffffffffffffffffffffffffffffffff1684806125de565b6000611581612096565b600381015490915073ffffffffffffffffffffffffffffffffffffffff1615806115c45750600381015473ffffffffffffffffffffffffffffffffffffffff1633145b6115fa576040517f08c379a000000000000000000000000000000000000000000000000000000000815260040161047d90613775565b73ffffffffffffffffffffffffffffffffffffffff821615801590611635575073ffffffffffffffffffffffffffffffffffffffff82163014155b61166b576040517f08c379a000000000000000000000000000000000000000000000000000000000815260040161047d9061356d565b6000611675612096565b600381015460405191925073ffffffffffffffffffffffffffffffffffffffff808616929116907f2748503f8f31d8071821d1d5144384ba6a465036cda17fa1629a8a2509ccee0e90600090a360030180547fffffffffffffffffffffffff00000000000000000000000000000000000000001673ffffffffffffffffffffffffffffffffffffffff939093169290921790915550565b600061171782610d9a565b5192915050565b600080611729612096565b6004015473ffffffffffffffffffffffffffffffffffffffff1691505090565b60335460ff166117ba57604080517f08c379a000000000000000000000000000000000000000000000000000000000815260206004820152601f60248201527f5265656e7472616e637947756172643a207265656e7472616e742063616c6c00604482015290519081900360640190fd5b603380547fffffffffffffffffffffffffffffffffffffffffffffffffffffffffffffff00169055818161181a576040517f08c379a000000000000000000000000000000000000000000000000000000000815260040161047d9061323d565b6040517f70a08231000000000000000000000000000000000000000000000000000000008152829073ffffffffffffffffffffffffffffffffffffffff8316906370a082319061186e903390600401613136565b60206040518083038186803b15801561188657600080fd5b505afa15801561189a573d6000803e3d6000fd5b505050506040513d601f19601f820116820180604052508101906118be91906130d1565b10156118f6576040517f08c379a000000000000000000000000000000000000000000000000000000000815260040161047d906133e8565b6040517fdd62ed3e000000000000000000000000000000000000000000000000000000008152829073ffffffffffffffffffffffffffffffffffffffff83169063dd62ed3e9061194c9033903090600401613157565b60206040518083038186803b15801561196457600080fd5b505afa158015611978573d6000803e3d6000fd5b505050506040513d601f19601f8201168201806040525081019061199c91906130d1565b10156119d4576040517f08c379a000000000000000000000000000000000000000000000000000000000815260040161047d906138c3565b60006119de612096565b60058101546040517fd419935f00000000000000000000000000000000000000000000000000000000815291925060009173ffffffffffffffffffffffffffffffffffffffff9091169063d419935f90611a3c908890600401613136565b60206040518083038186803b158015611a5457600080fd5b505afa158015611a68573d6000803e3d6000fd5b505050506040513d601f19601f82011682018060405250810190611a8c919061301a565b905073ffffffffffffffffffffffffffffffffffffffff8116611adb576040517f08c379a000000000000000000000000000000000000000000000000000000000815260040161047d906135ca565b6040517fb69fb7f9000000000000000000000000000000000000000000000000000000008152819060009073ffffffffffffffffffffffffffffffffffffffff83169063b69fb7f990611b32908990600401613994565b60206040518083038186803b158015611b4a57600080fd5b505afa158015611b5e573d6000803e3d6000fd5b505050506040513d601f19601f82011682018060405250810190611b8291906130d1565b9050611b90338888846125de565b5050603380547fffffffffffffffffffffffffffffffffffffffffffffffffffffffffffffff001660011790555050505050565b6000611bce612096565b600381015490915073ffffffffffffffffffffffffffffffffffffffff161580611c115750600381015473ffffffffffffffffffffffffffffffffffffffff1633145b611c47576040517f08c379a000000000000000000000000000000000000000000000000000000000815260040161047d90613775565b6000611c51612096565b60040180547fffffffffffffffffffffffff00000000000000000000000000000000000000001673ffffffffffffffffffffffffffffffffffffffff94909416939093179092555050565b60335460ff16611d0d57604080517f08c379a000000000000000000000000000000000000000000000000000000000815260206004820152601f60248201527f5265656e7472616e637947756172643a207265656e7472616e742063616c6c00604482015290519081900360640190fd5b603380547fffffffffffffffffffffffffffffffffffffffffffffffffffffffffffffff0016905584611d6c576040517f08c379a000000000000000000000000000000000000000000000000000000000815260040161047d90613510565b6000611d76612096565b60018101546040517f70a08231000000000000000000000000000000000000000000000000000000008152919250879173ffffffffffffffffffffffffffffffffffffffff909116906370a0823190611dd3903390600401613136565b60206040518083038186803b158015611deb57600080fd5b505afa158015611dff573d6000803e3d6000fd5b505050506040513d601f19601f82011682018060405250810190611e2391906130d1565b1015611e5b576040517f08c379a000000000000000000000000000000000000000000000000000000000815260040161047d906132d1565b60018101546040517fd505accf00000000000000000000000000000000000000000000000000000000815273ffffffffffffffffffffffffffffffffffffffff9091169063d505accf90611ebf90339030908b908b908b908b908b9060040161317e565b600060405180830381600087803b158015611ed957600080fd5b505af1158015611eed573d6000803e3d6000fd5b5050506001820154611f199150339073ffffffffffffffffffffffffffffffffffffffff1688806125de565b5050603380547fffffffffffffffffffffffffffffffffffffffffffffffffffffffffffffff0016600117905550505050565b60335460ff16611fbd57604080517f08c379a000000000000000000000000000000000000000000000000000000000815260206004820152601f60248201527f5265656e7472616e637947756172643a207265656e7472616e742063616c6c00604482015290519081900360640190fd5b603380547fffffffffffffffffffffffffffffffffffffffffffffffffffffffffffffff001690558061201c576040517f08c379a000000000000000000000000000000000000000000000000000000000815260040161047d9061341f565b612024612fe4565b61202e3384610df0565b90506000612057826000015161205184602001518661270990919063ffffffff16565b9061277c565b905061206533858584612236565b5050603380547fffffffffffffffffffffffffffffffffffffffffffffffffffffffffffffff001660011790555050565b7f6d6a6fc321e0562f469846e9b1d74d90faeed9d71336854ad7fe2be150ff9f2090565b60006120c4612596565b73ffffffffffffffffffffffffffffffffffffffff8416600090815260018201602052604081205491925063ffffffff909116908161210457600061215f565b73ffffffffffffffffffffffffffffffffffffffff851660009081526020848152604080832063ffffffff7fffffffffffffffffffffffffffffffffffffffffffffffffffffffffffffffff87011684529091529020600101545b9050600061216d82866127be565b905061217b86848484612832565b505050505050565b600061218d612596565b73ffffffffffffffffffffffffffffffffffffffff8416600090815260018201602052604081205491925063ffffffff90911690816121cd576000612228565b73ffffffffffffffffffffffffffffffffffffffff851660009081526020848152604080832063ffffffff7fffffffffffffffffffffffffffffffffffffffffffffffffffffffffffffffff87011684529091529020600101545b9050600061216d8286612a20565b60006122406125ba565b73ffffffffffffffffffffffffffffffffffffffff808716600090815260208381526040808320938916835292905220549091508311156122ad576040517f08c379a000000000000000000000000000000000000000000000000000000000815260040161047d906137ac565b73ffffffffffffffffffffffffffffffffffffffff8086166000908152602083815260408083209388168352929052206001015482111561231a576040517f08c379a000000000000000000000000000000000000000000000000000000000815260040161047d90613920565b73ffffffffffffffffffffffffffffffffffffffff808616600090815260208381526040808320938816835292905220546123559084612a20565b73ffffffffffffffffffffffffffffffffffffffff868116600090815260208481526040808320938916835292905220908155600101546123969083612a20565b73ffffffffffffffffffffffffffffffffffffffff808716600090815260208481526040808320938916808452939091529020600101919091556123db908685612a62565b828473ffffffffffffffffffffffffffffffffffffffff168673ffffffffffffffffffffffffffffffffffffffff167f91fb9d98b786c57d74c099ccd2beca1739e9f6a81fb49001ca465c4b7591bbe2856040516124399190613994565b60405180910390a461244b8583612183565b5050505050565b303b1590565b600054610100900460ff16806124715750612471612452565b8061247f575060005460ff16155b6124d4576040517f08c379a000000000000000000000000000000000000000000000000000000000815260040180806020018281038252602e8152602001806139ef602e913960400191505060405180910390fd5b600054610100900460ff1615801561253a57600080547fffffffffffffffffffffffffffffffffffffffffffffffffffffffffffffff007fffffffffffffffffffffffffffffffffffffffffffffffffffffffffffff00ff909116610100171660011790555b603380547fffffffffffffffffffffffffffffffffffffffffffffffffffffffffffffff0016600117905580156112ab57600080547fffffffffffffffffffffffffffffffffffffffffffffffffffffffffffff00ff16905550565b7f97ada73c2617b57999fe0c39e0cd251038e142d18fa592f9135b3c4884c92cf190565b7fb436861a9ea50c2256cd6ef2eb5e3092874d3eddb554844f2d197b6df51da09890565b61260073ffffffffffffffffffffffffffffffffffffffff8416853085612aef565b600061260a6125ba565b73ffffffffffffffffffffffffffffffffffffffff8087166000908152602083815260408083209389168352929052205490915061264890846127be565b73ffffffffffffffffffffffffffffffffffffffff8681166000908152602084815260408083209389168352929052209081556001015461268990836127be565b73ffffffffffffffffffffffffffffffffffffffff808716600081815260208581526040808320948a1680845294909152908190206001019390935591518592907f6c86f3fd5118b3aa8bb4f389a617046de0a3d3d477de1a1673d227f802f616dc906126f7908790613994565b60405180910390a461244b85836120ba565b60008261271857506000610c93565b8282028284828161272557fe5b0414610dd5576040517f08c379a00000000000000000000000000000000000000000000000000000000081526004018080602001828103825260218152602001806139ce6021913960400191505060405180910390fd5b6000610dd583836040518060400160405280601a81526020017f536166654d6174683a206469766973696f6e206279207a65726f000000000000815250612b8a565b600082820183811015610dd557604080517f08c379a000000000000000000000000000000000000000000000000000000000815260206004820152601b60248201527f536166654d6174683a206164646974696f6e206f766572666c6f770000000000604482015290519081900360640190fd5b600061285643604051806060016040528060328152602001613a4760329139612c46565b90506000612862612596565b905060008563ffffffff161180156128d4575073ffffffffffffffffffffffffffffffffffffffff861660009081526020828152604080832063ffffffff7fffffffffffffffffffffffffffffffffffffffffffffffffffffffffffffffff8a01811685529252909120548382169116145b1561293a5773ffffffffffffffffffffffffffffffffffffffff861660009081526020828152604080832063ffffffff7fffffffffffffffffffffffffffffffffffffffffffffffffffffffffffffffff8a0116845290915290206001018390556129d3565b60408051808201825263ffffffff8085168252602080830187815273ffffffffffffffffffffffffffffffffffffffff8b1660008181528784528681208c861682528452868120955186549086167fffffffffffffffffffffffffffffffffffffffffffffffffffffffff0000000091821617875592516001968701559081528487019092529390208054928901909116919092161790555b82848773ffffffffffffffffffffffffffffffffffffffff167f53ed7954de66613e30dd29b46ab783aa594e6309d021d8854c76bb3325d03aa360405160405180910390a4505050505050565b6000610dd583836040518060400160405280601f81526020017f536166654d6174683a207375627472616374696f6e20756e646572666c6f7700815250612c90565b6040805173ffffffffffffffffffffffffffffffffffffffff8416602482015260448082018490528251808303909101815260649091019091526020810180517bffffffffffffffffffffffffffffffffffffffffffffffffffffffff167fa9059cbb000000000000000000000000000000000000000000000000000000001790526109db908490612d04565b6040805173ffffffffffffffffffffffffffffffffffffffff80861660248301528416604482015260648082018490528251808303909101815260849091019091526020810180517bffffffffffffffffffffffffffffffffffffffffffffffffffffffff167f23b872dd00000000000000000000000000000000000000000000000000000000179052612b84908590612d04565b50505050565b60008183612c30576040517f08c379a00000000000000000000000000000000000000000000000000000000081526004018080602001828103825283818151815260200191508051906020019080838360005b83811015612bf5578181015183820152602001612bdd565b50505050905090810190601f168015612c225780820380516001836020036101000a031916815260200191505b509250505060405180910390fd5b506000838581612c3c57fe5b0495945050505050565b6000816401000000008410612c88576040517f08c379a000000000000000000000000000000000000000000000000000000000815260040161047d91906131cc565b509192915050565b60008184841115612cfc576040517f08c379a0000000000000000000000000000000000000000000000000000000008152602060048201818152835160248401528351909283926044909101919085019080838360008315612bf5578181015183820152602001612bdd565b505050900390565b6060612d66826040518060400160405280602081526020017f5361666545524332303a206c6f772d6c6576656c2063616c6c206661696c65648152508573ffffffffffffffffffffffffffffffffffffffff16612ddc9092919063ffffffff16565b8051909150156109db57808060200190516020811015612d8557600080fd5b50516109db576040517f08c379a000000000000000000000000000000000000000000000000000000000815260040180806020018281038252602a815260200180613a1d602a913960400191505060405180910390fd5b6060610d92848460008585612df085612f47565b612e5b57604080517f08c379a000000000000000000000000000000000000000000000000000000000815260206004820152601d60248201527f416464726573733a2063616c6c20746f206e6f6e2d636f6e7472616374000000604482015290519081900360640190fd5b600060608673ffffffffffffffffffffffffffffffffffffffff1685876040518082805190602001908083835b60208310612ec557805182527fffffffffffffffffffffffffffffffffffffffffffffffffffffffffffffffe09092019160209182019101612e88565b6001836020036101000a03801982511681845116808217855250505050505090500191505060006040518083038185875af1925050503d8060008114612f27576040519150601f19603f3d011682016040523d82523d6000602084013e612f2c565b606091505b5091509150612f3c828286612f4d565b979650505050505050565b3b151590565b60608315612f5c575081610dd5565b825115612f6c5782518084602001fd5b6040517f08c379a0000000000000000000000000000000000000000000000000000000008152602060048201818152845160248401528451859391928392604401919085019080838360008315612bf5578181015183820152602001612bdd565b604080518082019091526000808252602082015290565b604051806040016040528060008152602001600081525090565b60006020828403121561300f578081fd5b8135610dd5816139ab565b60006020828403121561302b578081fd5b8151610dd5816139ab565b60008060408385031215613048578081fd5b8235613053816139ab565b91506020830135613063816139ab565b809150509250929050565b60008060408385031215613080578182fd5b823561308b816139ab565b946020939093013593505050565b6000602082840312156130aa578081fd5b81518015158114610dd5578182fd5b6000602082840312156130ca578081fd5b5035919050565b6000602082840312156130e2578081fd5b5051919050565b600080600080600060a08688031215613100578081fd5b8535945060208601359350604086013560ff8116811461311e578182fd5b94979396509394606081013594506080013592915050565b73ffffffffffffffffffffffffffffffffffffffff91909116815260200190565b73ffffffffffffffffffffffffffffffffffffffff92831681529116602082015260400190565b73ffffffffffffffffffffffffffffffffffffffff97881681529590961660208601526040850193909352606084019190915260ff16608083015260a082015260c081019190915260e00190565b6000602080835283518082850152825b818110156131f8578581018301518582016040015282016131dc565b818111156132095783604083870101525b50601f017fffffffffffffffffffffffffffffffffffffffffffffffffffffffffffffffe016929092016040019392505050565b60208082526019908201527f56503a3a7374616b653a2063616e6e6f74207374616b65203000000000000000604082015260600190565b60208082526039908201527f507269736d3a3a6265636f6d653a206f6e6c792070726f78792061646d696e2060408201527f63616e206368616e676520696d706c656d656e746174696f6e00000000000000606082015260800190565b60208082526026908201527f56503a3a7374616b65576974685065726d69743a206e6f7420656e6f7567682060408201527f746f6b656e730000000000000000000000000000000000000000000000000000606082015260800190565b60208082526023908201527f56503a3a62616c616e63654f6641743a206e6f74207965742064657465726d6960408201527f6e65640000000000000000000000000000000000000000000000000000000000606082015260800190565b60208082526028908201527f56503a3a72656d6f76655650666f7243543a206f6e6c792076657374696e672060408201527f636f6e7472616374000000000000000000000000000000000000000000000000606082015260800190565b6020808252601c908201527f56503a3a7374616b653a206e6f7420656e6f75676820746f6b656e7300000000604082015260600190565b6020808252601f908201527f56503a3a77697468647261773a2063616e6e6f74207769746864726177203000604082015260600190565b60208082526029908201527f56503a3a6164645650666f7256543a2063616e6e6f7420616464203020766f7460408201527f696e6720706f7765720000000000000000000000000000000000000000000000606082015260800190565b6020808252602f908201527f56503a3a72656d6f76655650666f7243543a2063616e6e6f742072656d6f766560408201527f203020766f74696e6720706f7765720000000000000000000000000000000000606082015260800190565b60208082526023908201527f56503a3a7374616b65576974685065726d69743a2063616e6e6f74207374616b60408201527f6520300000000000000000000000000000000000000000000000000000000000606082015260800190565b60208082526022908201527f56503a3a6368616e67654f776e65723a206e6f742076616c696420616464726560408201527f7373000000000000000000000000000000000000000000000000000000000000606082015260800190565b6020808252601e908201527f56503a3a7374616b653a20746f6b656e206e6f7420737570706f727465640000604082015260600190565b60208082526029908201527f56503a3a6164645650666f724c543a206f6e6c79206c6f636b4d616e6167657260408201527f20636f6e74726163740000000000000000000000000000000000000000000000606082015260800190565b60208082526025908201527f56503a3a6164645650666f7256543a206f6e6c792076657374696e6720636f6e60408201527f7472616374000000000000000000000000000000000000000000000000000000606082015260800190565b60208082526024908201527f507269736d3a3a6265636f6d653a206368616e6765206e6f7420617574686f7260408201527f697a656400000000000000000000000000000000000000000000000000000000606082015260800190565b6020808252602c908201527f56503a3a72656d6f76655650666f7255543a206f6e6c79206c6f636b4d616e6160408201527f67657220636f6e74726163740000000000000000000000000000000000000000606082015260800190565b6020808252600a908201527f6f6e6c79206f776e657200000000000000000000000000000000000000000000604082015260600190565b60208082526027908201527f56503a3a5f77697468647261773a206e6f7420656e6f75676820746f6b656e7360408201527f207374616b656400000000000000000000000000000000000000000000000000606082015260800190565b60208082526029908201527f56503a3a6164645650666f724c543a2063616e6e6f7420616464203020766f7460408201527f696e6720706f7765720000000000000000000000000000000000000000000000606082015260800190565b6020808252602f908201527f56503a3a72656d6f76655650666f7255543a2063616e6e6f742072656d6f766560408201527f203020766f74696e6720706f7765720000000000000000000000000000000000606082015260800190565b6020808252602d908201527f56503a3a7374616b653a206d75737420617070726f766520746f6b656e73206260408201527f65666f7265207374616b696e6700000000000000000000000000000000000000606082015260800190565b60208082526026908201527f56503a3a5f77697468647261773a206e6f7420656e6f75676820766f74696e6760408201527f20706f7765720000000000000000000000000000000000000000000000000000606082015260800190565b815181526020918201519181019190915260400190565b90815260200190565b60ff91909116815260200190565b73ffffffffffffffffffffffffffffffffffffffff811681146112ab57600080fdfe536166654d6174683a206d756c7469706c69636174696f6e206f766572666c6f77436f6e747261637420696e7374616e63652068617320616c7265616479206265656e20696e697469616c697a65645361666545524332303a204552433230206f7065726174696f6e20646964206e6f74207375636365656456503a3a5f7772697465436865636b706f696e743a20626c6f636b206e756d62657220657863656564732033322062697473a26469706673582212200ffe82b1f5b72bd54b371fad9c29c741761cb402f0400c3692f36dcd6e61ec0464736f6c63430007040033",
  "devdoc": {
    "details": "Implementation contract for voting power prism proxy Calls should not be made directly to this contract, instead make calls to the VotingPowerPrism proxy contract The exception to this is the `become` function specified in PrismProxyImplementation  This function is called once and is used by this contract to accept its role as the implementation for the prism proxy",
    "kind": "dev",
    "methods": {
      "addVotingPowerForLockedTokens(address,uint256)": {
        "params": {
          "account": "The recipient of voting power",
          "amount": "The amount of voting power to add"
        }
      },
      "addVotingPowerForVestingTokens(address,uint256)": {
        "params": {
          "account": "The recipient of voting power",
          "amount": "The amount of voting power to add"
        }
      },
      "archToken()": {
        "returns": {
          "_0": "Address of ARCH token"
        }
      },
      "balanceOf(address)": {
        "params": {
          "account": "The address to get votes balance"
        },
        "returns": {
          "_0": "The number of current votes for `account`"
        }
      },
      "balanceOfAt(address,uint256)": {
        "details": "Block number must be a finalized block or else this function will revert to prevent misinformation.",
        "params": {
          "account": "The address of the account to check",
          "blockNumber": "The block number to get the vote balance at"
        },
        "returns": {
          "_0": "The number of votes the account had as of the given block"
        }
      },
      "become(address)": {
        "params": {
          "prism": "Prism Proxy contract"
        }
      },
      "changeOwner(address)": {
        "params": {
          "newOwner": "New owner address"
        }
      },
      "decimals()": {
        "returns": {
          "_0": "decimals"
        }
      },
      "getARCHAmountStaked(address)": {
        "params": {
          "staker": "The user with staked ARCH"
        },
        "returns": {
          "_0": "total ARCH amount staked"
        }
      },
      "getARCHStake(address)": {
        "params": {
          "staker": "The user with staked ARCH"
        },
        "returns": {
          "_0": "total ARCH staked"
        }
      },
      "getAmountStaked(address,address)": {
        "params": {
          "stakedToken": "The staked token",
          "staker": "The user with staked tokens"
        },
        "returns": {
          "_0": "total amount staked"
        }
      },
      "getStake(address,address)": {
        "params": {
          "stakedToken": "The staked token",
          "staker": "The user with staked tokens"
        },
        "returns": {
          "_0": "total staked"
        }
      },
      "initialize(address,address)": {
        "details": "Should be called via VotingPowerPrism before calling anything else",
        "params": {
          "_archToken": "address of ARCH token",
          "_vestingContract": "address of Vesting contract"
        }
      },
      "lockManager()": {
        "returns": {
          "_0": "Address of lockManager"
        }
      },
      "owner()": {
        "returns": {
          "_0": "Address of owner"
        }
      },
      "removeVotingPowerForClaimedTokens(address,uint256)": {
        "params": {
          "account": "The account with voting power",
          "amount": "The amount of voting power to remove"
        }
      },
      "removeVotingPowerForUnlockedTokens(address,uint256)": {
        "params": {
          "account": "The account with voting power",
          "amount": "The amount of voting power to remove"
        }
      },
      "setLockManager(address)": {
        "params": {
          "newLockManager": "Address of lockManager"
        }
      },
      "setTokenRegistry(address)": {
        "params": {
          "registry": "Address of token registry"
        }
      },
      "stake(address,uint256)": {
        "params": {
          "amount": "The amount to stake",
          "token": "The token to stake"
        }
      },
      "stake(uint256)": {
        "params": {
          "amount": "The amount to stake"
        }
      },
      "stakeWithPermit(uint256,uint256,uint8,bytes32,bytes32)": {
        "params": {
          "amount": "The amount to stake",
          "deadline": "The time at which to expire the signature",
          "r": "Half of the ECDSA signature pair",
          "s": "Half of the ECDSA signature pair",
          "v": "The recovery byte of the signature"
        }
      },
      "tokenRegistry()": {
        "returns": {
          "_0": "Address of token registry"
        }
      },
      "vestingContract()": {
        "returns": {
          "_0": "Address of vesting contract"
        }
      },
      "withdraw(address,uint256)": {
        "params": {
          "amount": "The amount to withdraw",
          "token": "The token to withdraw"
        }
      },
      "withdraw(uint256)": {
        "params": {
          "amount": "The amount to withdraw"
        }
      }
    },
    "title": "VotingPower",
    "version": 1
  },
  "userdoc": {
    "events": {
      "ChangedOwner(address,address)": {
        "notice": "Event emitted when the owner of the voting power contract is updated"
      },
      "Staked(address,address,uint256,uint256)": {
        "notice": "An event that's emitted when a user's staked balance increases"
      },
      "VotingPowerChanged(address,uint256,uint256)": {
        "notice": "An event that's emitted when an account's vote balance changes"
      },
      "Withdrawn(address,address,uint256,uint256)": {
        "notice": "An event that's emitted when a user's staked balance decreases"
      }
    },
    "kind": "user",
    "methods": {
      "addVotingPowerForLockedTokens(address,uint256)": {
        "notice": "Count locked tokens toward voting power for `account`"
      },
      "addVotingPowerForVestingTokens(address,uint256)": {
        "notice": "Count vesting ARCH tokens toward voting power for `account`"
      },
      "archToken()": {
        "notice": "Address of ARCH token"
      },
      "balanceOf(address)": {
        "notice": "Gets the current votes balance for `account`"
      },
      "balanceOfAt(address,uint256)": {
        "notice": "Determine the prior number of votes for an account as of a block number"
      },
      "become(address)": {
        "notice": "Accept invitation to be implementation contract for proxy"
      },
      "changeOwner(address)": {
        "notice": "Change owner of vesting contract"
      },
      "decimals()": {
        "notice": "Decimals used for voting power"
      },
      "getARCHAmountStaked(address)": {
        "notice": "Get total amount of ARCH tokens staked in contract by `staker`"
      },
      "getARCHStake(address)": {
        "notice": "Get staked amount and voting power from ARCH tokens staked in contract by `staker`"
      },
      "getAmountStaked(address,address)": {
        "notice": "Get total amount of tokens staked in contract by `staker`"
      },
      "getStake(address,address)": {
        "notice": "Get total staked amount and voting power from `stakedToken` staked in contract by `staker`"
      },
      "initialize(address,address)": {
        "notice": "Initialize VotingPower contract"
      },
      "lockManager()": {
        "notice": "Address of lockManager"
      },
      "owner()": {
        "notice": "Address of owner"
      },
      "removeVotingPowerForClaimedTokens(address,uint256)": {
        "notice": "Remove claimed vesting ARCH tokens from voting power for `account`"
      },
      "removeVotingPowerForUnlockedTokens(address,uint256)": {
        "notice": "Remove unlocked tokens from voting power for `account`"
      },
      "setLockManager(address)": {
        "notice": "Sets lockManager address"
      },
      "setTokenRegistry(address)": {
        "notice": "Sets token registry address"
      },
      "stake(address,uint256)": {
        "notice": "Stake LP tokens to unlock voting power for `msg.sender`"
      },
      "stake(uint256)": {
        "notice": "Stake ARCH tokens to unlock voting power for `msg.sender`"
      },
      "stakeWithPermit(uint256,uint256,uint8,bytes32,bytes32)": {
        "notice": "Stake ARCH tokens using offchain approvals to unlock voting power"
      },
      "tokenRegistry()": {
        "notice": "Address of token registry"
      },
      "vestingContract()": {
        "notice": "Address of vesting contract"
      },
      "withdraw(address,uint256)": {
        "notice": "Withdraw staked LP tokens, removing voting power for `msg.sender`"
      },
      "withdraw(uint256)": {
        "notice": "Withdraw staked ARCH tokens, removing voting power for `msg.sender`"
      }
    },
    "version": 1
  },
  "storageLayout": {
    "storage": [
      {
        "astId": 11694,
        "contract": "contracts/VotingPower.sol:VotingPower",
        "label": "initialized",
        "offset": 0,
        "slot": "0",
        "type": "t_bool"
      },
      {
        "astId": 11697,
        "contract": "contracts/VotingPower.sol:VotingPower",
        "label": "initializing",
        "offset": 1,
        "slot": "0",
        "type": "t_bool"
      },
      {
        "astId": 11762,
        "contract": "contracts/VotingPower.sol:VotingPower",
        "label": "______gap",
        "offset": 0,
        "slot": "1",
        "type": "t_array(t_uint256)50_storage"
      },
      {
        "astId": 12227,
        "contract": "contracts/VotingPower.sol:VotingPower",
        "label": "_notEntered",
        "offset": 0,
        "slot": "51",
        "type": "t_bool"
      },
      {
        "astId": 12268,
        "contract": "contracts/VotingPower.sol:VotingPower",
        "label": "__gap",
        "offset": 0,
        "slot": "52",
        "type": "t_array(t_uint256)49_storage"
      }
    ],
    "types": {
      "t_array(t_uint256)49_storage": {
        "base": "t_uint256",
        "encoding": "inplace",
        "label": "uint256[49]",
        "numberOfBytes": "1568"
      },
      "t_array(t_uint256)50_storage": {
        "base": "t_uint256",
        "encoding": "inplace",
        "label": "uint256[50]",
        "numberOfBytes": "1600"
      },
      "t_bool": {
        "encoding": "inplace",
        "label": "bool",
        "numberOfBytes": "1"
      },
      "t_uint256": {
        "encoding": "inplace",
        "label": "uint256",
        "numberOfBytes": "32"
      }
    }
  }
}