{
  "address": "0x9CaC8B93D5cc43d253362E787ABa4d4EFf676170",
  "abi": [
    {
      "anonymous": false,
      "inputs": [
        {
          "indexed": true,
          "internalType": "address",
          "name": "user",
          "type": "address"
        },
        {
          "indexed": true,
          "internalType": "address",
          "name": "token",
          "type": "address"
        },
        {
          "indexed": true,
          "internalType": "uint256",
          "name": "amount",
          "type": "uint256"
        },
        {
          "indexed": false,
          "internalType": "uint256",
          "name": "votingPower",
          "type": "uint256"
        }
      ],
      "name": "Staked",
      "type": "event"
    },
    {
      "anonymous": false,
      "inputs": [
        {
          "indexed": true,
          "internalType": "address",
          "name": "voter",
          "type": "address"
        },
        {
          "indexed": true,
          "internalType": "uint256",
          "name": "previousBalance",
          "type": "uint256"
        },
        {
          "indexed": true,
          "internalType": "uint256",
          "name": "newBalance",
          "type": "uint256"
        }
      ],
      "name": "VotingPowerChanged",
      "type": "event"
    },
    {
      "anonymous": false,
      "inputs": [
        {
          "indexed": true,
          "internalType": "address",
          "name": "user",
          "type": "address"
        },
        {
          "indexed": true,
          "internalType": "address",
          "name": "token",
          "type": "address"
        },
        {
          "indexed": true,
          "internalType": "uint256",
          "name": "amount",
          "type": "uint256"
        },
        {
          "indexed": false,
          "internalType": "uint256",
          "name": "votingPower",
          "type": "uint256"
        }
      ],
      "name": "Withdrawn",
      "type": "event"
    },
    {
      "inputs": [
        {
          "internalType": "address",
          "name": "account",
          "type": "address"
        },
        {
          "internalType": "uint256",
          "name": "amount",
          "type": "uint256"
        }
      ],
      "name": "addVotingPowerForVestingTokens",
      "outputs": [],
      "stateMutability": "nonpayable",
      "type": "function"
    },
    {
      "inputs": [],
      "name": "archToken",
      "outputs": [
        {
          "internalType": "address",
          "name": "",
          "type": "address"
        }
      ],
      "stateMutability": "view",
      "type": "function"
    },
    {
      "inputs": [
        {
          "internalType": "address",
          "name": "account",
          "type": "address"
        }
      ],
      "name": "balanceOf",
      "outputs": [
        {
          "internalType": "uint256",
          "name": "",
          "type": "uint256"
        }
      ],
      "stateMutability": "view",
      "type": "function"
    },
    {
      "inputs": [
        {
          "internalType": "address",
          "name": "account",
          "type": "address"
        },
        {
          "internalType": "uint256",
          "name": "blockNumber",
          "type": "uint256"
        }
      ],
      "name": "balanceOfAt",
      "outputs": [
        {
          "internalType": "uint256",
          "name": "",
          "type": "uint256"
        }
      ],
      "stateMutability": "view",
      "type": "function"
    },
    {
      "inputs": [
        {
          "internalType": "contract PrismProxy",
          "name": "prism",
          "type": "address"
        }
      ],
      "name": "become",
      "outputs": [],
      "stateMutability": "nonpayable",
      "type": "function"
    },
    {
      "inputs": [],
      "name": "decimals",
      "outputs": [
        {
          "internalType": "uint8",
          "name": "",
          "type": "uint8"
        }
      ],
      "stateMutability": "pure",
      "type": "function"
    },
    {
      "inputs": [
        {
          "internalType": "address",
          "name": "staker",
          "type": "address"
        }
      ],
      "name": "getARCHAmountStaked",
      "outputs": [
        {
          "internalType": "uint256",
          "name": "",
          "type": "uint256"
        }
      ],
      "stateMutability": "view",
      "type": "function"
    },
    {
      "inputs": [
        {
          "internalType": "address",
          "name": "staker",
          "type": "address"
        }
      ],
      "name": "getARCHStake",
      "outputs": [
        {
          "components": [
            {
              "internalType": "uint256",
              "name": "amount",
              "type": "uint256"
            },
            {
              "internalType": "uint256",
              "name": "votingPower",
              "type": "uint256"
            }
          ],
          "internalType": "struct Stake",
          "name": "",
          "type": "tuple"
        }
      ],
      "stateMutability": "view",
      "type": "function"
    },
    {
      "inputs": [
        {
          "internalType": "address",
          "name": "staker",
          "type": "address"
        },
        {
          "internalType": "address",
          "name": "stakedToken",
          "type": "address"
        }
      ],
      "name": "getAmountStaked",
      "outputs": [
        {
          "internalType": "uint256",
          "name": "",
          "type": "uint256"
        }
      ],
      "stateMutability": "view",
      "type": "function"
    },
    {
      "inputs": [
        {
          "internalType": "address",
          "name": "staker",
          "type": "address"
        },
        {
          "internalType": "address",
          "name": "stakedToken",
          "type": "address"
        }
      ],
      "name": "getStake",
      "outputs": [
        {
          "components": [
            {
              "internalType": "uint256",
              "name": "amount",
              "type": "uint256"
            },
            {
              "internalType": "uint256",
              "name": "votingPower",
              "type": "uint256"
            }
          ],
          "internalType": "struct Stake",
          "name": "",
          "type": "tuple"
        }
      ],
      "stateMutability": "view",
      "type": "function"
    },
    {
      "inputs": [
        {
          "internalType": "address",
          "name": "_archToken",
          "type": "address"
        },
        {
          "internalType": "address",
          "name": "_vestingContract",
          "type": "address"
        }
      ],
      "name": "initialize",
      "outputs": [],
      "stateMutability": "nonpayable",
      "type": "function"
    },
    {
      "inputs": [
        {
          "internalType": "address",
          "name": "account",
          "type": "address"
        },
        {
          "internalType": "uint256",
          "name": "amount",
          "type": "uint256"
        }
      ],
      "name": "removeVotingPowerForClaimedTokens",
      "outputs": [],
      "stateMutability": "nonpayable",
      "type": "function"
    },
    {
      "inputs": [
        {
          "internalType": "uint256",
          "name": "amount",
          "type": "uint256"
        }
      ],
      "name": "stake",
      "outputs": [],
      "stateMutability": "nonpayable",
      "type": "function"
    },
    {
      "inputs": [
        {
          "internalType": "uint256",
          "name": "amount",
          "type": "uint256"
        },
        {
          "internalType": "uint256",
          "name": "deadline",
          "type": "uint256"
        },
        {
          "internalType": "uint8",
          "name": "v",
          "type": "uint8"
        },
        {
          "internalType": "bytes32",
          "name": "r",
          "type": "bytes32"
        },
        {
          "internalType": "bytes32",
          "name": "s",
          "type": "bytes32"
        }
      ],
      "name": "stakeWithPermit",
      "outputs": [],
      "stateMutability": "nonpayable",
      "type": "function"
    },
    {
      "inputs": [],
      "name": "vestingContract",
      "outputs": [
        {
          "internalType": "address",
          "name": "",
          "type": "address"
        }
      ],
      "stateMutability": "view",
      "type": "function"
    },
    {
      "inputs": [
        {
          "internalType": "uint256",
          "name": "amount",
          "type": "uint256"
        }
      ],
      "name": "withdraw",
      "outputs": [],
      "stateMutability": "nonpayable",
      "type": "function"
    }
  ],
  "transactionHash": "0x53f3c1efa1e2a8e70876154f61e5b7bf1244bff8041ed24953532ce37c7a9ea1",
  "args": [],
  "solcInputHash": "b3921c027b950c0665782c760ede4684",
  "bytecode": "0x608060405234801561001057600080fd5b506129e0806100206000396000f3fe608060405234801561001057600080fd5b50600436106101005760003560e01c806375a70bb611610097578063a1194c8e11610066578063a1194c8e14610207578063a694fc3a1461021a578063a7dec8491461022d578063ecd9ba821461024057610100565b806375a70bb6146101ae5780637741459e146101ce57806382dda22d146101e15780639b92ac4a146101f457610100565b80634ee2cd7e116100d35780634ee2cd7e1461015e5780635e6f60451461017e57806361500aa61461019357806370a082311461019b57610100565b80631efaa442146101055780632e1a7d4d1461011a578063313ce5671461012d578063485cc9551461014b575b600080fd5b610118610113366004612200565b610253565b005b61011861012836600461224b565b6103c8565b6101356104fc565b60405161014291906128f0565b60405180910390f35b6101186101593660046121c8565b610501565b61017161016c366004612200565b610681565b60405161014291906128e7565b61018661093a565b60405161014291906122c8565b610186610965565b6101716101a9366004612190565b610990565b6101c16101bc366004612190565b610a3b565b60405161014291906128d0565b6101716101dc3660046121c8565b610a7d565b6101c16101ef3660046121c8565b610a91565b610118610202366004612200565b610af5565b610118610215366004612190565b610c31565b61011861022836600461224b565b610dd1565b61017161023b366004612190565b61109a565b61011861024e36600461227b565b6110ac565b60335460ff166102c457604080517f08c379a000000000000000000000000000000000000000000000000000000000815260206004820152601f60248201527f5265656e7472616e637947756172643a207265656e7472616e742063616c6c00604482015290519081900360640190fd5b603380547fffffffffffffffffffffffffffffffffffffffffffffffffffffffffffffff0016905560006102f661135c565b90506000821161033b576040517f08c379a000000000000000000000000000000000000000000000000000000000815260040161033290612406565b60405180910390fd5b600281015473ffffffffffffffffffffffffffffffffffffffff16331461038e576040517f08c379a0000000000000000000000000000000000000000000000000000000008152600401610332906127b9565b6103988383611380565b5050603380547fffffffffffffffffffffffffffffffffffffffffffffffffffffffffffffff0016600117905550565b60335460ff1661043957604080517f08c379a000000000000000000000000000000000000000000000000000000000815260206004820152601f60248201527f5265656e7472616e637947756172643a207265656e7472616e742063616c6c00604482015290519081900360640190fd5b603380547fffffffffffffffffffffffffffffffffffffffffffffffffffffffffffffff0016905580610498576040517f08c379a0000000000000000000000000000000000000000000000000000000008152600401610332906125b1565b60006104a261135c565b60018101549091506104cd90339073ffffffffffffffffffffffffffffffffffffffff168480611449565b5050603380547fffffffffffffffffffffffffffffffffffffffffffffffffffffffffffffff00166001179055565b601290565b600054610100900460ff168061051a575061051a611665565b80610528575060005460ff16155b61057d576040517f08c379a000000000000000000000000000000000000000000000000000000000815260040180806020018281038252602e815260200180612921602e913960400191505060405180910390fd5b600054610100900460ff161580156105e357600080547fffffffffffffffffffffffffffffffffffffffffffffffffffffffffffffff007fffffffffffffffffffffffffffffffffffffffffffffffffffffffffffff00ff909116610100171660011790555b6105eb61166b565b60006105f561135c565b60018101805473ffffffffffffffffffffffffffffffffffffffff8088167fffffffffffffffffffffffff000000000000000000000000000000000000000092831617909255600290920180549186169190921617905550801561067c57600080547fffffffffffffffffffffffffffffffffffffffffffffffffffffffffffff00ff1690555b505050565b60004382106106bc576040517f08c379a00000000000000000000000000000000000000000000000000000000081526004016103329061251d565b60006106c66117a9565b73ffffffffffffffffffffffffffffffffffffffff8516600090815260018201602052604090205490915063ffffffff168061070757600092505050610934565b73ffffffffffffffffffffffffffffffffffffffff851660009081526020838152604080832063ffffffff7fffffffffffffffffffffffffffffffffffffffffffffffffffffffffffffffff8601811685529252909120541684106107ca5773ffffffffffffffffffffffffffffffffffffffff85166000908152602092835260408082207fffffffffffffffffffffffffffffffffffffffffffffffffffffffffffffffff9390930163ffffffff168252919092529020600101549050610934565b73ffffffffffffffffffffffffffffffffffffffff851660009081526020838152604080832083805290915290205463ffffffff1684101561081157600092505050610934565b60007fffffffffffffffffffffffffffffffffffffffffffffffffffffffffffffffff82015b8163ffffffff168163ffffffff1611156108f457600282820363ffffffff1604810361086161215f565b5073ffffffffffffffffffffffffffffffffffffffff881660009081526020868152604080832063ffffffff8086168552908352928190208151808301909252805490931680825260019093015491810191909152908814156108cf57602001519550610934945050505050565b805163ffffffff168811156108e6578193506108ed565b6001820392505b5050610837565b5073ffffffffffffffffffffffffffffffffffffffff861660009081526020938452604080822063ffffffff909316825291909352909120600101549150505b92915050565b60008061094561135c565b6002015473ffffffffffffffffffffffffffffffffffffffff1691505090565b60008061097061135c565b6001015473ffffffffffffffffffffffffffffffffffffffff1691505090565b60008061099b6117a9565b73ffffffffffffffffffffffffffffffffffffffff8416600090815260018201602052604090205490915063ffffffff16806109d8576000610a33565b73ffffffffffffffffffffffffffffffffffffffff841660009081526020838152604080832063ffffffff7fffffffffffffffffffffffffffffffffffffffffffffffffffffffffffffffff86011684529091529020600101545b949350505050565b610a43612176565b6000610a4d61135c565b6001810154909150610a7690849073ffffffffffffffffffffffffffffffffffffffff16610a91565b9392505050565b6000610a898383610a91565b519392505050565b610a99612176565b6000610aa36117cd565b73ffffffffffffffffffffffffffffffffffffffff8086166000908152602092835260408082209287168252918352819020815180830190925280548252600101549181019190915291505092915050565b60335460ff16610b6657604080517f08c379a000000000000000000000000000000000000000000000000000000000815260206004820152601f60248201527f5265656e7472616e637947756172643a207265656e7472616e742063616c6c00604482015290519081900360640190fd5b603380547fffffffffffffffffffffffffffffffffffffffffffffffffffffffffffffff001690556000610b9861135c565b905060008211610bd4576040517f08c379a0000000000000000000000000000000000000000000000000000000008152600401610332906125e8565b600281015473ffffffffffffffffffffffffffffffffffffffff163314610c27576040517f08c379a0000000000000000000000000000000000000000000000000000000008152600401610332906126a2565b61039883836117f1565b8073ffffffffffffffffffffffffffffffffffffffff16633e47158c6040518163ffffffff1660e01b815260040160206040518083038186803b158015610c7757600080fd5b505afa158015610c8b573d6000803e3d6000fd5b505050506040513d601f19601f82011682018060405250810190610caf91906121ac565b73ffffffffffffffffffffffffffffffffffffffff163373ffffffffffffffffffffffffffffffffffffffff1614610d13576040517f08c379a000000000000000000000000000000000000000000000000000000000815260040161033290612463565b8073ffffffffffffffffffffffffffffffffffffffff166394d8fbd06040518163ffffffff1660e01b8152600401602060405180830381600087803b158015610d5b57600080fd5b505af1158015610d6f573d6000803e3d6000fd5b505050506040513d601f19601f82011682018060405250810190610d93919061222b565b1515600114610dce576040517f08c379a0000000000000000000000000000000000000000000000000000000008152600401610332906126ff565b50565b60335460ff16610e4257604080517f08c379a000000000000000000000000000000000000000000000000000000000815260206004820152601f60248201527f5265656e7472616e637947756172643a207265656e7472616e742063616c6c00604482015290519081900360640190fd5b603380547fffffffffffffffffffffffffffffffffffffffffffffffffffffffffffffff001690556000610e7461135c565b905060008211610eb0576040517f08c379a0000000000000000000000000000000000000000000000000000000008152600401610332906123cf565b60018101546040517f70a08231000000000000000000000000000000000000000000000000000000008152839173ffffffffffffffffffffffffffffffffffffffff16906370a0823190610f089033906004016122c8565b60206040518083038186803b158015610f2057600080fd5b505afa158015610f34573d6000803e3d6000fd5b505050506040513d601f19601f82011682018060405250810190610f589190612263565b1015610f90576040517f08c379a00000000000000000000000000000000000000000000000000000000081526004016103329061257a565b60018101546040517fdd62ed3e000000000000000000000000000000000000000000000000000000008152839173ffffffffffffffffffffffffffffffffffffffff169063dd62ed3e90610fea90339030906004016122e9565b60206040518083038186803b15801561100257600080fd5b505afa158015611016573d6000803e3d6000fd5b505050506040513d601f19601f8201168201806040525081019061103a9190612263565b1015611072576040517f08c379a000000000000000000000000000000000000000000000000000000000815260040161033290612816565b60018101546104cd90339073ffffffffffffffffffffffffffffffffffffffff1684806118a4565b60006110a582610a3b565b5192915050565b60335460ff1661111d57604080517f08c379a000000000000000000000000000000000000000000000000000000000815260206004820152601f60248201527f5265656e7472616e637947756172643a207265656e7472616e742063616c6c00604482015290519081900360640190fd5b603380547fffffffffffffffffffffffffffffffffffffffffffffffffffffffffffffff001690558461117c576040517f08c379a000000000000000000000000000000000000000000000000000000000815260040161033290612645565b600061118661135c565b60018101546040517f70a08231000000000000000000000000000000000000000000000000000000008152919250879173ffffffffffffffffffffffffffffffffffffffff909116906370a08231906111e39033906004016122c8565b60206040518083038186803b1580156111fb57600080fd5b505afa15801561120f573d6000803e3d6000fd5b505050506040513d601f19601f820116820180604052508101906112339190612263565b101561126b576040517f08c379a0000000000000000000000000000000000000000000000000000000008152600401610332906124c0565b60018101546040517fd505accf00000000000000000000000000000000000000000000000000000000815273ffffffffffffffffffffffffffffffffffffffff9091169063d505accf906112cf90339030908b908b908b908b908b90600401612310565b600060405180830381600087803b1580156112e957600080fd5b505af11580156112fd573d6000803e3d6000fd5b50505060018201546113299150339073ffffffffffffffffffffffffffffffffffffffff1688806118a4565b5050603380547fffffffffffffffffffffffffffffffffffffffffffffffffffffffffffffff0016600117905550505050565b7f6d6a6fc321e0562f469846e9b1d74d90faeed9d71336854ad7fe2be150ff9f2090565b600061138a6117a9565b73ffffffffffffffffffffffffffffffffffffffff8416600090815260018201602052604081205491925063ffffffff90911690816113ca576000611425565b73ffffffffffffffffffffffffffffffffffffffff851660009081526020848152604080832063ffffffff7fffffffffffffffffffffffffffffffffffffffffffffffffffffffffffffffff87011684529091529020600101545b9050600061143382866119cf565b905061144186848484611a11565b505050505050565b60006114536117cd565b73ffffffffffffffffffffffffffffffffffffffff808716600090815260208381526040808320938916835292905220549091508311156114c0576040517f08c379a00000000000000000000000000000000000000000000000000000000081526004016103329061275c565b73ffffffffffffffffffffffffffffffffffffffff8086166000908152602083815260408083209388168352929052206001015482111561152d576040517f08c379a000000000000000000000000000000000000000000000000000000000815260040161033290612873565b73ffffffffffffffffffffffffffffffffffffffff8086166000908152602083815260408083209388168352929052205461156890846119cf565b73ffffffffffffffffffffffffffffffffffffffff868116600090815260208481526040808320938916835292905220908155600101546115a990836119cf565b73ffffffffffffffffffffffffffffffffffffffff808716600090815260208481526040808320938916808452939091529020600101919091556115ee908685611bff565b828473ffffffffffffffffffffffffffffffffffffffff168673ffffffffffffffffffffffffffffffffffffffff167f91fb9d98b786c57d74c099ccd2beca1739e9f6a81fb49001ca465c4b7591bbe28560405161164c91906128e7565b60405180910390a461165e8583611380565b5050505050565b303b1590565b600054610100900460ff16806116845750611684611665565b80611692575060005460ff16155b6116e7576040517f08c379a000000000000000000000000000000000000000000000000000000000815260040180806020018281038252602e815260200180612921602e913960400191505060405180910390fd5b600054610100900460ff1615801561174d57600080547fffffffffffffffffffffffffffffffffffffffffffffffffffffffffffffff007fffffffffffffffffffffffffffffffffffffffffffffffffffffffffffff00ff909116610100171660011790555b603380547fffffffffffffffffffffffffffffffffffffffffffffffffffffffffffffff001660011790558015610dce57600080547fffffffffffffffffffffffffffffffffffffffffffffffffffffffffffff00ff16905550565b7f97ada73c2617b57999fe0c39e0cd251038e142d18fa592f9135b3c4884c92cf190565b7fb436861a9ea50c2256cd6ef2eb5e3092874d3eddb554844f2d197b6df51da09890565b60006117fb6117a9565b73ffffffffffffffffffffffffffffffffffffffff8416600090815260018201602052604081205491925063ffffffff909116908161183b576000611896565b73ffffffffffffffffffffffffffffffffffffffff851660009081526020848152604080832063ffffffff7fffffffffffffffffffffffffffffffffffffffffffffffffffffffffffffffff87011684529091529020600101545b905060006114338286611c8c565b6118c673ffffffffffffffffffffffffffffffffffffffff8416853085611d00565b60006118d06117cd565b73ffffffffffffffffffffffffffffffffffffffff8087166000908152602083815260408083209389168352929052205490915061190e9084611c8c565b73ffffffffffffffffffffffffffffffffffffffff8681166000908152602084815260408083209389168352929052209081556001015461194f9083611c8c565b73ffffffffffffffffffffffffffffffffffffffff808716600081815260208581526040808320948a1680845294909152908190206001019390935591518592907f6c86f3fd5118b3aa8bb4f389a617046de0a3d3d477de1a1673d227f802f616dc906119bd9087906128e7565b60405180910390a461165e85836117f1565b6000610a7683836040518060400160405280601f81526020017f536166654d6174683a207375627472616374696f6e20756e646572666c6f7700815250611d9b565b6000611a354360405180606001604052806032815260200161297960329139611e4c565b90506000611a416117a9565b905060008563ffffffff16118015611ab3575073ffffffffffffffffffffffffffffffffffffffff861660009081526020828152604080832063ffffffff7fffffffffffffffffffffffffffffffffffffffffffffffffffffffffffffffff8a01811685529252909120548382169116145b15611b195773ffffffffffffffffffffffffffffffffffffffff861660009081526020828152604080832063ffffffff7fffffffffffffffffffffffffffffffffffffffffffffffffffffffffffffffff8a011684529091529020600101839055611bb2565b60408051808201825263ffffffff8085168252602080830187815273ffffffffffffffffffffffffffffffffffffffff8b1660008181528784528681208c861682528452868120955186549086167fffffffffffffffffffffffffffffffffffffffffffffffffffffffff0000000091821617875592516001968701559081528487019092529390208054928901909116919092161790555b82848773ffffffffffffffffffffffffffffffffffffffff167f53ed7954de66613e30dd29b46ab783aa594e6309d021d8854c76bb3325d03aa360405160405180910390a4505050505050565b6040805173ffffffffffffffffffffffffffffffffffffffff8416602482015260448082018490528251808303909101815260649091019091526020810180517bffffffffffffffffffffffffffffffffffffffffffffffffffffffff167fa9059cbb0000000000000000000000000000000000000000000000000000000017905261067c908490611e96565b600082820183811015610a7657604080517f08c379a000000000000000000000000000000000000000000000000000000000815260206004820152601b60248201527f536166654d6174683a206164646974696f6e206f766572666c6f770000000000604482015290519081900360640190fd5b6040805173ffffffffffffffffffffffffffffffffffffffff80861660248301528416604482015260648082018490528251808303909101815260849091019091526020810180517bffffffffffffffffffffffffffffffffffffffffffffffffffffffff167f23b872dd00000000000000000000000000000000000000000000000000000000179052611d95908590611e96565b50505050565b60008184841115611e44576040517f08c379a00000000000000000000000000000000000000000000000000000000081526004018080602001828103825283818151815260200191508051906020019080838360005b83811015611e09578181015183820152602001611df1565b50505050905090810190601f168015611e365780820380516001836020036101000a031916815260200191505b509250505060405180910390fd5b505050900390565b6000816401000000008410611e8e576040517f08c379a0000000000000000000000000000000000000000000000000000000008152600401610332919061235e565b509192915050565b6060611ef8826040518060400160405280602081526020017f5361666545524332303a206c6f772d6c6576656c2063616c6c206661696c65648152508573ffffffffffffffffffffffffffffffffffffffff16611f6e9092919063ffffffff16565b80519091501561067c57808060200190516020811015611f1757600080fd5b505161067c576040517f08c379a000000000000000000000000000000000000000000000000000000000815260040180806020018281038252602a81526020018061294f602a913960400191505060405180910390fd5b6060610a33848460008585611f82856120d9565b611fed57604080517f08c379a000000000000000000000000000000000000000000000000000000000815260206004820152601d60248201527f416464726573733a2063616c6c20746f206e6f6e2d636f6e7472616374000000604482015290519081900360640190fd5b600060608673ffffffffffffffffffffffffffffffffffffffff1685876040518082805190602001908083835b6020831061205757805182527fffffffffffffffffffffffffffffffffffffffffffffffffffffffffffffffe0909201916020918201910161201a565b6001836020036101000a03801982511681845116808217855250505050505090500191505060006040518083038185875af1925050503d80600081146120b9576040519150601f19603f3d011682016040523d82523d6000602084013e6120be565b606091505b50915091506120ce8282866120df565b979650505050505050565b3b151590565b606083156120ee575081610a76565b8251156120fe5782518084602001fd5b6040517f08c379a0000000000000000000000000000000000000000000000000000000008152602060048201818152845160248401528451859391928392604401919085019080838360008315611e09578181015183820152602001611df1565b604080518082019091526000808252602082015290565b604051806040016040528060008152602001600081525090565b6000602082840312156121a1578081fd5b8135610a76816128fe565b6000602082840312156121bd578081fd5b8151610a76816128fe565b600080604083850312156121da578081fd5b82356121e5816128fe565b915060208301356121f5816128fe565b809150509250929050565b60008060408385031215612212578182fd5b823561221d816128fe565b946020939093013593505050565b60006020828403121561223c578081fd5b81518015158114610a76578182fd5b60006020828403121561225c578081fd5b5035919050565b600060208284031215612274578081fd5b5051919050565b600080600080600060a08688031215612292578081fd5b8535945060208601359350604086013560ff811681146122b0578182fd5b94979396509394606081013594506080013592915050565b73ffffffffffffffffffffffffffffffffffffffff91909116815260200190565b73ffffffffffffffffffffffffffffffffffffffff92831681529116602082015260400190565b73ffffffffffffffffffffffffffffffffffffffff97881681529590961660208601526040850193909352606084019190915260ff16608083015260a082015260c081019190915260e00190565b6000602080835283518082850152825b8181101561238a5785810183015185820160400152820161236e565b8181111561239b5783604083870101525b50601f017fffffffffffffffffffffffffffffffffffffffffffffffffffffffffffffffe016929092016040019392505050565b60208082526019908201527f56503a3a7374616b653a2063616e6e6f74207374616b65203000000000000000604082015260600190565b6020808252602f908201527f56503a3a72656d6f76655650666f7256543a2063616e6e6f742072656d6f766560408201527f203020766f74696e6720706f7765720000000000000000000000000000000000606082015260800190565b60208082526039908201527f507269736d3a3a6265636f6d653a206f6e6c792070726f78792061646d696e2060408201527f63616e206368616e676520696d706c656d656e746174696f6e00000000000000606082015260800190565b60208082526026908201527f56503a3a7374616b65576974685065726d69743a206e6f7420656e6f7567682060408201527f746f6b656e730000000000000000000000000000000000000000000000000000606082015260800190565b60208082526023908201527f56503a3a62616c616e63654f6641743a206e6f74207965742064657465726d6960408201527f6e65640000000000000000000000000000000000000000000000000000000000606082015260800190565b6020808252601c908201527f56503a3a7374616b653a206e6f7420656e6f75676820746f6b656e7300000000604082015260600190565b6020808252601f908201527f56503a3a77697468647261773a2063616e6e6f74207769746864726177203000604082015260600190565b60208082526029908201527f56503a3a6164645650666f7256543a2063616e6e6f7420616464203020766f7460408201527f696e6720706f7765720000000000000000000000000000000000000000000000606082015260800190565b60208082526023908201527f56503a3a7374616b65576974685065726d69743a2063616e6e6f74207374616b60408201527f6520300000000000000000000000000000000000000000000000000000000000606082015260800190565b60208082526025908201527f56503a3a6164645650666f7256543a206f6e6c792076657374696e6720636f6e60408201527f7472616374000000000000000000000000000000000000000000000000000000606082015260800190565b60208082526024908201527f507269736d3a3a6265636f6d653a206368616e6765206e6f7420617574686f7260408201527f697a656400000000000000000000000000000000000000000000000000000000606082015260800190565b60208082526027908201527f56503a3a5f77697468647261773a206e6f7420656e6f75676820746f6b656e7360408201527f207374616b656400000000000000000000000000000000000000000000000000606082015260800190565b60208082526028908201527f56503a3a72656d6f76655650666f7256543a206f6e6c792076657374696e672060408201527f636f6e7472616374000000000000000000000000000000000000000000000000606082015260800190565b6020808252602d908201527f56503a3a7374616b653a206d75737420617070726f766520746f6b656e73206260408201527f65666f7265207374616b696e6700000000000000000000000000000000000000606082015260800190565b60208082526026908201527f56503a3a5f77697468647261773a206e6f7420656e6f75676820766f74696e6760408201527f20706f7765720000000000000000000000000000000000000000000000000000606082015260800190565b815181526020918201519181019190915260400190565b90815260200190565b60ff91909116815260200190565b73ffffffffffffffffffffffffffffffffffffffff81168114610dce57600080fdfe436f6e747261637420696e7374616e63652068617320616c7265616479206265656e20696e697469616c697a65645361666545524332303a204552433230206f7065726174696f6e20646964206e6f74207375636365656456503a3a5f7772697465436865636b706f696e743a20626c6f636b206e756d62657220657863656564732033322062697473a26469706673582212205103675c03fd5259997b6aefb426b39dcb90e81adb5e946a158fd72ea9f88bce64736f6c63430007040033",
  "devdoc": {
    "details": "Implementation contract for voting power prism proxy Calls should not be made directly to this contract, instead make calls to the VotingPowerPrism proxy contract The exception to this is the `become` function specified in PrismProxyImplementation  This function is called once and is used by this contract to accept its role as the implementation for the prism proxy",
    "kind": "dev",
    "methods": {
      "addVotingPowerForVestingTokens(address,uint256)": {
        "params": {
          "account": "The recipient of voting power",
          "amount": "The amount of voting power to add"
        }
      },
      "archToken()": {
        "returns": {
          "_0": "Address of ARCH token"
        }
      },
      "balanceOf(address)": {
        "params": {
          "account": "The address to get votes balance"
        },
        "returns": {
          "_0": "The number of current votes for `account`"
        }
      },
      "balanceOfAt(address,uint256)": {
        "details": "Block number must be a finalized block or else this function will revert to prevent misinformation.",
        "params": {
          "account": "The address of the account to check",
          "blockNumber": "The block number to get the vote balance at"
        },
        "returns": {
          "_0": "The number of votes the account had as of the given block"
        }
      },
      "become(address)": {
        "params": {
          "prism": "Prism Proxy contract"
        }
      },
      "decimals()": {
        "returns": {
          "_0": "decimals"
        }
      },
      "getARCHAmountStaked(address)": {
        "params": {
          "staker": "The user with staked ARCH"
        },
        "returns": {
          "_0": "total ARCH amount staked"
        }
      },
      "getARCHStake(address)": {
        "params": {
          "staker": "The user with staked ARCH"
        },
        "returns": {
          "_0": "total ARCH staked"
        }
      },
      "getAmountStaked(address,address)": {
        "params": {
          "stakedToken": "The staked token",
          "staker": "The user with staked tokens"
        },
        "returns": {
          "_0": "total amount staked"
        }
      },
      "getStake(address,address)": {
        "params": {
          "stakedToken": "The staked token",
          "staker": "The user with staked tokens"
        },
        "returns": {
          "_0": "total staked"
        }
      },
      "initialize(address,address)": {
        "details": "Should be called via VotingPowerPrism before calling anything else",
        "params": {
          "_archToken": "address of ARCH token",
          "_vestingContract": "address of Vesting contract"
        }
      },
      "removeVotingPowerForClaimedTokens(address,uint256)": {
        "params": {
          "account": "The account with voting power",
          "amount": "The amount of voting power to remove"
        }
      },
      "stake(uint256)": {
        "params": {
          "amount": "The amount to stake"
        }
      },
      "stakeWithPermit(uint256,uint256,uint8,bytes32,bytes32)": {
        "params": {
          "amount": "The amount to stake",
          "deadline": "The time at which to expire the signature",
          "r": "Half of the ECDSA signature pair",
          "s": "Half of the ECDSA signature pair",
          "v": "The recovery byte of the signature"
        }
      },
      "vestingContract()": {
        "returns": {
          "_0": "Address of vesting contract"
        }
      },
      "withdraw(uint256)": {
        "params": {
          "amount": "The amount to withdraw"
        }
      }
    },
    "title": "VotingPower",
    "version": 1
  },
  "userdoc": {
    "events": {
      "Staked(address,address,uint256,uint256)": {
        "notice": "An event that's emitted when a user's staked balance increases"
      },
      "VotingPowerChanged(address,uint256,uint256)": {
        "notice": "An event that's emitted when an account's vote balance changes"
      },
      "Withdrawn(address,address,uint256,uint256)": {
        "notice": "An event that's emitted when a user's staked balance decreases"
      }
    },
    "kind": "user",
    "methods": {
      "addVotingPowerForVestingTokens(address,uint256)": {
        "notice": "Count vesting ARCH tokens toward voting power for `account`"
      },
      "archToken()": {
        "notice": "Address of ARCH token"
      },
      "balanceOf(address)": {
        "notice": "Gets the current votes balance for `account`"
      },
      "balanceOfAt(address,uint256)": {
        "notice": "Determine the prior number of votes for an account as of a block number"
      },
      "become(address)": {
        "notice": "Accept invitation to be implementation contract for proxy"
      },
      "decimals()": {
        "notice": "Decimals used for voting power"
      },
      "getARCHAmountStaked(address)": {
        "notice": "Get total amount of ARCH tokens staked in contract by `staker`"
      },
      "getARCHStake(address)": {
        "notice": "Get staked amount and voting power from ARCH tokens staked in contract by `staker`"
      },
      "getAmountStaked(address,address)": {
        "notice": "Get total amount of tokens staked in contract by `staker`"
      },
      "getStake(address,address)": {
        "notice": "Get total staked amount and voting power from `stakedToken` staked in contract by `staker`"
      },
      "initialize(address,address)": {
        "notice": "Initialize VotingPower contract"
      },
      "removeVotingPowerForClaimedTokens(address,uint256)": {
        "notice": "Remove claimed vesting ARCH tokens from voting power for `account`"
      },
      "stake(uint256)": {
        "notice": "Stake ARCH tokens to unlock voting power for `msg.sender`"
      },
      "stakeWithPermit(uint256,uint256,uint8,bytes32,bytes32)": {
        "notice": "Stake ARCH tokens using offchain approvals to unlock voting power"
      },
      "vestingContract()": {
        "notice": "Address of vesting contract"
      },
      "withdraw(uint256)": {
        "notice": "Withdraw staked ARCH tokens, removing voting power for `msg.sender`"
      }
    },
    "version": 1
  },
  "storageLayout": {
    "storage": [
      {
        "astId": 6538,
        "contract": "contracts/VotingPower.sol:VotingPower",
        "label": "initialized",
        "offset": 0,
        "slot": "0",
        "type": "t_bool"
      },
      {
        "astId": 6541,
        "contract": "contracts/VotingPower.sol:VotingPower",
        "label": "initializing",
        "offset": 1,
        "slot": "0",
        "type": "t_bool"
      },
      {
        "astId": 6606,
        "contract": "contracts/VotingPower.sol:VotingPower",
        "label": "______gap",
        "offset": 0,
        "slot": "1",
        "type": "t_array(t_uint256)50_storage"
      },
      {
        "astId": 7071,
        "contract": "contracts/VotingPower.sol:VotingPower",
        "label": "_notEntered",
        "offset": 0,
        "slot": "51",
        "type": "t_bool"
      },
      {
        "astId": 7112,
        "contract": "contracts/VotingPower.sol:VotingPower",
        "label": "__gap",
        "offset": 0,
        "slot": "52",
        "type": "t_array(t_uint256)49_storage"
      }
    ],
    "types": {
      "t_array(t_uint256)49_storage": {
        "base": "t_uint256",
        "encoding": "inplace",
        "label": "uint256[49]",
        "numberOfBytes": "1568"
      },
      "t_array(t_uint256)50_storage": {
        "base": "t_uint256",
        "encoding": "inplace",
        "label": "uint256[50]",
        "numberOfBytes": "1600"
      },
      "t_bool": {
        "encoding": "inplace",
        "label": "bool",
        "numberOfBytes": "1"
      },
      "t_uint256": {
        "encoding": "inplace",
        "label": "uint256",
        "numberOfBytes": "32"
      }
    }
  }
}